{
  "contractName": "MyContract",
  "abi": [
    {
      "anonymous": false,
      "inputs": [
        {
          "indexed": true,
          "internalType": "uint256",
          "name": "id",
          "type": "uint256"
        },
        {
          "indexed": false,
          "internalType": "string",
          "name": "titulo",
          "type": "string"
        },
        {
          "indexed": false,
          "internalType": "string",
          "name": "descripcion",
          "type": "string"
        },
        {
          "indexed": false,
          "internalType": "address",
          "name": "ownerAddress",
          "type": "address"
        },
        {
          "indexed": false,
          "internalType": "uint256",
          "name": "precio",
          "type": "uint256"
        },
        {
          "indexed": false,
          "internalType": "string",
          "name": "fechaInicio",
          "type": "string"
        },
        {
          "indexed": false,
          "internalType": "string",
          "name": "fechaFin",
          "type": "string"
        }
      ],
      "name": "ContratoCreado",
      "type": "event"
    },
    {
      "anonymous": false,
      "inputs": [
        {
          "indexed": true,
          "internalType": "uint256",
          "name": "id",
          "type": "uint256"
        },
        {
          "indexed": false,
          "internalType": "address",
          "name": "firmante",
          "type": "address"
        }
      ],
      "name": "ContratoFirmado",
      "type": "event"
    },
    {
      "anonymous": false,
      "inputs": [
        {
          "indexed": true,
          "internalType": "uint256",
          "name": "id",
          "type": "uint256"
        },
        {
          "indexed": false,
          "internalType": "string",
          "name": "nuevoTitulo",
          "type": "string"
        },
        {
          "indexed": false,
          "internalType": "string",
          "name": "nuevaDescripcion",
          "type": "string"
        },
        {
          "indexed": false,
          "internalType": "uint256",
          "name": "nuevoPrecio",
          "type": "uint256"
        },
        {
          "indexed": false,
          "internalType": "string",
          "name": "nuevaFechaInicio",
          "type": "string"
        },
        {
          "indexed": false,
          "internalType": "string",
          "name": "nuevaFechaFin",
          "type": "string"
        }
      ],
      "name": "ContratoModificado",
      "type": "event"
    },
    {
      "anonymous": false,
      "inputs": [
        {
          "indexed": true,
          "internalType": "uint256",
          "name": "id",
          "type": "uint256"
        }
      ],
      "name": "FirmaRechazada",
      "type": "event"
    },
    {
      "anonymous": false,
      "inputs": [
        {
          "indexed": true,
          "internalType": "uint256",
          "name": "id",
          "type": "uint256"
        },
        {
          "indexed": false,
          "internalType": "address",
          "name": "firmante",
          "type": "address"
        }
      ],
      "name": "FirmaSolicitada",
      "type": "event"
    },
    {
      "inputs": [
        {
          "internalType": "uint256",
          "name": "",
          "type": "uint256"
        }
      ],
      "name": "contractIndexById",
      "outputs": [
        {
          "internalType": "uint256",
          "name": "",
          "type": "uint256"
        }
      ],
      "stateMutability": "view",
      "type": "function",
      "constant": true
    },
    {
      "inputs": [
        {
          "internalType": "uint256",
          "name": "",
          "type": "uint256"
        }
      ],
      "name": "contractOwner",
      "outputs": [
        {
          "internalType": "address",
          "name": "",
          "type": "address"
        }
      ],
      "stateMutability": "view",
      "type": "function",
      "constant": true
    },
    {
      "inputs": [
        {
          "internalType": "address",
          "name": "",
          "type": "address"
        },
        {
          "internalType": "uint256",
          "name": "",
          "type": "uint256"
        }
      ],
      "name": "contractsSignedByAccount",
      "outputs": [
        {
          "internalType": "uint256",
          "name": "",
          "type": "uint256"
        }
      ],
      "stateMutability": "view",
      "type": "function",
      "constant": true
    },
    {
      "inputs": [
        {
          "internalType": "uint256",
          "name": "",
          "type": "uint256"
        }
      ],
      "name": "contratos",
      "outputs": [
        {
          "internalType": "uint256",
          "name": "id",
          "type": "uint256"
        },
        {
          "internalType": "string",
          "name": "titulo",
          "type": "string"
        },
        {
          "internalType": "string",
          "name": "descripcion",
          "type": "string"
        },
        {
          "internalType": "enum MyContract.EstadoContrato",
          "name": "estado",
          "type": "uint8"
        },
        {
          "internalType": "uint256",
          "name": "precio",
          "type": "uint256"
        },
        {
          "internalType": "string",
          "name": "fechaInicio",
          "type": "string"
        },
        {
          "internalType": "string",
          "name": "fechaFin",
          "type": "string"
        },
        {
          "internalType": "address",
          "name": "solicitante",
          "type": "address"
        },
        {
          "internalType": "address",
          "name": "firmante",
          "type": "address"
        }
      ],
      "stateMutability": "view",
      "type": "function",
      "constant": true
    },
    {
      "inputs": [
        {
          "internalType": "string",
          "name": "_titulo",
          "type": "string"
        },
        {
          "internalType": "string",
          "name": "_descripcion",
          "type": "string"
        },
        {
          "internalType": "uint256",
          "name": "_precio",
          "type": "uint256"
        },
        {
          "internalType": "string",
          "name": "_fechaInicio",
          "type": "string"
        },
        {
          "internalType": "string",
          "name": "_fechaFin",
          "type": "string"
        }
      ],
      "name": "crearContrato",
      "outputs": [],
      "stateMutability": "nonpayable",
      "type": "function"
    },
    {
      "inputs": [
        {
          "internalType": "uint256",
          "name": "_id",
          "type": "uint256"
        },
        {
          "internalType": "address",
          "name": "firmante",
          "type": "address"
        }
      ],
      "name": "firmarContrato",
      "outputs": [],
      "stateMutability": "payable",
      "type": "function",
      "payable": true
    },
    {
      "inputs": [
        {
          "internalType": "uint256",
          "name": "_id",
          "type": "uint256"
        },
        {
          "internalType": "string",
          "name": "_nuevoTitulo",
          "type": "string"
        },
        {
          "internalType": "string",
          "name": "_nuevaDescripcion",
          "type": "string"
        },
        {
          "internalType": "uint256",
          "name": "_nuevoPrecio",
          "type": "uint256"
        },
        {
          "internalType": "string",
          "name": "_nuevaFechaInicio",
          "type": "string"
        },
        {
          "internalType": "string",
          "name": "_nuevaFechaFin",
          "type": "string"
        }
      ],
      "name": "modificarContrato",
      "outputs": [],
      "stateMutability": "nonpayable",
      "type": "function"
    },
    {
      "inputs": [
        {
          "internalType": "uint256",
          "name": "_id",
          "type": "uint256"
        }
      ],
      "name": "solicitarFirma",
      "outputs": [],
      "stateMutability": "nonpayable",
      "type": "function"
    },
    {
      "inputs": [
        {
          "internalType": "uint256",
          "name": "_id",
          "type": "uint256"
        }
      ],
      "name": "rechazarFirma",
      "outputs": [],
      "stateMutability": "nonpayable",
      "type": "function"
    },
    {
      "inputs": [
        {
          "internalType": "uint256",
          "name": "_id",
          "type": "uint256"
        }
      ],
      "name": "getContrato",
      "outputs": [
        {
          "components": [
            {
              "internalType": "uint256",
              "name": "id",
              "type": "uint256"
            },
            {
              "internalType": "string",
              "name": "titulo",
              "type": "string"
            },
            {
              "internalType": "string",
              "name": "descripcion",
              "type": "string"
            },
            {
              "internalType": "enum MyContract.EstadoContrato",
              "name": "estado",
              "type": "uint8"
            },
            {
              "internalType": "uint256",
              "name": "precio",
              "type": "uint256"
            },
            {
              "internalType": "string",
              "name": "fechaInicio",
              "type": "string"
            },
            {
              "internalType": "string",
              "name": "fechaFin",
              "type": "string"
            },
            {
              "internalType": "address",
              "name": "solicitante",
              "type": "address"
            },
            {
              "internalType": "address",
              "name": "firmante",
              "type": "address"
            }
          ],
          "internalType": "struct MyContract.Contrato",
          "name": "",
          "type": "tuple"
        }
      ],
      "stateMutability": "view",
      "type": "function",
      "constant": true
    },
    {
      "inputs": [
        {
          "internalType": "uint256",
          "name": "_id",
          "type": "uint256"
        }
      ],
      "name": "obtenerFirmante",
      "outputs": [
        {
          "internalType": "address",
          "name": "",
          "type": "address"
        }
      ],
      "stateMutability": "view",
      "type": "function",
      "constant": true
    },
    {
      "inputs": [
        {
          "internalType": "address",
          "name": "_cuenta",
          "type": "address"
        }
      ],
      "name": "getContratosFirmados",
      "outputs": [
        {
          "components": [
            {
              "internalType": "uint256",
              "name": "id",
              "type": "uint256"
            },
            {
              "internalType": "string",
              "name": "titulo",
              "type": "string"
            },
            {
              "internalType": "string",
              "name": "descripcion",
              "type": "string"
            },
            {
              "internalType": "enum MyContract.EstadoContrato",
              "name": "estado",
              "type": "uint8"
            },
            {
              "internalType": "uint256",
              "name": "precio",
              "type": "uint256"
            },
            {
              "internalType": "string",
              "name": "fechaInicio",
              "type": "string"
            },
            {
              "internalType": "string",
              "name": "fechaFin",
              "type": "string"
            },
            {
              "internalType": "address",
              "name": "solicitante",
              "type": "address"
            },
            {
              "internalType": "address",
              "name": "firmante",
              "type": "address"
            }
          ],
          "internalType": "struct MyContract.Contrato[]",
          "name": "",
          "type": "tuple[]"
        }
      ],
      "stateMutability": "view",
      "type": "function",
      "constant": true
    },
    {
      "inputs": [
        {
          "internalType": "address",
          "name": "owner",
          "type": "address"
        }
      ],
      "name": "getAllContractsToSign",
      "outputs": [
        {
          "components": [
            {
              "internalType": "uint256",
              "name": "id",
              "type": "uint256"
            },
            {
              "internalType": "string",
              "name": "titulo",
              "type": "string"
            },
            {
              "internalType": "string",
              "name": "descripcion",
              "type": "string"
            },
            {
              "internalType": "enum MyContract.EstadoContrato",
              "name": "estado",
              "type": "uint8"
            },
            {
              "internalType": "uint256",
              "name": "precio",
              "type": "uint256"
            },
            {
              "internalType": "string",
              "name": "fechaInicio",
              "type": "string"
            },
            {
              "internalType": "string",
              "name": "fechaFin",
              "type": "string"
            },
            {
              "internalType": "address",
              "name": "solicitante",
              "type": "address"
            },
            {
              "internalType": "address",
              "name": "firmante",
              "type": "address"
            }
          ],
          "internalType": "struct MyContract.Contrato[]",
          "name": "",
          "type": "tuple[]"
        }
      ],
      "stateMutability": "view",
      "type": "function",
      "constant": true
    },
    {
      "inputs": [
        {
          "internalType": "address",
          "name": "owner",
          "type": "address"
        }
      ],
      "name": "getAllContractsByOwner",
      "outputs": [
        {
          "components": [
            {
              "internalType": "uint256",
              "name": "id",
              "type": "uint256"
            },
            {
              "internalType": "string",
              "name": "titulo",
              "type": "string"
            },
            {
              "internalType": "string",
              "name": "descripcion",
              "type": "string"
            },
            {
              "internalType": "enum MyContract.EstadoContrato",
              "name": "estado",
              "type": "uint8"
            },
            {
              "internalType": "uint256",
              "name": "precio",
              "type": "uint256"
            },
            {
              "internalType": "string",
              "name": "fechaInicio",
              "type": "string"
            },
            {
              "internalType": "string",
              "name": "fechaFin",
              "type": "string"
            },
            {
              "internalType": "address",
              "name": "solicitante",
              "type": "address"
            },
            {
              "internalType": "address",
              "name": "firmante",
              "type": "address"
            }
          ],
          "internalType": "struct MyContract.Contrato[]",
          "name": "",
          "type": "tuple[]"
        }
      ],
      "stateMutability": "view",
      "type": "function",
      "constant": true
    },
    {
      "inputs": [],
      "name": "getAllContracts",
      "outputs": [
        {
          "components": [
            {
              "internalType": "uint256",
              "name": "id",
              "type": "uint256"
            },
            {
              "internalType": "string",
              "name": "titulo",
              "type": "string"
            },
            {
              "internalType": "string",
              "name": "descripcion",
              "type": "string"
            },
            {
              "internalType": "enum MyContract.EstadoContrato",
              "name": "estado",
              "type": "uint8"
            },
            {
              "internalType": "uint256",
              "name": "precio",
              "type": "uint256"
            },
            {
              "internalType": "string",
              "name": "fechaInicio",
              "type": "string"
            },
            {
              "internalType": "string",
              "name": "fechaFin",
              "type": "string"
            },
            {
              "internalType": "address",
              "name": "solicitante",
              "type": "address"
            },
            {
              "internalType": "address",
              "name": "firmante",
              "type": "address"
            }
          ],
          "internalType": "struct MyContract.Contrato[]",
          "name": "",
          "type": "tuple[]"
        }
      ],
      "stateMutability": "view",
      "type": "function",
      "constant": true
    },
    {
      "inputs": [
        {
          "internalType": "uint256",
          "name": "_id",
          "type": "uint256"
        }
      ],
      "name": "getOwner",
      "outputs": [
        {
          "internalType": "address",
          "name": "",
          "type": "address"
        }
      ],
      "stateMutability": "view",
      "type": "function",
      "constant": true
    },
    {
      "inputs": [
        {
          "internalType": "address",
          "name": "owner",
          "type": "address"
        }
      ],
      "name": "existenContratosParaOwner",
      "outputs": [
        {
          "internalType": "bool",
          "name": "",
          "type": "bool"
        }
      ],
      "stateMutability": "view",
      "type": "function",
      "constant": true
    }
  ],
  "bytecode": "0x608060405234801561001057600080fd5b506140fa806100206000396000f3fe6080604052600436106100fe5760003560e01c80636797559b11610095578063a8d0948011610064578063a8d094801461038c578063ad571e92146103c9578063c41a360a146103f2578063c835d3101461042f578063dd577e6114610458576100fe565b80636797559b146102ac57806372d13918146102e95780637986247f14610326578063a78acd3d14610363576100fe565b80633b38dd19116100d15780633b38dd19146101b85780633b6d2660146101f55780633e2e7d771461023257806343fd9efe1461026f576100fe565b806314a6faf11461010357806318d3ce961461011f5780631b3409f01461014a5780633a00a1d114610173575b600080fd5b61011d60048036038101906101189190613253565b610495565b005b34801561012b57600080fd5b506101346106ca565b60405161014191906137e6565b60405180910390f35b34801561015657600080fd5b50610171600480360381019061016c919061322a565b610bfa565b005b34801561017f57600080fd5b5061019a6004803603810190610195919061322a565b610d0d565b6040516101af99989796959493929190613a6c565b60405180910390f35b3480156101c457600080fd5b506101df60048036038101906101da9190613117565b610fd8565b6040516101ec9190613a51565b60405180910390f35b34801561020157600080fd5b5061021c600480360381019061021791906130ee565b611009565b60405161022991906137e6565b60405180910390f35b34801561023e57600080fd5b50610259600480360381019061025491906130ee565b6115ad565b60405161026691906137e6565b60405180910390f35b34801561027b57600080fd5b506102966004803603810190610291919061322a565b611b83565b6040516102a39190613a2f565b60405180910390f35b3480156102b857600080fd5b506102d360048036038101906102ce91906130ee565b611fbc565b6040516102e09190613808565b60405180910390f35b3480156102f557600080fd5b50610310600480360381019061030b91906130ee565b612007565b60405161031d91906137e6565b60405180910390f35b34801561033257600080fd5b5061034d6004803603810190610348919061322a565b6125f3565b60405161035a91906137cb565b60405180910390f35b34801561036f57600080fd5b5061038a6004803603810190610385919061322a565b6126ae565b005b34801561039857600080fd5b506103b360048036038101906103ae919061322a565b6127cb565b6040516103c091906137cb565b60405180910390f35b3480156103d557600080fd5b506103f060048036038101906103eb919061328f565b6127fe565b005b3480156103fe57600080fd5b506104196004803603810190610414919061322a565b6129e7565b60405161042691906137cb565b60405180910390f35b34801561043b57600080fd5b5061045660048036038101906104519190613153565b612a6a565b005b34801561046457600080fd5b5061047f600480360381019061047a919061322a565b612e4e565b60405161048c9190613a51565b60405180910390f35b60008083815481106104d0577f4e487b7100000000000000000000000000000000000000000000000000000000600052603260045260246000fd5b9060005260206000209060090201905080600401543414610526576040517f08c379a000000000000000000000000000000000000000000000000000000000815260040161051d906139ef565b60405180910390fd5b60028160030160006101000a81548160ff02191690836003811115610574577f4e487b7100000000000000000000000000000000000000000000000000000000600052602160045260246000fd5b02179055508060070160009054906101000a900473ffffffffffffffffffffffffffffffffffffffff168160080160006101000a81548173ffffffffffffffffffffffffffffffffffffffff021916908373ffffffffffffffffffffffffffffffffffffffff160217905550600360008373ffffffffffffffffffffffffffffffffffffffff1673ffffffffffffffffffffffffffffffffffffffff1681526020019081526020016000208390806001815401808255809150506001900390600052602060002001600090919091909150558173ffffffffffffffffffffffffffffffffffffffff166108fc349081150290604051600060405180830381858888f1935050505015801561068c573d6000803e3d6000fd5b50827f58992384990b1f1b4faa681ce4ee24f4c75a2775de1200609b3b51aff815c3c6336040516106bd91906137cb565b60405180910390a2505050565b60606000808054905011610713576040517f08c379a000000000000000000000000000000000000000000000000000000000815260040161070a906139cf565b60405180910390fd5b6000808054905067ffffffffffffffff811115610759577f4e487b7100000000000000000000000000000000000000000000000000000000600052604160045260246000fd5b60405190808252806020026020018201604052801561079257816020015b61077f612f09565b8152602001906001900390816107775790505b5090506000805b600080549050811015610bee57600081815481106107e0577f4e487b7100000000000000000000000000000000000000000000000000000000600052603260045260246000fd5b9060005260206000209060090201604051806101200160405290816000820154815260200160018201805461081490613cb4565b80601f016020809104026020016040519081016040528092919081815260200182805461084090613cb4565b801561088d5780601f106108625761010080835404028352916020019161088d565b820191906000526020600020905b81548152906001019060200180831161087057829003601f168201915b505050505081526020016002820180546108a690613cb4565b80601f01602080910402602001604051908101604052809291908181526020018280546108d290613cb4565b801561091f5780601f106108f45761010080835404028352916020019161091f565b820191906000526020600020905b81548152906001019060200180831161090257829003601f168201915b505050505081526020016003820160009054906101000a900460ff166003811115610973577f4e487b7100000000000000000000000000000000000000000000000000000000600052602160045260246000fd5b60038111156109ab577f4e487b7100000000000000000000000000000000000000000000000000000000600052602160045260246000fd5b8152602001600482015481526020016005820180546109c990613cb4565b80601f01602080910402602001604051908101604052809291908181526020018280546109f590613cb4565b8015610a425780601f10610a1757610100808354040283529160200191610a42565b820191906000526020600020905b815481529060010190602001808311610a2557829003601f168201915b50505050508152602001600682018054610a5b90613cb4565b80601f0160208091040260200160405190810160405280929190818152602001828054610a8790613cb4565b8015610ad45780601f10610aa957610100808354040283529160200191610ad4565b820191906000526020600020905b815481529060010190602001808311610ab757829003601f168201915b505050505081526020016007820160009054906101000a900473ffffffffffffffffffffffffffffffffffffffff1673ffffffffffffffffffffffffffffffffffffffff1673ffffffffffffffffffffffffffffffffffffffff1681526020016008820160009054906101000a900473ffffffffffffffffffffffffffffffffffffffff1673ffffffffffffffffffffffffffffffffffffffff1673ffffffffffffffffffffffffffffffffffffffff1681525050838381518110610bc2577f4e487b7100000000000000000000000000000000000000000000000000000000600052603260045260246000fd5b60200260200101819052508180610bd890613d17565b9250508080610be690613d17565b915050610799565b50808252819250505090565b6000808281548110610c35577f4e487b7100000000000000000000000000000000000000000000000000000000600052603260045260246000fd5b9060005260206000209060090201905060008160030160006101000a81548160ff02191690836003811115610c93577f4e487b7100000000000000000000000000000000000000000000000000000000600052602160045260246000fd5b021790555060008160070160006101000a81548173ffffffffffffffffffffffffffffffffffffffff021916908373ffffffffffffffffffffffffffffffffffffffff160217905550817f8e09d52b8e7c0e2ed986e3139a42e5926914df111ca33672fca1e8338f8edf3260405160405180910390a25050565b60008181548110610d1d57600080fd5b9060005260206000209060090201600091509050806000015490806001018054610d4690613cb4565b80601f0160208091040260200160405190810160405280929190818152602001828054610d7290613cb4565b8015610dbf5780601f10610d9457610100808354040283529160200191610dbf565b820191906000526020600020905b815481529060010190602001808311610da257829003601f168201915b505050505090806002018054610dd490613cb4565b80601f0160208091040260200160405190810160405280929190818152602001828054610e0090613cb4565b8015610e4d5780601f10610e2257610100808354040283529160200191610e4d565b820191906000526020600020905b815481529060010190602001808311610e3057829003601f168201915b5050505050908060030160009054906101000a900460ff1690806004015490806005018054610e7b90613cb4565b80601f0160208091040260200160405190810160405280929190818152602001828054610ea790613cb4565b8015610ef45780601f10610ec957610100808354040283529160200191610ef4565b820191906000526020600020905b815481529060010190602001808311610ed757829003601f168201915b505050505090806006018054610f0990613cb4565b80601f0160208091040260200160405190810160405280929190818152602001828054610f3590613cb4565b8015610f825780601f10610f5757610100808354040283529160200191610f82565b820191906000526020600020905b815481529060010190602001808311610f6557829003601f168201915b5050505050908060070160009054906101000a900473ffffffffffffffffffffffffffffffffffffffff16908060080160009054906101000a900473ffffffffffffffffffffffffffffffffffffffff16905089565b60036020528160005260406000208181548110610ff457600080fd5b90600052602060002001600091509150505481565b60606000600360008473ffffffffffffffffffffffffffffffffffffffff1673ffffffffffffffffffffffffffffffffffffffff16815260200190815260200160002080548060200260200160405190810160405280929190818152602001828054801561109657602002820191906000526020600020905b815481526020019060010190808311611082575b505050505090506000815167ffffffffffffffff8111156110e0577f4e487b7100000000000000000000000000000000000000000000000000000000600052604160045260246000fd5b60405190808252806020026020018201604052801561111957816020015b611106612f09565b8152602001906001900390816110fe5790505b50905060005b82518110156115a2576000838281518110611163577f4e487b7100000000000000000000000000000000000000000000000000000000600052603260045260246000fd5b6020026020010151815481106111a2577f4e487b7100000000000000000000000000000000000000000000000000000000600052603260045260246000fd5b906000526020600020906009020160405180610120016040529081600082015481526020016001820180546111d690613cb4565b80601f016020809104026020016040519081016040528092919081815260200182805461120290613cb4565b801561124f5780601f106112245761010080835404028352916020019161124f565b820191906000526020600020905b81548152906001019060200180831161123257829003601f168201915b5050505050815260200160028201805461126890613cb4565b80601f016020809104026020016040519081016040528092919081815260200182805461129490613cb4565b80156112e15780601f106112b6576101008083540402835291602001916112e1565b820191906000526020600020905b8154815290600101906020018083116112c457829003601f168201915b505050505081526020016003820160009054906101000a900460ff166003811115611335577f4e487b7100000000000000000000000000000000000000000000000000000000600052602160045260246000fd5b600381111561136d577f4e487b7100000000000000000000000000000000000000000000000000000000600052602160045260246000fd5b81526020016004820154815260200160058201805461138b90613cb4565b80601f01602080910402602001604051908101604052809291908181526020018280546113b790613cb4565b80156114045780601f106113d957610100808354040283529160200191611404565b820191906000526020600020905b8154815290600101906020018083116113e757829003601f168201915b5050505050815260200160068201805461141d90613cb4565b80601f016020809104026020016040519081016040528092919081815260200182805461144990613cb4565b80156114965780601f1061146b57610100808354040283529160200191611496565b820191906000526020600020905b81548152906001019060200180831161147957829003601f168201915b505050505081526020016007820160009054906101000a900473ffffffffffffffffffffffffffffffffffffffff1673ffffffffffffffffffffffffffffffffffffffff1673ffffffffffffffffffffffffffffffffffffffff1681526020016008820160009054906101000a900473ffffffffffffffffffffffffffffffffffffffff1673ffffffffffffffffffffffffffffffffffffffff1673ffffffffffffffffffffffffffffffffffffffff1681525050828281518110611584577f4e487b7100000000000000000000000000000000000000000000000000000000600052603260045260246000fd5b6020026020010181905250808061159a90613d17565b91505061111f565b508092505050919050565b60606115b882611fbc565b6115f7576040517f08c379a00000000000000000000000000000000000000000000000000000000081526004016115ee9061394f565b60405180910390fd5b6000600260008473ffffffffffffffffffffffffffffffffffffffff1673ffffffffffffffffffffffffffffffffffffffff1681526020019081526020016000205467ffffffffffffffff811115611678577f4e487b7100000000000000000000000000000000000000000000000000000000600052604160045260246000fd5b6040519080825280602002602001820160405280156116b157816020015b61169e612f09565b8152602001906001900390816116965790505b5090506000805b600080549050811015611b75578473ffffffffffffffffffffffffffffffffffffffff166001600083815260200190815260200160002060009054906101000a900473ffffffffffffffffffffffffffffffffffffffff1673ffffffffffffffffffffffffffffffffffffffff161415611b625760008181548110611766577f4e487b7100000000000000000000000000000000000000000000000000000000600052603260045260246000fd5b9060005260206000209060090201604051806101200160405290816000820154815260200160018201805461179a90613cb4565b80601f01602080910402602001604051908101604052809291908181526020018280546117c690613cb4565b80156118135780601f106117e857610100808354040283529160200191611813565b820191906000526020600020905b8154815290600101906020018083116117f657829003601f168201915b5050505050815260200160028201805461182c90613cb4565b80601f016020809104026020016040519081016040528092919081815260200182805461185890613cb4565b80156118a55780601f1061187a576101008083540402835291602001916118a5565b820191906000526020600020905b81548152906001019060200180831161188857829003601f168201915b505050505081526020016003820160009054906101000a900460ff1660038111156118f9577f4e487b7100000000000000000000000000000000000000000000000000000000600052602160045260246000fd5b6003811115611931577f4e487b7100000000000000000000000000000000000000000000000000000000600052602160045260246000fd5b81526020016004820154815260200160058201805461194f90613cb4565b80601f016020809104026020016040519081016040528092919081815260200182805461197b90613cb4565b80156119c85780601f1061199d576101008083540402835291602001916119c8565b820191906000526020600020905b8154815290600101906020018083116119ab57829003601f168201915b505050505081526020016006820180546119e190613cb4565b80601f0160208091040260200160405190810160405280929190818152602001828054611a0d90613cb4565b8015611a5a5780601f10611a2f57610100808354040283529160200191611a5a565b820191906000526020600020905b815481529060010190602001808311611a3d57829003601f168201915b505050505081526020016007820160009054906101000a900473ffffffffffffffffffffffffffffffffffffffff1673ffffffffffffffffffffffffffffffffffffffff1673ffffffffffffffffffffffffffffffffffffffff1681526020016008820160009054906101000a900473ffffffffffffffffffffffffffffffffffffffff1673ffffffffffffffffffffffffffffffffffffffff1673ffffffffffffffffffffffffffffffffffffffff1681525050838381518110611b48577f4e487b7100000000000000000000000000000000000000000000000000000000600052603260045260246000fd5b60200260200101819052508180611b5e90613d17565b9250505b8080611b6d90613d17565b9150506116b8565b508082528192505050919050565b611b8b612f09565b6000805490508210611bd2576040517f08c379a0000000000000000000000000000000000000000000000000000000008152600401611bc99061396f565b60405180910390fd5b60008281548110611c0c577f4e487b7100000000000000000000000000000000000000000000000000000000600052603260045260246000fd5b90600052602060002090600902016040518061012001604052908160008201548152602001600182018054611c4090613cb4565b80601f0160208091040260200160405190810160405280929190818152602001828054611c6c90613cb4565b8015611cb95780601f10611c8e57610100808354040283529160200191611cb9565b820191906000526020600020905b815481529060010190602001808311611c9c57829003601f168201915b50505050508152602001600282018054611cd290613cb4565b80601f0160208091040260200160405190810160405280929190818152602001828054611cfe90613cb4565b8015611d4b5780601f10611d2057610100808354040283529160200191611d4b565b820191906000526020600020905b815481529060010190602001808311611d2e57829003601f168201915b505050505081526020016003820160009054906101000a900460ff166003811115611d9f577f4e487b7100000000000000000000000000000000000000000000000000000000600052602160045260246000fd5b6003811115611dd7577f4e487b7100000000000000000000000000000000000000000000000000000000600052602160045260246000fd5b815260200160048201548152602001600582018054611df590613cb4565b80601f0160208091040260200160405190810160405280929190818152602001828054611e2190613cb4565b8015611e6e5780601f10611e4357610100808354040283529160200191611e6e565b820191906000526020600020905b815481529060010190602001808311611e5157829003601f168201915b50505050508152602001600682018054611e8790613cb4565b80601f0160208091040260200160405190810160405280929190818152602001828054611eb390613cb4565b8015611f005780601f10611ed557610100808354040283529160200191611f00565b820191906000526020600020905b815481529060010190602001808311611ee357829003601f168201915b505050505081526020016007820160009054906101000a900473ffffffffffffffffffffffffffffffffffffffff1673ffffffffffffffffffffffffffffffffffffffff1673ffffffffffffffffffffffffffffffffffffffff1681526020016008820160009054906101000a900473ffffffffffffffffffffffffffffffffffffffff1673ffffffffffffffffffffffffffffffffffffffff1673ffffffffffffffffffffffffffffffffffffffff16815250509050919050565b600080600260008473ffffffffffffffffffffffffffffffffffffffff1673ffffffffffffffffffffffffffffffffffffffff16815260200190815260200160002054119050919050565b60606000151561201683612e66565b151514612058576040517f08c379a000000000000000000000000000000000000000000000000000000000815260040161204f9061392f565b60405180910390fd5b6000600260008473ffffffffffffffffffffffffffffffffffffffff1673ffffffffffffffffffffffffffffffffffffffff168152602001908152602001600020546000805490506120aa9190613bd1565b67ffffffffffffffff8111156120e9577f4e487b7100000000000000000000000000000000000000000000000000000000600052604160045260246000fd5b60405190808252806020026020018201604052801561212257816020015b61210f612f09565b8152602001906001900390816121075790505b5090506000805b6000805490508110156125e5578473ffffffffffffffffffffffffffffffffffffffff166001600083815260200190815260200160002060009054906101000a900473ffffffffffffffffffffffffffffffffffffffff1673ffffffffffffffffffffffffffffffffffffffff16146125d257600081815481106121d6577f4e487b7100000000000000000000000000000000000000000000000000000000600052603260045260246000fd5b9060005260206000209060090201604051806101200160405290816000820154815260200160018201805461220a90613cb4565b80601f016020809104026020016040519081016040528092919081815260200182805461223690613cb4565b80156122835780601f1061225857610100808354040283529160200191612283565b820191906000526020600020905b81548152906001019060200180831161226657829003601f168201915b5050505050815260200160028201805461229c90613cb4565b80601f01602080910402602001604051908101604052809291908181526020018280546122c890613cb4565b80156123155780601f106122ea57610100808354040283529160200191612315565b820191906000526020600020905b8154815290600101906020018083116122f857829003601f168201915b505050505081526020016003820160009054906101000a900460ff166003811115612369577f4e487b7100000000000000000000000000000000000000000000000000000000600052602160045260246000fd5b60038111156123a1577f4e487b7100000000000000000000000000000000000000000000000000000000600052602160045260246000fd5b8152602001600482015481526020016005820180546123bf90613cb4565b80601f01602080910402602001604051908101604052809291908181526020018280546123eb90613cb4565b80156124385780601f1061240d57610100808354040283529160200191612438565b820191906000526020600020905b81548152906001019060200180831161241b57829003601f168201915b5050505050815260200160068201805461245190613cb4565b80601f016020809104026020016040519081016040528092919081815260200182805461247d90613cb4565b80156124ca5780601f1061249f576101008083540402835291602001916124ca565b820191906000526020600020905b8154815290600101906020018083116124ad57829003601f168201915b505050505081526020016007820160009054906101000a900473ffffffffffffffffffffffffffffffffffffffff1673ffffffffffffffffffffffffffffffffffffffff1673ffffffffffffffffffffffffffffffffffffffff1681526020016008820160009054906101000a900473ffffffffffffffffffffffffffffffffffffffff1673ffffffffffffffffffffffffffffffffffffffff1673ffffffffffffffffffffffffffffffffffffffff16815250508383815181106125b8577f4e487b7100000000000000000000000000000000000000000000000000000000600052603260045260246000fd5b602002602001018190525081806125ce90613d17565b9250505b80806125dd90613d17565b915050612129565b508082528192505050919050565b60008080549050821061263b576040517f08c379a000000000000000000000000000000000000000000000000000000000815260040161263290613a0f565b60405180910390fd5b60008281548110612675577f4e487b7100000000000000000000000000000000000000000000000000000000600052603260045260246000fd5b906000526020600020906009020160080160009054906101000a900473ffffffffffffffffffffffffffffffffffffffff169050919050565b60008082815481106126e9577f4e487b7100000000000000000000000000000000000000000000000000000000600052603260045260246000fd5b9060005260206000209060090201905060018160030160006101000a81548160ff02191690836003811115612747577f4e487b7100000000000000000000000000000000000000000000000000000000600052602160045260246000fd5b0217905550338160070160006101000a81548173ffffffffffffffffffffffffffffffffffffffff021916908373ffffffffffffffffffffffffffffffffffffffff160217905550817f58992384990b1f1b4faa681ce4ee24f4c75a2775de1200609b3b51aff815c3c6336040516127bf91906137cb565b60405180910390a25050565b60016020528060005260406000206000915054906101000a900473ffffffffffffffffffffffffffffffffffffffff1681565b6000805490508610612845576040517f08c379a000000000000000000000000000000000000000000000000000000000815260040161283c9061398f565b60405180910390fd5b3373ffffffffffffffffffffffffffffffffffffffff166001600088815260200190815260200160002060009054906101000a900473ffffffffffffffffffffffffffffffffffffffff1673ffffffffffffffffffffffffffffffffffffffff16146128e6576040517f08c379a00000000000000000000000000000000000000000000000000000000081526004016128dd9061390f565b60405180910390fd5b6000808781548110612921577f4e487b7100000000000000000000000000000000000000000000000000000000600052603260045260246000fd5b9060005260206000209060090201905085816001019080519060200190612949929190612fb9565b5084816002019080519060200190612962929190612fb9565b5083816004018190555082816005019080519060200190612984929190612fb9565b508181600601908051906020019061299d929190612fb9565b50867f9af09f85253c221a126ce8acd383431cfd7045a9fb5dc143c1bdd1f50ef9540a87878787876040516129d69594939291906138a0565b60405180910390a250505050505050565b600080805490508210612a2f576040517f08c379a0000000000000000000000000000000000000000000000000000000008152600401612a2690613a0f565b60405180910390fd5b6001600083815260200190815260200160002060009054906101000a900473ffffffffffffffffffffffffffffffffffffffff169050919050565b60008311612aad576040517f08c379a0000000000000000000000000000000000000000000000000000000008152600401612aa4906139af565b60405180910390fd5b600080805490509050600060405180610120016040528083815260200188815260200187815260200160006003811115612b10577f4e487b7100000000000000000000000000000000000000000000000000000000600052602160045260246000fd5b8152602001868152602001858152602001848152602001600073ffffffffffffffffffffffffffffffffffffffff168152602001600073ffffffffffffffffffffffffffffffffffffffff168152509080600181540180825580915050600190039060005260206000209060090201600090919091909150600082015181600001556020820151816001019080519060200190612bae929190612fb9565b506040820151816002019080519060200190612bcb929190612fb9565b5060608201518160030160006101000a81548160ff02191690836003811115612c1d577f4e487b7100000000000000000000000000000000000000000000000000000000600052602160045260246000fd5b02179055506080820151816004015560a0820151816005019080519060200190612c48929190612fb9565b5060c0820151816006019080519060200190612c65929190612fb9565b5060e08201518160070160006101000a81548173ffffffffffffffffffffffffffffffffffffffff021916908373ffffffffffffffffffffffffffffffffffffffff1602179055506101008201518160080160006101000a81548173ffffffffffffffffffffffffffffffffffffffff021916908373ffffffffffffffffffffffffffffffffffffffff1602179055505050336001600083815260200190815260200160002060006101000a81548173ffffffffffffffffffffffffffffffffffffffff021916908373ffffffffffffffffffffffffffffffffffffffff160217905550600260006001600084815260200190815260200160002060009054906101000a900473ffffffffffffffffffffffffffffffffffffffff1673ffffffffffffffffffffffffffffffffffffffff1673ffffffffffffffffffffffffffffffffffffffff1681526020019081526020016000206000815480929190612dcc90613d17565b9190505550807f64a616012de865904db92adea94e3eb0c7880c294e70613f08e6dc1753c5a65e87876001600086815260200190815260200160002060009054906101000a900473ffffffffffffffffffffffffffffffffffffffff16888888604051612e3e96959493929190613823565b60405180910390a2505050505050565b60046020528060005260406000206000915090505481565b600080600090505b600080549050811015612efe578273ffffffffffffffffffffffffffffffffffffffff166001600083815260200190815260200160002060009054906101000a900473ffffffffffffffffffffffffffffffffffffffff1673ffffffffffffffffffffffffffffffffffffffff1614612eeb576000915050612f04565b8080612ef690613d17565b915050612e6e565b50600190505b919050565b60405180610120016040528060008152602001606081526020016060815260200160006003811115612f64577f4e487b7100000000000000000000000000000000000000000000000000000000600052602160045260246000fd5b8152602001600081526020016060815260200160608152602001600073ffffffffffffffffffffffffffffffffffffffff168152602001600073ffffffffffffffffffffffffffffffffffffffff1681525090565b828054612fc590613cb4565b90600052602060002090601f016020900481019282612fe7576000855561302e565b82601f1061300057805160ff191683800117855561302e565b8280016001018555821561302e579182015b8281111561302d578251825591602001919060010190613012565b5b50905061303b919061303f565b5090565b5b80821115613058576000816000905550600101613040565b5090565b600061306f61306a84613b3a565b613b15565b90508281526020810184848401111561308757600080fd5b613092848285613c72565b509392505050565b6000813590506130a981614096565b92915050565b600082601f8301126130c057600080fd5b81356130d084826020860161305c565b91505092915050565b6000813590506130e8816140ad565b92915050565b60006020828403121561310057600080fd5b600061310e8482850161309a565b91505092915050565b6000806040838503121561312a57600080fd5b60006131388582860161309a565b9250506020613149858286016130d9565b9150509250929050565b600080600080600060a0868803121561316b57600080fd5b600086013567ffffffffffffffff81111561318557600080fd5b613191888289016130af565b955050602086013567ffffffffffffffff8111156131ae57600080fd5b6131ba888289016130af565b94505060406131cb888289016130d9565b935050606086013567ffffffffffffffff8111156131e857600080fd5b6131f4888289016130af565b925050608086013567ffffffffffffffff81111561321157600080fd5b61321d888289016130af565b9150509295509295909350565b60006020828403121561323c57600080fd5b600061324a848285016130d9565b91505092915050565b6000806040838503121561326657600080fd5b6000613274858286016130d9565b92505060206132858582860161309a565b9150509250929050565b60008060008060008060c087890312156132a857600080fd5b60006132b689828a016130d9565b965050602087013567ffffffffffffffff8111156132d357600080fd5b6132df89828a016130af565b955050604087013567ffffffffffffffff8111156132fc57600080fd5b61330889828a016130af565b945050606061331989828a016130d9565b935050608087013567ffffffffffffffff81111561333657600080fd5b61334289828a016130af565b92505060a087013567ffffffffffffffff81111561335f57600080fd5b61336b89828a016130af565b9150509295509295509295565b600061338483836135f9565b905092915050565b61339581613c05565b82525050565b6133a481613c05565b82525050565b60006133b582613b7b565b6133bf8185613b9e565b9350836020820285016133d185613b6b565b8060005b8581101561340d57848403895281516133ee8582613378565b94506133f983613b91565b925060208a019950506001810190506133d5565b50829750879550505050505092915050565b61342881613c17565b82525050565b61343781613c60565b82525050565b61344681613c60565b82525050565b600061345782613b86565b6134618185613baf565b9350613471818560208601613c81565b61347a81613e1c565b840191505092915050565b600061349082613b86565b61349a8185613bc0565b93506134aa818560208601613c81565b6134b381613e1c565b840191505092915050565b60006134cb602f83613bc0565b91506134d682613e2d565b604082019050919050565b60006134ee602883613bc0565b91506134f982613e7c565b604082019050919050565b6000613511602183613bc0565b915061351c82613ecb565b604082019050919050565b6000613534601983613bc0565b915061353f82613f1a565b602082019050919050565b6000613557601583613bc0565b915061356282613f43565b602082019050919050565b600061357a602483613bc0565b915061358582613f6c565b604082019050919050565b600061359d601883613bc0565b91506135a882613fbb565b602082019050919050565b60006135c0603783613bc0565b91506135cb82613fe4565b604082019050919050565b60006135e3602483613bc0565b91506135ee82614033565b604082019050919050565b60006101208301600083015161361260008601826137ad565b506020830151848203602086015261362a828261344c565b91505060408301518482036040860152613644828261344c565b9150506060830151613659606086018261342e565b50608083015161366c60808601826137ad565b5060a083015184820360a0860152613684828261344c565b91505060c083015184820360c086015261369e828261344c565b91505060e08301516136b360e086018261338c565b506101008301516136c861010086018261338c565b508091505092915050565b6000610120830160008301516136ec60008601826137ad565b5060208301518482036020860152613704828261344c565b9150506040830151848203604086015261371e828261344c565b9150506060830151613733606086018261342e565b50608083015161374660808601826137ad565b5060a083015184820360a086015261375e828261344c565b91505060c083015184820360c0860152613778828261344c565b91505060e083015161378d60e086018261338c565b506101008301516137a261010086018261338c565b508091505092915050565b6137b681613c56565b82525050565b6137c581613c56565b82525050565b60006020820190506137e0600083018461339b565b92915050565b6000602082019050818103600083015261380081846133aa565b905092915050565b600060208201905061381d600083018461341f565b92915050565b600060c082019050818103600083015261383d8189613485565b905081810360208301526138518188613485565b9050613860604083018761339b565b61386d60608301866137bc565b818103608083015261387f8185613485565b905081810360a08301526138938184613485565b9050979650505050505050565b600060a08201905081810360008301526138ba8188613485565b905081810360208301526138ce8187613485565b90506138dd60408301866137bc565b81810360608301526138ef8185613485565b905081810360808301526139038184613485565b90509695505050505050565b60006020820190508181036000830152613928816134be565b9050919050565b60006020820190508181036000830152613948816134e1565b9050919050565b6000602082019050818103600083015261396881613504565b9050919050565b6000602082019050818103600083015261398881613527565b9050919050565b600060208201905081810360008301526139a88161354a565b9050919050565b600060208201905081810360008301526139c88161356d565b9050919050565b600060208201905081810360008301526139e881613590565b9050919050565b60006020820190508181036000830152613a08816135b3565b9050919050565b60006020820190508181036000830152613a28816135d6565b9050919050565b60006020820190508181036000830152613a4981846136d3565b905092915050565b6000602082019050613a6660008301846137bc565b92915050565b600061012082019050613a82600083018c6137bc565b8181036020830152613a94818b613485565b90508181036040830152613aa8818a613485565b9050613ab7606083018961343d565b613ac460808301886137bc565b81810360a0830152613ad68187613485565b905081810360c0830152613aea8186613485565b9050613af960e083018561339b565b613b0761010083018461339b565b9a9950505050505050505050565b6000613b1f613b30565b9050613b2b8282613ce6565b919050565b6000604051905090565b600067ffffffffffffffff821115613b5557613b54613ded565b5b613b5e82613e1c565b9050602081019050919050565b6000819050602082019050919050565b600081519050919050565b600081519050919050565b6000602082019050919050565b600082825260208201905092915050565b600082825260208201905092915050565b600082825260208201905092915050565b6000613bdc82613c56565b9150613be783613c56565b925082821015613bfa57613bf9613d60565b5b828203905092915050565b6000613c1082613c36565b9050919050565b60008115159050919050565b6000819050613c3182614082565b919050565b600073ffffffffffffffffffffffffffffffffffffffff82169050919050565b6000819050919050565b6000613c6b82613c23565b9050919050565b82818337600083830152505050565b60005b83811015613c9f578082015181840152602081019050613c84565b83811115613cae576000848401525b50505050565b60006002820490506001821680613ccc57607f821691505b60208210811415613ce057613cdf613dbe565b5b50919050565b613cef82613e1c565b810181811067ffffffffffffffff82111715613d0e57613d0d613ded565b5b80604052505050565b6000613d2282613c56565b91507fffffffffffffffffffffffffffffffffffffffffffffffffffffffffffffffff821415613d5557613d54613d60565b5b600182019050919050565b7f4e487b7100000000000000000000000000000000000000000000000000000000600052601160045260246000fd5b7f4e487b7100000000000000000000000000000000000000000000000000000000600052602160045260246000fd5b7f4e487b7100000000000000000000000000000000000000000000000000000000600052602260045260246000fd5b7f4e487b7100000000000000000000000000000000000000000000000000000000600052604160045260246000fd5b6000601f19601f8301169050919050565b7f536f6c6f20656c2070726f706965746172696f207075656465206d6f6469666960008201527f63617220656c20636f6e747261746f0000000000000000000000000000000000602082015250565b7f456c2070726f706965746172696f207469656e6520746f646f73206c6f73206360008201527f6f6e747261746f73000000000000000000000000000000000000000000000000602082015250565b7f456c2070726f706965746172696f206e6f207469656e6520636f6e747261746f60008201527f7300000000000000000000000000000000000000000000000000000000000000602082015250565b7f4e6f20657869737465206e696e67756e20636f6e747261746f00000000000000600082015250565b7f456c20636f6e747261746f206e6f206578697374650000000000000000000000600082015250565b7f456c2070726563696f20657320696775616c206f20696e666572696f7220612060008201527f6365726f00000000000000000000000000000000000000000000000000000000602082015250565b7f41756e206e6f206578697374656e20636f6e747261746f730000000000000000600082015250565b7f456c206d6f6e746f20656e766961646f206e6f20636f696e6369646520636f6e60008201527f20656c2070726563696f2064656c20636f6e747261746f000000000000000000602082015250565b7f4e6f20657869737465206e696e67756e20636f6e747261746f20636f6e20657360008201527f6520494400000000000000000000000000000000000000000000000000000000602082015250565b6004811061409357614092613d8f565b5b50565b61409f81613c05565b81146140aa57600080fd5b50565b6140b681613c56565b81146140c157600080fd5b5056fea264697066735822122004bbe8077f89733b8a180f68aa4a803fd6e74101f69500347e64402c4840b4d264736f6c63430008020033",
  "immutableReferences": {},
  "source": "// SPDX-License-Identifier: MIT\r\npragma solidity ^0.8.2;\r\n\r\ncontract MyContract {\r\n    \r\n    struct Contrato {\r\n        uint id;\r\n        string titulo;\r\n        string descripcion;\r\n        EstadoContrato estado;\r\n        uint256 precio;\r\n        string fechaInicio;\r\n        string fechaFin;\r\n        address solicitante;\r\n        address firmante;\r\n    }\r\n\r\n    enum EstadoContrato {  Activo, Solicitado, Firmado, Expirado }\r\n    Contrato[] public contratos; \r\n    \r\n    mapping (uint => address) public contractOwner;\r\n    mapping (address => uint) private ownerCount;\r\n    mapping(address => uint256[]) public contractsSignedByAccount;\r\n    mapping(uint256 => uint256) public contractIndexById;\r\n\r\n    event ContratoCreado(uint indexed id, string titulo, string descripcion, address ownerAddress, uint256 precio, string fechaInicio, string fechaFin);\r\n    event ContratoModificado(uint indexed id, string nuevoTitulo, string nuevaDescripcion, uint256 nuevoPrecio, string nuevaFechaInicio, string nuevaFechaFin);\r\n    event ContratoFirmado(uint indexed id, address firmante);\r\n    event FirmaSolicitada(uint indexed id, address firmante);\r\n    event FirmaRechazada(uint indexed id);\r\n\r\n\r\n    //Crear, modificar y firmar contratos\r\n    function crearContrato(string memory _titulo, string memory _descripcion, uint256 _precio, string memory _fechaInicio, string memory _fechaFin) public {\r\n        require(_precio > 0, \"El precio es igual o inferior a cero\");\r\n        uint _id = contratos.length;\r\n        contratos.push(Contrato(_id, _titulo, _descripcion, EstadoContrato.Activo, _precio, _fechaInicio, _fechaFin, address(0),address(0)));\r\n        contractOwner[_id] = msg.sender;\r\n        ownerCount[contractOwner[_id]]++;\r\n        emit ContratoCreado(_id, _titulo, _descripcion, contractOwner[_id], _precio, _fechaInicio, _fechaFin);\r\n    }\r\n\r\n    function firmarContrato(uint _id, address firmante) public payable {\r\n        Contrato storage contrato = contratos[_id];\r\n        require(msg.value == contrato.precio, \"El monto enviado no coincide con el precio del contrato\");\r\n        contrato.estado = EstadoContrato.Firmado;\r\n        contrato.firmante = contrato.solicitante;\r\n        contractsSignedByAccount[firmante].push(_id);\r\n        payable(firmante).transfer(msg.value);\r\n        emit ContratoFirmado(_id, msg.sender);\r\n    }\r\n\r\n    function modificarContrato(uint _id, string memory _nuevoTitulo, string memory _nuevaDescripcion, uint256 _nuevoPrecio, string memory _nuevaFechaInicio, string memory _nuevaFechaFin) public {\r\n        require(_id < contratos.length, \"El contrato no existe\");\r\n        require(contractOwner[_id] == msg.sender, \"Solo el propietario puede modificar el contrato\");\r\n\r\n        Contrato storage contrato = contratos[_id];\r\n        contrato.titulo = _nuevoTitulo;\r\n        contrato.descripcion = _nuevaDescripcion;\r\n        contrato.precio = _nuevoPrecio;\r\n        contrato.fechaInicio = _nuevaFechaInicio;\r\n        contrato.fechaFin = _nuevaFechaFin;\r\n\r\n        emit ContratoModificado(_id, _nuevoTitulo, _nuevaDescripcion, _nuevoPrecio, _nuevaFechaInicio, _nuevaFechaFin);\r\n    }\r\n\r\n    function solicitarFirma(uint _id) public {\r\n        Contrato storage contrato = contratos[_id];\r\n        contrato.estado = EstadoContrato.Solicitado;\r\n        contrato.solicitante = msg.sender;\r\n        emit ContratoFirmado(_id, msg.sender);\r\n\r\n    }\r\n\r\n     function rechazarFirma(uint _id) public {\r\n        Contrato storage contrato = contratos[_id];\r\n        contrato.estado = EstadoContrato.Activo;\r\n        contrato.solicitante = address(0);\r\n        emit FirmaRechazada(_id);\r\n\r\n    }\r\n\r\n\r\n    /*************************************************************/\r\n\r\n    function getContrato(uint _id) public view returns (Contrato memory) {\r\n        require(_id < contratos.length, \"No existe ningun contrato\");\r\n        return contratos[_id];\r\n    }\r\n\r\n   \r\n    function obtenerFirmante(uint _id) public view returns (address) {\r\n        require(_id < contratos.length, \"No existe ningun contrato con ese ID\");\r\n        return contratos[_id].firmante;\r\n    }\r\n\r\n\r\n    function getContratosFirmados(address _cuenta) public view returns (Contrato[] memory) {\r\n        uint256[] memory ids = contractsSignedByAccount[_cuenta];\r\n        Contrato[] memory resultado = new Contrato[](ids.length);\r\n        \r\n        for (uint256 i = 0; i < ids.length; i++) {\r\n            resultado[i] = contratos[ids[i]];\r\n        }\r\n\r\n        return resultado;\r\n    }\r\n\r\n\r\n    function getAllContractsToSign (address owner) public view returns (Contrato[] memory){\r\n        require(todosLosContratosSonDelOwner(owner) == false, \"El propietario tiene todos los contratos\");\r\n        Contrato[] memory contratosAux = new Contrato[](contratos.length - ownerCount[owner]);\r\n        uint count = 0;\r\n        for (uint i=0; i < contratos.length; i++){\r\n            if (contractOwner[i] != owner) {\r\n                contratosAux[count] = contratos[i];\r\n                count++;\r\n            }\r\n        }\r\n\r\n        // Redimensiona el array  para eliminar los espacios no utilizados\r\n        assembly {\r\n            mstore(contratosAux, count)\r\n        }\r\n        return contratosAux;\r\n    }\r\n\r\n    \r\n    function getAllContractsByOwner (address owner) public view returns (Contrato[] memory){\r\n        require(existenContratosParaOwner(owner), \"El propietario no tiene contratos\");\r\n        Contrato[] memory contratosAux = new Contrato[](ownerCount[owner]);\r\n        uint count = 0;\r\n        for (uint i=0; i < contratos.length; i++){\r\n            if (contractOwner[i] == owner) {\r\n                contratosAux[count] = contratos[i];\r\n                count++;\r\n            }\r\n        }\r\n\r\n        // Redimensiona el array  para eliminar los espacios no utilizados\r\n        assembly {\r\n            mstore(contratosAux, count)\r\n        }\r\n        return contratosAux;\r\n    }\r\n\r\n    function getAllContracts () public view returns (Contrato[] memory){\r\n        require(contratos.length > 0, \"Aun no existen contratos\");\r\n        Contrato[] memory contratosAux = new Contrato[](contratos.length);\r\n        uint count = 0;\r\n        for (uint i=0; i < contratos.length; i++){\r\n            contratosAux[count] = contratos[i];\r\n            count++;\r\n        }\r\n\r\n        // Redimensiona el array  para eliminar los espacios no utilizados\r\n        assembly {\r\n            mstore(contratosAux, count)\r\n        }\r\n        return contratosAux;\r\n    }\r\n    \r\n    function getOwner(uint _id) public view returns (address) {\r\n        require(_id < contratos.length, \"No existe ningun contrato con ese ID\");\r\n        return contractOwner[_id];\r\n    }\r\n\r\n    function todosLosContratosSonDelOwner(address owner) internal view returns (bool) {\r\n        for (uint i = 0; i < contratos.length; i++) {\r\n            if (contractOwner[i] != owner) {\r\n                return false;\r\n            }\r\n        }\r\n        return true;\r\n    }\r\n\r\n    function existenContratosParaOwner(address owner) public view returns (bool) {\r\n        return ownerCount[owner] > 0;\r\n    }\r\n\r\n     \r\n\r\n\r\n}\r\n",
  "sourcePath": "C:\\Users\\super\\OneDrive - UVa (Estudiantes)\\Documentos\\TFG\\uva-contractme\\contracts\\MyContract.sol",
  "compiler": {
    "name": "solc",
    "version": "0.8.2+commit.661d1103.Emscripten.clang"
  },
  "schemaVersion": "3.4.16",
  "updatedAt": "2024-06-25T18:00:34.776Z",
  "networkType": "ethereum",
  "devdoc": {
    "kind": "dev",
    "methods": {},
    "version": 1
  },
  "userdoc": {
    "kind": "user",
    "methods": {},
    "version": 1
  }
}