{
  "contractName": "MyContract",
  "abi": [
    {
      "anonymous": false,
      "inputs": [
        {
          "indexed": true,
          "internalType": "uint256",
          "name": "id",
          "type": "uint256"
        },
        {
          "indexed": false,
          "internalType": "string",
          "name": "descripcion",
          "type": "string"
        },
        {
          "indexed": false,
          "internalType": "address",
          "name": "ownerAddress",
          "type": "address"
        },
        {
          "indexed": false,
          "internalType": "uint256",
          "name": "fecha",
          "type": "uint256"
        }
      ],
      "name": "ContratoCreado",
      "type": "event"
    },
    {
      "anonymous": false,
      "inputs": [
        {
          "indexed": true,
          "internalType": "uint256",
          "name": "id",
          "type": "uint256"
        },
        {
          "indexed": false,
          "internalType": "uint256",
          "name": "fecha",
          "type": "uint256"
        }
      ],
      "name": "ContratoFinalizado",
      "type": "event"
    },
    {
      "anonymous": false,
      "inputs": [
        {
          "indexed": true,
          "internalType": "uint256",
          "name": "id",
          "type": "uint256"
        },
        {
          "indexed": false,
          "internalType": "address",
          "name": "firmante",
          "type": "address"
        },
        {
          "indexed": false,
          "internalType": "uint256",
          "name": "fecha",
          "type": "uint256"
        }
      ],
      "name": "ContratoFirmado",
      "type": "event"
    },
    {
      "anonymous": false,
      "inputs": [
        {
          "indexed": true,
          "internalType": "uint256",
          "name": "id",
          "type": "uint256"
        },
        {
          "indexed": false,
          "internalType": "string",
          "name": "descripcion",
          "type": "string"
        },
        {
          "indexed": false,
          "internalType": "address",
          "name": "ownerAddress",
          "type": "address"
        },
        {
          "indexed": false,
          "internalType": "uint256",
          "name": "fecha",
          "type": "uint256"
        }
      ],
      "name": "ContratoModificado",
      "type": "event"
    },
    {
      "inputs": [
        {
          "internalType": "uint256",
          "name": "",
          "type": "uint256"
        }
      ],
      "name": "contractOwner",
      "outputs": [
        {
          "internalType": "address",
          "name": "",
          "type": "address"
        }
      ],
      "stateMutability": "view",
      "type": "function",
      "constant": true
    },
    {
      "inputs": [
        {
          "internalType": "uint256",
          "name": "",
          "type": "uint256"
        }
      ],
      "name": "contratos",
      "outputs": [
        {
          "internalType": "uint256",
          "name": "id",
          "type": "uint256"
        },
        {
          "internalType": "string",
          "name": "descripcion",
          "type": "string"
        },
        {
          "internalType": "enum MyContract.EstadoContrato",
          "name": "estado",
          "type": "uint8"
        }
      ],
      "stateMutability": "view",
      "type": "function",
      "constant": true
    },
    {
      "inputs": [
        {
          "internalType": "string",
          "name": "_descripcion",
          "type": "string"
        }
      ],
      "name": "crearContrato",
      "outputs": [],
      "stateMutability": "nonpayable",
      "type": "function"
    },
    {
      "inputs": [
        {
          "internalType": "uint256",
          "name": "_id",
          "type": "uint256"
        },
        {
          "internalType": "string",
          "name": "_nuevaDescripcion",
          "type": "string"
        }
      ],
      "name": "modificarContrato",
      "outputs": [],
      "stateMutability": "nonpayable",
      "type": "function"
    },
    {
      "inputs": [
        {
          "internalType": "uint256",
          "name": "_id",
          "type": "uint256"
        }
      ],
      "name": "firmarContrato",
      "outputs": [],
      "stateMutability": "nonpayable",
      "type": "function"
    },
    {
      "inputs": [
        {
          "internalType": "uint256",
          "name": "_id",
          "type": "uint256"
        }
      ],
      "name": "finalizarContrato",
      "outputs": [],
      "stateMutability": "nonpayable",
      "type": "function"
    }
  ],
  "bytecode": "0x608060405234801561001057600080fd5b506113b9806100206000396000f3fe608060405234801561001057600080fd5b50600436106100625760003560e01c806307823083146100675780631b7a8220146100835780633a00a1d11461009f578063a8d09480146100d1578063aa541dd014610101578063f4e628d61461011d575b600080fd5b610081600480360381019061007c9190610d1f565b610139565b005b61009d60048036038101906100989190610cf6565b610385565b005b6100b960048036038101906100b49190610cf6565b610673565b6040516100c893929190610fc5565b60405180910390f35b6100eb60048036038101906100e69190610cf6565b610742565b6040516100f89190610e88565b60405180910390f35b61011b60048036038101906101169190610cf6565b610775565b005b61013760048036038101906101329190610cb5565b6109f6565b005b3373ffffffffffffffffffffffffffffffffffffffff166001600084815260200190815260200160002060009054906101000a900473ffffffffffffffffffffffffffffffffffffffff1673ffffffffffffffffffffffffffffffffffffffff16146101da576040517f08c379a00000000000000000000000000000000000000000000000000000000081526004016101d190610f6a565b60405180910390fd5b60016003811115610214577f4e487b7100000000000000000000000000000000000000000000000000000000600052602160045260246000fd5b6000838154811061024e577f4e487b7100000000000000000000000000000000000000000000000000000000600052603260045260246000fd5b906000526020600020906003020160020160009054906101000a900460ff1660038111156102a5577f4e487b7100000000000000000000000000000000000000000000000000000000600052602160045260246000fd5b146102e5576040517f08c379a00000000000000000000000000000000000000000000000000000000081526004016102dc90610f0a565b60405180910390fd5b8060008381548110610320577f4e487b7100000000000000000000000000000000000000000000000000000000600052603260045260246000fd5b90600052602060002090600302016001019080519060200190610344929190610b95565b50817f7886cdbca9bdd42d46c3504fe26cfb31ab0216eded1978e549ca8e5c4020d7b582334260405161037993929190610ecc565b60405180910390a25050565b600160038111156103bf577f4e487b7100000000000000000000000000000000000000000000000000000000600052602160045260246000fd5b600082815481106103f9577f4e487b7100000000000000000000000000000000000000000000000000000000600052603260045260246000fd5b906000526020600020906003020160020160009054906101000a900460ff166003811115610450577f4e487b7100000000000000000000000000000000000000000000000000000000600052602160045260246000fd5b14610490576040517f08c379a000000000000000000000000000000000000000000000000000000000815260040161048790610f0a565b60405180910390fd5b600260038111156104ca577f4e487b7100000000000000000000000000000000000000000000000000000000600052602160045260246000fd5b60008281548110610504577f4e487b7100000000000000000000000000000000000000000000000000000000600052603260045260246000fd5b906000526020600020906003020160020160009054906101000a900460ff16600381111561055b577f4e487b7100000000000000000000000000000000000000000000000000000000600052602160045260246000fd5b141561059c576040517f08c379a000000000000000000000000000000000000000000000000000000000815260040161059390610f4a565b60405180910390fd5b6002600082815481106105d8577f4e487b7100000000000000000000000000000000000000000000000000000000600052603260045260246000fd5b906000526020600020906003020160020160006101000a81548160ff02191690836003811115610631577f4e487b7100000000000000000000000000000000000000000000000000000000600052602160045260246000fd5b0217905550807f7082c0320ee5cf1525be126a8e1b9445c8f5ba2efd414a542521976d6cc35ac93342604051610668929190610ea3565b60405180910390a250565b6000818154811061068357600080fd5b90600052602060002090600302016000915090508060000154908060010180546106ac90611118565b80601f01602080910402602001604051908101604052809291908181526020018280546106d890611118565b80156107255780601f106106fa57610100808354040283529160200191610725565b820191906000526020600020905b81548152906001019060200180831161070857829003601f168201915b5050505050908060020160009054906101000a900460ff16905083565b60016020528060005260406000206000915054906101000a900473ffffffffffffffffffffffffffffffffffffffff1681565b3373ffffffffffffffffffffffffffffffffffffffff166001600083815260200190815260200160002060009054906101000a900473ffffffffffffffffffffffffffffffffffffffff1673ffffffffffffffffffffffffffffffffffffffff1614610816576040517f08c379a000000000000000000000000000000000000000000000000000000000815260040161080d90610f8a565b60405180910390fd5b60026003811115610850577f4e487b7100000000000000000000000000000000000000000000000000000000600052602160045260246000fd5b6000828154811061088a577f4e487b7100000000000000000000000000000000000000000000000000000000600052603260045260246000fd5b906000526020600020906003020160020160009054906101000a900460ff1660038111156108e1577f4e487b7100000000000000000000000000000000000000000000000000000000600052602160045260246000fd5b14610921576040517f08c379a000000000000000000000000000000000000000000000000000000000815260040161091890610f2a565b60405180910390fd5b60036000828154811061095d577f4e487b7100000000000000000000000000000000000000000000000000000000600052603260045260246000fd5b906000526020600020906003020160020160006101000a81548160ff021916908360038111156109b6577f4e487b7100000000000000000000000000000000000000000000000000000000600052602160045260246000fd5b0217905550807f80e8c9bfd3e0f04375fd2b6f5b271b7df263e7e4d78edfd8321e59ff1ddba0ea426040516109eb9190610faa565b60405180910390a250565b6000808054905090506000604051806060016040528083815260200184815260200160016003811115610a52577f4e487b7100000000000000000000000000000000000000000000000000000000600052602160045260246000fd5b8152509080600181540180825580915050600190039060005260206000209060030201600090919091909150600082015181600001556020820151816001019080519060200190610aa4929190610b95565b5060408201518160020160006101000a81548160ff02191690836003811115610af6577f4e487b7100000000000000000000000000000000000000000000000000000000600052602160045260246000fd5b02179055505050336001600083815260200190815260200160002060006101000a81548173ffffffffffffffffffffffffffffffffffffffff021916908373ffffffffffffffffffffffffffffffffffffffff1602179055506000429050817f2a7d109c4f4f2c4d26d7ac71cf103273cb7615c1869d37d4a740d4c182c6b982843384604051610b8893929190610ecc565b60405180910390a2505050565b828054610ba190611118565b90600052602060002090601f016020900481019282610bc35760008555610c0a565b82601f10610bdc57805160ff1916838001178555610c0a565b82800160010185558215610c0a579182015b82811115610c09578251825591602001919060010190610bee565b5b509050610c179190610c1b565b5090565b5b80821115610c34576000816000905550600101610c1c565b5090565b6000610c4b610c4684611028565b611003565b905082815260208101848484011115610c6357600080fd5b610c6e8482856110d6565b509392505050565b600082601f830112610c8757600080fd5b8135610c97848260208601610c38565b91505092915050565b600081359050610caf8161136c565b92915050565b600060208284031215610cc757600080fd5b600082013567ffffffffffffffff811115610ce157600080fd5b610ced84828501610c76565b91505092915050565b600060208284031215610d0857600080fd5b6000610d1684828501610ca0565b91505092915050565b60008060408385031215610d3257600080fd5b6000610d4085828601610ca0565b925050602083013567ffffffffffffffff811115610d5d57600080fd5b610d6985828601610c76565b9150509250929050565b610d7c81611075565b82525050565b610d8b816110c4565b82525050565b6000610d9c82611059565b610da68185611064565b9350610db68185602086016110e5565b610dbf81611208565b840191505092915050565b6000610dd7602483611064565b9150610de282611219565b604082019050919050565b6000610dfa601b83611064565b9150610e0582611268565b602082019050919050565b6000610e1d601e83611064565b9150610e2882611291565b602082019050919050565b6000610e40602e83611064565b9150610e4b826112ba565b604082019050919050565b6000610e63602e83611064565b9150610e6e82611309565b604082019050919050565b610e82816110ba565b82525050565b6000602082019050610e9d6000830184610d73565b92915050565b6000604082019050610eb86000830185610d73565b610ec56020830184610e79565b9392505050565b60006060820190508181036000830152610ee68186610d91565b9050610ef56020830185610d73565b610f026040830184610e79565b949350505050565b60006020820190508181036000830152610f2381610dca565b9050919050565b60006020820190508181036000830152610f4381610ded565b9050919050565b60006020820190508181036000830152610f6381610e10565b9050919050565b60006020820190508181036000830152610f8381610e33565b9050919050565b60006020820190508181036000830152610fa381610e56565b9050919050565b6000602082019050610fbf6000830184610e79565b92915050565b6000606082019050610fda6000830186610e79565b8181036020830152610fec8185610d91565b9050610ffb6040830184610d82565b949350505050565b600061100d61101e565b9050611019828261114a565b919050565b6000604051905090565b600067ffffffffffffffff821115611043576110426111d9565b5b61104c82611208565b9050602081019050919050565b600081519050919050565b600082825260208201905092915050565b60006110808261109a565b9050919050565b600081905061109582611358565b919050565b600073ffffffffffffffffffffffffffffffffffffffff82169050919050565b6000819050919050565b60006110cf82611087565b9050919050565b82818337600083830152505050565b60005b838110156111035780820151818401526020810190506110e8565b83811115611112576000848401525b50505050565b6000600282049050600182168061113057607f821691505b60208210811415611144576111436111aa565b5b50919050565b61115382611208565b810181811067ffffffffffffffff82111715611172576111716111d9565b5b80604052505050565b7f4e487b7100000000000000000000000000000000000000000000000000000000600052602160045260246000fd5b7f4e487b7100000000000000000000000000000000000000000000000000000000600052602260045260246000fd5b7f4e487b7100000000000000000000000000000000000000000000000000000000600052604160045260246000fd5b6000601f19601f8301169050919050565b7f456c20636f6e747261746f206e6f206573746120656e2065737461646f20616360008201527f7469766f00000000000000000000000000000000000000000000000000000000602082015250565b7f456c20636f6e747261746f206e6f2065737461206669726d61646f0000000000600082015250565b7f456c20636f6e747261746f207961206861207369646f206669726d61646f0000600082015250565b7f4e6f207469656e6573207065726d69736f2070617261206d6f6469666963617260008201527f206573746520636f6e747261746f000000000000000000000000000000000000602082015250565b7f4e6f207469656e6573207065726d69736f20706172612066696e616c697a617260008201527f206573746520636f6e747261746f000000000000000000000000000000000000602082015250565b600481106113695761136861117b565b5b50565b611375816110ba565b811461138057600080fd5b5056fea26469706673582212201fa2850353aa6596d5d145ee07bd443812f6497c1a5be47b557d384efc074fe164736f6c63430008020033",
  "immutableReferences": {},
  "source": "// SPDX-License-Identifier: MIT\r\npragma solidity ^0.8.2;\r\n\r\ncontract MyContract {\r\n\r\n    struct Contrato {\r\n        uint id;\r\n        string descripcion;\r\n        EstadoContrato estado;\r\n    }\r\n\r\n    enum EstadoContrato { Inactivo, Activo, Firmado, Finalizado }\r\n    Contrato[] public contratos; \r\n    \r\n    mapping (uint => address) public contractOwner;\r\n\r\n    event ContratoCreado(uint indexed id, string descripcion, address ownerAddress, uint256 fecha);\r\n    event ContratoModificado(uint indexed id, string descripcion, address ownerAddress, uint256 fecha);\r\n    event ContratoFirmado(uint indexed id, address firmante, uint256 fecha);\r\n    event ContratoFinalizado(uint indexed id, uint256 fecha);\r\n\r\n    \r\n    function crearContrato(string memory _descripcion) public {\r\n        uint _id = contratos.length;\r\n        contratos.push(Contrato(_id, _descripcion, EstadoContrato.Activo));\r\n        contractOwner[_id] = msg.sender;\r\n        uint256 _fecha = block.timestamp;\r\n        emit ContratoCreado(_id, _descripcion, msg.sender, _fecha);\r\n    }\r\n    \r\n    function modificarContrato(uint _id, string memory _nuevaDescripcion) public {\r\n        require(contractOwner[_id] == msg.sender, \"No tienes permiso para modificar este contrato\");\r\n        require(contratos[_id].estado == EstadoContrato.Activo, \"El contrato no esta en estado activo\");\r\n        \r\n        contratos[_id].descripcion = _nuevaDescripcion;\r\n        emit ContratoModificado(_id, _nuevaDescripcion, msg.sender, block.timestamp);\r\n    }\r\n\r\n    function firmarContrato(uint _id) public {\r\n        require(contratos[_id].estado == EstadoContrato.Activo, \"El contrato no esta en estado activo\");\r\n        require(contratos[_id].estado != EstadoContrato.Firmado, \"El contrato ya ha sido firmado\");\r\n        \r\n        contratos[_id].estado = EstadoContrato.Firmado;\r\n        emit ContratoFirmado(_id, msg.sender, block.timestamp);\r\n    }\r\n\r\n    function finalizarContrato(uint _id) public {\r\n        require(contractOwner[_id] == msg.sender, \"No tienes permiso para finalizar este contrato\");\r\n        require(contratos[_id].estado == EstadoContrato.Firmado, \"El contrato no esta firmado\");\r\n        \r\n        contratos[_id].estado = EstadoContrato.Finalizado;\r\n        emit ContratoFinalizado(_id, block.timestamp);\r\n    }\r\n\r\n   \r\n}\r\n",
  "sourcePath": "C:\\Users\\super\\OneDrive - UVa (Estudiantes)\\Documentos\\TFG\\uva-contractme\\MiProyecto\\contracts\\MyContract.sol",
  "compiler": {
    "name": "solc",
    "version": "0.8.2+commit.661d1103.Emscripten.clang"
  },
  "schemaVersion": "3.4.16",
  "updatedAt": "2024-03-12T20:32:47.399Z",
  "networkType": "ethereum",
  "devdoc": {
    "kind": "dev",
    "methods": {},
    "version": 1
  },
  "userdoc": {
    "kind": "user",
    "methods": {},
    "version": 1
  }
}