{
  "contractName": "MyContract",
  "abi": [
    {
      "anonymous": false,
      "inputs": [
        {
          "indexed": true,
          "internalType": "uint256",
          "name": "id",
          "type": "uint256"
        },
        {
          "indexed": false,
          "internalType": "string",
          "name": "descripcion",
          "type": "string"
        },
        {
          "indexed": false,
          "internalType": "address",
          "name": "ownerAddress",
          "type": "address"
        },
        {
          "indexed": false,
          "internalType": "uint256",
          "name": "fecha",
          "type": "uint256"
        }
      ],
      "name": "ContratoCreado",
      "type": "event"
    },
    {
      "anonymous": false,
      "inputs": [
        {
          "indexed": true,
          "internalType": "uint256",
          "name": "id",
          "type": "uint256"
        },
        {
          "indexed": false,
          "internalType": "uint256",
          "name": "fecha",
          "type": "uint256"
        }
      ],
      "name": "ContratoFinalizado",
      "type": "event"
    },
    {
      "anonymous": false,
      "inputs": [
        {
          "indexed": true,
          "internalType": "uint256",
          "name": "id",
          "type": "uint256"
        },
        {
          "indexed": false,
          "internalType": "address",
          "name": "firmante",
          "type": "address"
        },
        {
          "indexed": false,
          "internalType": "uint256",
          "name": "fecha",
          "type": "uint256"
        }
      ],
      "name": "ContratoFirmado",
      "type": "event"
    },
    {
      "anonymous": false,
      "inputs": [
        {
          "indexed": true,
          "internalType": "uint256",
          "name": "id",
          "type": "uint256"
        },
        {
          "indexed": false,
          "internalType": "string",
          "name": "descripcion",
          "type": "string"
        },
        {
          "indexed": false,
          "internalType": "address",
          "name": "ownerAddress",
          "type": "address"
        },
        {
          "indexed": false,
          "internalType": "uint256",
          "name": "fecha",
          "type": "uint256"
        }
      ],
      "name": "ContratoModificado",
      "type": "event"
    },
    {
      "inputs": [
        {
          "internalType": "uint256",
          "name": "",
          "type": "uint256"
        }
      ],
      "name": "contractOwner",
      "outputs": [
        {
          "internalType": "address",
          "name": "",
          "type": "address"
        }
      ],
      "stateMutability": "view",
      "type": "function",
      "constant": true
    },
    {
      "inputs": [
        {
          "internalType": "uint256",
          "name": "",
          "type": "uint256"
        }
      ],
      "name": "contratos",
      "outputs": [
        {
          "internalType": "uint256",
          "name": "id",
          "type": "uint256"
        },
        {
          "internalType": "string",
          "name": "descripcion",
          "type": "string"
        },
        {
          "internalType": "enum MyContract.EstadoContrato",
          "name": "estado",
          "type": "uint8"
        }
      ],
      "stateMutability": "view",
      "type": "function",
      "constant": true
    },
    {
      "inputs": [
        {
          "internalType": "string",
          "name": "_descripcion",
          "type": "string"
        }
      ],
      "name": "crearContrato",
      "outputs": [],
      "stateMutability": "nonpayable",
      "type": "function"
    },
    {
      "inputs": [
        {
          "internalType": "uint256",
          "name": "_id",
          "type": "uint256"
        },
        {
          "internalType": "string",
          "name": "_nuevaDescripcion",
          "type": "string"
        }
      ],
      "name": "modificarContrato",
      "outputs": [],
      "stateMutability": "nonpayable",
      "type": "function"
    },
    {
      "inputs": [
        {
          "internalType": "uint256",
          "name": "_id",
          "type": "uint256"
        }
      ],
      "name": "firmarContrato",
      "outputs": [],
      "stateMutability": "nonpayable",
      "type": "function"
    },
    {
      "inputs": [
        {
          "internalType": "uint256",
          "name": "_id",
          "type": "uint256"
        }
      ],
      "name": "finalizarContrato",
      "outputs": [],
      "stateMutability": "nonpayable",
      "type": "function"
    },
    {
      "inputs": [
        {
          "internalType": "uint256",
          "name": "_id",
          "type": "uint256"
        }
      ],
      "name": "getContrato",
      "outputs": [
        {
          "components": [
            {
              "internalType": "uint256",
              "name": "id",
              "type": "uint256"
            },
            {
              "internalType": "string",
              "name": "descripcion",
              "type": "string"
            },
            {
              "internalType": "enum MyContract.EstadoContrato",
              "name": "estado",
              "type": "uint8"
            }
          ],
          "internalType": "struct MyContract.Contrato",
          "name": "",
          "type": "tuple"
        }
      ],
      "stateMutability": "view",
      "type": "function",
      "constant": true
    },
    {
      "inputs": [],
      "name": "getAllContracts",
      "outputs": [
        {
          "components": [
            {
              "internalType": "uint256",
              "name": "id",
              "type": "uint256"
            },
            {
              "internalType": "string",
              "name": "descripcion",
              "type": "string"
            },
            {
              "internalType": "enum MyContract.EstadoContrato",
              "name": "estado",
              "type": "uint8"
            }
          ],
          "internalType": "struct MyContract.Contrato[]",
          "name": "",
          "type": "tuple[]"
        }
      ],
      "stateMutability": "view",
      "type": "function",
      "constant": true
    }
  ],
  "bytecode": "0x608060405234801561001057600080fd5b50611c73806100206000396000f3fe608060405234801561001057600080fd5b50600436106100885760003560e01c806343fd9efe1161005b57806343fd9efe14610115578063a8d0948014610145578063aa541dd014610175578063f4e628d61461019157610088565b8063078230831461008d57806318d3ce96146100a95780631b7a8220146100c75780633a00a1d1146100e3575b600080fd5b6100a760048036038101906100a2919061127b565b6101ad565b005b6100b16103f9565b6040516100be91906115ee565b60405180910390f35b6100e160048036038101906100dc9190611252565b6106bc565b005b6100fd60048036038101906100f89190611252565b6109aa565b60405161010c9392919061176b565b60405180910390f35b61012f600480360381019061012a9190611252565b610a79565b60405161013c919061172e565b60405180910390f35b61015f600480360381019061015a9190611252565b610c45565b60405161016c91906115aa565b60405180910390f35b61018f600480360381019061018a9190611252565b610c78565b005b6101ab60048036038101906101a69190611211565b610ef9565b005b3373ffffffffffffffffffffffffffffffffffffffff166001600084815260200190815260200160002060009054906101000a900473ffffffffffffffffffffffffffffffffffffffff1673ffffffffffffffffffffffffffffffffffffffff161461024e576040517f08c379a0000000000000000000000000000000000000000000000000000000008152600401610245906116ee565b60405180910390fd5b60016003811115610288577f4e487b7100000000000000000000000000000000000000000000000000000000600052602160045260246000fd5b600083815481106102c2577f4e487b7100000000000000000000000000000000000000000000000000000000600052603260045260246000fd5b906000526020600020906003020160020160009054906101000a900460ff166003811115610319577f4e487b7100000000000000000000000000000000000000000000000000000000600052602160045260246000fd5b14610359576040517f08c379a00000000000000000000000000000000000000000000000000000000081526004016103509061164e565b60405180910390fd5b8060008381548110610394577f4e487b7100000000000000000000000000000000000000000000000000000000600052603260045260246000fd5b906000526020600020906003020160010190805190602001906103b8929190611098565b50817f7886cdbca9bdd42d46c3504fe26cfb31ab0216eded1978e549ca8e5c4020d7b58233426040516103ed93929190611610565b60405180910390a25050565b60606000808054905011610442576040517f08c379a0000000000000000000000000000000000000000000000000000000008152600401610439906116ae565b60405180910390fd5b6000808054905067ffffffffffffffff811115610488577f4e487b7100000000000000000000000000000000000000000000000000000000600052604160045260246000fd5b6040519080825280602002602001820160405280156104c157816020015b6104ae61111e565b8152602001906001900390816104a65790505b5090506000805b6000805490508110156106b0576000818154811061050f577f4e487b7100000000000000000000000000000000000000000000000000000000600052603260045260246000fd5b90600052602060002090600302016040518060600160405290816000820154815260200160018201805461054290611908565b80601f016020809104026020016040519081016040528092919081815260200182805461056e90611908565b80156105bb5780601f10610590576101008083540402835291602001916105bb565b820191906000526020600020905b81548152906001019060200180831161059e57829003601f168201915b505050505081526020016002820160009054906101000a900460ff16600381111561060f577f4e487b7100000000000000000000000000000000000000000000000000000000600052602160045260246000fd5b6003811115610647577f4e487b7100000000000000000000000000000000000000000000000000000000600052602160045260246000fd5b81525050838381518110610684577f4e487b7100000000000000000000000000000000000000000000000000000000600052603260045260246000fd5b6020026020010181905250818061069a9061196b565b92505080806106a89061196b565b9150506104c8565b50808252819250505090565b600160038111156106f6577f4e487b7100000000000000000000000000000000000000000000000000000000600052602160045260246000fd5b60008281548110610730577f4e487b7100000000000000000000000000000000000000000000000000000000600052603260045260246000fd5b906000526020600020906003020160020160009054906101000a900460ff166003811115610787577f4e487b7100000000000000000000000000000000000000000000000000000000600052602160045260246000fd5b146107c7576040517f08c379a00000000000000000000000000000000000000000000000000000000081526004016107be9061164e565b60405180910390fd5b60026003811115610801577f4e487b7100000000000000000000000000000000000000000000000000000000600052602160045260246000fd5b6000828154811061083b577f4e487b7100000000000000000000000000000000000000000000000000000000600052603260045260246000fd5b906000526020600020906003020160020160009054906101000a900460ff166003811115610892577f4e487b7100000000000000000000000000000000000000000000000000000000600052602160045260246000fd5b14156108d3576040517f08c379a00000000000000000000000000000000000000000000000000000000081526004016108ca906116ce565b60405180910390fd5b60026000828154811061090f577f4e487b7100000000000000000000000000000000000000000000000000000000600052603260045260246000fd5b906000526020600020906003020160020160006101000a81548160ff02191690836003811115610968577f4e487b7100000000000000000000000000000000000000000000000000000000600052602160045260246000fd5b0217905550807f7082c0320ee5cf1525be126a8e1b9445c8f5ba2efd414a542521976d6cc35ac9334260405161099f9291906115c5565b60405180910390a250565b600081815481106109ba57600080fd5b90600052602060002090600302016000915090508060000154908060010180546109e390611908565b80601f0160208091040260200160405190810160405280929190818152602001828054610a0f90611908565b8015610a5c5780601f10610a3157610100808354040283529160200191610a5c565b820191906000526020600020905b815481529060010190602001808311610a3f57829003601f168201915b5050505050908060020160009054906101000a900460ff16905083565b610a8161111e565b6000805490508210610ac8576040517f08c379a0000000000000000000000000000000000000000000000000000000008152600401610abf9061168e565b60405180910390fd5b60008281548110610b02577f4e487b7100000000000000000000000000000000000000000000000000000000600052603260045260246000fd5b906000526020600020906003020160405180606001604052908160008201548152602001600182018054610b3590611908565b80601f0160208091040260200160405190810160405280929190818152602001828054610b6190611908565b8015610bae5780601f10610b8357610100808354040283529160200191610bae565b820191906000526020600020905b815481529060010190602001808311610b9157829003601f168201915b505050505081526020016002820160009054906101000a900460ff166003811115610c02577f4e487b7100000000000000000000000000000000000000000000000000000000600052602160045260246000fd5b6003811115610c3a577f4e487b7100000000000000000000000000000000000000000000000000000000600052602160045260246000fd5b815250509050919050565b60016020528060005260406000206000915054906101000a900473ffffffffffffffffffffffffffffffffffffffff1681565b3373ffffffffffffffffffffffffffffffffffffffff166001600083815260200190815260200160002060009054906101000a900473ffffffffffffffffffffffffffffffffffffffff1673ffffffffffffffffffffffffffffffffffffffff1614610d19576040517f08c379a0000000000000000000000000000000000000000000000000000000008152600401610d109061170e565b60405180910390fd5b60026003811115610d53577f4e487b7100000000000000000000000000000000000000000000000000000000600052602160045260246000fd5b60008281548110610d8d577f4e487b7100000000000000000000000000000000000000000000000000000000600052603260045260246000fd5b906000526020600020906003020160020160009054906101000a900460ff166003811115610de4577f4e487b7100000000000000000000000000000000000000000000000000000000600052602160045260246000fd5b14610e24576040517f08c379a0000000000000000000000000000000000000000000000000000000008152600401610e1b9061166e565b60405180910390fd5b600360008281548110610e60577f4e487b7100000000000000000000000000000000000000000000000000000000600052603260045260246000fd5b906000526020600020906003020160020160006101000a81548160ff02191690836003811115610eb9577f4e487b7100000000000000000000000000000000000000000000000000000000600052602160045260246000fd5b0217905550807f80e8c9bfd3e0f04375fd2b6f5b271b7df263e7e4d78edfd8321e59ff1ddba0ea42604051610eee9190611750565b60405180910390a250565b6000808054905090506000604051806060016040528083815260200184815260200160016003811115610f55577f4e487b7100000000000000000000000000000000000000000000000000000000600052602160045260246000fd5b8152509080600181540180825580915050600190039060005260206000209060030201600090919091909150600082015181600001556020820151816001019080519060200190610fa7929190611098565b5060408201518160020160006101000a81548160ff02191690836003811115610ff9577f4e487b7100000000000000000000000000000000000000000000000000000000600052602160045260246000fd5b02179055505050336001600083815260200190815260200160002060006101000a81548173ffffffffffffffffffffffffffffffffffffffff021916908373ffffffffffffffffffffffffffffffffffffffff1602179055506000429050817f2a7d109c4f4f2c4d26d7ac71cf103273cb7615c1869d37d4a740d4c182c6b98284338460405161108b93929190611610565b60405180910390a2505050565b8280546110a490611908565b90600052602060002090601f0160209004810192826110c6576000855561110d565b82601f106110df57805160ff191683800117855561110d565b8280016001018555821561110d579182015b8281111561110c5782518255916020019190600101906110f1565b5b50905061111a9190611177565b5090565b6040518060600160405280600081526020016060815260200160006003811115611171577f4e487b7100000000000000000000000000000000000000000000000000000000600052602160045260246000fd5b81525090565b5b80821115611190576000816000905550600101611178565b5090565b60006111a76111a2846117ce565b6117a9565b9050828152602081018484840111156111bf57600080fd5b6111ca8482856118c6565b509392505050565b600082601f8301126111e357600080fd5b81356111f3848260208601611194565b91505092915050565b60008135905061120b81611c26565b92915050565b60006020828403121561122357600080fd5b600082013567ffffffffffffffff81111561123d57600080fd5b611249848285016111d2565b91505092915050565b60006020828403121561126457600080fd5b6000611272848285016111fc565b91505092915050565b6000806040838503121561128e57600080fd5b600061129c858286016111fc565b925050602083013567ffffffffffffffff8111156112b957600080fd5b6112c5858286016111d2565b9150509250929050565b60006112db83836114ec565b905092915050565b6112ec81611865565b82525050565b60006112fd8261180f565b6113078185611832565b935083602082028501611319856117ff565b8060005b85811015611355578484038952815161133685826112cf565b945061134183611825565b925060208a0199505060018101905061131d565b50829750879550505050505092915050565b611370816118b4565b82525050565b61137f816118b4565b82525050565b60006113908261181a565b61139a8185611843565b93506113aa8185602086016118d5565b6113b381611a70565b840191505092915050565b60006113c98261181a565b6113d38185611854565b93506113e38185602086016118d5565b6113ec81611a70565b840191505092915050565b6000611404602483611854565b915061140f82611a81565b604082019050919050565b6000611427601b83611854565b915061143282611ad0565b602082019050919050565b600061144a601583611854565b915061145582611af9565b602082019050919050565b600061146d601883611854565b915061147882611b22565b602082019050919050565b6000611490601e83611854565b915061149b82611b4b565b602082019050919050565b60006114b3602e83611854565b91506114be82611b74565b604082019050919050565b60006114d6602e83611854565b91506114e182611bc3565b604082019050919050565b6000606083016000830151611504600086018261158c565b506020830151848203602086015261151c8282611385565b91505060408301516115316040860182611367565b508091505092915050565b6000606083016000830151611554600086018261158c565b506020830151848203602086015261156c8282611385565b91505060408301516115816040860182611367565b508091505092915050565b611595816118aa565b82525050565b6115a4816118aa565b82525050565b60006020820190506115bf60008301846112e3565b92915050565b60006040820190506115da60008301856112e3565b6115e7602083018461159b565b9392505050565b6000602082019050818103600083015261160881846112f2565b905092915050565b6000606082019050818103600083015261162a81866113be565b905061163960208301856112e3565b611646604083018461159b565b949350505050565b60006020820190508181036000830152611667816113f7565b9050919050565b600060208201905081810360008301526116878161141a565b9050919050565b600060208201905081810360008301526116a78161143d565b9050919050565b600060208201905081810360008301526116c781611460565b9050919050565b600060208201905081810360008301526116e781611483565b9050919050565b60006020820190508181036000830152611707816114a6565b9050919050565b60006020820190508181036000830152611727816114c9565b9050919050565b60006020820190508181036000830152611748818461153c565b905092915050565b6000602082019050611765600083018461159b565b92915050565b6000606082019050611780600083018661159b565b818103602083015261179281856113be565b90506117a16040830184611376565b949350505050565b60006117b36117c4565b90506117bf828261193a565b919050565b6000604051905090565b600067ffffffffffffffff8211156117e9576117e8611a41565b5b6117f282611a70565b9050602081019050919050565b6000819050602082019050919050565b600081519050919050565b600081519050919050565b6000602082019050919050565b600082825260208201905092915050565b600082825260208201905092915050565b600082825260208201905092915050565b60006118708261188a565b9050919050565b600081905061188582611c12565b919050565b600073ffffffffffffffffffffffffffffffffffffffff82169050919050565b6000819050919050565b60006118bf82611877565b9050919050565b82818337600083830152505050565b60005b838110156118f35780820151818401526020810190506118d8565b83811115611902576000848401525b50505050565b6000600282049050600182168061192057607f821691505b6020821081141561193457611933611a12565b5b50919050565b61194382611a70565b810181811067ffffffffffffffff8211171561196257611961611a41565b5b80604052505050565b6000611976826118aa565b91507fffffffffffffffffffffffffffffffffffffffffffffffffffffffffffffffff8214156119a9576119a86119b4565b5b600182019050919050565b7f4e487b7100000000000000000000000000000000000000000000000000000000600052601160045260246000fd5b7f4e487b7100000000000000000000000000000000000000000000000000000000600052602160045260246000fd5b7f4e487b7100000000000000000000000000000000000000000000000000000000600052602260045260246000fd5b7f4e487b7100000000000000000000000000000000000000000000000000000000600052604160045260246000fd5b6000601f19601f8301169050919050565b7f456c20636f6e747261746f206e6f206573746120656e2065737461646f20616360008201527f7469766f00000000000000000000000000000000000000000000000000000000602082015250565b7f456c20636f6e747261746f206e6f2065737461206669726d61646f0000000000600082015250565b7f4e6f2065786973746520656c20636f6e747261746f0000000000000000000000600082015250565b7f41756e206e6f206578697374656e20636f6e747261746f730000000000000000600082015250565b7f456c20636f6e747261746f207961206861207369646f206669726d61646f0000600082015250565b7f4e6f207469656e6573207065726d69736f2070617261206d6f6469666963617260008201527f206573746520636f6e747261746f000000000000000000000000000000000000602082015250565b7f4e6f207469656e6573207065726d69736f20706172612066696e616c697a617260008201527f206573746520636f6e747261746f000000000000000000000000000000000000602082015250565b60048110611c2357611c226119e3565b5b50565b611c2f816118aa565b8114611c3a57600080fd5b5056fea2646970667358221220db292b9a1e329d7fa0a78a267b56880ca50c9b22736ecc696111b6e60306e58564736f6c63430008020033",
  "immutableReferences": {},
  "source": "// SPDX-License-Identifier: MIT\r\npragma solidity ^0.8.2;\r\n\r\ncontract MyContract {\r\n    \r\n    struct Contrato {\r\n        uint id;\r\n        string descripcion;\r\n        EstadoContrato estado;\r\n    }\r\n\r\n    enum EstadoContrato { Inactivo, Activo, Firmado, Finalizado }\r\n    Contrato[] public contratos; \r\n    \r\n    mapping (uint => address) public contractOwner;\r\n\r\n    event ContratoCreado(uint indexed id, string descripcion, address ownerAddress, uint256 fecha);\r\n    event ContratoModificado(uint indexed id, string descripcion, address ownerAddress, uint256 fecha);\r\n    event ContratoFirmado(uint indexed id, address firmante, uint256 fecha);\r\n    event ContratoFinalizado(uint indexed id, uint256 fecha);\r\n\r\n    \r\n    function crearContrato(string memory _descripcion) public {\r\n        uint _id = contratos.length;\r\n        contratos.push(Contrato(_id, _descripcion, EstadoContrato.Activo));\r\n        contractOwner[_id] = msg.sender;\r\n        uint256 _fecha = block.timestamp;\r\n        emit ContratoCreado(_id, _descripcion, msg.sender, _fecha);\r\n    }\r\n    \r\n    function modificarContrato(uint _id, string memory _nuevaDescripcion) public {\r\n        require(contractOwner[_id] == msg.sender, \"No tienes permiso para modificar este contrato\");\r\n        require(contratos[_id].estado == EstadoContrato.Activo, \"El contrato no esta en estado activo\");\r\n        \r\n        contratos[_id].descripcion = _nuevaDescripcion;\r\n        emit ContratoModificado(_id, _nuevaDescripcion, msg.sender, block.timestamp);\r\n    }\r\n\r\n    function firmarContrato(uint _id) public {\r\n        require(contratos[_id].estado == EstadoContrato.Activo, \"El contrato no esta en estado activo\");\r\n        require(contratos[_id].estado != EstadoContrato.Firmado, \"El contrato ya ha sido firmado\");\r\n        \r\n        contratos[_id].estado = EstadoContrato.Firmado;\r\n        emit ContratoFirmado(_id, msg.sender, block.timestamp);\r\n    }\r\n\r\n    function finalizarContrato(uint _id) public {\r\n        require(contractOwner[_id] == msg.sender, \"No tienes permiso para finalizar este contrato\");\r\n        require(contratos[_id].estado == EstadoContrato.Firmado, \"El contrato no esta firmado\");\r\n        \r\n        contratos[_id].estado = EstadoContrato.Finalizado;\r\n        emit ContratoFinalizado(_id, block.timestamp);\r\n    }\r\n\r\n    function getContrato(uint _id) public view returns (Contrato memory){\r\n        require(_id < contratos.length, \"No existe el contrato\");\r\n        return contratos[_id];\r\n    }\r\n\r\n    function getAllContracts () public view returns (Contrato[] memory){\r\n        require(contratos.length > 0, \"Aun no existen contratos\");\r\n        Contrato[] memory contratosAux = new Contrato[](contratos.length);\r\n        uint count = 0;\r\n        for (uint i=0; i < contratos.length; i++){\r\n            contratosAux[count] = contratos[i];\r\n            count ++;\r\n        }\r\n\r\n        // Redimensiona el array  para eliminar los espacios no utilizados\r\n        assembly {\r\n            mstore(contratosAux, count)\r\n        }\r\n        return contratosAux;\r\n    }\r\n\r\n}\r\n",
  "sourcePath": "C:\\Users\\super\\OneDrive - UVa (Estudiantes)\\Documentos\\TFG\\uva-contractme\\MiProyecto\\contracts\\MyContract.sol",
  "compiler": {
    "name": "solc",
    "version": "0.8.2+commit.661d1103.Emscripten.clang"
  },
  "schemaVersion": "3.4.16",
  "updatedAt": "2024-03-17T12:05:27.260Z",
  "networkType": "ethereum",
  "devdoc": {
    "kind": "dev",
    "methods": {},
    "version": 1
  },
  "userdoc": {
    "kind": "user",
    "methods": {},
    "version": 1
  }
}