{
  "contractName": "MyContract",
  "abi": [
    {
      "anonymous": false,
      "inputs": [
        {
          "indexed": true,
          "internalType": "uint256",
          "name": "id",
          "type": "uint256"
        },
        {
          "indexed": false,
          "internalType": "string",
          "name": "titulo",
          "type": "string"
        },
        {
          "indexed": false,
          "internalType": "string",
          "name": "descripcion",
          "type": "string"
        },
        {
          "indexed": false,
          "internalType": "address",
          "name": "ownerAddress",
          "type": "address"
        },
        {
          "indexed": false,
          "internalType": "uint256",
          "name": "precio",
          "type": "uint256"
        },
        {
          "indexed": false,
          "internalType": "string",
          "name": "fechaInicio",
          "type": "string"
        },
        {
          "indexed": false,
          "internalType": "string",
          "name": "fechaFin",
          "type": "string"
        }
      ],
      "name": "ContratoCreado",
      "type": "event"
    },
    {
      "inputs": [
        {
          "internalType": "uint256",
          "name": "",
          "type": "uint256"
        }
      ],
      "name": "contractOwner",
      "outputs": [
        {
          "internalType": "address",
          "name": "",
          "type": "address"
        }
      ],
      "stateMutability": "view",
      "type": "function",
      "constant": true
    },
    {
      "inputs": [
        {
          "internalType": "uint256",
          "name": "",
          "type": "uint256"
        }
      ],
      "name": "contratos",
      "outputs": [
        {
          "internalType": "uint256",
          "name": "id",
          "type": "uint256"
        },
        {
          "internalType": "string",
          "name": "titulo",
          "type": "string"
        },
        {
          "internalType": "string",
          "name": "descripcion",
          "type": "string"
        },
        {
          "internalType": "enum MyContract.EstadoContrato",
          "name": "estado",
          "type": "uint8"
        },
        {
          "internalType": "uint256",
          "name": "precio",
          "type": "uint256"
        },
        {
          "internalType": "string",
          "name": "fechaInicio",
          "type": "string"
        },
        {
          "internalType": "string",
          "name": "fechaFin",
          "type": "string"
        }
      ],
      "stateMutability": "view",
      "type": "function",
      "constant": true
    },
    {
      "inputs": [
        {
          "internalType": "string",
          "name": "_titulo",
          "type": "string"
        },
        {
          "internalType": "string",
          "name": "_descripcion",
          "type": "string"
        },
        {
          "internalType": "uint256",
          "name": "_precio",
          "type": "uint256"
        },
        {
          "internalType": "string",
          "name": "_fechaInicio",
          "type": "string"
        },
        {
          "internalType": "string",
          "name": "_fechaFin",
          "type": "string"
        }
      ],
      "name": "crearContrato",
      "outputs": [],
      "stateMutability": "nonpayable",
      "type": "function"
    },
    {
      "inputs": [
        {
          "internalType": "uint256",
          "name": "_id",
          "type": "uint256"
        }
      ],
      "name": "getContrato",
      "outputs": [
        {
          "components": [
            {
              "internalType": "uint256",
              "name": "id",
              "type": "uint256"
            },
            {
              "internalType": "string",
              "name": "titulo",
              "type": "string"
            },
            {
              "internalType": "string",
              "name": "descripcion",
              "type": "string"
            },
            {
              "internalType": "enum MyContract.EstadoContrato",
              "name": "estado",
              "type": "uint8"
            },
            {
              "internalType": "uint256",
              "name": "precio",
              "type": "uint256"
            },
            {
              "internalType": "string",
              "name": "fechaInicio",
              "type": "string"
            },
            {
              "internalType": "string",
              "name": "fechaFin",
              "type": "string"
            }
          ],
          "internalType": "struct MyContract.Contrato",
          "name": "",
          "type": "tuple"
        }
      ],
      "stateMutability": "view",
      "type": "function",
      "constant": true
    },
    {
      "inputs": [],
      "name": "getAllContracts",
      "outputs": [
        {
          "components": [
            {
              "internalType": "uint256",
              "name": "id",
              "type": "uint256"
            },
            {
              "internalType": "string",
              "name": "titulo",
              "type": "string"
            },
            {
              "internalType": "string",
              "name": "descripcion",
              "type": "string"
            },
            {
              "internalType": "enum MyContract.EstadoContrato",
              "name": "estado",
              "type": "uint8"
            },
            {
              "internalType": "uint256",
              "name": "precio",
              "type": "uint256"
            },
            {
              "internalType": "string",
              "name": "fechaInicio",
              "type": "string"
            },
            {
              "internalType": "string",
              "name": "fechaFin",
              "type": "string"
            }
          ],
          "internalType": "struct MyContract.Contrato[]",
          "name": "",
          "type": "tuple[]"
        }
      ],
      "stateMutability": "view",
      "type": "function",
      "constant": true
    },
    {
      "inputs": [
        {
          "internalType": "address",
          "name": "owner",
          "type": "address"
        }
      ],
      "name": "getAllContractsByOwner",
      "outputs": [
        {
          "components": [
            {
              "internalType": "uint256",
              "name": "id",
              "type": "uint256"
            },
            {
              "internalType": "string",
              "name": "titulo",
              "type": "string"
            },
            {
              "internalType": "string",
              "name": "descripcion",
              "type": "string"
            },
            {
              "internalType": "enum MyContract.EstadoContrato",
              "name": "estado",
              "type": "uint8"
            },
            {
              "internalType": "uint256",
              "name": "precio",
              "type": "uint256"
            },
            {
              "internalType": "string",
              "name": "fechaInicio",
              "type": "string"
            },
            {
              "internalType": "string",
              "name": "fechaFin",
              "type": "string"
            }
          ],
          "internalType": "struct MyContract.Contrato[]",
          "name": "",
          "type": "tuple[]"
        }
      ],
      "stateMutability": "view",
      "type": "function",
      "constant": true
    }
  ],
  "bytecode": "0x608060405234801561001057600080fd5b50611fbf806100206000396000f3fe608060405234801561001057600080fd5b50600436106100625760003560e01c806318d3ce96146100675780633a00a1d1146100855780633e2e7d77146100bb57806343fd9efe146100eb578063a8d094801461011b578063c835d3101461014b575b600080fd5b61006f610167565b60405161007c9190611a22565b60405180910390f35b61009f600480360381019061009a91906116cd565b6105ea565b6040516100b29796959493929190611b43565b60405180910390f35b6100d560048036038101906100d091906115cd565b610869565b6040516100e29190611a22565b60405180910390f35b610105600480360381019061010091906116cd565b610d4a565b6040516101129190611b21565b60405180910390f35b610135600480360381019061013091906116cd565b6110d6565b6040516101429190611a07565b60405180910390f35b610165600480360381019061016091906115f6565b611109565b005b606060008080549050116101b0576040517f08c379a00000000000000000000000000000000000000000000000000000000081526004016101a790611b01565b60405180910390fd5b6000808054905067ffffffffffffffff8111156101f6577f4e487b7100000000000000000000000000000000000000000000000000000000600052604160045260246000fd5b60405190808252806020026020018201604052801561022f57816020015b61021c611423565b8152602001906001900390816102145790505b5090506000805b6000805490508110156105de576000818154811061027d577f4e487b7100000000000000000000000000000000000000000000000000000000600052603260045260246000fd5b90600052602060002090600702016040518060e0016040529081600082015481526020016001820180546102b090611d2d565b80601f01602080910402602001604051908101604052809291908181526020018280546102dc90611d2d565b80156103295780601f106102fe57610100808354040283529160200191610329565b820191906000526020600020905b81548152906001019060200180831161030c57829003601f168201915b5050505050815260200160028201805461034290611d2d565b80601f016020809104026020016040519081016040528092919081815260200182805461036e90611d2d565b80156103bb5780601f10610390576101008083540402835291602001916103bb565b820191906000526020600020905b81548152906001019060200180831161039e57829003601f168201915b505050505081526020016003820160009054906101000a900460ff16600381111561040f577f4e487b7100000000000000000000000000000000000000000000000000000000600052602160045260246000fd5b6003811115610447577f4e487b7100000000000000000000000000000000000000000000000000000000600052602160045260246000fd5b81526020016004820154815260200160058201805461046590611d2d565b80601f016020809104026020016040519081016040528092919081815260200182805461049190611d2d565b80156104de5780601f106104b3576101008083540402835291602001916104de565b820191906000526020600020905b8154815290600101906020018083116104c157829003601f168201915b505050505081526020016006820180546104f790611d2d565b80601f016020809104026020016040519081016040528092919081815260200182805461052390611d2d565b80156105705780601f1061054557610100808354040283529160200191610570565b820191906000526020600020905b81548152906001019060200180831161055357829003601f168201915b5050505050815250508383815181106105b2577f4e487b7100000000000000000000000000000000000000000000000000000000600052603260045260246000fd5b602002602001018190525081806105c890611d90565b92505080806105d690611d90565b915050610236565b50808252819250505090565b600081815481106105fa57600080fd5b906000526020600020906007020160009150905080600001549080600101805461062390611d2d565b80601f016020809104026020016040519081016040528092919081815260200182805461064f90611d2d565b801561069c5780601f106106715761010080835404028352916020019161069c565b820191906000526020600020905b81548152906001019060200180831161067f57829003601f168201915b5050505050908060020180546106b190611d2d565b80601f01602080910402602001604051908101604052809291908181526020018280546106dd90611d2d565b801561072a5780601f106106ff5761010080835404028352916020019161072a565b820191906000526020600020905b81548152906001019060200180831161070d57829003601f168201915b5050505050908060030160009054906101000a900460ff169080600401549080600501805461075890611d2d565b80601f016020809104026020016040519081016040528092919081815260200182805461078490611d2d565b80156107d15780601f106107a6576101008083540402835291602001916107d1565b820191906000526020600020905b8154815290600101906020018083116107b457829003601f168201915b5050505050908060060180546107e690611d2d565b80601f016020809104026020016040519081016040528092919081815260200182805461081290611d2d565b801561085f5780601f106108345761010080835404028352916020019161085f565b820191906000526020600020905b81548152906001019060200180831161084257829003601f168201915b5050505050905087565b60606000600260008473ffffffffffffffffffffffffffffffffffffffff1673ffffffffffffffffffffffffffffffffffffffff1681526020019081526020016000205467ffffffffffffffff8111156108ec577f4e487b7100000000000000000000000000000000000000000000000000000000600052604160045260246000fd5b60405190808252806020026020018201604052801561092557816020015b610912611423565b81526020019060019003908161090a5790505b5090506000805b600080549050811015610d3c578473ffffffffffffffffffffffffffffffffffffffff166001600083815260200190815260200160002060009054906101000a900473ffffffffffffffffffffffffffffffffffffffff1673ffffffffffffffffffffffffffffffffffffffff161415610d1b57600081815481106109da577f4e487b7100000000000000000000000000000000000000000000000000000000600052603260045260246000fd5b90600052602060002090600702016040518060e001604052908160008201548152602001600182018054610a0d90611d2d565b80601f0160208091040260200160405190810160405280929190818152602001828054610a3990611d2d565b8015610a865780601f10610a5b57610100808354040283529160200191610a86565b820191906000526020600020905b815481529060010190602001808311610a6957829003601f168201915b50505050508152602001600282018054610a9f90611d2d565b80601f0160208091040260200160405190810160405280929190818152602001828054610acb90611d2d565b8015610b185780601f10610aed57610100808354040283529160200191610b18565b820191906000526020600020905b815481529060010190602001808311610afb57829003601f168201915b505050505081526020016003820160009054906101000a900460ff166003811115610b6c577f4e487b7100000000000000000000000000000000000000000000000000000000600052602160045260246000fd5b6003811115610ba4577f4e487b7100000000000000000000000000000000000000000000000000000000600052602160045260246000fd5b815260200160048201548152602001600582018054610bc290611d2d565b80601f0160208091040260200160405190810160405280929190818152602001828054610bee90611d2d565b8015610c3b5780601f10610c1057610100808354040283529160200191610c3b565b820191906000526020600020905b815481529060010190602001808311610c1e57829003601f168201915b50505050508152602001600682018054610c5490611d2d565b80601f0160208091040260200160405190810160405280929190818152602001828054610c8090611d2d565b8015610ccd5780601f10610ca257610100808354040283529160200191610ccd565b820191906000526020600020905b815481529060010190602001808311610cb057829003601f168201915b505050505081525050838381518110610d0f577f4e487b7100000000000000000000000000000000000000000000000000000000600052603260045260246000fd5b60200260200101819052505b8180610d2690611d90565b9250508080610d3490611d90565b91505061092c565b508082528192505050919050565b610d52611423565b6000805490508210610d99576040517f08c379a0000000000000000000000000000000000000000000000000000000008152600401610d9090611ac1565b60405180910390fd5b60008281548110610dd3577f4e487b7100000000000000000000000000000000000000000000000000000000600052603260045260246000fd5b90600052602060002090600702016040518060e001604052908160008201548152602001600182018054610e0690611d2d565b80601f0160208091040260200160405190810160405280929190818152602001828054610e3290611d2d565b8015610e7f5780601f10610e5457610100808354040283529160200191610e7f565b820191906000526020600020905b815481529060010190602001808311610e6257829003601f168201915b50505050508152602001600282018054610e9890611d2d565b80601f0160208091040260200160405190810160405280929190818152602001828054610ec490611d2d565b8015610f115780601f10610ee657610100808354040283529160200191610f11565b820191906000526020600020905b815481529060010190602001808311610ef457829003601f168201915b505050505081526020016003820160009054906101000a900460ff166003811115610f65577f4e487b7100000000000000000000000000000000000000000000000000000000600052602160045260246000fd5b6003811115610f9d577f4e487b7100000000000000000000000000000000000000000000000000000000600052602160045260246000fd5b815260200160048201548152602001600582018054610fbb90611d2d565b80601f0160208091040260200160405190810160405280929190818152602001828054610fe790611d2d565b80156110345780601f1061100957610100808354040283529160200191611034565b820191906000526020600020905b81548152906001019060200180831161101757829003601f168201915b5050505050815260200160068201805461104d90611d2d565b80601f016020809104026020016040519081016040528092919081815260200182805461107990611d2d565b80156110c65780601f1061109b576101008083540402835291602001916110c6565b820191906000526020600020905b8154815290600101906020018083116110a957829003601f168201915b5050505050815250509050919050565b60016020528060005260406000206000915054906101000a900473ffffffffffffffffffffffffffffffffffffffff1681565b6000831161114c576040517f08c379a000000000000000000000000000000000000000000000000000000000815260040161114390611ae1565b60405180910390fd5b60008080549050905060006040518060e00160405280838152602001888152602001878152602001600160038111156111ae577f4e487b7100000000000000000000000000000000000000000000000000000000600052602160045260246000fd5b8152602001868152602001858152602001848152509080600181540180825580915050600190039060005260206000209060070201600090919091909150600082015181600001556020820151816001019080519060200190611212929190611498565b50604082015181600201908051906020019061122f929190611498565b5060608201518160030160006101000a81548160ff02191690836003811115611281577f4e487b7100000000000000000000000000000000000000000000000000000000600052602160045260246000fd5b02179055506080820151816004015560a08201518160050190805190602001906112ac929190611498565b5060c08201518160060190805190602001906112c9929190611498565b505050336001600083815260200190815260200160002060006101000a81548173ffffffffffffffffffffffffffffffffffffffff021916908373ffffffffffffffffffffffffffffffffffffffff160217905550600260006001600084815260200190815260200160002060009054906101000a900473ffffffffffffffffffffffffffffffffffffffff1673ffffffffffffffffffffffffffffffffffffffff1673ffffffffffffffffffffffffffffffffffffffff16815260200190815260200160002060008154809291906113a190611d90565b9190505550807f64a616012de865904db92adea94e3eb0c7880c294e70613f08e6dc1753c5a65e87876001600086815260200190815260200160002060009054906101000a900473ffffffffffffffffffffffffffffffffffffffff1688888860405161141396959493929190611a44565b60405180910390a2505050505050565b6040518060e001604052806000815260200160608152602001606081526020016000600381111561147d577f4e487b7100000000000000000000000000000000000000000000000000000000600052602160045260246000fd5b81526020016000815260200160608152602001606081525090565b8280546114a490611d2d565b90600052602060002090601f0160209004810192826114c6576000855561150d565b82601f106114df57805160ff191683800117855561150d565b8280016001018555821561150d579182015b8281111561150c5782518255916020019190600101906114f1565b5b50905061151a919061151e565b5090565b5b8082111561153757600081600090555060010161151f565b5090565b600061154e61154984611bf3565b611bce565b90508281526020810184848401111561156657600080fd5b611571848285611ceb565b509392505050565b60008135905061158881611f5b565b92915050565b600082601f83011261159f57600080fd5b81356115af84826020860161153b565b91505092915050565b6000813590506115c781611f72565b92915050565b6000602082840312156115df57600080fd5b60006115ed84828501611579565b91505092915050565b600080600080600060a0868803121561160e57600080fd5b600086013567ffffffffffffffff81111561162857600080fd5b6116348882890161158e565b955050602086013567ffffffffffffffff81111561165157600080fd5b61165d8882890161158e565b945050604061166e888289016115b8565b935050606086013567ffffffffffffffff81111561168b57600080fd5b6116978882890161158e565b925050608086013567ffffffffffffffff8111156116b457600080fd5b6116c08882890161158e565b9150509295509295909350565b6000602082840312156116df57600080fd5b60006116ed848285016115b8565b91505092915050565b60006117028383611887565b905092915050565b61171381611c8a565b82525050565b600061172482611c34565b61172e8185611c57565b93508360208202850161174085611c24565b8060005b8581101561177c578484038952815161175d85826116f6565b945061176883611c4a565b925060208a01995050600181019050611744565b50829750879550505050505092915050565b61179781611cd9565b82525050565b6117a681611cd9565b82525050565b60006117b782611c3f565b6117c18185611c68565b93506117d1818560208601611cfa565b6117da81611e95565b840191505092915050565b60006117f082611c3f565b6117fa8185611c79565b935061180a818560208601611cfa565b61181381611e95565b840191505092915050565b600061182b601983611c79565b915061183682611ea6565b602082019050919050565b600061184e602483611c79565b915061185982611ecf565b604082019050919050565b6000611871601883611c79565b915061187c82611f1e565b602082019050919050565b600060e08301600083015161189f60008601826119e9565b50602083015184820360208601526118b782826117ac565b915050604083015184820360408601526118d182826117ac565b91505060608301516118e6606086018261178e565b5060808301516118f960808601826119e9565b5060a083015184820360a086015261191182826117ac565b91505060c083015184820360c086015261192b82826117ac565b9150508091505092915050565b600060e08301600083015161195060008601826119e9565b506020830151848203602086015261196882826117ac565b9150506040830151848203604086015261198282826117ac565b9150506060830151611997606086018261178e565b5060808301516119aa60808601826119e9565b5060a083015184820360a08601526119c282826117ac565b91505060c083015184820360c08601526119dc82826117ac565b9150508091505092915050565b6119f281611ccf565b82525050565b611a0181611ccf565b82525050565b6000602082019050611a1c600083018461170a565b92915050565b60006020820190508181036000830152611a3c8184611719565b905092915050565b600060c0820190508181036000830152611a5e81896117e5565b90508181036020830152611a7281886117e5565b9050611a81604083018761170a565b611a8e60608301866119f8565b8181036080830152611aa081856117e5565b905081810360a0830152611ab481846117e5565b9050979650505050505050565b60006020820190508181036000830152611ada8161181e565b9050919050565b60006020820190508181036000830152611afa81611841565b9050919050565b60006020820190508181036000830152611b1a81611864565b9050919050565b60006020820190508181036000830152611b3b8184611938565b905092915050565b600060e082019050611b58600083018a6119f8565b8181036020830152611b6a81896117e5565b90508181036040830152611b7e81886117e5565b9050611b8d606083018761179d565b611b9a60808301866119f8565b81810360a0830152611bac81856117e5565b905081810360c0830152611bc081846117e5565b905098975050505050505050565b6000611bd8611be9565b9050611be48282611d5f565b919050565b6000604051905090565b600067ffffffffffffffff821115611c0e57611c0d611e66565b5b611c1782611e95565b9050602081019050919050565b6000819050602082019050919050565b600081519050919050565b600081519050919050565b6000602082019050919050565b600082825260208201905092915050565b600082825260208201905092915050565b600082825260208201905092915050565b6000611c9582611caf565b9050919050565b6000819050611caa82611f47565b919050565b600073ffffffffffffffffffffffffffffffffffffffff82169050919050565b6000819050919050565b6000611ce482611c9c565b9050919050565b82818337600083830152505050565b60005b83811015611d18578082015181840152602081019050611cfd565b83811115611d27576000848401525b50505050565b60006002820490506001821680611d4557607f821691505b60208210811415611d5957611d58611e37565b5b50919050565b611d6882611e95565b810181811067ffffffffffffffff82111715611d8757611d86611e66565b5b80604052505050565b6000611d9b82611ccf565b91507fffffffffffffffffffffffffffffffffffffffffffffffffffffffffffffffff821415611dce57611dcd611dd9565b5b600182019050919050565b7f4e487b7100000000000000000000000000000000000000000000000000000000600052601160045260246000fd5b7f4e487b7100000000000000000000000000000000000000000000000000000000600052602160045260246000fd5b7f4e487b7100000000000000000000000000000000000000000000000000000000600052602260045260246000fd5b7f4e487b7100000000000000000000000000000000000000000000000000000000600052604160045260246000fd5b6000601f19601f8301169050919050565b7f4e6f20657869737465206e696e67756e20636f6e747261746f00000000000000600082015250565b7f456c2070726563696f20657320696775616c206f20696e666572696f7220612060008201527f6365726f00000000000000000000000000000000000000000000000000000000602082015250565b7f41756e206e6f206578697374656e20636f6e747261746f730000000000000000600082015250565b60048110611f5857611f57611e08565b5b50565b611f6481611c8a565b8114611f6f57600080fd5b50565b611f7b81611ccf565b8114611f8657600080fd5b5056fea264697066735822122045f74e751baac1d25a1fc2587d1ef4df45ebe13d92e68526fa2a1313deffab2d64736f6c63430008020033",
  "immutableReferences": {},
  "source": "// SPDX-License-Identifier: MIT\r\npragma solidity ^0.8.2;\r\n\r\ncontract MyContract {\r\n    \r\n    struct Contrato {\r\n        uint id;\r\n        string titulo;\r\n        string descripcion;\r\n        EstadoContrato estado;\r\n        uint256 precio;\r\n        string fechaInicio;\r\n        string fechaFin;\r\n    }\r\n\r\n    enum EstadoContrato { Inactivo, Activo, Firmado, Finalizado }\r\n    Contrato[] public contratos; \r\n    \r\n    mapping (uint => address) public contractOwner;\r\n    mapping (address => uint) private ownerCount;\r\n\r\n    event ContratoCreado(uint indexed id,string titulo, string descripcion, address ownerAddress, uint256 precio, string fechaInicio, string fechaFin);\r\n    //event ContratoModificado(uint indexed id, string descripcion, address ownerAddress, uint256 fecha);\r\n    //event ContratoFirmado(uint indexed id, address firmante, uint256 fecha);\r\n    //event ContratoFinalizado(uint indexed id, uint256 fecha);\r\n\r\n    \r\n    function crearContrato(string memory _titulo, string memory _descripcion, uint256 _precio, string memory _fechaInicio, string memory _fechaFin) public {\r\n        require(_precio > 0, \"El precio es igual o inferior a cero\");\r\n        uint _id = contratos.length;\r\n        contratos.push(Contrato(_id, _titulo, _descripcion, EstadoContrato.Activo, _precio, _fechaInicio, _fechaFin));\r\n        contractOwner[_id] = msg.sender;\r\n        ownerCount[contractOwner[_id]]++;\r\n        emit ContratoCreado(_id, _titulo, _descripcion, contractOwner[_id], _precio, _fechaInicio, _fechaFin);\r\n    }\r\n\r\n     function getContrato(uint _id) public view returns (Contrato memory){\r\n        require(_id < contratos.length, \"No existe ningun contrato\");\r\n        return contratos[_id];\r\n    }\r\n\r\n    function getAllContracts () public view returns (Contrato[] memory){\r\n        require(contratos.length > 0, \"Aun no existen contratos\");\r\n        Contrato[] memory contratosAux = new Contrato[](contratos.length);\r\n        uint count = 0;\r\n        for (uint i=0; i < contratos.length; i++){\r\n            contratosAux[count] = contratos[i];\r\n            count ++;\r\n        }\r\n\r\n        // Redimensiona el array  para eliminar los espacios no utilizados\r\n        assembly {\r\n            mstore(contratosAux, count)\r\n        }\r\n        return contratosAux;\r\n    }\r\n\r\n    function getAllContractsByOwner (address owner) public view returns (Contrato[] memory){\r\n        Contrato[] memory contratosAux = new Contrato[](ownerCount[owner]);\r\n        uint count = 0;\r\n        for (uint i=0; i < contratos.length; i++){\r\n            if (contractOwner[i] == owner)\r\n            contratosAux[count] = contratos[i];\r\n            count ++;\r\n        }\r\n\r\n        // Redimensiona el array  para eliminar los espacios no utilizados\r\n        assembly {\r\n            mstore(contratosAux, count)\r\n        }\r\n        return contratosAux;\r\n    }\r\n\r\n    \r\n    /*\r\n    function modificarContrato(uint _id, string memory _nuevaDescripcion) public {\r\n        require(contractOwner[_id] == msg.sender, \"No tienes permiso para modificar este contrato\");\r\n        require(contratos[_id].estado == EstadoContrato.Activo, \"El contrato no esta en estado activo\");\r\n        \r\n        contratos[_id].descripcion = _nuevaDescripcion;\r\n        emit ContratoModificado(_id, _nuevaDescripcion, msg.sender, block.timestamp);\r\n    }\r\n    */\r\n\r\n    /*\r\n    function firmarContrato(uint _id) public {\r\n        require(contratos[_id].estado == EstadoContrato.Activo, \"El contrato no esta en estado activo\");\r\n        require(contratos[_id].estado != EstadoContrato.Firmado, \"El contrato ya ha sido firmado\");\r\n        \r\n        contratos[_id].estado = EstadoContrato.Firmado;\r\n        emit ContratoFirmado(_id, msg.sender, block.timestamp);\r\n    }*/\r\n\r\n    /*\r\n\r\n    function finalizarContrato(uint _id) public {\r\n        require(contractOwner[_id] == msg.sender, \"No tienes permiso para finalizar este contrato\");\r\n        require(contratos[_id].estado == EstadoContrato.Firmado, \"El contrato no esta firmado\");\r\n        \r\n        contratos[_id].estado = EstadoContrato.Finalizado;\r\n        emit ContratoFinalizado(_id, block.timestamp);\r\n    }\r\n    */\r\n\r\n   \r\n\r\n}\r\n",
  "sourcePath": "C:\\Users\\super\\OneDrive - UVa (Estudiantes)\\Documentos\\TFG\\uva-contractme\\MiProyecto\\contracts\\MyContract.sol",
  "compiler": {
    "name": "solc",
    "version": "0.8.2+commit.661d1103.Emscripten.clang"
  },
  "schemaVersion": "3.4.16",
  "updatedAt": "2024-05-21T09:11:27.372Z",
  "networkType": "ethereum",
  "devdoc": {
    "kind": "dev",
    "methods": {},
    "version": 1
  },
  "userdoc": {
    "kind": "user",
    "methods": {},
    "version": 1
  }
}