{
  "contractName": "MyContract",
  "abi": [
    {
      "anonymous": false,
      "inputs": [
        {
          "indexed": true,
          "internalType": "uint256",
          "name": "id",
          "type": "uint256"
        },
        {
          "indexed": false,
          "internalType": "string",
          "name": "titulo",
          "type": "string"
        },
        {
          "indexed": false,
          "internalType": "string",
          "name": "descripcion",
          "type": "string"
        },
        {
          "indexed": false,
          "internalType": "address",
          "name": "ownerAddress",
          "type": "address"
        },
        {
          "indexed": false,
          "internalType": "uint256",
          "name": "precio",
          "type": "uint256"
        },
        {
          "indexed": false,
          "internalType": "string",
          "name": "fechaInicio",
          "type": "string"
        },
        {
          "indexed": false,
          "internalType": "string",
          "name": "fechaFin",
          "type": "string"
        }
      ],
      "name": "ContratoCreado",
      "type": "event"
    },
    {
      "anonymous": false,
      "inputs": [
        {
          "indexed": true,
          "internalType": "uint256",
          "name": "id",
          "type": "uint256"
        },
        {
          "indexed": false,
          "internalType": "address",
          "name": "firmante",
          "type": "address"
        }
      ],
      "name": "ContratoFirmado",
      "type": "event"
    },
    {
      "inputs": [
        {
          "internalType": "uint256",
          "name": "",
          "type": "uint256"
        }
      ],
      "name": "contractOwner",
      "outputs": [
        {
          "internalType": "address",
          "name": "",
          "type": "address"
        }
      ],
      "stateMutability": "view",
      "type": "function",
      "constant": true
    },
    {
      "inputs": [
        {
          "internalType": "uint256",
          "name": "",
          "type": "uint256"
        }
      ],
      "name": "contratos",
      "outputs": [
        {
          "internalType": "uint256",
          "name": "id",
          "type": "uint256"
        },
        {
          "internalType": "string",
          "name": "titulo",
          "type": "string"
        },
        {
          "internalType": "string",
          "name": "descripcion",
          "type": "string"
        },
        {
          "internalType": "enum MyContract.EstadoContrato",
          "name": "estado",
          "type": "uint8"
        },
        {
          "internalType": "uint256",
          "name": "precio",
          "type": "uint256"
        },
        {
          "internalType": "string",
          "name": "fechaInicio",
          "type": "string"
        },
        {
          "internalType": "string",
          "name": "fechaFin",
          "type": "string"
        },
        {
          "internalType": "address",
          "name": "firmante",
          "type": "address"
        }
      ],
      "stateMutability": "view",
      "type": "function",
      "constant": true
    },
    {
      "inputs": [
        {
          "internalType": "string",
          "name": "_titulo",
          "type": "string"
        },
        {
          "internalType": "string",
          "name": "_descripcion",
          "type": "string"
        },
        {
          "internalType": "uint256",
          "name": "_precio",
          "type": "uint256"
        },
        {
          "internalType": "string",
          "name": "_fechaInicio",
          "type": "string"
        },
        {
          "internalType": "string",
          "name": "_fechaFin",
          "type": "string"
        }
      ],
      "name": "crearContrato",
      "outputs": [],
      "stateMutability": "nonpayable",
      "type": "function"
    },
    {
      "inputs": [
        {
          "internalType": "uint256",
          "name": "_id",
          "type": "uint256"
        }
      ],
      "name": "getContrato",
      "outputs": [
        {
          "components": [
            {
              "internalType": "uint256",
              "name": "id",
              "type": "uint256"
            },
            {
              "internalType": "string",
              "name": "titulo",
              "type": "string"
            },
            {
              "internalType": "string",
              "name": "descripcion",
              "type": "string"
            },
            {
              "internalType": "enum MyContract.EstadoContrato",
              "name": "estado",
              "type": "uint8"
            },
            {
              "internalType": "uint256",
              "name": "precio",
              "type": "uint256"
            },
            {
              "internalType": "string",
              "name": "fechaInicio",
              "type": "string"
            },
            {
              "internalType": "string",
              "name": "fechaFin",
              "type": "string"
            },
            {
              "internalType": "address",
              "name": "firmante",
              "type": "address"
            }
          ],
          "internalType": "struct MyContract.Contrato",
          "name": "",
          "type": "tuple"
        }
      ],
      "stateMutability": "view",
      "type": "function",
      "constant": true
    },
    {
      "inputs": [
        {
          "internalType": "uint256",
          "name": "_id",
          "type": "uint256"
        }
      ],
      "name": "firmarContrato",
      "outputs": [],
      "stateMutability": "payable",
      "type": "function",
      "payable": true
    },
    {
      "inputs": [
        {
          "internalType": "uint256",
          "name": "_id",
          "type": "uint256"
        }
      ],
      "name": "obtenerFirmante",
      "outputs": [
        {
          "internalType": "address",
          "name": "",
          "type": "address"
        }
      ],
      "stateMutability": "view",
      "type": "function",
      "constant": true
    },
    {
      "inputs": [
        {
          "internalType": "address",
          "name": "owner",
          "type": "address"
        }
      ],
      "name": "getAllContractsByOtherOwners",
      "outputs": [
        {
          "components": [
            {
              "internalType": "uint256",
              "name": "id",
              "type": "uint256"
            },
            {
              "internalType": "string",
              "name": "titulo",
              "type": "string"
            },
            {
              "internalType": "string",
              "name": "descripcion",
              "type": "string"
            },
            {
              "internalType": "enum MyContract.EstadoContrato",
              "name": "estado",
              "type": "uint8"
            },
            {
              "internalType": "uint256",
              "name": "precio",
              "type": "uint256"
            },
            {
              "internalType": "string",
              "name": "fechaInicio",
              "type": "string"
            },
            {
              "internalType": "string",
              "name": "fechaFin",
              "type": "string"
            },
            {
              "internalType": "address",
              "name": "firmante",
              "type": "address"
            }
          ],
          "internalType": "struct MyContract.Contrato[]",
          "name": "",
          "type": "tuple[]"
        }
      ],
      "stateMutability": "view",
      "type": "function",
      "constant": true
    },
    {
      "inputs": [
        {
          "internalType": "address",
          "name": "owner",
          "type": "address"
        }
      ],
      "name": "existenContratosParaOwner",
      "outputs": [
        {
          "internalType": "bool",
          "name": "",
          "type": "bool"
        }
      ],
      "stateMutability": "view",
      "type": "function",
      "constant": true
    },
    {
      "inputs": [
        {
          "internalType": "address",
          "name": "owner",
          "type": "address"
        }
      ],
      "name": "getAllContractsByOwner",
      "outputs": [
        {
          "components": [
            {
              "internalType": "uint256",
              "name": "id",
              "type": "uint256"
            },
            {
              "internalType": "string",
              "name": "titulo",
              "type": "string"
            },
            {
              "internalType": "string",
              "name": "descripcion",
              "type": "string"
            },
            {
              "internalType": "enum MyContract.EstadoContrato",
              "name": "estado",
              "type": "uint8"
            },
            {
              "internalType": "uint256",
              "name": "precio",
              "type": "uint256"
            },
            {
              "internalType": "string",
              "name": "fechaInicio",
              "type": "string"
            },
            {
              "internalType": "string",
              "name": "fechaFin",
              "type": "string"
            },
            {
              "internalType": "address",
              "name": "firmante",
              "type": "address"
            }
          ],
          "internalType": "struct MyContract.Contrato[]",
          "name": "",
          "type": "tuple[]"
        }
      ],
      "stateMutability": "view",
      "type": "function",
      "constant": true
    },
    {
      "inputs": [],
      "name": "getAllContracts",
      "outputs": [
        {
          "components": [
            {
              "internalType": "uint256",
              "name": "id",
              "type": "uint256"
            },
            {
              "internalType": "string",
              "name": "titulo",
              "type": "string"
            },
            {
              "internalType": "string",
              "name": "descripcion",
              "type": "string"
            },
            {
              "internalType": "enum MyContract.EstadoContrato",
              "name": "estado",
              "type": "uint8"
            },
            {
              "internalType": "uint256",
              "name": "precio",
              "type": "uint256"
            },
            {
              "internalType": "string",
              "name": "fechaInicio",
              "type": "string"
            },
            {
              "internalType": "string",
              "name": "fechaFin",
              "type": "string"
            },
            {
              "internalType": "address",
              "name": "firmante",
              "type": "address"
            }
          ],
          "internalType": "struct MyContract.Contrato[]",
          "name": "",
          "type": "tuple[]"
        }
      ],
      "stateMutability": "view",
      "type": "function",
      "constant": true
    },
    {
      "inputs": [
        {
          "internalType": "uint256",
          "name": "_id",
          "type": "uint256"
        }
      ],
      "name": "getOwner",
      "outputs": [
        {
          "internalType": "address",
          "name": "",
          "type": "address"
        }
      ],
      "stateMutability": "view",
      "type": "function",
      "constant": true
    }
  ],
  "bytecode": "0x608060405234801561001057600080fd5b506130e4806100206000396000f3fe60806040526004361061009c5760003560e01c80636797559b116100645780636797559b146101a65780637986247f146101e3578063a8d0948014610220578063b8a4b04f1461025d578063c41a360a1461029a578063c835d310146102d75761009c565b806318d3ce96146100a15780631b7a8220146100cc5780633a00a1d1146100e85780633e2e7d771461012c57806343fd9efe14610169575b600080fd5b3480156100ad57600080fd5b506100b6610300565b6040516100c391906128d8565b60405180910390f35b6100e660048036038101906100e1919061248e565b6107da565b005b3480156100f457600080fd5b5061010f600480360381019061010a919061248e565b610a4a565b604051610123989796959493929190612ab4565b60405180910390f35b34801561013857600080fd5b50610153600480360381019061014e919061238e565b610cef565b60405161016091906128d8565b60405180910390f35b34801561017557600080fd5b50610190600480360381019061018b919061248e565b61126f565b60405161019d9190612a92565b60405180910390f35b3480156101b257600080fd5b506101cd60048036038101906101c8919061238e565b611652565b6040516101da91906128fa565b60405180910390f35b3480156101ef57600080fd5b5061020a6004803603810190610205919061248e565b61169d565b60405161021791906128bd565b60405180910390f35b34801561022c57600080fd5b506102476004803603810190610242919061248e565b611758565b60405161025491906128bd565b60405180910390f35b34801561026957600080fd5b50610284600480360381019061027f919061238e565b61178b565b60405161029191906128d8565b60405180910390f35b3480156102a657600080fd5b506102c160048036038101906102bc919061248e565b611d21565b6040516102ce91906128bd565b60405180910390f35b3480156102e357600080fd5b506102fe60048036038101906102f991906123b7565b611da4565b005b60606000808054905011610349576040517f08c379a000000000000000000000000000000000000000000000000000000000815260040161034090612a12565b60405180910390fd5b6000808054905067ffffffffffffffff81111561038f577f4e487b7100000000000000000000000000000000000000000000000000000000600052604160045260246000fd5b6040519080825280602002602001820160405280156103c857816020015b6103b56121c6565b8152602001906001900390816103ad5790505b5090506000805b6000805490508110156107ce5760008181548110610416577f4e487b7100000000000000000000000000000000000000000000000000000000600052603260045260246000fd5b9060005260206000209060080201604051806101000160405290816000820154815260200160018201805461044a90612ced565b80601f016020809104026020016040519081016040528092919081815260200182805461047690612ced565b80156104c35780601f10610498576101008083540402835291602001916104c3565b820191906000526020600020905b8154815290600101906020018083116104a657829003601f168201915b505050505081526020016002820180546104dc90612ced565b80601f016020809104026020016040519081016040528092919081815260200182805461050890612ced565b80156105555780601f1061052a57610100808354040283529160200191610555565b820191906000526020600020905b81548152906001019060200180831161053857829003601f168201915b505050505081526020016003820160009054906101000a900460ff1660028111156105a9577f4e487b7100000000000000000000000000000000000000000000000000000000600052602160045260246000fd5b60028111156105e1577f4e487b7100000000000000000000000000000000000000000000000000000000600052602160045260246000fd5b8152602001600482015481526020016005820180546105ff90612ced565b80601f016020809104026020016040519081016040528092919081815260200182805461062b90612ced565b80156106785780601f1061064d57610100808354040283529160200191610678565b820191906000526020600020905b81548152906001019060200180831161065b57829003601f168201915b5050505050815260200160068201805461069190612ced565b80601f01602080910402602001604051908101604052809291908181526020018280546106bd90612ced565b801561070a5780601f106106df5761010080835404028352916020019161070a565b820191906000526020600020905b8154815290600101906020018083116106ed57829003601f168201915b505050505081526020016007820160009054906101000a900473ffffffffffffffffffffffffffffffffffffffff1673ffffffffffffffffffffffffffffffffffffffff1673ffffffffffffffffffffffffffffffffffffffff16815250508383815181106107a2577f4e487b7100000000000000000000000000000000000000000000000000000000600052603260045260246000fd5b602002602001018190525081806107b890612d50565b92505080806107c690612d50565b9150506103cf565b50808252819250505090565b6000808281548110610815577f4e487b7100000000000000000000000000000000000000000000000000000000600052603260045260246000fd5b90600052602060002090600802019050600073ffffffffffffffffffffffffffffffffffffffff168160070160009054906101000a900473ffffffffffffffffffffffffffffffffffffffff1673ffffffffffffffffffffffffffffffffffffffff16146108b8576040517f08c379a00000000000000000000000000000000000000000000000000000000081526004016108af90612a32565b60405180910390fd5b806004015434146108fe576040517f08c379a00000000000000000000000000000000000000000000000000000000081526004016108f590612a52565b60405180910390fd5b338160070160006101000a81548173ffffffffffffffffffffffffffffffffffffffff021916908373ffffffffffffffffffffffffffffffffffffffff16021790555060018160030160006101000a81548160ff0219169083600281111561098f577f4e487b7100000000000000000000000000000000000000000000000000000000600052602160045260246000fd5b02179055506001600083815260200190815260200160002060009054906101000a900473ffffffffffffffffffffffffffffffffffffffff1673ffffffffffffffffffffffffffffffffffffffff166108fc349081150290604051600060405180830381858888f19350505050158015610a0d573d6000803e3d6000fd5b50817f58992384990b1f1b4faa681ce4ee24f4c75a2775de1200609b3b51aff815c3c633604051610a3e91906128bd565b60405180910390a25050565b60008181548110610a5a57600080fd5b9060005260206000209060080201600091509050806000015490806001018054610a8390612ced565b80601f0160208091040260200160405190810160405280929190818152602001828054610aaf90612ced565b8015610afc5780601f10610ad157610100808354040283529160200191610afc565b820191906000526020600020905b815481529060010190602001808311610adf57829003601f168201915b505050505090806002018054610b1190612ced565b80601f0160208091040260200160405190810160405280929190818152602001828054610b3d90612ced565b8015610b8a5780601f10610b5f57610100808354040283529160200191610b8a565b820191906000526020600020905b815481529060010190602001808311610b6d57829003601f168201915b5050505050908060030160009054906101000a900460ff1690806004015490806005018054610bb890612ced565b80601f0160208091040260200160405190810160405280929190818152602001828054610be490612ced565b8015610c315780601f10610c0657610100808354040283529160200191610c31565b820191906000526020600020905b815481529060010190602001808311610c1457829003601f168201915b505050505090806006018054610c4690612ced565b80601f0160208091040260200160405190810160405280929190818152602001828054610c7290612ced565b8015610cbf5780601f10610c9457610100808354040283529160200191610cbf565b820191906000526020600020905b815481529060010190602001808311610ca257829003601f168201915b5050505050908060070160009054906101000a900473ffffffffffffffffffffffffffffffffffffffff16905088565b6060610cfa82611652565b610d39576040517f08c379a0000000000000000000000000000000000000000000000000000000008152600401610d30906129b2565b60405180910390fd5b6000600260008473ffffffffffffffffffffffffffffffffffffffff1673ffffffffffffffffffffffffffffffffffffffff1681526020019081526020016000205467ffffffffffffffff811115610dba577f4e487b7100000000000000000000000000000000000000000000000000000000600052604160045260246000fd5b604051908082528060200260200182016040528015610df357816020015b610de06121c6565b815260200190600190039081610dd85790505b5090506000805b600080549050811015611261578473ffffffffffffffffffffffffffffffffffffffff166001600083815260200190815260200160002060009054906101000a900473ffffffffffffffffffffffffffffffffffffffff1673ffffffffffffffffffffffffffffffffffffffff16141561124e5760008181548110610ea8577f4e487b7100000000000000000000000000000000000000000000000000000000600052603260045260246000fd5b90600052602060002090600802016040518061010001604052908160008201548152602001600182018054610edc90612ced565b80601f0160208091040260200160405190810160405280929190818152602001828054610f0890612ced565b8015610f555780601f10610f2a57610100808354040283529160200191610f55565b820191906000526020600020905b815481529060010190602001808311610f3857829003601f168201915b50505050508152602001600282018054610f6e90612ced565b80601f0160208091040260200160405190810160405280929190818152602001828054610f9a90612ced565b8015610fe75780601f10610fbc57610100808354040283529160200191610fe7565b820191906000526020600020905b815481529060010190602001808311610fca57829003601f168201915b505050505081526020016003820160009054906101000a900460ff16600281111561103b577f4e487b7100000000000000000000000000000000000000000000000000000000600052602160045260246000fd5b6002811115611073577f4e487b7100000000000000000000000000000000000000000000000000000000600052602160045260246000fd5b81526020016004820154815260200160058201805461109190612ced565b80601f01602080910402602001604051908101604052809291908181526020018280546110bd90612ced565b801561110a5780601f106110df5761010080835404028352916020019161110a565b820191906000526020600020905b8154815290600101906020018083116110ed57829003601f168201915b5050505050815260200160068201805461112390612ced565b80601f016020809104026020016040519081016040528092919081815260200182805461114f90612ced565b801561119c5780601f106111715761010080835404028352916020019161119c565b820191906000526020600020905b81548152906001019060200180831161117f57829003601f168201915b505050505081526020016007820160009054906101000a900473ffffffffffffffffffffffffffffffffffffffff1673ffffffffffffffffffffffffffffffffffffffff1673ffffffffffffffffffffffffffffffffffffffff1681525050838381518110611234577f4e487b7100000000000000000000000000000000000000000000000000000000600052603260045260246000fd5b6020026020010181905250818061124a90612d50565b9250505b808061125990612d50565b915050610dfa565b508082528192505050919050565b6112776121c6565b60008054905082106112be576040517f08c379a00000000000000000000000000000000000000000000000000000000081526004016112b5906129d2565b60405180910390fd5b600082815481106112f8577f4e487b7100000000000000000000000000000000000000000000000000000000600052603260045260246000fd5b9060005260206000209060080201604051806101000160405290816000820154815260200160018201805461132c90612ced565b80601f016020809104026020016040519081016040528092919081815260200182805461135890612ced565b80156113a55780601f1061137a576101008083540402835291602001916113a5565b820191906000526020600020905b81548152906001019060200180831161138857829003601f168201915b505050505081526020016002820180546113be90612ced565b80601f01602080910402602001604051908101604052809291908181526020018280546113ea90612ced565b80156114375780601f1061140c57610100808354040283529160200191611437565b820191906000526020600020905b81548152906001019060200180831161141a57829003601f168201915b505050505081526020016003820160009054906101000a900460ff16600281111561148b577f4e487b7100000000000000000000000000000000000000000000000000000000600052602160045260246000fd5b60028111156114c3577f4e487b7100000000000000000000000000000000000000000000000000000000600052602160045260246000fd5b8152602001600482015481526020016005820180546114e190612ced565b80601f016020809104026020016040519081016040528092919081815260200182805461150d90612ced565b801561155a5780601f1061152f5761010080835404028352916020019161155a565b820191906000526020600020905b81548152906001019060200180831161153d57829003601f168201915b5050505050815260200160068201805461157390612ced565b80601f016020809104026020016040519081016040528092919081815260200182805461159f90612ced565b80156115ec5780601f106115c1576101008083540402835291602001916115ec565b820191906000526020600020905b8154815290600101906020018083116115cf57829003601f168201915b505050505081526020016007820160009054906101000a900473ffffffffffffffffffffffffffffffffffffffff1673ffffffffffffffffffffffffffffffffffffffff1673ffffffffffffffffffffffffffffffffffffffff16815250509050919050565b600080600260008473ffffffffffffffffffffffffffffffffffffffff1673ffffffffffffffffffffffffffffffffffffffff16815260200190815260200160002054119050919050565b6000808054905082106116e5576040517f08c379a00000000000000000000000000000000000000000000000000000000081526004016116dc90612a72565b60405180910390fd5b6000828154811061171f577f4e487b7100000000000000000000000000000000000000000000000000000000600052603260045260246000fd5b906000526020600020906008020160070160009054906101000a900473ffffffffffffffffffffffffffffffffffffffff169050919050565b60016020528060005260406000206000915054906101000a900473ffffffffffffffffffffffffffffffffffffffff1681565b60606000151561179a83612123565b1515146117dc576040517f08c379a00000000000000000000000000000000000000000000000000000000081526004016117d390612992565b60405180910390fd5b6000600260008473ffffffffffffffffffffffffffffffffffffffff1673ffffffffffffffffffffffffffffffffffffffff1681526020019081526020016000205460008054905061182e9190612c0a565b67ffffffffffffffff81111561186d577f4e487b7100000000000000000000000000000000000000000000000000000000600052604160045260246000fd5b6040519080825280602002602001820160405280156118a657816020015b6118936121c6565b81526020019060019003908161188b5790505b5090506000805b600080549050811015611d13578473ffffffffffffffffffffffffffffffffffffffff166001600083815260200190815260200160002060009054906101000a900473ffffffffffffffffffffffffffffffffffffffff1673ffffffffffffffffffffffffffffffffffffffff1614611d00576000818154811061195a577f4e487b7100000000000000000000000000000000000000000000000000000000600052603260045260246000fd5b9060005260206000209060080201604051806101000160405290816000820154815260200160018201805461198e90612ced565b80601f01602080910402602001604051908101604052809291908181526020018280546119ba90612ced565b8015611a075780601f106119dc57610100808354040283529160200191611a07565b820191906000526020600020905b8154815290600101906020018083116119ea57829003601f168201915b50505050508152602001600282018054611a2090612ced565b80601f0160208091040260200160405190810160405280929190818152602001828054611a4c90612ced565b8015611a995780601f10611a6e57610100808354040283529160200191611a99565b820191906000526020600020905b815481529060010190602001808311611a7c57829003601f168201915b505050505081526020016003820160009054906101000a900460ff166002811115611aed577f4e487b7100000000000000000000000000000000000000000000000000000000600052602160045260246000fd5b6002811115611b25577f4e487b7100000000000000000000000000000000000000000000000000000000600052602160045260246000fd5b815260200160048201548152602001600582018054611b4390612ced565b80601f0160208091040260200160405190810160405280929190818152602001828054611b6f90612ced565b8015611bbc5780601f10611b9157610100808354040283529160200191611bbc565b820191906000526020600020905b815481529060010190602001808311611b9f57829003601f168201915b50505050508152602001600682018054611bd590612ced565b80601f0160208091040260200160405190810160405280929190818152602001828054611c0190612ced565b8015611c4e5780601f10611c2357610100808354040283529160200191611c4e565b820191906000526020600020905b815481529060010190602001808311611c3157829003601f168201915b505050505081526020016007820160009054906101000a900473ffffffffffffffffffffffffffffffffffffffff1673ffffffffffffffffffffffffffffffffffffffff1673ffffffffffffffffffffffffffffffffffffffff1681525050838381518110611ce6577f4e487b7100000000000000000000000000000000000000000000000000000000600052603260045260246000fd5b60200260200101819052508180611cfc90612d50565b9250505b8080611d0b90612d50565b9150506118ad565b508082528192505050919050565b600080805490508210611d69576040517f08c379a0000000000000000000000000000000000000000000000000000000008152600401611d6090612a72565b60405180910390fd5b6001600083815260200190815260200160002060009054906101000a900473ffffffffffffffffffffffffffffffffffffffff169050919050565b60008311611de7576040517f08c379a0000000000000000000000000000000000000000000000000000000008152600401611dde906129f2565b60405180910390fd5b600080805490509050600060405180610100016040528083815260200188815260200187815260200160006002811115611e4a577f4e487b7100000000000000000000000000000000000000000000000000000000600052602160045260246000fd5b8152602001868152602001858152602001848152602001600073ffffffffffffffffffffffffffffffffffffffff168152509080600181540180825580915050600190039060005260206000209060080201600090919091909150600082015181600001556020820151816001019080519060200190611ecb929190612259565b506040820151816002019080519060200190611ee8929190612259565b5060608201518160030160006101000a81548160ff02191690836002811115611f3a577f4e487b7100000000000000000000000000000000000000000000000000000000600052602160045260246000fd5b02179055506080820151816004015560a0820151816005019080519060200190611f65929190612259565b5060c0820151816006019080519060200190611f82929190612259565b5060e08201518160070160006101000a81548173ffffffffffffffffffffffffffffffffffffffff021916908373ffffffffffffffffffffffffffffffffffffffff1602179055505050336001600083815260200190815260200160002060006101000a81548173ffffffffffffffffffffffffffffffffffffffff021916908373ffffffffffffffffffffffffffffffffffffffff160217905550600260006001600084815260200190815260200160002060009054906101000a900473ffffffffffffffffffffffffffffffffffffffff1673ffffffffffffffffffffffffffffffffffffffff1673ffffffffffffffffffffffffffffffffffffffff16815260200190815260200160002060008154809291906120a190612d50565b9190505550807f64a616012de865904db92adea94e3eb0c7880c294e70613f08e6dc1753c5a65e87876001600086815260200190815260200160002060009054906101000a900473ffffffffffffffffffffffffffffffffffffffff1688888860405161211396959493929190612915565b60405180910390a2505050505050565b600080600090505b6000805490508110156121bb578273ffffffffffffffffffffffffffffffffffffffff166001600083815260200190815260200160002060009054906101000a900473ffffffffffffffffffffffffffffffffffffffff1673ffffffffffffffffffffffffffffffffffffffff16146121a85760009150506121c1565b80806121b390612d50565b91505061212b565b50600190505b919050565b60405180610100016040528060008152602001606081526020016060815260200160006002811115612221577f4e487b7100000000000000000000000000000000000000000000000000000000600052602160045260246000fd5b8152602001600081526020016060815260200160608152602001600073ffffffffffffffffffffffffffffffffffffffff1681525090565b82805461226590612ced565b90600052602060002090601f01602090048101928261228757600085556122ce565b82601f106122a057805160ff19168380011785556122ce565b828001600101855582156122ce579182015b828111156122cd5782518255916020019190600101906122b2565b5b5090506122db91906122df565b5090565b5b808211156122f85760008160009055506001016122e0565b5090565b600061230f61230a84612b73565b612b4e565b90508281526020810184848401111561232757600080fd5b612332848285612cab565b509392505050565b60008135905061234981613080565b92915050565b600082601f83011261236057600080fd5b81356123708482602086016122fc565b91505092915050565b60008135905061238881613097565b92915050565b6000602082840312156123a057600080fd5b60006123ae8482850161233a565b91505092915050565b600080600080600060a086880312156123cf57600080fd5b600086013567ffffffffffffffff8111156123e957600080fd5b6123f58882890161234f565b955050602086013567ffffffffffffffff81111561241257600080fd5b61241e8882890161234f565b945050604061242f88828901612379565b935050606086013567ffffffffffffffff81111561244c57600080fd5b6124588882890161234f565b925050608086013567ffffffffffffffff81111561247557600080fd5b6124818882890161234f565b9150509295509295909350565b6000602082840312156124a057600080fd5b60006124ae84828501612379565b91505092915050565b60006124c38383612715565b905092915050565b6124d481612c3e565b82525050565b6124e381612c3e565b82525050565b60006124f482612bb4565b6124fe8185612bd7565b93508360208202850161251085612ba4565b8060005b8581101561254c578484038952815161252d85826124b7565b945061253883612bca565b925060208a01995050600181019050612514565b50829750879550505050505092915050565b61256781612c50565b82525050565b61257681612c99565b82525050565b61258581612c99565b82525050565b600061259682612bbf565b6125a08185612be8565b93506125b0818560208601612cba565b6125b981612e55565b840191505092915050565b60006125cf82612bbf565b6125d98185612bf9565b93506125e9818560208601612cba565b6125f281612e55565b840191505092915050565b600061260a602883612bf9565b915061261582612e66565b604082019050919050565b600061262d602183612bf9565b915061263882612eb5565b604082019050919050565b6000612650601983612bf9565b915061265b82612f04565b602082019050919050565b6000612673602483612bf9565b915061267e82612f2d565b604082019050919050565b6000612696601883612bf9565b91506126a182612f7c565b602082019050919050565b60006126b9601e83612bf9565b91506126c482612fa5565b602082019050919050565b60006126dc603783612bf9565b91506126e782612fce565b604082019050919050565b60006126ff602483612bf9565b915061270a8261301d565b604082019050919050565b60006101008301600083015161272e600086018261289f565b5060208301518482036020860152612746828261258b565b91505060408301518482036040860152612760828261258b565b9150506060830151612775606086018261256d565b506080830151612788608086018261289f565b5060a083015184820360a08601526127a0828261258b565b91505060c083015184820360c08601526127ba828261258b565b91505060e08301516127cf60e08601826124cb565b508091505092915050565b6000610100830160008301516127f3600086018261289f565b506020830151848203602086015261280b828261258b565b91505060408301518482036040860152612825828261258b565b915050606083015161283a606086018261256d565b50608083015161284d608086018261289f565b5060a083015184820360a0860152612865828261258b565b91505060c083015184820360c086015261287f828261258b565b91505060e083015161289460e08601826124cb565b508091505092915050565b6128a881612c8f565b82525050565b6128b781612c8f565b82525050565b60006020820190506128d260008301846124da565b92915050565b600060208201905081810360008301526128f281846124e9565b905092915050565b600060208201905061290f600083018461255e565b92915050565b600060c082019050818103600083015261292f81896125c4565b9050818103602083015261294381886125c4565b905061295260408301876124da565b61295f60608301866128ae565b818103608083015261297181856125c4565b905081810360a083015261298581846125c4565b9050979650505050505050565b600060208201905081810360008301526129ab816125fd565b9050919050565b600060208201905081810360008301526129cb81612620565b9050919050565b600060208201905081810360008301526129eb81612643565b9050919050565b60006020820190508181036000830152612a0b81612666565b9050919050565b60006020820190508181036000830152612a2b81612689565b9050919050565b60006020820190508181036000830152612a4b816126ac565b9050919050565b60006020820190508181036000830152612a6b816126cf565b9050919050565b60006020820190508181036000830152612a8b816126f2565b9050919050565b60006020820190508181036000830152612aac81846127da565b905092915050565b600061010082019050612aca600083018b6128ae565b8181036020830152612adc818a6125c4565b90508181036040830152612af081896125c4565b9050612aff606083018861257c565b612b0c60808301876128ae565b81810360a0830152612b1e81866125c4565b905081810360c0830152612b3281856125c4565b9050612b4160e08301846124da565b9998505050505050505050565b6000612b58612b69565b9050612b648282612d1f565b919050565b6000604051905090565b600067ffffffffffffffff821115612b8e57612b8d612e26565b5b612b9782612e55565b9050602081019050919050565b6000819050602082019050919050565b600081519050919050565b600081519050919050565b6000602082019050919050565b600082825260208201905092915050565b600082825260208201905092915050565b600082825260208201905092915050565b6000612c1582612c8f565b9150612c2083612c8f565b925082821015612c3357612c32612d99565b5b828203905092915050565b6000612c4982612c6f565b9050919050565b60008115159050919050565b6000819050612c6a8261306c565b919050565b600073ffffffffffffffffffffffffffffffffffffffff82169050919050565b6000819050919050565b6000612ca482612c5c565b9050919050565b82818337600083830152505050565b60005b83811015612cd8578082015181840152602081019050612cbd565b83811115612ce7576000848401525b50505050565b60006002820490506001821680612d0557607f821691505b60208210811415612d1957612d18612df7565b5b50919050565b612d2882612e55565b810181811067ffffffffffffffff82111715612d4757612d46612e26565b5b80604052505050565b6000612d5b82612c8f565b91507fffffffffffffffffffffffffffffffffffffffffffffffffffffffffffffffff821415612d8e57612d8d612d99565b5b600182019050919050565b7f4e487b7100000000000000000000000000000000000000000000000000000000600052601160045260246000fd5b7f4e487b7100000000000000000000000000000000000000000000000000000000600052602160045260246000fd5b7f4e487b7100000000000000000000000000000000000000000000000000000000600052602260045260246000fd5b7f4e487b7100000000000000000000000000000000000000000000000000000000600052604160045260246000fd5b6000601f19601f8301169050919050565b7f456c2070726f706965746172696f207469656e6520746f646f73206c6f73206360008201527f6f6e747261746f73000000000000000000000000000000000000000000000000602082015250565b7f456c2070726f706965746172696f206e6f207469656e6520636f6e747261746f60008201527f7300000000000000000000000000000000000000000000000000000000000000602082015250565b7f4e6f20657869737465206e696e67756e20636f6e747261746f00000000000000600082015250565b7f456c2070726563696f20657320696775616c206f20696e666572696f7220612060008201527f6365726f00000000000000000000000000000000000000000000000000000000602082015250565b7f41756e206e6f206578697374656e20636f6e747261746f730000000000000000600082015250565b7f456c20636f6e747261746f207961206861207369646f206669726d61646f0000600082015250565b7f456c206d6f6e746f20656e766961646f206e6f20636f696e6369646520636f6e60008201527f20656c2070726563696f2064656c20636f6e747261746f000000000000000000602082015250565b7f4e6f20657869737465206e696e67756e20636f6e747261746f20636f6e20657360008201527f6520494400000000000000000000000000000000000000000000000000000000602082015250565b6003811061307d5761307c612dc8565b5b50565b61308981612c3e565b811461309457600080fd5b50565b6130a081612c8f565b81146130ab57600080fd5b5056fea264697066735822122092969ea0ed43b37737bdf8bb0d1a816c55dde436c9c08d15704b2d2eee47b02564736f6c63430008020033",
  "immutableReferences": {},
  "source": "// SPDX-License-Identifier: MIT\r\npragma solidity ^0.8.2;\r\n\r\ncontract MyContract {\r\n    \r\n    struct Contrato {\r\n        uint id;\r\n        string titulo;\r\n        string descripcion;\r\n        EstadoContrato estado;\r\n        uint256 precio;\r\n        string fechaInicio;\r\n        string fechaFin;\r\n        address firmante;\r\n    }\r\n\r\n    enum EstadoContrato {  Activo, Firmado, Finalizado }\r\n    Contrato[] public contratos; \r\n    \r\n    mapping (uint => address) public contractOwner;\r\n    mapping (address => uint) private ownerCount;\r\n\r\n    event ContratoCreado(uint indexed id, string titulo, string descripcion, address ownerAddress, uint256 precio, string fechaInicio, string fechaFin);\r\n    event ContratoFirmado(uint indexed id, address firmante);\r\n\r\n    function crearContrato(string memory _titulo, string memory _descripcion, uint256 _precio, string memory _fechaInicio, string memory _fechaFin) public {\r\n        require(_precio > 0, \"El precio es igual o inferior a cero\");\r\n        uint _id = contratos.length;\r\n        contratos.push(Contrato(_id, _titulo, _descripcion, EstadoContrato.Activo, _precio, _fechaInicio, _fechaFin, address(0)));\r\n        contractOwner[_id] = msg.sender;\r\n        ownerCount[contractOwner[_id]]++;\r\n        emit ContratoCreado(_id, _titulo, _descripcion, contractOwner[_id], _precio, _fechaInicio, _fechaFin);\r\n    }\r\n\r\n    function getContrato(uint _id) public view returns (Contrato memory) {\r\n        require(_id < contratos.length, \"No existe ningun contrato\");\r\n        return contratos[_id];\r\n    }\r\n\r\n    function firmarContrato(uint _id) public payable {\r\n        Contrato storage contrato = contratos[_id];\r\n        require(contrato.firmante == address(0), \"El contrato ya ha sido firmado\");\r\n        require(msg.value == contrato.precio, \"El monto enviado no coincide con el precio del contrato\");\r\n        contrato.firmante = msg.sender;\r\n        contrato.estado = EstadoContrato.Firmado;\r\n        payable(contractOwner[_id]).transfer(msg.value);\r\n        emit ContratoFirmado(_id, msg.sender);\r\n    }\r\n\r\n    function obtenerFirmante(uint _id) public view returns (address) {\r\n        require(_id < contratos.length, \"No existe ningun contrato con ese ID\");\r\n        return contratos[_id].firmante;\r\n    }\r\n\r\n    function todosLosContratosSonDelOwner(address owner) internal view returns (bool) {\r\n        for (uint i = 0; i < contratos.length; i++) {\r\n            if (contractOwner[i] != owner) {\r\n                return false;\r\n            }\r\n        }\r\n        return true;\r\n    }\r\n\r\n    function getAllContractsByOtherOwners (address owner) public view returns (Contrato[] memory){\r\n        require(todosLosContratosSonDelOwner(owner) == false, \"El propietario tiene todos los contratos\");\r\n        Contrato[] memory contratosAux = new Contrato[](contratos.length - ownerCount[owner]);\r\n        uint count = 0;\r\n        for (uint i=0; i < contratos.length; i++){\r\n            if (contractOwner[i] != owner) {\r\n                contratosAux[count] = contratos[i];\r\n                count++;\r\n            }\r\n        }\r\n\r\n        // Redimensiona el array  para eliminar los espacios no utilizados\r\n        assembly {\r\n            mstore(contratosAux, count)\r\n        }\r\n        return contratosAux;\r\n    }\r\n\r\n    function existenContratosParaOwner(address owner) public view returns (bool) {\r\n        return ownerCount[owner] > 0;\r\n    }\r\n\r\n    function getAllContractsByOwner (address owner) public view returns (Contrato[] memory){\r\n         require(existenContratosParaOwner(owner), \"El propietario no tiene contratos\");\r\n        Contrato[] memory contratosAux = new Contrato[](ownerCount[owner]);\r\n        uint count = 0;\r\n        for (uint i=0; i < contratos.length; i++){\r\n            if (contractOwner[i] == owner) {\r\n                contratosAux[count] = contratos[i];\r\n                count++;\r\n            }\r\n        }\r\n\r\n        // Redimensiona el array  para eliminar los espacios no utilizados\r\n        assembly {\r\n            mstore(contratosAux, count)\r\n        }\r\n        return contratosAux;\r\n    }\r\n\r\n    function getAllContracts () public view returns (Contrato[] memory){\r\n        require(contratos.length > 0, \"Aun no existen contratos\");\r\n        Contrato[] memory contratosAux = new Contrato[](contratos.length);\r\n        uint count = 0;\r\n        for (uint i=0; i < contratos.length; i++){\r\n            contratosAux[count] = contratos[i];\r\n            count++;\r\n        }\r\n\r\n        // Redimensiona el array  para eliminar los espacios no utilizados\r\n        assembly {\r\n            mstore(contratosAux, count)\r\n        }\r\n        return contratosAux;\r\n    }\r\n    \r\n    function getOwner(uint _id) public view returns (address) {\r\n        require(_id < contratos.length, \"No existe ningun contrato con ese ID\");\r\n        return contractOwner[_id];\r\n    }\r\n}\r\n",
  "sourcePath": "C:\\Users\\super\\OneDrive - UVa (Estudiantes)\\Documentos\\TFG\\uva-contractme\\contracts\\MyContract.sol",
  "compiler": {
    "name": "solc",
    "version": "0.8.2+commit.661d1103.Emscripten.clang"
  },
  "schemaVersion": "3.4.16",
  "updatedAt": "2024-05-26T12:39:02.075Z",
  "networkType": "ethereum",
  "devdoc": {
    "kind": "dev",
    "methods": {},
    "version": 1
  },
  "userdoc": {
    "kind": "user",
    "methods": {},
    "version": 1
  }
}