{
  "contractName": "MyContract",
  "abi": [
    {
      "anonymous": false,
      "inputs": [
        {
          "indexed": true,
          "internalType": "uint256",
          "name": "id",
          "type": "uint256"
        },
        {
          "indexed": false,
          "internalType": "string",
          "name": "titulo",
          "type": "string"
        },
        {
          "indexed": false,
          "internalType": "string",
          "name": "descripcion",
          "type": "string"
        },
        {
          "indexed": false,
          "internalType": "address",
          "name": "ownerAddress",
          "type": "address"
        },
        {
          "indexed": false,
          "internalType": "uint256",
          "name": "precio",
          "type": "uint256"
        },
        {
          "indexed": false,
          "internalType": "string",
          "name": "fechaInicio",
          "type": "string"
        },
        {
          "indexed": false,
          "internalType": "string",
          "name": "fechaFin",
          "type": "string"
        }
      ],
      "name": "ContratoCreado",
      "type": "event"
    },
    {
      "anonymous": false,
      "inputs": [
        {
          "indexed": true,
          "internalType": "uint256",
          "name": "id",
          "type": "uint256"
        }
      ],
      "name": "ContratoEliminado",
      "type": "event"
    },
    {
      "anonymous": false,
      "inputs": [
        {
          "indexed": true,
          "internalType": "uint256",
          "name": "id",
          "type": "uint256"
        },
        {
          "indexed": false,
          "internalType": "address",
          "name": "firmante",
          "type": "address"
        }
      ],
      "name": "ContratoFirmado",
      "type": "event"
    },
    {
      "anonymous": false,
      "inputs": [
        {
          "indexed": true,
          "internalType": "uint256",
          "name": "id",
          "type": "uint256"
        },
        {
          "indexed": false,
          "internalType": "string",
          "name": "nuevoTitulo",
          "type": "string"
        },
        {
          "indexed": false,
          "internalType": "string",
          "name": "nuevaDescripcion",
          "type": "string"
        },
        {
          "indexed": false,
          "internalType": "uint256",
          "name": "nuevoPrecio",
          "type": "uint256"
        },
        {
          "indexed": false,
          "internalType": "string",
          "name": "nuevaFechaInicio",
          "type": "string"
        },
        {
          "indexed": false,
          "internalType": "string",
          "name": "nuevaFechaFin",
          "type": "string"
        }
      ],
      "name": "ContratoModificado",
      "type": "event"
    },
    {
      "inputs": [
        {
          "internalType": "uint256",
          "name": "",
          "type": "uint256"
        }
      ],
      "name": "contractIndexById",
      "outputs": [
        {
          "internalType": "uint256",
          "name": "",
          "type": "uint256"
        }
      ],
      "stateMutability": "view",
      "type": "function",
      "constant": true
    },
    {
      "inputs": [
        {
          "internalType": "uint256",
          "name": "",
          "type": "uint256"
        }
      ],
      "name": "contractOwner",
      "outputs": [
        {
          "internalType": "address",
          "name": "",
          "type": "address"
        }
      ],
      "stateMutability": "view",
      "type": "function",
      "constant": true
    },
    {
      "inputs": [
        {
          "internalType": "uint256",
          "name": "",
          "type": "uint256"
        }
      ],
      "name": "contratos",
      "outputs": [
        {
          "internalType": "uint256",
          "name": "id",
          "type": "uint256"
        },
        {
          "internalType": "string",
          "name": "titulo",
          "type": "string"
        },
        {
          "internalType": "string",
          "name": "descripcion",
          "type": "string"
        },
        {
          "internalType": "enum MyContract.EstadoContrato",
          "name": "estado",
          "type": "uint8"
        },
        {
          "internalType": "uint256",
          "name": "precio",
          "type": "uint256"
        },
        {
          "internalType": "string",
          "name": "fechaInicio",
          "type": "string"
        },
        {
          "internalType": "string",
          "name": "fechaFin",
          "type": "string"
        },
        {
          "internalType": "address",
          "name": "firmante",
          "type": "address"
        }
      ],
      "stateMutability": "view",
      "type": "function",
      "constant": true
    },
    {
      "inputs": [
        {
          "internalType": "address",
          "name": "",
          "type": "address"
        },
        {
          "internalType": "uint256",
          "name": "",
          "type": "uint256"
        }
      ],
      "name": "contratosFirmadosPorCuenta",
      "outputs": [
        {
          "internalType": "uint256",
          "name": "",
          "type": "uint256"
        }
      ],
      "stateMutability": "view",
      "type": "function",
      "constant": true
    },
    {
      "inputs": [
        {
          "internalType": "string",
          "name": "_titulo",
          "type": "string"
        },
        {
          "internalType": "string",
          "name": "_descripcion",
          "type": "string"
        },
        {
          "internalType": "uint256",
          "name": "_precio",
          "type": "uint256"
        },
        {
          "internalType": "string",
          "name": "_fechaInicio",
          "type": "string"
        },
        {
          "internalType": "string",
          "name": "_fechaFin",
          "type": "string"
        }
      ],
      "name": "crearContrato",
      "outputs": [],
      "stateMutability": "nonpayable",
      "type": "function"
    },
    {
      "inputs": [
        {
          "internalType": "uint256",
          "name": "_id",
          "type": "uint256"
        }
      ],
      "name": "firmarContrato",
      "outputs": [],
      "stateMutability": "payable",
      "type": "function",
      "payable": true
    },
    {
      "inputs": [
        {
          "internalType": "uint256",
          "name": "_id",
          "type": "uint256"
        },
        {
          "internalType": "string",
          "name": "_nuevoTitulo",
          "type": "string"
        },
        {
          "internalType": "string",
          "name": "_nuevaDescripcion",
          "type": "string"
        },
        {
          "internalType": "uint256",
          "name": "_nuevoPrecio",
          "type": "uint256"
        },
        {
          "internalType": "string",
          "name": "_nuevaFechaInicio",
          "type": "string"
        },
        {
          "internalType": "string",
          "name": "_nuevaFechaFin",
          "type": "string"
        }
      ],
      "name": "modificarContrato",
      "outputs": [],
      "stateMutability": "nonpayable",
      "type": "function"
    },
    {
      "inputs": [
        {
          "internalType": "uint256",
          "name": "_id",
          "type": "uint256"
        }
      ],
      "name": "eliminarContrato",
      "outputs": [],
      "stateMutability": "nonpayable",
      "type": "function"
    },
    {
      "inputs": [
        {
          "internalType": "uint256",
          "name": "_id",
          "type": "uint256"
        }
      ],
      "name": "getContrato",
      "outputs": [
        {
          "components": [
            {
              "internalType": "uint256",
              "name": "id",
              "type": "uint256"
            },
            {
              "internalType": "string",
              "name": "titulo",
              "type": "string"
            },
            {
              "internalType": "string",
              "name": "descripcion",
              "type": "string"
            },
            {
              "internalType": "enum MyContract.EstadoContrato",
              "name": "estado",
              "type": "uint8"
            },
            {
              "internalType": "uint256",
              "name": "precio",
              "type": "uint256"
            },
            {
              "internalType": "string",
              "name": "fechaInicio",
              "type": "string"
            },
            {
              "internalType": "string",
              "name": "fechaFin",
              "type": "string"
            },
            {
              "internalType": "address",
              "name": "firmante",
              "type": "address"
            }
          ],
          "internalType": "struct MyContract.Contrato",
          "name": "",
          "type": "tuple"
        }
      ],
      "stateMutability": "view",
      "type": "function",
      "constant": true
    },
    {
      "inputs": [
        {
          "internalType": "uint256",
          "name": "_id",
          "type": "uint256"
        }
      ],
      "name": "obtenerFirmante",
      "outputs": [
        {
          "internalType": "address",
          "name": "",
          "type": "address"
        }
      ],
      "stateMutability": "view",
      "type": "function",
      "constant": true
    },
    {
      "inputs": [
        {
          "internalType": "address",
          "name": "_cuenta",
          "type": "address"
        }
      ],
      "name": "getContratosFirmados",
      "outputs": [
        {
          "components": [
            {
              "internalType": "uint256",
              "name": "id",
              "type": "uint256"
            },
            {
              "internalType": "string",
              "name": "titulo",
              "type": "string"
            },
            {
              "internalType": "string",
              "name": "descripcion",
              "type": "string"
            },
            {
              "internalType": "enum MyContract.EstadoContrato",
              "name": "estado",
              "type": "uint8"
            },
            {
              "internalType": "uint256",
              "name": "precio",
              "type": "uint256"
            },
            {
              "internalType": "string",
              "name": "fechaInicio",
              "type": "string"
            },
            {
              "internalType": "string",
              "name": "fechaFin",
              "type": "string"
            },
            {
              "internalType": "address",
              "name": "firmante",
              "type": "address"
            }
          ],
          "internalType": "struct MyContract.Contrato[]",
          "name": "",
          "type": "tuple[]"
        }
      ],
      "stateMutability": "view",
      "type": "function",
      "constant": true
    },
    {
      "inputs": [
        {
          "internalType": "address",
          "name": "owner",
          "type": "address"
        }
      ],
      "name": "getAllContractsToSign",
      "outputs": [
        {
          "components": [
            {
              "internalType": "uint256",
              "name": "id",
              "type": "uint256"
            },
            {
              "internalType": "string",
              "name": "titulo",
              "type": "string"
            },
            {
              "internalType": "string",
              "name": "descripcion",
              "type": "string"
            },
            {
              "internalType": "enum MyContract.EstadoContrato",
              "name": "estado",
              "type": "uint8"
            },
            {
              "internalType": "uint256",
              "name": "precio",
              "type": "uint256"
            },
            {
              "internalType": "string",
              "name": "fechaInicio",
              "type": "string"
            },
            {
              "internalType": "string",
              "name": "fechaFin",
              "type": "string"
            },
            {
              "internalType": "address",
              "name": "firmante",
              "type": "address"
            }
          ],
          "internalType": "struct MyContract.Contrato[]",
          "name": "",
          "type": "tuple[]"
        }
      ],
      "stateMutability": "view",
      "type": "function",
      "constant": true
    },
    {
      "inputs": [
        {
          "internalType": "address",
          "name": "owner",
          "type": "address"
        }
      ],
      "name": "getAllContractsByOwner",
      "outputs": [
        {
          "components": [
            {
              "internalType": "uint256",
              "name": "id",
              "type": "uint256"
            },
            {
              "internalType": "string",
              "name": "titulo",
              "type": "string"
            },
            {
              "internalType": "string",
              "name": "descripcion",
              "type": "string"
            },
            {
              "internalType": "enum MyContract.EstadoContrato",
              "name": "estado",
              "type": "uint8"
            },
            {
              "internalType": "uint256",
              "name": "precio",
              "type": "uint256"
            },
            {
              "internalType": "string",
              "name": "fechaInicio",
              "type": "string"
            },
            {
              "internalType": "string",
              "name": "fechaFin",
              "type": "string"
            },
            {
              "internalType": "address",
              "name": "firmante",
              "type": "address"
            }
          ],
          "internalType": "struct MyContract.Contrato[]",
          "name": "",
          "type": "tuple[]"
        }
      ],
      "stateMutability": "view",
      "type": "function",
      "constant": true
    },
    {
      "inputs": [],
      "name": "getAllContracts",
      "outputs": [
        {
          "components": [
            {
              "internalType": "uint256",
              "name": "id",
              "type": "uint256"
            },
            {
              "internalType": "string",
              "name": "titulo",
              "type": "string"
            },
            {
              "internalType": "string",
              "name": "descripcion",
              "type": "string"
            },
            {
              "internalType": "enum MyContract.EstadoContrato",
              "name": "estado",
              "type": "uint8"
            },
            {
              "internalType": "uint256",
              "name": "precio",
              "type": "uint256"
            },
            {
              "internalType": "string",
              "name": "fechaInicio",
              "type": "string"
            },
            {
              "internalType": "string",
              "name": "fechaFin",
              "type": "string"
            },
            {
              "internalType": "address",
              "name": "firmante",
              "type": "address"
            }
          ],
          "internalType": "struct MyContract.Contrato[]",
          "name": "",
          "type": "tuple[]"
        }
      ],
      "stateMutability": "view",
      "type": "function",
      "constant": true
    },
    {
      "inputs": [
        {
          "internalType": "uint256",
          "name": "_id",
          "type": "uint256"
        }
      ],
      "name": "getOwner",
      "outputs": [
        {
          "internalType": "address",
          "name": "",
          "type": "address"
        }
      ],
      "stateMutability": "view",
      "type": "function",
      "constant": true
    },
    {
      "inputs": [
        {
          "internalType": "address",
          "name": "owner",
          "type": "address"
        }
      ],
      "name": "existenContratosParaOwner",
      "outputs": [
        {
          "internalType": "bool",
          "name": "",
          "type": "bool"
        }
      ],
      "stateMutability": "view",
      "type": "function",
      "constant": true
    }
  ],
  "bytecode": "0x608060405234801561001057600080fd5b506145a0806100206000396000f3fe6080604052600436106100f35760003560e01c806373646b011161008a578063c41a360a11610059578063c41a360a14610394578063c555f72e146103d1578063c835d310146103fa578063dd577e6114610423576100f3565b806373646b01146102b45780637986247f146102f1578063a8d094801461032e578063ad571e921461036b576100f3565b80633e2e7d77116100c65780633e2e7d77146101c057806343fd9efe146101fd5780636797559b1461023a57806372d1391814610277576100f3565b806318d3ce96146100f85780631b7a8220146101235780633a00a1d11461013f5780633b6d266014610183575b600080fd5b34801561010457600080fd5b5061010d610460565b60405161011a9190613bb9565b60405180910390f35b61013d6004803603810190610138919061361d565b61093a565b005b34801561014b57600080fd5b506101666004803603810190610161919061361d565b610c10565b60405161017a989796959493929190613e7f565b60405180910390f35b34801561018f57600080fd5b506101aa60048036038101906101a591906134e1565b610eb5565b6040516101b79190613bb9565b60405180910390f35b3480156101cc57600080fd5b506101e760048036038101906101e291906134e1565b611403565b6040516101f49190613bb9565b60405180910390f35b34801561020957600080fd5b50610224600480360381019061021f919061361d565b611983565b6040516102319190613e42565b60405180910390f35b34801561024657600080fd5b50610261600480360381019061025c91906134e1565b611d66565b60405161026e9190613bdb565b60405180910390f35b34801561028357600080fd5b5061029e600480360381019061029991906134e1565b611db1565b6040516102ab9190613bb9565b60405180910390f35b3480156102c057600080fd5b506102db60048036038101906102d6919061350a565b612347565b6040516102e89190613e64565b60405180910390f35b3480156102fd57600080fd5b506103186004803603810190610313919061361d565b612378565b6040516103259190613b9e565b60405180910390f35b34801561033a57600080fd5b506103556004803603810190610350919061361d565b612433565b6040516103629190613b9e565b60405180910390f35b34801561037757600080fd5b50610392600480360381019061038d9190613646565b612466565b005b3480156103a057600080fd5b506103bb60048036038101906103b6919061361d565b61264f565b6040516103c89190613b9e565b60405180910390f35b3480156103dd57600080fd5b506103f860048036038101906103f3919061361d565b6126d2565b005b34801561040657600080fd5b50610421600480360381019061041c9190613546565b612e9f565b005b34801561042f57600080fd5b5061044a6004803603810190610445919061361d565b61321e565b6040516104579190613e64565b60405180910390f35b606060008080549050116104a9576040517f08c379a00000000000000000000000000000000000000000000000000000000081526004016104a090613dc2565b60405180910390fd5b6000808054905067ffffffffffffffff8111156104ef577f4e487b7100000000000000000000000000000000000000000000000000000000600052604160045260246000fd5b60405190808252806020026020018201604052801561052857816020015b6105156132d9565b81526020019060019003908161050d5790505b5090506000805b60008054905081101561092e5760008181548110610576577f4e487b7100000000000000000000000000000000000000000000000000000000600052603260045260246000fd5b906000526020600020906008020160405180610100016040529081600082015481526020016001820180546105aa906140e2565b80601f01602080910402602001604051908101604052809291908181526020018280546105d6906140e2565b80156106235780601f106105f857610100808354040283529160200191610623565b820191906000526020600020905b81548152906001019060200180831161060657829003601f168201915b5050505050815260200160028201805461063c906140e2565b80601f0160208091040260200160405190810160405280929190818152602001828054610668906140e2565b80156106b55780601f1061068a576101008083540402835291602001916106b5565b820191906000526020600020905b81548152906001019060200180831161069857829003601f168201915b505050505081526020016003820160009054906101000a900460ff166002811115610709577f4e487b7100000000000000000000000000000000000000000000000000000000600052602160045260246000fd5b6002811115610741577f4e487b7100000000000000000000000000000000000000000000000000000000600052602160045260246000fd5b81526020016004820154815260200160058201805461075f906140e2565b80601f016020809104026020016040519081016040528092919081815260200182805461078b906140e2565b80156107d85780601f106107ad576101008083540402835291602001916107d8565b820191906000526020600020905b8154815290600101906020018083116107bb57829003601f168201915b505050505081526020016006820180546107f1906140e2565b80601f016020809104026020016040519081016040528092919081815260200182805461081d906140e2565b801561086a5780601f1061083f5761010080835404028352916020019161086a565b820191906000526020600020905b81548152906001019060200180831161084d57829003601f168201915b505050505081526020016007820160009054906101000a900473ffffffffffffffffffffffffffffffffffffffff1673ffffffffffffffffffffffffffffffffffffffff1673ffffffffffffffffffffffffffffffffffffffff1681525050838381518110610902577f4e487b7100000000000000000000000000000000000000000000000000000000600052603260045260246000fd5b6020026020010181905250818061091890614145565b925050808061092690614145565b91505061052f565b50808252819250505090565b6000808281548110610975577f4e487b7100000000000000000000000000000000000000000000000000000000600052603260045260246000fd5b90600052602060002090600802019050600073ffffffffffffffffffffffffffffffffffffffff168160070160009054906101000a900473ffffffffffffffffffffffffffffffffffffffff1673ffffffffffffffffffffffffffffffffffffffff1614610a18576040517f08c379a0000000000000000000000000000000000000000000000000000000008152600401610a0f90613de2565b60405180910390fd5b80600401543414610a5e576040517f08c379a0000000000000000000000000000000000000000000000000000000008152600401610a5590613e02565b60405180910390fd5b338160070160006101000a81548173ffffffffffffffffffffffffffffffffffffffff021916908373ffffffffffffffffffffffffffffffffffffffff16021790555060018160030160006101000a81548160ff02191690836002811115610aef577f4e487b7100000000000000000000000000000000000000000000000000000000600052602160045260246000fd5b0217905550600360003373ffffffffffffffffffffffffffffffffffffffff1673ffffffffffffffffffffffffffffffffffffffff1681526020019081526020016000208290806001815401808255809150506001900390600052602060002001600090919091909150556001600083815260200190815260200160002060009054906101000a900473ffffffffffffffffffffffffffffffffffffffff1673ffffffffffffffffffffffffffffffffffffffff166108fc349081150290604051600060405180830381858888f19350505050158015610bd3573d6000803e3d6000fd5b50817f58992384990b1f1b4faa681ce4ee24f4c75a2775de1200609b3b51aff815c3c633604051610c049190613b9e565b60405180910390a25050565b60008181548110610c2057600080fd5b9060005260206000209060080201600091509050806000015490806001018054610c49906140e2565b80601f0160208091040260200160405190810160405280929190818152602001828054610c75906140e2565b8015610cc25780601f10610c9757610100808354040283529160200191610cc2565b820191906000526020600020905b815481529060010190602001808311610ca557829003601f168201915b505050505090806002018054610cd7906140e2565b80601f0160208091040260200160405190810160405280929190818152602001828054610d03906140e2565b8015610d505780601f10610d2557610100808354040283529160200191610d50565b820191906000526020600020905b815481529060010190602001808311610d3357829003601f168201915b5050505050908060030160009054906101000a900460ff1690806004015490806005018054610d7e906140e2565b80601f0160208091040260200160405190810160405280929190818152602001828054610daa906140e2565b8015610df75780601f10610dcc57610100808354040283529160200191610df7565b820191906000526020600020905b815481529060010190602001808311610dda57829003601f168201915b505050505090806006018054610e0c906140e2565b80601f0160208091040260200160405190810160405280929190818152602001828054610e38906140e2565b8015610e855780601f10610e5a57610100808354040283529160200191610e85565b820191906000526020600020905b815481529060010190602001808311610e6857829003601f168201915b5050505050908060070160009054906101000a900473ffffffffffffffffffffffffffffffffffffffff16905088565b60606000600360008473ffffffffffffffffffffffffffffffffffffffff1673ffffffffffffffffffffffffffffffffffffffff168152602001908152602001600020805480602002602001604051908101604052809291908181526020018280548015610f4257602002820191906000526020600020905b815481526020019060010190808311610f2e575b505050505090506000815167ffffffffffffffff811115610f8c577f4e487b7100000000000000000000000000000000000000000000000000000000600052604160045260246000fd5b604051908082528060200260200182016040528015610fc557816020015b610fb26132d9565b815260200190600190039081610faa5790505b50905060005b82518110156113f857600083828151811061100f577f4e487b7100000000000000000000000000000000000000000000000000000000600052603260045260246000fd5b60200260200101518154811061104e577f4e487b7100000000000000000000000000000000000000000000000000000000600052603260045260246000fd5b90600052602060002090600802016040518061010001604052908160008201548152602001600182018054611082906140e2565b80601f01602080910402602001604051908101604052809291908181526020018280546110ae906140e2565b80156110fb5780601f106110d0576101008083540402835291602001916110fb565b820191906000526020600020905b8154815290600101906020018083116110de57829003601f168201915b50505050508152602001600282018054611114906140e2565b80601f0160208091040260200160405190810160405280929190818152602001828054611140906140e2565b801561118d5780601f106111625761010080835404028352916020019161118d565b820191906000526020600020905b81548152906001019060200180831161117057829003601f168201915b505050505081526020016003820160009054906101000a900460ff1660028111156111e1577f4e487b7100000000000000000000000000000000000000000000000000000000600052602160045260246000fd5b6002811115611219577f4e487b7100000000000000000000000000000000000000000000000000000000600052602160045260246000fd5b815260200160048201548152602001600582018054611237906140e2565b80601f0160208091040260200160405190810160405280929190818152602001828054611263906140e2565b80156112b05780601f10611285576101008083540402835291602001916112b0565b820191906000526020600020905b81548152906001019060200180831161129357829003601f168201915b505050505081526020016006820180546112c9906140e2565b80601f01602080910402602001604051908101604052809291908181526020018280546112f5906140e2565b80156113425780601f1061131757610100808354040283529160200191611342565b820191906000526020600020905b81548152906001019060200180831161132557829003601f168201915b505050505081526020016007820160009054906101000a900473ffffffffffffffffffffffffffffffffffffffff1673ffffffffffffffffffffffffffffffffffffffff1673ffffffffffffffffffffffffffffffffffffffff16815250508282815181106113da577f4e487b7100000000000000000000000000000000000000000000000000000000600052603260045260246000fd5b602002602001018190525080806113f090614145565b915050610fcb565b508092505050919050565b606061140e82611d66565b61144d576040517f08c379a000000000000000000000000000000000000000000000000000000000815260040161144490613d42565b60405180910390fd5b6000600260008473ffffffffffffffffffffffffffffffffffffffff1673ffffffffffffffffffffffffffffffffffffffff1681526020019081526020016000205467ffffffffffffffff8111156114ce577f4e487b7100000000000000000000000000000000000000000000000000000000600052604160045260246000fd5b60405190808252806020026020018201604052801561150757816020015b6114f46132d9565b8152602001906001900390816114ec5790505b5090506000805b600080549050811015611975578473ffffffffffffffffffffffffffffffffffffffff166001600083815260200190815260200160002060009054906101000a900473ffffffffffffffffffffffffffffffffffffffff1673ffffffffffffffffffffffffffffffffffffffff16141561196257600081815481106115bc577f4e487b7100000000000000000000000000000000000000000000000000000000600052603260045260246000fd5b906000526020600020906008020160405180610100016040529081600082015481526020016001820180546115f0906140e2565b80601f016020809104026020016040519081016040528092919081815260200182805461161c906140e2565b80156116695780601f1061163e57610100808354040283529160200191611669565b820191906000526020600020905b81548152906001019060200180831161164c57829003601f168201915b50505050508152602001600282018054611682906140e2565b80601f01602080910402602001604051908101604052809291908181526020018280546116ae906140e2565b80156116fb5780601f106116d0576101008083540402835291602001916116fb565b820191906000526020600020905b8154815290600101906020018083116116de57829003601f168201915b505050505081526020016003820160009054906101000a900460ff16600281111561174f577f4e487b7100000000000000000000000000000000000000000000000000000000600052602160045260246000fd5b6002811115611787577f4e487b7100000000000000000000000000000000000000000000000000000000600052602160045260246000fd5b8152602001600482015481526020016005820180546117a5906140e2565b80601f01602080910402602001604051908101604052809291908181526020018280546117d1906140e2565b801561181e5780601f106117f35761010080835404028352916020019161181e565b820191906000526020600020905b81548152906001019060200180831161180157829003601f168201915b50505050508152602001600682018054611837906140e2565b80601f0160208091040260200160405190810160405280929190818152602001828054611863906140e2565b80156118b05780601f10611885576101008083540402835291602001916118b0565b820191906000526020600020905b81548152906001019060200180831161189357829003601f168201915b505050505081526020016007820160009054906101000a900473ffffffffffffffffffffffffffffffffffffffff1673ffffffffffffffffffffffffffffffffffffffff1673ffffffffffffffffffffffffffffffffffffffff1681525050838381518110611948577f4e487b7100000000000000000000000000000000000000000000000000000000600052603260045260246000fd5b6020026020010181905250818061195e90614145565b9250505b808061196d90614145565b91505061150e565b508082528192505050919050565b61198b6132d9565b60008054905082106119d2576040517f08c379a00000000000000000000000000000000000000000000000000000000081526004016119c990613d62565b60405180910390fd5b60008281548110611a0c577f4e487b7100000000000000000000000000000000000000000000000000000000600052603260045260246000fd5b90600052602060002090600802016040518061010001604052908160008201548152602001600182018054611a40906140e2565b80601f0160208091040260200160405190810160405280929190818152602001828054611a6c906140e2565b8015611ab95780601f10611a8e57610100808354040283529160200191611ab9565b820191906000526020600020905b815481529060010190602001808311611a9c57829003601f168201915b50505050508152602001600282018054611ad2906140e2565b80601f0160208091040260200160405190810160405280929190818152602001828054611afe906140e2565b8015611b4b5780601f10611b2057610100808354040283529160200191611b4b565b820191906000526020600020905b815481529060010190602001808311611b2e57829003601f168201915b505050505081526020016003820160009054906101000a900460ff166002811115611b9f577f4e487b7100000000000000000000000000000000000000000000000000000000600052602160045260246000fd5b6002811115611bd7577f4e487b7100000000000000000000000000000000000000000000000000000000600052602160045260246000fd5b815260200160048201548152602001600582018054611bf5906140e2565b80601f0160208091040260200160405190810160405280929190818152602001828054611c21906140e2565b8015611c6e5780601f10611c4357610100808354040283529160200191611c6e565b820191906000526020600020905b815481529060010190602001808311611c5157829003601f168201915b50505050508152602001600682018054611c87906140e2565b80601f0160208091040260200160405190810160405280929190818152602001828054611cb3906140e2565b8015611d005780601f10611cd557610100808354040283529160200191611d00565b820191906000526020600020905b815481529060010190602001808311611ce357829003601f168201915b505050505081526020016007820160009054906101000a900473ffffffffffffffffffffffffffffffffffffffff1673ffffffffffffffffffffffffffffffffffffffff1673ffffffffffffffffffffffffffffffffffffffff16815250509050919050565b600080600260008473ffffffffffffffffffffffffffffffffffffffff1673ffffffffffffffffffffffffffffffffffffffff16815260200190815260200160002054119050919050565b606060001515611dc083613236565b151514611e02576040517f08c379a0000000000000000000000000000000000000000000000000000000008152600401611df990613d22565b60405180910390fd5b6000600260008473ffffffffffffffffffffffffffffffffffffffff1673ffffffffffffffffffffffffffffffffffffffff16815260200190815260200160002054600080549050611e549190613fd5565b67ffffffffffffffff811115611e93577f4e487b7100000000000000000000000000000000000000000000000000000000600052604160045260246000fd5b604051908082528060200260200182016040528015611ecc57816020015b611eb96132d9565b815260200190600190039081611eb15790505b5090506000805b600080549050811015612339578473ffffffffffffffffffffffffffffffffffffffff166001600083815260200190815260200160002060009054906101000a900473ffffffffffffffffffffffffffffffffffffffff1673ffffffffffffffffffffffffffffffffffffffff16146123265760008181548110611f80577f4e487b7100000000000000000000000000000000000000000000000000000000600052603260045260246000fd5b90600052602060002090600802016040518061010001604052908160008201548152602001600182018054611fb4906140e2565b80601f0160208091040260200160405190810160405280929190818152602001828054611fe0906140e2565b801561202d5780601f106120025761010080835404028352916020019161202d565b820191906000526020600020905b81548152906001019060200180831161201057829003601f168201915b50505050508152602001600282018054612046906140e2565b80601f0160208091040260200160405190810160405280929190818152602001828054612072906140e2565b80156120bf5780601f10612094576101008083540402835291602001916120bf565b820191906000526020600020905b8154815290600101906020018083116120a257829003601f168201915b505050505081526020016003820160009054906101000a900460ff166002811115612113577f4e487b7100000000000000000000000000000000000000000000000000000000600052602160045260246000fd5b600281111561214b577f4e487b7100000000000000000000000000000000000000000000000000000000600052602160045260246000fd5b815260200160048201548152602001600582018054612169906140e2565b80601f0160208091040260200160405190810160405280929190818152602001828054612195906140e2565b80156121e25780601f106121b7576101008083540402835291602001916121e2565b820191906000526020600020905b8154815290600101906020018083116121c557829003601f168201915b505050505081526020016006820180546121fb906140e2565b80601f0160208091040260200160405190810160405280929190818152602001828054612227906140e2565b80156122745780601f1061224957610100808354040283529160200191612274565b820191906000526020600020905b81548152906001019060200180831161225757829003601f168201915b505050505081526020016007820160009054906101000a900473ffffffffffffffffffffffffffffffffffffffff1673ffffffffffffffffffffffffffffffffffffffff1673ffffffffffffffffffffffffffffffffffffffff168152505083838151811061230c577f4e487b7100000000000000000000000000000000000000000000000000000000600052603260045260246000fd5b6020026020010181905250818061232290614145565b9250505b808061233190614145565b915050611ed3565b508082528192505050919050565b6003602052816000526040600020818154811061236357600080fd5b90600052602060002001600091509150505481565b6000808054905082106123c0576040517f08c379a00000000000000000000000000000000000000000000000000000000081526004016123b790613e22565b60405180910390fd5b600082815481106123fa577f4e487b7100000000000000000000000000000000000000000000000000000000600052603260045260246000fd5b906000526020600020906008020160070160009054906101000a900473ffffffffffffffffffffffffffffffffffffffff169050919050565b60016020528060005260406000206000915054906101000a900473ffffffffffffffffffffffffffffffffffffffff1681565b60008054905086106124ad576040517f08c379a00000000000000000000000000000000000000000000000000000000081526004016124a490613d82565b60405180910390fd5b3373ffffffffffffffffffffffffffffffffffffffff166001600088815260200190815260200160002060009054906101000a900473ffffffffffffffffffffffffffffffffffffffff1673ffffffffffffffffffffffffffffffffffffffff161461254e576040517f08c379a000000000000000000000000000000000000000000000000000000000815260040161254590613d02565b60405180910390fd5b6000808781548110612589577f4e487b7100000000000000000000000000000000000000000000000000000000600052603260045260246000fd5b90600052602060002090600802019050858160010190805190602001906125b192919061336c565b50848160020190805190602001906125ca92919061336c565b50838160040181905550828160050190805190602001906125ec92919061336c565b508181600601908051906020019061260592919061336c565b50867f9af09f85253c221a126ce8acd383431cfd7045a9fb5dc143c1bdd1f50ef9540a878787878760405161263e959493929190613c73565b60405180910390a250505050505050565b600080805490508210612697576040517f08c379a000000000000000000000000000000000000000000000000000000000815260040161268e90613e22565b60405180910390fd5b6001600083815260200190815260200160002060009054906101000a900473ffffffffffffffffffffffffffffffffffffffff169050919050565b3373ffffffffffffffffffffffffffffffffffffffff166001600083815260200190815260200160002060009054906101000a900473ffffffffffffffffffffffffffffffffffffffff1673ffffffffffffffffffffffffffffffffffffffff1614612773576040517f08c379a000000000000000000000000000000000000000000000000000000000815260040161276a90613ce2565b60405180910390fd5b60008054905081106127ba576040517f08c379a00000000000000000000000000000000000000000000000000000000081526004016127b190613e22565b60405180910390fd5b600060046000838152602001908152602001600020549050600060016000805490506127e69190613fd5565b90506000808281548110612823577f4e487b7100000000000000000000000000000000000000000000000000000000600052603260045260246000fd5b90600052602060002090600802016040518061010001604052908160008201548152602001600182018054612857906140e2565b80601f0160208091040260200160405190810160405280929190818152602001828054612883906140e2565b80156128d05780601f106128a5576101008083540402835291602001916128d0565b820191906000526020600020905b8154815290600101906020018083116128b357829003601f168201915b505050505081526020016002820180546128e9906140e2565b80601f0160208091040260200160405190810160405280929190818152602001828054612915906140e2565b80156129625780601f1061293757610100808354040283529160200191612962565b820191906000526020600020905b81548152906001019060200180831161294557829003601f168201915b505050505081526020016003820160009054906101000a900460ff1660028111156129b6577f4e487b7100000000000000000000000000000000000000000000000000000000600052602160045260246000fd5b60028111156129ee577f4e487b7100000000000000000000000000000000000000000000000000000000600052602160045260246000fd5b815260200160048201548152602001600582018054612a0c906140e2565b80601f0160208091040260200160405190810160405280929190818152602001828054612a38906140e2565b8015612a855780601f10612a5a57610100808354040283529160200191612a85565b820191906000526020600020905b815481529060010190602001808311612a6857829003601f168201915b50505050508152602001600682018054612a9e906140e2565b80601f0160208091040260200160405190810160405280929190818152602001828054612aca906140e2565b8015612b175780601f10612aec57610100808354040283529160200191612b17565b820191906000526020600020905b815481529060010190602001808311612afa57829003601f168201915b505050505081526020016007820160009054906101000a900473ffffffffffffffffffffffffffffffffffffffff1673ffffffffffffffffffffffffffffffffffffffff1673ffffffffffffffffffffffffffffffffffffffff168152505090508060008481548110612bb3577f4e487b7100000000000000000000000000000000000000000000000000000000600052603260045260246000fd5b9060005260206000209060080201600082015181600001556020820151816001019080519060200190612be792919061336c565b506040820151816002019080519060200190612c0492919061336c565b5060608201518160030160006101000a81548160ff02191690836002811115612c56577f4e487b7100000000000000000000000000000000000000000000000000000000600052602160045260246000fd5b02179055506080820151816004015560a0820151816005019080519060200190612c8192919061336c565b5060c0820151816006019080519060200190612c9e92919061336c565b5060e08201518160070160006101000a81548173ffffffffffffffffffffffffffffffffffffffff021916908373ffffffffffffffffffffffffffffffffffffffff160217905550905050826004600083600001518152602001908152602001600020819055506000805480612d3d577f4e487b7100000000000000000000000000000000000000000000000000000000600052603160045260246000fd5b6001900381819060005260206000209060080201600080820160009055600182016000612d6a91906133f2565b600282016000612d7a91906133f2565b6003820160006101000a81549060ff02191690556004820160009055600582016000612da691906133f2565b600682016000612db691906133f2565b6007820160006101000a81549073ffffffffffffffffffffffffffffffffffffffff0219169055505090556001600085815260200190815260200160002060006101000a81549073ffffffffffffffffffffffffffffffffffffffff0219169055600260003373ffffffffffffffffffffffffffffffffffffffff1673ffffffffffffffffffffffffffffffffffffffff1681526020019081526020016000206000815480929190612e67906140b8565b9190505550837fee2529a34581fe85c06afa2fa77e7807fd93210528c61476eb6c5140a7fa147960405160405180910390a250505050565b60008311612ee2576040517f08c379a0000000000000000000000000000000000000000000000000000000008152600401612ed990613da2565b60405180910390fd5b600080805490509050600060405180610100016040528083815260200188815260200187815260200160006002811115612f45577f4e487b7100000000000000000000000000000000000000000000000000000000600052602160045260246000fd5b8152602001868152602001858152602001848152602001600073ffffffffffffffffffffffffffffffffffffffff168152509080600181540180825580915050600190039060005260206000209060080201600090919091909150600082015181600001556020820151816001019080519060200190612fc692919061336c565b506040820151816002019080519060200190612fe392919061336c565b5060608201518160030160006101000a81548160ff02191690836002811115613035577f4e487b7100000000000000000000000000000000000000000000000000000000600052602160045260246000fd5b02179055506080820151816004015560a082015181600501908051906020019061306092919061336c565b5060c082015181600601908051906020019061307d92919061336c565b5060e08201518160070160006101000a81548173ffffffffffffffffffffffffffffffffffffffff021916908373ffffffffffffffffffffffffffffffffffffffff1602179055505050336001600083815260200190815260200160002060006101000a81548173ffffffffffffffffffffffffffffffffffffffff021916908373ffffffffffffffffffffffffffffffffffffffff160217905550600260006001600084815260200190815260200160002060009054906101000a900473ffffffffffffffffffffffffffffffffffffffff1673ffffffffffffffffffffffffffffffffffffffff1673ffffffffffffffffffffffffffffffffffffffff168152602001908152602001600020600081548092919061319c90614145565b9190505550807f64a616012de865904db92adea94e3eb0c7880c294e70613f08e6dc1753c5a65e87876001600086815260200190815260200160002060009054906101000a900473ffffffffffffffffffffffffffffffffffffffff1688888860405161320e96959493929190613bf6565b60405180910390a2505050505050565b60046020528060005260406000206000915090505481565b600080600090505b6000805490508110156132ce578273ffffffffffffffffffffffffffffffffffffffff166001600083815260200190815260200160002060009054906101000a900473ffffffffffffffffffffffffffffffffffffffff1673ffffffffffffffffffffffffffffffffffffffff16146132bb5760009150506132d4565b80806132c690614145565b91505061323e565b50600190505b919050565b60405180610100016040528060008152602001606081526020016060815260200160006002811115613334577f4e487b7100000000000000000000000000000000000000000000000000000000600052602160045260246000fd5b8152602001600081526020016060815260200160608152602001600073ffffffffffffffffffffffffffffffffffffffff1681525090565b828054613378906140e2565b90600052602060002090601f01602090048101928261339a57600085556133e1565b82601f106133b357805160ff19168380011785556133e1565b828001600101855582156133e1579182015b828111156133e05782518255916020019190600101906133c5565b5b5090506133ee9190613432565b5090565b5080546133fe906140e2565b6000825580601f10613410575061342f565b601f01602090049060005260206000209081019061342e9190613432565b5b50565b5b8082111561344b576000816000905550600101613433565b5090565b600061346261345d84613f3e565b613f19565b90508281526020810184848401111561347a57600080fd5b613485848285614076565b509392505050565b60008135905061349c8161453c565b92915050565b600082601f8301126134b357600080fd5b81356134c384826020860161344f565b91505092915050565b6000813590506134db81614553565b92915050565b6000602082840312156134f357600080fd5b60006135018482850161348d565b91505092915050565b6000806040838503121561351d57600080fd5b600061352b8582860161348d565b925050602061353c858286016134cc565b9150509250929050565b600080600080600060a0868803121561355e57600080fd5b600086013567ffffffffffffffff81111561357857600080fd5b613584888289016134a2565b955050602086013567ffffffffffffffff8111156135a157600080fd5b6135ad888289016134a2565b94505060406135be888289016134cc565b935050606086013567ffffffffffffffff8111156135db57600080fd5b6135e7888289016134a2565b925050608086013567ffffffffffffffff81111561360457600080fd5b613610888289016134a2565b9150509295509295909350565b60006020828403121561362f57600080fd5b600061363d848285016134cc565b91505092915050565b60008060008060008060c0878903121561365f57600080fd5b600061366d89828a016134cc565b965050602087013567ffffffffffffffff81111561368a57600080fd5b61369689828a016134a2565b955050604087013567ffffffffffffffff8111156136b357600080fd5b6136bf89828a016134a2565b94505060606136d089828a016134cc565b935050608087013567ffffffffffffffff8111156136ed57600080fd5b6136f989828a016134a2565b92505060a087013567ffffffffffffffff81111561371657600080fd5b61372289828a016134a2565b9150509295509295509295565b600061373b83836139f6565b905092915050565b61374c81614009565b82525050565b61375b81614009565b82525050565b600061376c82613f7f565b6137768185613fa2565b93508360208202850161378885613f6f565b8060005b858110156137c457848403895281516137a5858261372f565b94506137b083613f95565b925060208a0199505060018101905061378c565b50829750879550505050505092915050565b6137df8161401b565b82525050565b6137ee81614064565b82525050565b6137fd81614064565b82525050565b600061380e82613f8a565b6138188185613fb3565b9350613828818560208601614085565b6138318161424a565b840191505092915050565b600061384782613f8a565b6138518185613fc4565b9350613861818560208601614085565b61386a8161424a565b840191505092915050565b6000613882603083613fc4565b915061388d8261425b565b604082019050919050565b60006138a5602f83613fc4565b91506138b0826142aa565b604082019050919050565b60006138c8602883613fc4565b91506138d3826142f9565b604082019050919050565b60006138eb602183613fc4565b91506138f682614348565b604082019050919050565b600061390e601983613fc4565b915061391982614397565b602082019050919050565b6000613931601583613fc4565b915061393c826143c0565b602082019050919050565b6000613954602483613fc4565b915061395f826143e9565b604082019050919050565b6000613977601883613fc4565b915061398282614438565b602082019050919050565b600061399a601e83613fc4565b91506139a582614461565b602082019050919050565b60006139bd603783613fc4565b91506139c88261448a565b604082019050919050565b60006139e0602483613fc4565b91506139eb826144d9565b604082019050919050565b600061010083016000830151613a0f6000860182613b80565b5060208301518482036020860152613a278282613803565b91505060408301518482036040860152613a418282613803565b9150506060830151613a5660608601826137e5565b506080830151613a696080860182613b80565b5060a083015184820360a0860152613a818282613803565b91505060c083015184820360c0860152613a9b8282613803565b91505060e0830151613ab060e0860182613743565b508091505092915050565b600061010083016000830151613ad46000860182613b80565b5060208301518482036020860152613aec8282613803565b91505060408301518482036040860152613b068282613803565b9150506060830151613b1b60608601826137e5565b506080830151613b2e6080860182613b80565b5060a083015184820360a0860152613b468282613803565b91505060c083015184820360c0860152613b608282613803565b91505060e0830151613b7560e0860182613743565b508091505092915050565b613b898161405a565b82525050565b613b988161405a565b82525050565b6000602082019050613bb36000830184613752565b92915050565b60006020820190508181036000830152613bd38184613761565b905092915050565b6000602082019050613bf060008301846137d6565b92915050565b600060c0820190508181036000830152613c10818961383c565b90508181036020830152613c24818861383c565b9050613c336040830187613752565b613c406060830186613b8f565b8181036080830152613c52818561383c565b905081810360a0830152613c66818461383c565b9050979650505050505050565b600060a0820190508181036000830152613c8d818861383c565b90508181036020830152613ca1818761383c565b9050613cb06040830186613b8f565b8181036060830152613cc2818561383c565b90508181036080830152613cd6818461383c565b90509695505050505050565b60006020820190508181036000830152613cfb81613875565b9050919050565b60006020820190508181036000830152613d1b81613898565b9050919050565b60006020820190508181036000830152613d3b816138bb565b9050919050565b60006020820190508181036000830152613d5b816138de565b9050919050565b60006020820190508181036000830152613d7b81613901565b9050919050565b60006020820190508181036000830152613d9b81613924565b9050919050565b60006020820190508181036000830152613dbb81613947565b9050919050565b60006020820190508181036000830152613ddb8161396a565b9050919050565b60006020820190508181036000830152613dfb8161398d565b9050919050565b60006020820190508181036000830152613e1b816139b0565b9050919050565b60006020820190508181036000830152613e3b816139d3565b9050919050565b60006020820190508181036000830152613e5c8184613abb565b905092915050565b6000602082019050613e796000830184613b8f565b92915050565b600061010082019050613e95600083018b613b8f565b8181036020830152613ea7818a61383c565b90508181036040830152613ebb818961383c565b9050613eca60608301886137f4565b613ed76080830187613b8f565b81810360a0830152613ee9818661383c565b905081810360c0830152613efd818561383c565b9050613f0c60e0830184613752565b9998505050505050505050565b6000613f23613f34565b9050613f2f8282614114565b919050565b6000604051905090565b600067ffffffffffffffff821115613f5957613f5861421b565b5b613f628261424a565b9050602081019050919050565b6000819050602082019050919050565b600081519050919050565b600081519050919050565b6000602082019050919050565b600082825260208201905092915050565b600082825260208201905092915050565b600082825260208201905092915050565b6000613fe08261405a565b9150613feb8361405a565b925082821015613ffe57613ffd61418e565b5b828203905092915050565b60006140148261403a565b9050919050565b60008115159050919050565b600081905061403582614528565b919050565b600073ffffffffffffffffffffffffffffffffffffffff82169050919050565b6000819050919050565b600061406f82614027565b9050919050565b82818337600083830152505050565b60005b838110156140a3578082015181840152602081019050614088565b838111156140b2576000848401525b50505050565b60006140c38261405a565b915060008214156140d7576140d661418e565b5b600182039050919050565b600060028204905060018216806140fa57607f821691505b6020821081141561410e5761410d6141ec565b5b50919050565b61411d8261424a565b810181811067ffffffffffffffff8211171561413c5761413b61421b565b5b80604052505050565b60006141508261405a565b91507fffffffffffffffffffffffffffffffffffffffffffffffffffffffffffffffff8214156141835761418261418e565b5b600182019050919050565b7f4e487b7100000000000000000000000000000000000000000000000000000000600052601160045260246000fd5b7f4e487b7100000000000000000000000000000000000000000000000000000000600052602160045260246000fd5b7f4e487b7100000000000000000000000000000000000000000000000000000000600052602260045260246000fd5b7f4e487b7100000000000000000000000000000000000000000000000000000000600052604160045260246000fd5b6000601f19601f8301169050919050565b7f536f6c6f20656c2070726f706965746172696f20707565646520656c696d696e60008201527f6172206573746520636f6e747261746f00000000000000000000000000000000602082015250565b7f536f6c6f20656c2070726f706965746172696f207075656465206d6f6469666960008201527f63617220656c20636f6e747261746f0000000000000000000000000000000000602082015250565b7f456c2070726f706965746172696f207469656e6520746f646f73206c6f73206360008201527f6f6e747261746f73000000000000000000000000000000000000000000000000602082015250565b7f456c2070726f706965746172696f206e6f207469656e6520636f6e747261746f60008201527f7300000000000000000000000000000000000000000000000000000000000000602082015250565b7f4e6f20657869737465206e696e67756e20636f6e747261746f00000000000000600082015250565b7f456c20636f6e747261746f206e6f206578697374650000000000000000000000600082015250565b7f456c2070726563696f20657320696775616c206f20696e666572696f7220612060008201527f6365726f00000000000000000000000000000000000000000000000000000000602082015250565b7f41756e206e6f206578697374656e20636f6e747261746f730000000000000000600082015250565b7f456c20636f6e747261746f207961206861207369646f206669726d61646f0000600082015250565b7f456c206d6f6e746f20656e766961646f206e6f20636f696e6369646520636f6e60008201527f20656c2070726563696f2064656c20636f6e747261746f000000000000000000602082015250565b7f4e6f20657869737465206e696e67756e20636f6e747261746f20636f6e20657360008201527f6520494400000000000000000000000000000000000000000000000000000000602082015250565b60038110614539576145386141bd565b5b50565b61454581614009565b811461455057600080fd5b50565b61455c8161405a565b811461456757600080fd5b5056fea2646970667358221220073d92c812f4b1521bc1b109b4edebc7a82d3dc3f3cd64fe3bfc8eecaaa1e5aa64736f6c63430008020033",
  "immutableReferences": {},
  "source": "// SPDX-License-Identifier: MIT\r\npragma solidity ^0.8.2;\r\n\r\ncontract MyContract {\r\n    \r\n    struct Contrato {\r\n        uint id;\r\n        string titulo;\r\n        string descripcion;\r\n        EstadoContrato estado;\r\n        uint256 precio;\r\n        string fechaInicio;\r\n        string fechaFin;\r\n        address firmante;\r\n    }\r\n\r\n    enum EstadoContrato {  Activo, Firmado, Expirado }\r\n    Contrato[] public contratos; \r\n    \r\n    mapping (uint => address) public contractOwner;\r\n    mapping (address => uint) private ownerCount;\r\n    mapping(address => uint256[]) public contratosFirmadosPorCuenta;\r\n    mapping(uint256 => uint256) public contractIndexById;\r\n\r\n    event ContratoCreado(uint indexed id, string titulo, string descripcion, address ownerAddress, uint256 precio, string fechaInicio, string fechaFin);\r\n    event ContratoModificado(uint indexed id, string nuevoTitulo, string nuevaDescripcion, uint256 nuevoPrecio, string nuevaFechaInicio, string nuevaFechaFin);\r\n    event ContratoFirmado(uint indexed id, address firmante);\r\n    event ContratoEliminado(uint indexed id);\r\n\r\n\r\n    //Crear, modificar y firmar contratos\r\n    function crearContrato(string memory _titulo, string memory _descripcion, uint256 _precio, string memory _fechaInicio, string memory _fechaFin) public {\r\n        require(_precio > 0, \"El precio es igual o inferior a cero\");\r\n        uint _id = contratos.length;\r\n        contratos.push(Contrato(_id, _titulo, _descripcion, EstadoContrato.Activo, _precio, _fechaInicio, _fechaFin, address(0)));\r\n        contractOwner[_id] = msg.sender;\r\n        ownerCount[contractOwner[_id]]++;\r\n        emit ContratoCreado(_id, _titulo, _descripcion, contractOwner[_id], _precio, _fechaInicio, _fechaFin);\r\n    }\r\n\r\n    function firmarContrato(uint _id) public payable {\r\n        Contrato storage contrato = contratos[_id];\r\n        require(contrato.firmante == address(0), \"El contrato ya ha sido firmado\");\r\n        require(msg.value == contrato.precio, \"El monto enviado no coincide con el precio del contrato\");\r\n        contrato.firmante = msg.sender;\r\n        contrato.estado = EstadoContrato.Firmado;\r\n        contratosFirmadosPorCuenta[msg.sender].push(_id);\r\n        payable(contractOwner[_id]).transfer(msg.value);\r\n        emit ContratoFirmado(_id, msg.sender);\r\n    }\r\n\r\n    function modificarContrato(uint _id, string memory _nuevoTitulo, string memory _nuevaDescripcion, uint256 _nuevoPrecio, string memory _nuevaFechaInicio, string memory _nuevaFechaFin) public {\r\n        require(_id < contratos.length, \"El contrato no existe\");\r\n        require(contractOwner[_id] == msg.sender, \"Solo el propietario puede modificar el contrato\");\r\n\r\n        Contrato storage contrato = contratos[_id];\r\n        contrato.titulo = _nuevoTitulo;\r\n        contrato.descripcion = _nuevaDescripcion;\r\n        contrato.precio = _nuevoPrecio;\r\n        contrato.fechaInicio = _nuevaFechaInicio;\r\n        contrato.fechaFin = _nuevaFechaFin;\r\n\r\n        emit ContratoModificado(_id, _nuevoTitulo, _nuevaDescripcion, _nuevoPrecio, _nuevaFechaInicio, _nuevaFechaFin);\r\n    }\r\n\r\n    function eliminarContrato(uint _id) public {\r\n        require(contractOwner[_id] == msg.sender, \"Solo el propietario puede eliminar este contrato\");\r\n        require(_id < contratos.length, \"No existe ningun contrato con ese ID\");\r\n\r\n        uint index = contractIndexById[_id];\r\n        uint lastIndex = contratos.length - 1;\r\n        Contrato memory lastContrato = contratos[lastIndex];\r\n\r\n        contratos[index] = lastContrato;\r\n        contractIndexById[lastContrato.id] = index;\r\n\r\n        contratos.pop();\r\n        delete contractOwner[_id];\r\n        ownerCount[msg.sender]--;\r\n\r\n        emit ContratoEliminado(_id);\r\n    }\r\n\r\n    /*************************************************************/\r\n\r\n    function getContrato(uint _id) public view returns (Contrato memory) {\r\n        require(_id < contratos.length, \"No existe ningun contrato\");\r\n        return contratos[_id];\r\n    }\r\n\r\n   \r\n    function obtenerFirmante(uint _id) public view returns (address) {\r\n        require(_id < contratos.length, \"No existe ningun contrato con ese ID\");\r\n        return contratos[_id].firmante;\r\n    }\r\n\r\n\r\n    function getContratosFirmados(address _cuenta) public view returns (Contrato[] memory) {\r\n        uint256[] memory ids = contratosFirmadosPorCuenta[_cuenta];\r\n        Contrato[] memory resultado = new Contrato[](ids.length);\r\n        \r\n        for (uint256 i = 0; i < ids.length; i++) {\r\n            resultado[i] = contratos[ids[i]];\r\n        }\r\n\r\n        return resultado;\r\n    }\r\n\r\n\r\n    function getAllContractsToSign (address owner) public view returns (Contrato[] memory){\r\n        require(todosLosContratosSonDelOwner(owner) == false, \"El propietario tiene todos los contratos\");\r\n        Contrato[] memory contratosAux = new Contrato[](contratos.length - ownerCount[owner]);\r\n        uint count = 0;\r\n        for (uint i=0; i < contratos.length; i++){\r\n            if (contractOwner[i] != owner) {\r\n                contratosAux[count] = contratos[i];\r\n                count++;\r\n            }\r\n        }\r\n\r\n        // Redimensiona el array  para eliminar los espacios no utilizados\r\n        assembly {\r\n            mstore(contratosAux, count)\r\n        }\r\n        return contratosAux;\r\n    }\r\n\r\n    \r\n    function getAllContractsByOwner (address owner) public view returns (Contrato[] memory){\r\n        require(existenContratosParaOwner(owner), \"El propietario no tiene contratos\");\r\n        Contrato[] memory contratosAux = new Contrato[](ownerCount[owner]);\r\n        uint count = 0;\r\n        for (uint i=0; i < contratos.length; i++){\r\n            if (contractOwner[i] == owner) {\r\n                contratosAux[count] = contratos[i];\r\n                count++;\r\n            }\r\n        }\r\n\r\n        // Redimensiona el array  para eliminar los espacios no utilizados\r\n        assembly {\r\n            mstore(contratosAux, count)\r\n        }\r\n        return contratosAux;\r\n    }\r\n\r\n    function getAllContracts () public view returns (Contrato[] memory){\r\n        require(contratos.length > 0, \"Aun no existen contratos\");\r\n        Contrato[] memory contratosAux = new Contrato[](contratos.length);\r\n        uint count = 0;\r\n        for (uint i=0; i < contratos.length; i++){\r\n            contratosAux[count] = contratos[i];\r\n            count++;\r\n        }\r\n\r\n        // Redimensiona el array  para eliminar los espacios no utilizados\r\n        assembly {\r\n            mstore(contratosAux, count)\r\n        }\r\n        return contratosAux;\r\n    }\r\n    \r\n    function getOwner(uint _id) public view returns (address) {\r\n        require(_id < contratos.length, \"No existe ningun contrato con ese ID\");\r\n        return contractOwner[_id];\r\n    }\r\n\r\n    function todosLosContratosSonDelOwner(address owner) internal view returns (bool) {\r\n        for (uint i = 0; i < contratos.length; i++) {\r\n            if (contractOwner[i] != owner) {\r\n                return false;\r\n            }\r\n        }\r\n        return true;\r\n    }\r\n\r\n    function existenContratosParaOwner(address owner) public view returns (bool) {\r\n        return ownerCount[owner] > 0;\r\n    }\r\n\r\n\r\n}\r\n",
  "sourcePath": "C:\\Users\\super\\OneDrive - UVa (Estudiantes)\\Documentos\\TFG\\uva-contractme\\contracts\\MyContract.sol",
  "compiler": {
    "name": "solc",
    "version": "0.8.2+commit.661d1103.Emscripten.clang"
  },
  "schemaVersion": "3.4.16",
  "updatedAt": "2024-06-02T22:14:36.659Z",
  "networkType": "ethereum",
  "devdoc": {
    "kind": "dev",
    "methods": {},
    "version": 1
  },
  "userdoc": {
    "kind": "user",
    "methods": {},
    "version": 1
  }
}