{
  "contractName": "MyContract",
  "abi": [
    {
      "anonymous": false,
      "inputs": [
        {
          "indexed": true,
          "internalType": "uint256",
          "name": "id",
          "type": "uint256"
        },
        {
          "indexed": false,
          "internalType": "string",
          "name": "titulo",
          "type": "string"
        },
        {
          "indexed": false,
          "internalType": "string",
          "name": "descripcion",
          "type": "string"
        },
        {
          "indexed": false,
          "internalType": "address",
          "name": "ownerAddress",
          "type": "address"
        },
        {
          "indexed": false,
          "internalType": "uint256",
          "name": "precio",
          "type": "uint256"
        },
        {
          "indexed": false,
          "internalType": "string",
          "name": "fechaInicio",
          "type": "string"
        },
        {
          "indexed": false,
          "internalType": "string",
          "name": "fechaFin",
          "type": "string"
        }
      ],
      "name": "ContratoCreado",
      "type": "event"
    },
    {
      "inputs": [
        {
          "internalType": "uint256",
          "name": "",
          "type": "uint256"
        }
      ],
      "name": "contractOwner",
      "outputs": [
        {
          "internalType": "address",
          "name": "",
          "type": "address"
        }
      ],
      "stateMutability": "view",
      "type": "function",
      "constant": true
    },
    {
      "inputs": [
        {
          "internalType": "uint256",
          "name": "",
          "type": "uint256"
        }
      ],
      "name": "contratos",
      "outputs": [
        {
          "internalType": "uint256",
          "name": "id",
          "type": "uint256"
        },
        {
          "internalType": "string",
          "name": "titulo",
          "type": "string"
        },
        {
          "internalType": "string",
          "name": "descripcion",
          "type": "string"
        },
        {
          "internalType": "enum MyContract.EstadoContrato",
          "name": "estado",
          "type": "uint8"
        },
        {
          "internalType": "uint256",
          "name": "precio",
          "type": "uint256"
        },
        {
          "internalType": "string",
          "name": "fechaInicio",
          "type": "string"
        },
        {
          "internalType": "string",
          "name": "fechaFin",
          "type": "string"
        }
      ],
      "stateMutability": "view",
      "type": "function",
      "constant": true
    },
    {
      "inputs": [
        {
          "internalType": "string",
          "name": "_titulo",
          "type": "string"
        },
        {
          "internalType": "string",
          "name": "_descripcion",
          "type": "string"
        },
        {
          "internalType": "uint256",
          "name": "_precio",
          "type": "uint256"
        },
        {
          "internalType": "string",
          "name": "_fechaInicio",
          "type": "string"
        },
        {
          "internalType": "string",
          "name": "_fechaFin",
          "type": "string"
        }
      ],
      "name": "crearContrato",
      "outputs": [],
      "stateMutability": "nonpayable",
      "type": "function"
    },
    {
      "inputs": [
        {
          "internalType": "uint256",
          "name": "_id",
          "type": "uint256"
        }
      ],
      "name": "getContrato",
      "outputs": [
        {
          "components": [
            {
              "internalType": "uint256",
              "name": "id",
              "type": "uint256"
            },
            {
              "internalType": "string",
              "name": "titulo",
              "type": "string"
            },
            {
              "internalType": "string",
              "name": "descripcion",
              "type": "string"
            },
            {
              "internalType": "enum MyContract.EstadoContrato",
              "name": "estado",
              "type": "uint8"
            },
            {
              "internalType": "uint256",
              "name": "precio",
              "type": "uint256"
            },
            {
              "internalType": "string",
              "name": "fechaInicio",
              "type": "string"
            },
            {
              "internalType": "string",
              "name": "fechaFin",
              "type": "string"
            }
          ],
          "internalType": "struct MyContract.Contrato",
          "name": "",
          "type": "tuple"
        }
      ],
      "stateMutability": "view",
      "type": "function",
      "constant": true
    },
    {
      "inputs": [],
      "name": "getAllContracts",
      "outputs": [
        {
          "components": [
            {
              "internalType": "uint256",
              "name": "id",
              "type": "uint256"
            },
            {
              "internalType": "string",
              "name": "titulo",
              "type": "string"
            },
            {
              "internalType": "string",
              "name": "descripcion",
              "type": "string"
            },
            {
              "internalType": "enum MyContract.EstadoContrato",
              "name": "estado",
              "type": "uint8"
            },
            {
              "internalType": "uint256",
              "name": "precio",
              "type": "uint256"
            },
            {
              "internalType": "string",
              "name": "fechaInicio",
              "type": "string"
            },
            {
              "internalType": "string",
              "name": "fechaFin",
              "type": "string"
            }
          ],
          "internalType": "struct MyContract.Contrato[]",
          "name": "",
          "type": "tuple[]"
        }
      ],
      "stateMutability": "view",
      "type": "function",
      "constant": true
    }
  ],
  "bytecode": "0x608060405234801561001057600080fd5b506119c6806100206000396000f3fe608060405234801561001057600080fd5b50600436106100575760003560e01c806318d3ce961461005c5780633a00a1d11461007a57806343fd9efe146100b0578063a8d09480146100e0578063c835d31014610110575b600080fd5b61006461012c565b6040516100719190611440565b60405180910390f35b610094600480360381019061008f91906110eb565b6105af565b6040516100a79796959493929190611561565b60405180910390f35b6100ca60048036038101906100c591906110eb565b61082e565b6040516100d7919061153f565b60405180910390f35b6100fa60048036038101906100f591906110eb565b610bba565b6040516101079190611425565b60405180910390f35b61012a60048036038101906101259190611014565b610bed565b005b60606000808054905011610175576040517f08c379a000000000000000000000000000000000000000000000000000000000815260040161016c9061151f565b60405180910390fd5b6000808054905067ffffffffffffffff8111156101bb577f4e487b7100000000000000000000000000000000000000000000000000000000600052604160045260246000fd5b6040519080825280602002602001820160405280156101f457816020015b6101e1610e7f565b8152602001906001900390816101d95790505b5090506000805b6000805490508110156105a35760008181548110610242577f4e487b7100000000000000000000000000000000000000000000000000000000600052603260045260246000fd5b90600052602060002090600702016040518060e0016040529081600082015481526020016001820180546102759061174b565b80601f01602080910402602001604051908101604052809291908181526020018280546102a19061174b565b80156102ee5780601f106102c3576101008083540402835291602001916102ee565b820191906000526020600020905b8154815290600101906020018083116102d157829003601f168201915b505050505081526020016002820180546103079061174b565b80601f01602080910402602001604051908101604052809291908181526020018280546103339061174b565b80156103805780601f1061035557610100808354040283529160200191610380565b820191906000526020600020905b81548152906001019060200180831161036357829003601f168201915b505050505081526020016003820160009054906101000a900460ff1660038111156103d4577f4e487b7100000000000000000000000000000000000000000000000000000000600052602160045260246000fd5b600381111561040c577f4e487b7100000000000000000000000000000000000000000000000000000000600052602160045260246000fd5b81526020016004820154815260200160058201805461042a9061174b565b80601f01602080910402602001604051908101604052809291908181526020018280546104569061174b565b80156104a35780601f10610478576101008083540402835291602001916104a3565b820191906000526020600020905b81548152906001019060200180831161048657829003601f168201915b505050505081526020016006820180546104bc9061174b565b80601f01602080910402602001604051908101604052809291908181526020018280546104e89061174b565b80156105355780601f1061050a57610100808354040283529160200191610535565b820191906000526020600020905b81548152906001019060200180831161051857829003601f168201915b505050505081525050838381518110610577577f4e487b7100000000000000000000000000000000000000000000000000000000600052603260045260246000fd5b6020026020010181905250818061058d906117ae565b925050808061059b906117ae565b9150506101fb565b50808252819250505090565b600081815481106105bf57600080fd5b90600052602060002090600702016000915090508060000154908060010180546105e89061174b565b80601f01602080910402602001604051908101604052809291908181526020018280546106149061174b565b80156106615780601f1061063657610100808354040283529160200191610661565b820191906000526020600020905b81548152906001019060200180831161064457829003601f168201915b5050505050908060020180546106769061174b565b80601f01602080910402602001604051908101604052809291908181526020018280546106a29061174b565b80156106ef5780601f106106c4576101008083540402835291602001916106ef565b820191906000526020600020905b8154815290600101906020018083116106d257829003601f168201915b5050505050908060030160009054906101000a900460ff169080600401549080600501805461071d9061174b565b80601f01602080910402602001604051908101604052809291908181526020018280546107499061174b565b80156107965780601f1061076b57610100808354040283529160200191610796565b820191906000526020600020905b81548152906001019060200180831161077957829003601f168201915b5050505050908060060180546107ab9061174b565b80601f01602080910402602001604051908101604052809291908181526020018280546107d79061174b565b80156108245780601f106107f957610100808354040283529160200191610824565b820191906000526020600020905b81548152906001019060200180831161080757829003601f168201915b5050505050905087565b610836610e7f565b600080549050821061087d576040517f08c379a0000000000000000000000000000000000000000000000000000000008152600401610874906114df565b60405180910390fd5b600082815481106108b7577f4e487b7100000000000000000000000000000000000000000000000000000000600052603260045260246000fd5b90600052602060002090600702016040518060e0016040529081600082015481526020016001820180546108ea9061174b565b80601f01602080910402602001604051908101604052809291908181526020018280546109169061174b565b80156109635780601f1061093857610100808354040283529160200191610963565b820191906000526020600020905b81548152906001019060200180831161094657829003601f168201915b5050505050815260200160028201805461097c9061174b565b80601f01602080910402602001604051908101604052809291908181526020018280546109a89061174b565b80156109f55780601f106109ca576101008083540402835291602001916109f5565b820191906000526020600020905b8154815290600101906020018083116109d857829003601f168201915b505050505081526020016003820160009054906101000a900460ff166003811115610a49577f4e487b7100000000000000000000000000000000000000000000000000000000600052602160045260246000fd5b6003811115610a81577f4e487b7100000000000000000000000000000000000000000000000000000000600052602160045260246000fd5b815260200160048201548152602001600582018054610a9f9061174b565b80601f0160208091040260200160405190810160405280929190818152602001828054610acb9061174b565b8015610b185780601f10610aed57610100808354040283529160200191610b18565b820191906000526020600020905b815481529060010190602001808311610afb57829003601f168201915b50505050508152602001600682018054610b319061174b565b80601f0160208091040260200160405190810160405280929190818152602001828054610b5d9061174b565b8015610baa5780601f10610b7f57610100808354040283529160200191610baa565b820191906000526020600020905b815481529060010190602001808311610b8d57829003601f168201915b5050505050815250509050919050565b60016020528060005260406000206000915054906101000a900473ffffffffffffffffffffffffffffffffffffffff1681565b60008311610c30576040517f08c379a0000000000000000000000000000000000000000000000000000000008152600401610c27906114ff565b60405180910390fd5b60008080549050905060006040518060e0016040528083815260200188815260200187815260200160016003811115610c92577f4e487b7100000000000000000000000000000000000000000000000000000000600052602160045260246000fd5b8152602001868152602001858152602001848152509080600181540180825580915050600190039060005260206000209060070201600090919091909150600082015181600001556020820151816001019080519060200190610cf6929190610ef4565b506040820151816002019080519060200190610d13929190610ef4565b5060608201518160030160006101000a81548160ff02191690836003811115610d65577f4e487b7100000000000000000000000000000000000000000000000000000000600052602160045260246000fd5b02179055506080820151816004015560a0820151816005019080519060200190610d90929190610ef4565b5060c0820151816006019080519060200190610dad929190610ef4565b505050336001600083815260200190815260200160002060006101000a81548173ffffffffffffffffffffffffffffffffffffffff021916908373ffffffffffffffffffffffffffffffffffffffff160217905550807f64a616012de865904db92adea94e3eb0c7880c294e70613f08e6dc1753c5a65e87876001600086815260200190815260200160002060009054906101000a900473ffffffffffffffffffffffffffffffffffffffff16888888604051610e6f96959493929190611462565b60405180910390a2505050505050565b6040518060e0016040528060008152602001606081526020016060815260200160006003811115610ed9577f4e487b7100000000000000000000000000000000000000000000000000000000600052602160045260246000fd5b81526020016000815260200160608152602001606081525090565b828054610f009061174b565b90600052602060002090601f016020900481019282610f225760008555610f69565b82601f10610f3b57805160ff1916838001178555610f69565b82800160010185558215610f69579182015b82811115610f68578251825591602001919060010190610f4d565b5b509050610f769190610f7a565b5090565b5b80821115610f93576000816000905550600101610f7b565b5090565b6000610faa610fa584611611565b6115ec565b905082815260208101848484011115610fc257600080fd5b610fcd848285611709565b509392505050565b600082601f830112610fe657600080fd5b8135610ff6848260208601610f97565b91505092915050565b60008135905061100e81611979565b92915050565b600080600080600060a0868803121561102c57600080fd5b600086013567ffffffffffffffff81111561104657600080fd5b61105288828901610fd5565b955050602086013567ffffffffffffffff81111561106f57600080fd5b61107b88828901610fd5565b945050604061108c88828901610fff565b935050606086013567ffffffffffffffff8111156110a957600080fd5b6110b588828901610fd5565b925050608086013567ffffffffffffffff8111156110d257600080fd5b6110de88828901610fd5565b9150509295509295909350565b6000602082840312156110fd57600080fd5b600061110b84828501610fff565b91505092915050565b600061112083836112a5565b905092915050565b611131816116a8565b82525050565b600061114282611652565b61114c8185611675565b93508360208202850161115e85611642565b8060005b8581101561119a578484038952815161117b8582611114565b945061118683611668565b925060208a01995050600181019050611162565b50829750879550505050505092915050565b6111b5816116f7565b82525050565b6111c4816116f7565b82525050565b60006111d58261165d565b6111df8185611686565b93506111ef818560208601611718565b6111f8816118b3565b840191505092915050565b600061120e8261165d565b6112188185611697565b9350611228818560208601611718565b611231816118b3565b840191505092915050565b6000611249601983611697565b9150611254826118c4565b602082019050919050565b600061126c602483611697565b9150611277826118ed565b604082019050919050565b600061128f601883611697565b915061129a8261193c565b602082019050919050565b600060e0830160008301516112bd6000860182611407565b50602083015184820360208601526112d582826111ca565b915050604083015184820360408601526112ef82826111ca565b915050606083015161130460608601826111ac565b5060808301516113176080860182611407565b5060a083015184820360a086015261132f82826111ca565b91505060c083015184820360c086015261134982826111ca565b9150508091505092915050565b600060e08301600083015161136e6000860182611407565b506020830151848203602086015261138682826111ca565b915050604083015184820360408601526113a082826111ca565b91505060608301516113b560608601826111ac565b5060808301516113c86080860182611407565b5060a083015184820360a08601526113e082826111ca565b91505060c083015184820360c08601526113fa82826111ca565b9150508091505092915050565b611410816116ed565b82525050565b61141f816116ed565b82525050565b600060208201905061143a6000830184611128565b92915050565b6000602082019050818103600083015261145a8184611137565b905092915050565b600060c082019050818103600083015261147c8189611203565b905081810360208301526114908188611203565b905061149f6040830187611128565b6114ac6060830186611416565b81810360808301526114be8185611203565b905081810360a08301526114d28184611203565b9050979650505050505050565b600060208201905081810360008301526114f88161123c565b9050919050565b600060208201905081810360008301526115188161125f565b9050919050565b6000602082019050818103600083015261153881611282565b9050919050565b600060208201905081810360008301526115598184611356565b905092915050565b600060e082019050611576600083018a611416565b81810360208301526115888189611203565b9050818103604083015261159c8188611203565b90506115ab60608301876111bb565b6115b86080830186611416565b81810360a08301526115ca8185611203565b905081810360c08301526115de8184611203565b905098975050505050505050565b60006115f6611607565b9050611602828261177d565b919050565b6000604051905090565b600067ffffffffffffffff82111561162c5761162b611884565b5b611635826118b3565b9050602081019050919050565b6000819050602082019050919050565b600081519050919050565b600081519050919050565b6000602082019050919050565b600082825260208201905092915050565b600082825260208201905092915050565b600082825260208201905092915050565b60006116b3826116cd565b9050919050565b60008190506116c882611965565b919050565b600073ffffffffffffffffffffffffffffffffffffffff82169050919050565b6000819050919050565b6000611702826116ba565b9050919050565b82818337600083830152505050565b60005b8381101561173657808201518184015260208101905061171b565b83811115611745576000848401525b50505050565b6000600282049050600182168061176357607f821691505b6020821081141561177757611776611855565b5b50919050565b611786826118b3565b810181811067ffffffffffffffff821117156117a5576117a4611884565b5b80604052505050565b60006117b9826116ed565b91507fffffffffffffffffffffffffffffffffffffffffffffffffffffffffffffffff8214156117ec576117eb6117f7565b5b600182019050919050565b7f4e487b7100000000000000000000000000000000000000000000000000000000600052601160045260246000fd5b7f4e487b7100000000000000000000000000000000000000000000000000000000600052602160045260246000fd5b7f4e487b7100000000000000000000000000000000000000000000000000000000600052602260045260246000fd5b7f4e487b7100000000000000000000000000000000000000000000000000000000600052604160045260246000fd5b6000601f19601f8301169050919050565b7f4e6f20657869737465206e696e67756e20636f6e747261746f00000000000000600082015250565b7f456c2070726563696f20657320696775616c206f20696e666572696f7220612060008201527f6365726f00000000000000000000000000000000000000000000000000000000602082015250565b7f41756e206e6f206578697374656e20636f6e747261746f730000000000000000600082015250565b6004811061197657611975611826565b5b50565b611982816116ed565b811461198d57600080fd5b5056fea264697066735822122033bb48f220200790df3c0f7cfa733dc58a1c9ad2f46324f966da9994f54b985864736f6c63430008020033",
  "immutableReferences": {},
  "source": "// SPDX-License-Identifier: MIT\r\npragma solidity ^0.8.2;\r\n\r\ncontract MyContract {\r\n    \r\n    struct Contrato {\r\n        uint id;\r\n        string titulo;\r\n        string descripcion;\r\n        EstadoContrato estado;\r\n        uint256 precio;\r\n        string fechaInicio;\r\n        string fechaFin;\r\n    }\r\n\r\n    enum EstadoContrato { Inactivo, Activo, Firmado, Finalizado }\r\n    Contrato[] public contratos; \r\n    \r\n    mapping (uint => address) public contractOwner;\r\n\r\n    event ContratoCreado(uint indexed id,string titulo, string descripcion, address ownerAddress, uint256 precio, string fechaInicio, string fechaFin);\r\n    //event ContratoModificado(uint indexed id, string descripcion, address ownerAddress, uint256 fecha);\r\n    //event ContratoFirmado(uint indexed id, address firmante, uint256 fecha);\r\n    //event ContratoFinalizado(uint indexed id, uint256 fecha);\r\n\r\n    \r\n    function crearContrato(string memory _titulo, string memory _descripcion, uint256 _precio, string memory _fechaInicio, string memory _fechaFin) public {\r\n        require(_precio > 0, \"El precio es igual o inferior a cero\");\r\n        uint _id = contratos.length;\r\n        contratos.push(Contrato(_id, _titulo, _descripcion, EstadoContrato.Activo, _precio, _fechaInicio, _fechaFin));\r\n        contractOwner[_id] = msg.sender;\r\n        emit ContratoCreado(_id, _titulo, _descripcion, contractOwner[_id], _precio, _fechaInicio, _fechaFin);\r\n    }\r\n    /*\r\n    function modificarContrato(uint _id, string memory _nuevaDescripcion) public {\r\n        require(contractOwner[_id] == msg.sender, \"No tienes permiso para modificar este contrato\");\r\n        require(contratos[_id].estado == EstadoContrato.Activo, \"El contrato no esta en estado activo\");\r\n        \r\n        contratos[_id].descripcion = _nuevaDescripcion;\r\n        emit ContratoModificado(_id, _nuevaDescripcion, msg.sender, block.timestamp);\r\n    }\r\n    */\r\n\r\n    /*\r\n    function firmarContrato(uint _id) public {\r\n        require(contratos[_id].estado == EstadoContrato.Activo, \"El contrato no esta en estado activo\");\r\n        require(contratos[_id].estado != EstadoContrato.Firmado, \"El contrato ya ha sido firmado\");\r\n        \r\n        contratos[_id].estado = EstadoContrato.Firmado;\r\n        emit ContratoFirmado(_id, msg.sender, block.timestamp);\r\n    }*/\r\n\r\n    /*\r\n\r\n    function finalizarContrato(uint _id) public {\r\n        require(contractOwner[_id] == msg.sender, \"No tienes permiso para finalizar este contrato\");\r\n        require(contratos[_id].estado == EstadoContrato.Firmado, \"El contrato no esta firmado\");\r\n        \r\n        contratos[_id].estado = EstadoContrato.Finalizado;\r\n        emit ContratoFinalizado(_id, block.timestamp);\r\n    }\r\n    */\r\n\r\n    function getContrato(uint _id) public view returns (Contrato memory){\r\n        require(_id < contratos.length, \"No existe ningun contrato\");\r\n        return contratos[_id];\r\n    }\r\n\r\n    function getAllContracts () public view returns (Contrato[] memory){\r\n        require(contratos.length > 0, \"Aun no existen contratos\");\r\n        Contrato[] memory contratosAux = new Contrato[](contratos.length);\r\n        uint count = 0;\r\n        for (uint i=0; i < contratos.length; i++){\r\n            contratosAux[count] = contratos[i];\r\n            count ++;\r\n        }\r\n\r\n        // Redimensiona el array  para eliminar los espacios no utilizados\r\n        assembly {\r\n            mstore(contratosAux, count)\r\n        }\r\n        return contratosAux;\r\n    }\r\n\r\n}\r\n",
  "sourcePath": "C:\\Users\\super\\OneDrive - UVa (Estudiantes)\\Documentos\\TFG\\uva-contractme\\MiProyecto\\contracts\\MyContract.sol",
  "compiler": {
    "name": "solc",
    "version": "0.8.2+commit.661d1103.Emscripten.clang"
  },
  "schemaVersion": "3.4.16",
  "updatedAt": "2024-04-24T19:59:12.692Z",
  "networkType": "ethereum",
  "devdoc": {
    "kind": "dev",
    "methods": {},
    "version": 1
  },
  "userdoc": {
    "kind": "user",
    "methods": {},
    "version": 1
  }
}