{
  "contractName": "MyContract",
  "abi": [
    {
      "anonymous": false,
      "inputs": [
        {
          "indexed": true,
          "internalType": "uint256",
          "name": "id",
          "type": "uint256"
        },
        {
          "indexed": false,
          "internalType": "string",
          "name": "titulo",
          "type": "string"
        },
        {
          "indexed": false,
          "internalType": "string",
          "name": "descripcion",
          "type": "string"
        },
        {
          "indexed": false,
          "internalType": "address",
          "name": "ownerAddress",
          "type": "address"
        },
        {
          "indexed": false,
          "internalType": "uint256",
          "name": "precio",
          "type": "uint256"
        },
        {
          "indexed": false,
          "internalType": "string",
          "name": "fechaInicio",
          "type": "string"
        },
        {
          "indexed": false,
          "internalType": "string",
          "name": "fechaFin",
          "type": "string"
        }
      ],
      "name": "ContratoCreado",
      "type": "event"
    },
    {
      "anonymous": false,
      "inputs": [
        {
          "indexed": true,
          "internalType": "uint256",
          "name": "id",
          "type": "uint256"
        },
        {
          "indexed": false,
          "internalType": "address",
          "name": "firmante",
          "type": "address"
        }
      ],
      "name": "ContratoFirmado",
      "type": "event"
    },
    {
      "inputs": [
        {
          "internalType": "uint256",
          "name": "",
          "type": "uint256"
        }
      ],
      "name": "contractOwner",
      "outputs": [
        {
          "internalType": "address",
          "name": "",
          "type": "address"
        }
      ],
      "stateMutability": "view",
      "type": "function",
      "constant": true
    },
    {
      "inputs": [
        {
          "internalType": "uint256",
          "name": "",
          "type": "uint256"
        }
      ],
      "name": "contratos",
      "outputs": [
        {
          "internalType": "uint256",
          "name": "id",
          "type": "uint256"
        },
        {
          "internalType": "string",
          "name": "titulo",
          "type": "string"
        },
        {
          "internalType": "string",
          "name": "descripcion",
          "type": "string"
        },
        {
          "internalType": "enum MyContract.EstadoContrato",
          "name": "estado",
          "type": "uint8"
        },
        {
          "internalType": "uint256",
          "name": "precio",
          "type": "uint256"
        },
        {
          "internalType": "string",
          "name": "fechaInicio",
          "type": "string"
        },
        {
          "internalType": "string",
          "name": "fechaFin",
          "type": "string"
        },
        {
          "internalType": "address",
          "name": "firmante",
          "type": "address"
        }
      ],
      "stateMutability": "view",
      "type": "function",
      "constant": true
    },
    {
      "inputs": [
        {
          "internalType": "address",
          "name": "",
          "type": "address"
        },
        {
          "internalType": "uint256",
          "name": "",
          "type": "uint256"
        }
      ],
      "name": "contratosFirmadosPorCuenta",
      "outputs": [
        {
          "internalType": "uint256",
          "name": "",
          "type": "uint256"
        }
      ],
      "stateMutability": "view",
      "type": "function",
      "constant": true
    },
    {
      "inputs": [
        {
          "internalType": "string",
          "name": "_titulo",
          "type": "string"
        },
        {
          "internalType": "string",
          "name": "_descripcion",
          "type": "string"
        },
        {
          "internalType": "uint256",
          "name": "_precio",
          "type": "uint256"
        },
        {
          "internalType": "string",
          "name": "_fechaInicio",
          "type": "string"
        },
        {
          "internalType": "string",
          "name": "_fechaFin",
          "type": "string"
        }
      ],
      "name": "crearContrato",
      "outputs": [],
      "stateMutability": "nonpayable",
      "type": "function"
    },
    {
      "inputs": [
        {
          "internalType": "uint256",
          "name": "_id",
          "type": "uint256"
        }
      ],
      "name": "firmarContrato",
      "outputs": [],
      "stateMutability": "payable",
      "type": "function",
      "payable": true
    },
    {
      "inputs": [
        {
          "internalType": "uint256",
          "name": "_id",
          "type": "uint256"
        }
      ],
      "name": "getContrato",
      "outputs": [
        {
          "components": [
            {
              "internalType": "uint256",
              "name": "id",
              "type": "uint256"
            },
            {
              "internalType": "string",
              "name": "titulo",
              "type": "string"
            },
            {
              "internalType": "string",
              "name": "descripcion",
              "type": "string"
            },
            {
              "internalType": "enum MyContract.EstadoContrato",
              "name": "estado",
              "type": "uint8"
            },
            {
              "internalType": "uint256",
              "name": "precio",
              "type": "uint256"
            },
            {
              "internalType": "string",
              "name": "fechaInicio",
              "type": "string"
            },
            {
              "internalType": "string",
              "name": "fechaFin",
              "type": "string"
            },
            {
              "internalType": "address",
              "name": "firmante",
              "type": "address"
            }
          ],
          "internalType": "struct MyContract.Contrato",
          "name": "",
          "type": "tuple"
        }
      ],
      "stateMutability": "view",
      "type": "function",
      "constant": true
    },
    {
      "inputs": [
        {
          "internalType": "uint256",
          "name": "_id",
          "type": "uint256"
        }
      ],
      "name": "obtenerFirmante",
      "outputs": [
        {
          "internalType": "address",
          "name": "",
          "type": "address"
        }
      ],
      "stateMutability": "view",
      "type": "function",
      "constant": true
    },
    {
      "inputs": [
        {
          "internalType": "address",
          "name": "_cuenta",
          "type": "address"
        }
      ],
      "name": "getContratosFirmados",
      "outputs": [
        {
          "components": [
            {
              "internalType": "uint256",
              "name": "id",
              "type": "uint256"
            },
            {
              "internalType": "string",
              "name": "titulo",
              "type": "string"
            },
            {
              "internalType": "string",
              "name": "descripcion",
              "type": "string"
            },
            {
              "internalType": "enum MyContract.EstadoContrato",
              "name": "estado",
              "type": "uint8"
            },
            {
              "internalType": "uint256",
              "name": "precio",
              "type": "uint256"
            },
            {
              "internalType": "string",
              "name": "fechaInicio",
              "type": "string"
            },
            {
              "internalType": "string",
              "name": "fechaFin",
              "type": "string"
            },
            {
              "internalType": "address",
              "name": "firmante",
              "type": "address"
            }
          ],
          "internalType": "struct MyContract.Contrato[]",
          "name": "",
          "type": "tuple[]"
        }
      ],
      "stateMutability": "view",
      "type": "function",
      "constant": true
    },
    {
      "inputs": [
        {
          "internalType": "address",
          "name": "owner",
          "type": "address"
        }
      ],
      "name": "getAllContractsToSign",
      "outputs": [
        {
          "components": [
            {
              "internalType": "uint256",
              "name": "id",
              "type": "uint256"
            },
            {
              "internalType": "string",
              "name": "titulo",
              "type": "string"
            },
            {
              "internalType": "string",
              "name": "descripcion",
              "type": "string"
            },
            {
              "internalType": "enum MyContract.EstadoContrato",
              "name": "estado",
              "type": "uint8"
            },
            {
              "internalType": "uint256",
              "name": "precio",
              "type": "uint256"
            },
            {
              "internalType": "string",
              "name": "fechaInicio",
              "type": "string"
            },
            {
              "internalType": "string",
              "name": "fechaFin",
              "type": "string"
            },
            {
              "internalType": "address",
              "name": "firmante",
              "type": "address"
            }
          ],
          "internalType": "struct MyContract.Contrato[]",
          "name": "",
          "type": "tuple[]"
        }
      ],
      "stateMutability": "view",
      "type": "function",
      "constant": true
    },
    {
      "inputs": [
        {
          "internalType": "address",
          "name": "owner",
          "type": "address"
        }
      ],
      "name": "getAllContractsByOwner",
      "outputs": [
        {
          "components": [
            {
              "internalType": "uint256",
              "name": "id",
              "type": "uint256"
            },
            {
              "internalType": "string",
              "name": "titulo",
              "type": "string"
            },
            {
              "internalType": "string",
              "name": "descripcion",
              "type": "string"
            },
            {
              "internalType": "enum MyContract.EstadoContrato",
              "name": "estado",
              "type": "uint8"
            },
            {
              "internalType": "uint256",
              "name": "precio",
              "type": "uint256"
            },
            {
              "internalType": "string",
              "name": "fechaInicio",
              "type": "string"
            },
            {
              "internalType": "string",
              "name": "fechaFin",
              "type": "string"
            },
            {
              "internalType": "address",
              "name": "firmante",
              "type": "address"
            }
          ],
          "internalType": "struct MyContract.Contrato[]",
          "name": "",
          "type": "tuple[]"
        }
      ],
      "stateMutability": "view",
      "type": "function",
      "constant": true
    },
    {
      "inputs": [],
      "name": "getAllContracts",
      "outputs": [
        {
          "components": [
            {
              "internalType": "uint256",
              "name": "id",
              "type": "uint256"
            },
            {
              "internalType": "string",
              "name": "titulo",
              "type": "string"
            },
            {
              "internalType": "string",
              "name": "descripcion",
              "type": "string"
            },
            {
              "internalType": "enum MyContract.EstadoContrato",
              "name": "estado",
              "type": "uint8"
            },
            {
              "internalType": "uint256",
              "name": "precio",
              "type": "uint256"
            },
            {
              "internalType": "string",
              "name": "fechaInicio",
              "type": "string"
            },
            {
              "internalType": "string",
              "name": "fechaFin",
              "type": "string"
            },
            {
              "internalType": "address",
              "name": "firmante",
              "type": "address"
            }
          ],
          "internalType": "struct MyContract.Contrato[]",
          "name": "",
          "type": "tuple[]"
        }
      ],
      "stateMutability": "view",
      "type": "function",
      "constant": true
    },
    {
      "inputs": [
        {
          "internalType": "uint256",
          "name": "_id",
          "type": "uint256"
        }
      ],
      "name": "getOwner",
      "outputs": [
        {
          "internalType": "address",
          "name": "",
          "type": "address"
        }
      ],
      "stateMutability": "view",
      "type": "function",
      "constant": true
    },
    {
      "inputs": [
        {
          "internalType": "address",
          "name": "owner",
          "type": "address"
        }
      ],
      "name": "existenContratosParaOwner",
      "outputs": [
        {
          "internalType": "bool",
          "name": "",
          "type": "bool"
        }
      ],
      "stateMutability": "view",
      "type": "function",
      "constant": true
    }
  ],
  "bytecode": "0x608060405234801561001057600080fd5b50613865806100206000396000f3fe6080604052600436106100c25760003560e01c80636797559b1161007f5780637986247f116100595780637986247f146102c0578063a8d09480146102fd578063c41a360a1461033a578063c835d31014610377576100c2565b80636797559b1461020957806372d139181461024657806373646b0114610283576100c2565b806318d3ce96146100c75780631b7a8220146100f25780633a00a1d11461010e5780633b6d2660146101525780633e2e7d771461018f57806343fd9efe146101cc575b600080fd5b3480156100d357600080fd5b506100dc6103a0565b6040516100e9919061303e565b60405180910390f35b61010c60048036038101906101079190612bf4565b61087a565b005b34801561011a57600080fd5b5061013560048036038101906101309190612bf4565b610b50565b604051610149989796959493929190613235565b60405180910390f35b34801561015e57600080fd5b5061017960048036038101906101749190612ab8565b610df5565b604051610186919061303e565b60405180910390f35b34801561019b57600080fd5b506101b660048036038101906101b19190612ab8565b611343565b6040516101c3919061303e565b60405180910390f35b3480156101d857600080fd5b506101f360048036038101906101ee9190612bf4565b6118c3565b60405161020091906131f8565b60405180910390f35b34801561021557600080fd5b50610230600480360381019061022b9190612ab8565b611ca6565b60405161023d9190613060565b60405180910390f35b34801561025257600080fd5b5061026d60048036038101906102689190612ab8565b611cf1565b60405161027a919061303e565b60405180910390f35b34801561028f57600080fd5b506102aa60048036038101906102a59190612ae1565b61232c565b6040516102b7919061321a565b60405180910390f35b3480156102cc57600080fd5b506102e760048036038101906102e29190612bf4565b61235d565b6040516102f49190613023565b60405180910390f35b34801561030957600080fd5b50610324600480360381019061031f9190612bf4565b612418565b6040516103319190613023565b60405180910390f35b34801561034657600080fd5b50610361600480360381019061035c9190612bf4565b61244b565b60405161036e9190613023565b60405180910390f35b34801561038357600080fd5b5061039e60048036038101906103999190612b1d565b6124ce565b005b606060008080549050116103e9576040517f08c379a00000000000000000000000000000000000000000000000000000000081526004016103e090613178565b60405180910390fd5b6000808054905067ffffffffffffffff81111561042f577f4e487b7100000000000000000000000000000000000000000000000000000000600052604160045260246000fd5b60405190808252806020026020018201604052801561046857816020015b6104556128f0565b81526020019060019003908161044d5790505b5090506000805b60008054905081101561086e57600081815481106104b6577f4e487b7100000000000000000000000000000000000000000000000000000000600052603260045260246000fd5b906000526020600020906008020160405180610100016040529081600082015481526020016001820180546104ea9061346e565b80601f01602080910402602001604051908101604052809291908181526020018280546105169061346e565b80156105635780601f1061053857610100808354040283529160200191610563565b820191906000526020600020905b81548152906001019060200180831161054657829003601f168201915b5050505050815260200160028201805461057c9061346e565b80601f01602080910402602001604051908101604052809291908181526020018280546105a89061346e565b80156105f55780601f106105ca576101008083540402835291602001916105f5565b820191906000526020600020905b8154815290600101906020018083116105d857829003601f168201915b505050505081526020016003820160009054906101000a900460ff166002811115610649577f4e487b7100000000000000000000000000000000000000000000000000000000600052602160045260246000fd5b6002811115610681577f4e487b7100000000000000000000000000000000000000000000000000000000600052602160045260246000fd5b81526020016004820154815260200160058201805461069f9061346e565b80601f01602080910402602001604051908101604052809291908181526020018280546106cb9061346e565b80156107185780601f106106ed57610100808354040283529160200191610718565b820191906000526020600020905b8154815290600101906020018083116106fb57829003601f168201915b505050505081526020016006820180546107319061346e565b80601f016020809104026020016040519081016040528092919081815260200182805461075d9061346e565b80156107aa5780601f1061077f576101008083540402835291602001916107aa565b820191906000526020600020905b81548152906001019060200180831161078d57829003601f168201915b505050505081526020016007820160009054906101000a900473ffffffffffffffffffffffffffffffffffffffff1673ffffffffffffffffffffffffffffffffffffffff1673ffffffffffffffffffffffffffffffffffffffff1681525050838381518110610842577f4e487b7100000000000000000000000000000000000000000000000000000000600052603260045260246000fd5b60200260200101819052508180610858906134d1565b9250508080610866906134d1565b91505061046f565b50808252819250505090565b60008082815481106108b5577f4e487b7100000000000000000000000000000000000000000000000000000000600052603260045260246000fd5b90600052602060002090600802019050600073ffffffffffffffffffffffffffffffffffffffff168160070160009054906101000a900473ffffffffffffffffffffffffffffffffffffffff1673ffffffffffffffffffffffffffffffffffffffff1614610958576040517f08c379a000000000000000000000000000000000000000000000000000000000815260040161094f90613198565b60405180910390fd5b8060040154341461099e576040517f08c379a0000000000000000000000000000000000000000000000000000000008152600401610995906131b8565b60405180910390fd5b338160070160006101000a81548173ffffffffffffffffffffffffffffffffffffffff021916908373ffffffffffffffffffffffffffffffffffffffff16021790555060018160030160006101000a81548160ff02191690836002811115610a2f577f4e487b7100000000000000000000000000000000000000000000000000000000600052602160045260246000fd5b0217905550600360003373ffffffffffffffffffffffffffffffffffffffff1673ffffffffffffffffffffffffffffffffffffffff1681526020019081526020016000208290806001815401808255809150506001900390600052602060002001600090919091909150556001600083815260200190815260200160002060009054906101000a900473ffffffffffffffffffffffffffffffffffffffff1673ffffffffffffffffffffffffffffffffffffffff166108fc349081150290604051600060405180830381858888f19350505050158015610b13573d6000803e3d6000fd5b50817f58992384990b1f1b4faa681ce4ee24f4c75a2775de1200609b3b51aff815c3c633604051610b449190613023565b60405180910390a25050565b60008181548110610b6057600080fd5b9060005260206000209060080201600091509050806000015490806001018054610b899061346e565b80601f0160208091040260200160405190810160405280929190818152602001828054610bb59061346e565b8015610c025780601f10610bd757610100808354040283529160200191610c02565b820191906000526020600020905b815481529060010190602001808311610be557829003601f168201915b505050505090806002018054610c179061346e565b80601f0160208091040260200160405190810160405280929190818152602001828054610c439061346e565b8015610c905780601f10610c6557610100808354040283529160200191610c90565b820191906000526020600020905b815481529060010190602001808311610c7357829003601f168201915b5050505050908060030160009054906101000a900460ff1690806004015490806005018054610cbe9061346e565b80601f0160208091040260200160405190810160405280929190818152602001828054610cea9061346e565b8015610d375780601f10610d0c57610100808354040283529160200191610d37565b820191906000526020600020905b815481529060010190602001808311610d1a57829003601f168201915b505050505090806006018054610d4c9061346e565b80601f0160208091040260200160405190810160405280929190818152602001828054610d789061346e565b8015610dc55780601f10610d9a57610100808354040283529160200191610dc5565b820191906000526020600020905b815481529060010190602001808311610da857829003601f168201915b5050505050908060070160009054906101000a900473ffffffffffffffffffffffffffffffffffffffff16905088565b60606000600360008473ffffffffffffffffffffffffffffffffffffffff1673ffffffffffffffffffffffffffffffffffffffff168152602001908152602001600020805480602002602001604051908101604052809291908181526020018280548015610e8257602002820191906000526020600020905b815481526020019060010190808311610e6e575b505050505090506000815167ffffffffffffffff811115610ecc577f4e487b7100000000000000000000000000000000000000000000000000000000600052604160045260246000fd5b604051908082528060200260200182016040528015610f0557816020015b610ef26128f0565b815260200190600190039081610eea5790505b50905060005b8251811015611338576000838281518110610f4f577f4e487b7100000000000000000000000000000000000000000000000000000000600052603260045260246000fd5b602002602001015181548110610f8e577f4e487b7100000000000000000000000000000000000000000000000000000000600052603260045260246000fd5b90600052602060002090600802016040518061010001604052908160008201548152602001600182018054610fc29061346e565b80601f0160208091040260200160405190810160405280929190818152602001828054610fee9061346e565b801561103b5780601f106110105761010080835404028352916020019161103b565b820191906000526020600020905b81548152906001019060200180831161101e57829003601f168201915b505050505081526020016002820180546110549061346e565b80601f01602080910402602001604051908101604052809291908181526020018280546110809061346e565b80156110cd5780601f106110a2576101008083540402835291602001916110cd565b820191906000526020600020905b8154815290600101906020018083116110b057829003601f168201915b505050505081526020016003820160009054906101000a900460ff166002811115611121577f4e487b7100000000000000000000000000000000000000000000000000000000600052602160045260246000fd5b6002811115611159577f4e487b7100000000000000000000000000000000000000000000000000000000600052602160045260246000fd5b8152602001600482015481526020016005820180546111779061346e565b80601f01602080910402602001604051908101604052809291908181526020018280546111a39061346e565b80156111f05780601f106111c5576101008083540402835291602001916111f0565b820191906000526020600020905b8154815290600101906020018083116111d357829003601f168201915b505050505081526020016006820180546112099061346e565b80601f01602080910402602001604051908101604052809291908181526020018280546112359061346e565b80156112825780601f1061125757610100808354040283529160200191611282565b820191906000526020600020905b81548152906001019060200180831161126557829003601f168201915b505050505081526020016007820160009054906101000a900473ffffffffffffffffffffffffffffffffffffffff1673ffffffffffffffffffffffffffffffffffffffff1673ffffffffffffffffffffffffffffffffffffffff168152505082828151811061131a577f4e487b7100000000000000000000000000000000000000000000000000000000600052603260045260246000fd5b60200260200101819052508080611330906134d1565b915050610f0b565b508092505050919050565b606061134e82611ca6565b61138d576040517f08c379a000000000000000000000000000000000000000000000000000000000815260040161138490613118565b60405180910390fd5b6000600260008473ffffffffffffffffffffffffffffffffffffffff1673ffffffffffffffffffffffffffffffffffffffff1681526020019081526020016000205467ffffffffffffffff81111561140e577f4e487b7100000000000000000000000000000000000000000000000000000000600052604160045260246000fd5b60405190808252806020026020018201604052801561144757816020015b6114346128f0565b81526020019060019003908161142c5790505b5090506000805b6000805490508110156118b5578473ffffffffffffffffffffffffffffffffffffffff166001600083815260200190815260200160002060009054906101000a900473ffffffffffffffffffffffffffffffffffffffff1673ffffffffffffffffffffffffffffffffffffffff1614156118a257600081815481106114fc577f4e487b7100000000000000000000000000000000000000000000000000000000600052603260045260246000fd5b906000526020600020906008020160405180610100016040529081600082015481526020016001820180546115309061346e565b80601f016020809104026020016040519081016040528092919081815260200182805461155c9061346e565b80156115a95780601f1061157e576101008083540402835291602001916115a9565b820191906000526020600020905b81548152906001019060200180831161158c57829003601f168201915b505050505081526020016002820180546115c29061346e565b80601f01602080910402602001604051908101604052809291908181526020018280546115ee9061346e565b801561163b5780601f106116105761010080835404028352916020019161163b565b820191906000526020600020905b81548152906001019060200180831161161e57829003601f168201915b505050505081526020016003820160009054906101000a900460ff16600281111561168f577f4e487b7100000000000000000000000000000000000000000000000000000000600052602160045260246000fd5b60028111156116c7577f4e487b7100000000000000000000000000000000000000000000000000000000600052602160045260246000fd5b8152602001600482015481526020016005820180546116e59061346e565b80601f01602080910402602001604051908101604052809291908181526020018280546117119061346e565b801561175e5780601f106117335761010080835404028352916020019161175e565b820191906000526020600020905b81548152906001019060200180831161174157829003601f168201915b505050505081526020016006820180546117779061346e565b80601f01602080910402602001604051908101604052809291908181526020018280546117a39061346e565b80156117f05780601f106117c5576101008083540402835291602001916117f0565b820191906000526020600020905b8154815290600101906020018083116117d357829003601f168201915b505050505081526020016007820160009054906101000a900473ffffffffffffffffffffffffffffffffffffffff1673ffffffffffffffffffffffffffffffffffffffff1673ffffffffffffffffffffffffffffffffffffffff1681525050838381518110611888577f4e487b7100000000000000000000000000000000000000000000000000000000600052603260045260246000fd5b6020026020010181905250818061189e906134d1565b9250505b80806118ad906134d1565b91505061144e565b508082528192505050919050565b6118cb6128f0565b6000805490508210611912576040517f08c379a000000000000000000000000000000000000000000000000000000000815260040161190990613138565b60405180910390fd5b6000828154811061194c577f4e487b7100000000000000000000000000000000000000000000000000000000600052603260045260246000fd5b906000526020600020906008020160405180610100016040529081600082015481526020016001820180546119809061346e565b80601f01602080910402602001604051908101604052809291908181526020018280546119ac9061346e565b80156119f95780601f106119ce576101008083540402835291602001916119f9565b820191906000526020600020905b8154815290600101906020018083116119dc57829003601f168201915b50505050508152602001600282018054611a129061346e565b80601f0160208091040260200160405190810160405280929190818152602001828054611a3e9061346e565b8015611a8b5780601f10611a6057610100808354040283529160200191611a8b565b820191906000526020600020905b815481529060010190602001808311611a6e57829003601f168201915b505050505081526020016003820160009054906101000a900460ff166002811115611adf577f4e487b7100000000000000000000000000000000000000000000000000000000600052602160045260246000fd5b6002811115611b17577f4e487b7100000000000000000000000000000000000000000000000000000000600052602160045260246000fd5b815260200160048201548152602001600582018054611b359061346e565b80601f0160208091040260200160405190810160405280929190818152602001828054611b619061346e565b8015611bae5780601f10611b8357610100808354040283529160200191611bae565b820191906000526020600020905b815481529060010190602001808311611b9157829003601f168201915b50505050508152602001600682018054611bc79061346e565b80601f0160208091040260200160405190810160405280929190818152602001828054611bf39061346e565b8015611c405780601f10611c1557610100808354040283529160200191611c40565b820191906000526020600020905b815481529060010190602001808311611c2357829003601f168201915b505050505081526020016007820160009054906101000a900473ffffffffffffffffffffffffffffffffffffffff1673ffffffffffffffffffffffffffffffffffffffff1673ffffffffffffffffffffffffffffffffffffffff16815250509050919050565b600080600260008473ffffffffffffffffffffffffffffffffffffffff1673ffffffffffffffffffffffffffffffffffffffff16815260200190815260200160002054119050919050565b606060001515611d008361284d565b151514611d42576040517f08c379a0000000000000000000000000000000000000000000000000000000008152600401611d39906130f8565b60405180910390fd5b6000600260008473ffffffffffffffffffffffffffffffffffffffff1673ffffffffffffffffffffffffffffffffffffffff16815260200190815260200160002054600080549050611d94919061338b565b67ffffffffffffffff811115611dd3577f4e487b7100000000000000000000000000000000000000000000000000000000600052604160045260246000fd5b604051908082528060200260200182016040528015611e0c57816020015b611df96128f0565b815260200190600190039081611df15790505b5090506000805b60008054905081101561231e578473ffffffffffffffffffffffffffffffffffffffff166001600083815260200190815260200160002060009054906101000a900473ffffffffffffffffffffffffffffffffffffffff1673ffffffffffffffffffffffffffffffffffffffff1614158015611f265750600073ffffffffffffffffffffffffffffffffffffffff1660008281548110611edc577f4e487b7100000000000000000000000000000000000000000000000000000000600052603260045260246000fd5b906000526020600020906008020160070160009054906101000a900473ffffffffffffffffffffffffffffffffffffffff1673ffffffffffffffffffffffffffffffffffffffff16145b1561230b5760008181548110611f65577f4e487b7100000000000000000000000000000000000000000000000000000000600052603260045260246000fd5b90600052602060002090600802016040518061010001604052908160008201548152602001600182018054611f999061346e565b80601f0160208091040260200160405190810160405280929190818152602001828054611fc59061346e565b80156120125780601f10611fe757610100808354040283529160200191612012565b820191906000526020600020905b815481529060010190602001808311611ff557829003601f168201915b5050505050815260200160028201805461202b9061346e565b80601f01602080910402602001604051908101604052809291908181526020018280546120579061346e565b80156120a45780601f10612079576101008083540402835291602001916120a4565b820191906000526020600020905b81548152906001019060200180831161208757829003601f168201915b505050505081526020016003820160009054906101000a900460ff1660028111156120f8577f4e487b7100000000000000000000000000000000000000000000000000000000600052602160045260246000fd5b6002811115612130577f4e487b7100000000000000000000000000000000000000000000000000000000600052602160045260246000fd5b81526020016004820154815260200160058201805461214e9061346e565b80601f016020809104026020016040519081016040528092919081815260200182805461217a9061346e565b80156121c75780601f1061219c576101008083540402835291602001916121c7565b820191906000526020600020905b8154815290600101906020018083116121aa57829003601f168201915b505050505081526020016006820180546121e09061346e565b80601f016020809104026020016040519081016040528092919081815260200182805461220c9061346e565b80156122595780601f1061222e57610100808354040283529160200191612259565b820191906000526020600020905b81548152906001019060200180831161223c57829003601f168201915b505050505081526020016007820160009054906101000a900473ffffffffffffffffffffffffffffffffffffffff1673ffffffffffffffffffffffffffffffffffffffff1673ffffffffffffffffffffffffffffffffffffffff16815250508383815181106122f1577f4e487b7100000000000000000000000000000000000000000000000000000000600052603260045260246000fd5b60200260200101819052508180612307906134d1565b9250505b8080612316906134d1565b915050611e13565b508082528192505050919050565b6003602052816000526040600020818154811061234857600080fd5b90600052602060002001600091509150505481565b6000808054905082106123a5576040517f08c379a000000000000000000000000000000000000000000000000000000000815260040161239c906131d8565b60405180910390fd5b600082815481106123df577f4e487b7100000000000000000000000000000000000000000000000000000000600052603260045260246000fd5b906000526020600020906008020160070160009054906101000a900473ffffffffffffffffffffffffffffffffffffffff169050919050565b60016020528060005260406000206000915054906101000a900473ffffffffffffffffffffffffffffffffffffffff1681565b600080805490508210612493576040517f08c379a000000000000000000000000000000000000000000000000000000000815260040161248a906131d8565b60405180910390fd5b6001600083815260200190815260200160002060009054906101000a900473ffffffffffffffffffffffffffffffffffffffff169050919050565b60008311612511576040517f08c379a000000000000000000000000000000000000000000000000000000000815260040161250890613158565b60405180910390fd5b600080805490509050600060405180610100016040528083815260200188815260200187815260200160006002811115612574577f4e487b7100000000000000000000000000000000000000000000000000000000600052602160045260246000fd5b8152602001868152602001858152602001848152602001600073ffffffffffffffffffffffffffffffffffffffff1681525090806001815401808255809150506001900390600052602060002090600802016000909190919091506000820151816000015560208201518160010190805190602001906125f5929190612983565b506040820151816002019080519060200190612612929190612983565b5060608201518160030160006101000a81548160ff02191690836002811115612664577f4e487b7100000000000000000000000000000000000000000000000000000000600052602160045260246000fd5b02179055506080820151816004015560a082015181600501908051906020019061268f929190612983565b5060c08201518160060190805190602001906126ac929190612983565b5060e08201518160070160006101000a81548173ffffffffffffffffffffffffffffffffffffffff021916908373ffffffffffffffffffffffffffffffffffffffff1602179055505050336001600083815260200190815260200160002060006101000a81548173ffffffffffffffffffffffffffffffffffffffff021916908373ffffffffffffffffffffffffffffffffffffffff160217905550600260006001600084815260200190815260200160002060009054906101000a900473ffffffffffffffffffffffffffffffffffffffff1673ffffffffffffffffffffffffffffffffffffffff1673ffffffffffffffffffffffffffffffffffffffff16815260200190815260200160002060008154809291906127cb906134d1565b9190505550807f64a616012de865904db92adea94e3eb0c7880c294e70613f08e6dc1753c5a65e87876001600086815260200190815260200160002060009054906101000a900473ffffffffffffffffffffffffffffffffffffffff1688888860405161283d9695949392919061307b565b60405180910390a2505050505050565b600080600090505b6000805490508110156128e5578273ffffffffffffffffffffffffffffffffffffffff166001600083815260200190815260200160002060009054906101000a900473ffffffffffffffffffffffffffffffffffffffff1673ffffffffffffffffffffffffffffffffffffffff16146128d25760009150506128eb565b80806128dd906134d1565b915050612855565b50600190505b919050565b6040518061010001604052806000815260200160608152602001606081526020016000600281111561294b577f4e487b7100000000000000000000000000000000000000000000000000000000600052602160045260246000fd5b8152602001600081526020016060815260200160608152602001600073ffffffffffffffffffffffffffffffffffffffff1681525090565b82805461298f9061346e565b90600052602060002090601f0160209004810192826129b157600085556129f8565b82601f106129ca57805160ff19168380011785556129f8565b828001600101855582156129f8579182015b828111156129f75782518255916020019190600101906129dc565b5b509050612a059190612a09565b5090565b5b80821115612a22576000816000905550600101612a0a565b5090565b6000612a39612a34846132f4565b6132cf565b905082815260208101848484011115612a5157600080fd5b612a5c84828561342c565b509392505050565b600081359050612a7381613801565b92915050565b600082601f830112612a8a57600080fd5b8135612a9a848260208601612a26565b91505092915050565b600081359050612ab281613818565b92915050565b600060208284031215612aca57600080fd5b6000612ad884828501612a64565b91505092915050565b60008060408385031215612af457600080fd5b6000612b0285828601612a64565b9250506020612b1385828601612aa3565b9150509250929050565b600080600080600060a08688031215612b3557600080fd5b600086013567ffffffffffffffff811115612b4f57600080fd5b612b5b88828901612a79565b955050602086013567ffffffffffffffff811115612b7857600080fd5b612b8488828901612a79565b9450506040612b9588828901612aa3565b935050606086013567ffffffffffffffff811115612bb257600080fd5b612bbe88828901612a79565b925050608086013567ffffffffffffffff811115612bdb57600080fd5b612be788828901612a79565b9150509295509295909350565b600060208284031215612c0657600080fd5b6000612c1484828501612aa3565b91505092915050565b6000612c298383612e7b565b905092915050565b612c3a816133bf565b82525050565b612c49816133bf565b82525050565b6000612c5a82613335565b612c648185613358565b935083602082028501612c7685613325565b8060005b85811015612cb25784840389528151612c938582612c1d565b9450612c9e8361334b565b925060208a01995050600181019050612c7a565b50829750879550505050505092915050565b612ccd816133d1565b82525050565b612cdc8161341a565b82525050565b612ceb8161341a565b82525050565b6000612cfc82613340565b612d068185613369565b9350612d1681856020860161343b565b612d1f816135d6565b840191505092915050565b6000612d3582613340565b612d3f818561337a565b9350612d4f81856020860161343b565b612d58816135d6565b840191505092915050565b6000612d7060288361337a565b9150612d7b826135e7565b604082019050919050565b6000612d9360218361337a565b9150612d9e82613636565b604082019050919050565b6000612db660198361337a565b9150612dc182613685565b602082019050919050565b6000612dd960248361337a565b9150612de4826136ae565b604082019050919050565b6000612dfc60188361337a565b9150612e07826136fd565b602082019050919050565b6000612e1f601e8361337a565b9150612e2a82613726565b602082019050919050565b6000612e4260378361337a565b9150612e4d8261374f565b604082019050919050565b6000612e6560248361337a565b9150612e708261379e565b604082019050919050565b600061010083016000830151612e946000860182613005565b5060208301518482036020860152612eac8282612cf1565b91505060408301518482036040860152612ec68282612cf1565b9150506060830151612edb6060860182612cd3565b506080830151612eee6080860182613005565b5060a083015184820360a0860152612f068282612cf1565b91505060c083015184820360c0860152612f208282612cf1565b91505060e0830151612f3560e0860182612c31565b508091505092915050565b600061010083016000830151612f596000860182613005565b5060208301518482036020860152612f718282612cf1565b91505060408301518482036040860152612f8b8282612cf1565b9150506060830151612fa06060860182612cd3565b506080830151612fb36080860182613005565b5060a083015184820360a0860152612fcb8282612cf1565b91505060c083015184820360c0860152612fe58282612cf1565b91505060e0830151612ffa60e0860182612c31565b508091505092915050565b61300e81613410565b82525050565b61301d81613410565b82525050565b60006020820190506130386000830184612c40565b92915050565b600060208201905081810360008301526130588184612c4f565b905092915050565b60006020820190506130756000830184612cc4565b92915050565b600060c08201905081810360008301526130958189612d2a565b905081810360208301526130a98188612d2a565b90506130b86040830187612c40565b6130c56060830186613014565b81810360808301526130d78185612d2a565b905081810360a08301526130eb8184612d2a565b9050979650505050505050565b6000602082019050818103600083015261311181612d63565b9050919050565b6000602082019050818103600083015261313181612d86565b9050919050565b6000602082019050818103600083015261315181612da9565b9050919050565b6000602082019050818103600083015261317181612dcc565b9050919050565b6000602082019050818103600083015261319181612def565b9050919050565b600060208201905081810360008301526131b181612e12565b9050919050565b600060208201905081810360008301526131d181612e35565b9050919050565b600060208201905081810360008301526131f181612e58565b9050919050565b600060208201905081810360008301526132128184612f40565b905092915050565b600060208201905061322f6000830184613014565b92915050565b60006101008201905061324b600083018b613014565b818103602083015261325d818a612d2a565b905081810360408301526132718189612d2a565b90506132806060830188612ce2565b61328d6080830187613014565b81810360a083015261329f8186612d2a565b905081810360c08301526132b38185612d2a565b90506132c260e0830184612c40565b9998505050505050505050565b60006132d96132ea565b90506132e582826134a0565b919050565b6000604051905090565b600067ffffffffffffffff82111561330f5761330e6135a7565b5b613318826135d6565b9050602081019050919050565b6000819050602082019050919050565b600081519050919050565b600081519050919050565b6000602082019050919050565b600082825260208201905092915050565b600082825260208201905092915050565b600082825260208201905092915050565b600061339682613410565b91506133a183613410565b9250828210156133b4576133b361351a565b5b828203905092915050565b60006133ca826133f0565b9050919050565b60008115159050919050565b60008190506133eb826137ed565b919050565b600073ffffffffffffffffffffffffffffffffffffffff82169050919050565b6000819050919050565b6000613425826133dd565b9050919050565b82818337600083830152505050565b60005b8381101561345957808201518184015260208101905061343e565b83811115613468576000848401525b50505050565b6000600282049050600182168061348657607f821691505b6020821081141561349a57613499613578565b5b50919050565b6134a9826135d6565b810181811067ffffffffffffffff821117156134c8576134c76135a7565b5b80604052505050565b60006134dc82613410565b91507fffffffffffffffffffffffffffffffffffffffffffffffffffffffffffffffff82141561350f5761350e61351a565b5b600182019050919050565b7f4e487b7100000000000000000000000000000000000000000000000000000000600052601160045260246000fd5b7f4e487b7100000000000000000000000000000000000000000000000000000000600052602160045260246000fd5b7f4e487b7100000000000000000000000000000000000000000000000000000000600052602260045260246000fd5b7f4e487b7100000000000000000000000000000000000000000000000000000000600052604160045260246000fd5b6000601f19601f8301169050919050565b7f456c2070726f706965746172696f207469656e6520746f646f73206c6f73206360008201527f6f6e747261746f73000000000000000000000000000000000000000000000000602082015250565b7f456c2070726f706965746172696f206e6f207469656e6520636f6e747261746f60008201527f7300000000000000000000000000000000000000000000000000000000000000602082015250565b7f4e6f20657869737465206e696e67756e20636f6e747261746f00000000000000600082015250565b7f456c2070726563696f20657320696775616c206f20696e666572696f7220612060008201527f6365726f00000000000000000000000000000000000000000000000000000000602082015250565b7f41756e206e6f206578697374656e20636f6e747261746f730000000000000000600082015250565b7f456c20636f6e747261746f207961206861207369646f206669726d61646f0000600082015250565b7f456c206d6f6e746f20656e766961646f206e6f20636f696e6369646520636f6e60008201527f20656c2070726563696f2064656c20636f6e747261746f000000000000000000602082015250565b7f4e6f20657869737465206e696e67756e20636f6e747261746f20636f6e20657360008201527f6520494400000000000000000000000000000000000000000000000000000000602082015250565b600381106137fe576137fd613549565b5b50565b61380a816133bf565b811461381557600080fd5b50565b61382181613410565b811461382c57600080fd5b5056fea2646970667358221220c64039a619285bb59ade25417858b70e58fe11fd31a8c09b9b9cc65263f2477e64736f6c63430008020033",
  "immutableReferences": {},
  "source": "// SPDX-License-Identifier: MIT\r\npragma solidity ^0.8.2;\r\n\r\ncontract MyContract {\r\n    \r\n    struct Contrato {\r\n        uint id;\r\n        string titulo;\r\n        string descripcion;\r\n        EstadoContrato estado;\r\n        uint256 precio;\r\n        string fechaInicio;\r\n        string fechaFin;\r\n        address firmante;\r\n    }\r\n\r\n    enum EstadoContrato {  Activo, Firmado, Expirado }\r\n    Contrato[] public contratos; \r\n    \r\n    mapping (uint => address) public contractOwner;\r\n    mapping (address => uint) private ownerCount;\r\n    mapping(address => uint256[]) public contratosFirmadosPorCuenta;\r\n\r\n    event ContratoCreado(uint indexed id, string titulo, string descripcion, address ownerAddress, uint256 precio, string fechaInicio, string fechaFin);\r\n    event ContratoFirmado(uint indexed id, address firmante);\r\n\r\n    function crearContrato(string memory _titulo, string memory _descripcion, uint256 _precio, string memory _fechaInicio, string memory _fechaFin) public {\r\n        require(_precio > 0, \"El precio es igual o inferior a cero\");\r\n        uint _id = contratos.length;\r\n        contratos.push(Contrato(_id, _titulo, _descripcion, EstadoContrato.Activo, _precio, _fechaInicio, _fechaFin, address(0)));\r\n        contractOwner[_id] = msg.sender;\r\n        ownerCount[contractOwner[_id]]++;\r\n        emit ContratoCreado(_id, _titulo, _descripcion, contractOwner[_id], _precio, _fechaInicio, _fechaFin);\r\n    }\r\n\r\n    function firmarContrato(uint _id) public payable {\r\n        Contrato storage contrato = contratos[_id];\r\n        require(contrato.firmante == address(0), \"El contrato ya ha sido firmado\");\r\n        require(msg.value == contrato.precio, \"El monto enviado no coincide con el precio del contrato\");\r\n        contrato.firmante = msg.sender;\r\n        contrato.estado = EstadoContrato.Firmado;\r\n        contratosFirmadosPorCuenta[msg.sender].push(_id);\r\n        payable(contractOwner[_id]).transfer(msg.value);\r\n        emit ContratoFirmado(_id, msg.sender);\r\n    }\r\n\r\n    function getContrato(uint _id) public view returns (Contrato memory) {\r\n        require(_id < contratos.length, \"No existe ningun contrato\");\r\n        return contratos[_id];\r\n    }\r\n\r\n   \r\n    function obtenerFirmante(uint _id) public view returns (address) {\r\n        require(_id < contratos.length, \"No existe ningun contrato con ese ID\");\r\n        return contratos[_id].firmante;\r\n    }\r\n\r\n\r\n    function getContratosFirmados(address _cuenta) public view returns (Contrato[] memory) {\r\n        uint256[] memory ids = contratosFirmadosPorCuenta[_cuenta];\r\n        Contrato[] memory resultado = new Contrato[](ids.length);\r\n        \r\n        for (uint256 i = 0; i < ids.length; i++) {\r\n            resultado[i] = contratos[ids[i]];\r\n        }\r\n\r\n        return resultado;\r\n    }\r\n\r\n\r\n    function getAllContractsToSign (address owner) public view returns (Contrato[] memory){\r\n        require(todosLosContratosSonDelOwner(owner) == false, \"El propietario tiene todos los contratos\");\r\n        Contrato[] memory contratosAux = new Contrato[](contratos.length - ownerCount[owner]);\r\n        uint count = 0;\r\n        for (uint i=0; i < contratos.length; i++){\r\n            if (contractOwner[i] != owner && contratos[i].firmante == address(0)) {\r\n                contratosAux[count] = contratos[i];\r\n                count++;\r\n            }\r\n        }\r\n\r\n        // Redimensiona el array  para eliminar los espacios no utilizados\r\n        assembly {\r\n            mstore(contratosAux, count)\r\n        }\r\n        return contratosAux;\r\n    }\r\n\r\n    \r\n    function getAllContractsByOwner (address owner) public view returns (Contrato[] memory){\r\n          require(existenContratosParaOwner(owner), \"El propietario no tiene contratos\");\r\n        Contrato[] memory contratosAux = new Contrato[](ownerCount[owner]);\r\n        uint count = 0;\r\n        for (uint i=0; i < contratos.length; i++){\r\n            if (contractOwner[i] == owner) {\r\n                contratosAux[count] = contratos[i];\r\n                count++;\r\n            }\r\n        }\r\n\r\n        // Redimensiona el array  para eliminar los espacios no utilizados\r\n        assembly {\r\n            mstore(contratosAux, count)\r\n        }\r\n        return contratosAux;\r\n    }\r\n\r\n    function getAllContracts () public view returns (Contrato[] memory){\r\n        require(contratos.length > 0, \"Aun no existen contratos\");\r\n        Contrato[] memory contratosAux = new Contrato[](contratos.length);\r\n        uint count = 0;\r\n        for (uint i=0; i < contratos.length; i++){\r\n            contratosAux[count] = contratos[i];\r\n            count++;\r\n        }\r\n\r\n        // Redimensiona el array  para eliminar los espacios no utilizados\r\n        assembly {\r\n            mstore(contratosAux, count)\r\n        }\r\n        return contratosAux;\r\n    }\r\n    \r\n    function getOwner(uint _id) public view returns (address) {\r\n        require(_id < contratos.length, \"No existe ningun contrato con ese ID\");\r\n        return contractOwner[_id];\r\n    }\r\n\r\n    function todosLosContratosSonDelOwner(address owner) internal view returns (bool) {\r\n        for (uint i = 0; i < contratos.length; i++) {\r\n            if (contractOwner[i] != owner) {\r\n                return false;\r\n            }\r\n        }\r\n        return true;\r\n    }\r\n\r\n    function existenContratosParaOwner(address owner) public view returns (bool) {\r\n        return ownerCount[owner] > 0;\r\n    }\r\n}\r\n",
  "sourcePath": "C:\\Users\\super\\OneDrive - UVa (Estudiantes)\\Documentos\\TFG\\uva-contractme\\contracts\\MyContract.sol",
  "compiler": {
    "name": "solc",
    "version": "0.8.2+commit.661d1103.Emscripten.clang"
  },
  "schemaVersion": "3.4.16",
  "updatedAt": "2024-05-28T22:49:02.432Z",
  "networkType": "ethereum",
  "devdoc": {
    "kind": "dev",
    "methods": {},
    "version": 1
  },
  "userdoc": {
    "kind": "user",
    "methods": {},
    "version": 1
  }
}