{
  "contractName": "MyContract",
  "abi": [
    {
      "anonymous": false,
      "inputs": [
        {
          "indexed": true,
          "internalType": "uint256",
          "name": "id",
          "type": "uint256"
        },
        {
          "indexed": false,
          "internalType": "string",
          "name": "titulo",
          "type": "string"
        },
        {
          "indexed": false,
          "internalType": "string",
          "name": "descripcion",
          "type": "string"
        },
        {
          "indexed": false,
          "internalType": "address",
          "name": "ownerAddress",
          "type": "address"
        },
        {
          "indexed": false,
          "internalType": "uint256",
          "name": "precio",
          "type": "uint256"
        },
        {
          "indexed": false,
          "internalType": "string",
          "name": "fechaInicio",
          "type": "string"
        },
        {
          "indexed": false,
          "internalType": "string",
          "name": "fechaFin",
          "type": "string"
        }
      ],
      "name": "ContratoCreado",
      "type": "event"
    },
    {
      "anonymous": false,
      "inputs": [
        {
          "indexed": true,
          "internalType": "uint256",
          "name": "id",
          "type": "uint256"
        },
        {
          "indexed": false,
          "internalType": "address",
          "name": "firmante",
          "type": "address"
        }
      ],
      "name": "ContratoFirmado",
      "type": "event"
    },
    {
      "anonymous": false,
      "inputs": [
        {
          "indexed": true,
          "internalType": "uint256",
          "name": "id",
          "type": "uint256"
        },
        {
          "indexed": false,
          "internalType": "string",
          "name": "nuevoTitulo",
          "type": "string"
        },
        {
          "indexed": false,
          "internalType": "string",
          "name": "nuevaDescripcion",
          "type": "string"
        },
        {
          "indexed": false,
          "internalType": "uint256",
          "name": "nuevoPrecio",
          "type": "uint256"
        },
        {
          "indexed": false,
          "internalType": "string",
          "name": "nuevaFechaInicio",
          "type": "string"
        },
        {
          "indexed": false,
          "internalType": "string",
          "name": "nuevaFechaFin",
          "type": "string"
        }
      ],
      "name": "ContratoModificado",
      "type": "event"
    },
    {
      "anonymous": false,
      "inputs": [
        {
          "indexed": true,
          "internalType": "uint256",
          "name": "id",
          "type": "uint256"
        }
      ],
      "name": "FirmaRechazada",
      "type": "event"
    },
    {
      "anonymous": false,
      "inputs": [
        {
          "indexed": true,
          "internalType": "uint256",
          "name": "id",
          "type": "uint256"
        },
        {
          "indexed": false,
          "internalType": "address",
          "name": "firmante",
          "type": "address"
        }
      ],
      "name": "FirmaSolicitada",
      "type": "event"
    },
    {
      "inputs": [
        {
          "internalType": "uint256",
          "name": "",
          "type": "uint256"
        }
      ],
      "name": "contractOwner",
      "outputs": [
        {
          "internalType": "address",
          "name": "",
          "type": "address"
        }
      ],
      "stateMutability": "view",
      "type": "function"
    },
    {
      "inputs": [
        {
          "internalType": "address",
          "name": "",
          "type": "address"
        },
        {
          "internalType": "uint256",
          "name": "",
          "type": "uint256"
        }
      ],
      "name": "contractsSignedByAccount",
      "outputs": [
        {
          "internalType": "uint256",
          "name": "",
          "type": "uint256"
        }
      ],
      "stateMutability": "view",
      "type": "function"
    },
    {
      "inputs": [
        {
          "internalType": "uint256",
          "name": "",
          "type": "uint256"
        }
      ],
      "name": "contratos",
      "outputs": [
        {
          "internalType": "uint256",
          "name": "id",
          "type": "uint256"
        },
        {
          "internalType": "string",
          "name": "titulo",
          "type": "string"
        },
        {
          "internalType": "string",
          "name": "descripcion",
          "type": "string"
        },
        {
          "internalType": "enum MyContract.EstadoContrato",
          "name": "estado",
          "type": "uint8"
        },
        {
          "internalType": "uint256",
          "name": "precio",
          "type": "uint256"
        },
        {
          "internalType": "string",
          "name": "fechaInicio",
          "type": "string"
        },
        {
          "internalType": "string",
          "name": "fechaFin",
          "type": "string"
        },
        {
          "internalType": "address",
          "name": "solicitante",
          "type": "address"
        },
        {
          "internalType": "address",
          "name": "firmante",
          "type": "address"
        }
      ],
      "stateMutability": "view",
      "type": "function"
    },
    {
      "inputs": [
        {
          "internalType": "string",
          "name": "_titulo",
          "type": "string"
        },
        {
          "internalType": "string",
          "name": "_descripcion",
          "type": "string"
        },
        {
          "internalType": "uint256",
          "name": "_precio",
          "type": "uint256"
        },
        {
          "internalType": "string",
          "name": "_fechaInicio",
          "type": "string"
        },
        {
          "internalType": "string",
          "name": "_fechaFin",
          "type": "string"
        }
      ],
      "name": "crearContrato",
      "outputs": [],
      "stateMutability": "nonpayable",
      "type": "function"
    },
    {
      "inputs": [
        {
          "internalType": "uint256",
          "name": "_id",
          "type": "uint256"
        },
        {
          "internalType": "address",
          "name": "firmante",
          "type": "address"
        }
      ],
      "name": "firmarContrato",
      "outputs": [],
      "stateMutability": "payable",
      "type": "function"
    },
    {
      "inputs": [
        {
          "internalType": "uint256",
          "name": "_id",
          "type": "uint256"
        },
        {
          "internalType": "string",
          "name": "_nuevoTitulo",
          "type": "string"
        },
        {
          "internalType": "string",
          "name": "_nuevaDescripcion",
          "type": "string"
        },
        {
          "internalType": "uint256",
          "name": "_nuevoPrecio",
          "type": "uint256"
        },
        {
          "internalType": "string",
          "name": "_nuevaFechaInicio",
          "type": "string"
        },
        {
          "internalType": "string",
          "name": "_nuevaFechaFin",
          "type": "string"
        }
      ],
      "name": "modificarContrato",
      "outputs": [],
      "stateMutability": "nonpayable",
      "type": "function"
    },
    {
      "inputs": [
        {
          "internalType": "uint256",
          "name": "_id",
          "type": "uint256"
        }
      ],
      "name": "solicitarFirma",
      "outputs": [],
      "stateMutability": "nonpayable",
      "type": "function"
    },
    {
      "inputs": [
        {
          "internalType": "uint256",
          "name": "_id",
          "type": "uint256"
        }
      ],
      "name": "rechazarFirma",
      "outputs": [],
      "stateMutability": "nonpayable",
      "type": "function"
    },
    {
      "inputs": [
        {
          "internalType": "uint256",
          "name": "_id",
          "type": "uint256"
        }
      ],
      "name": "getContrato",
      "outputs": [
        {
          "components": [
            {
              "internalType": "uint256",
              "name": "id",
              "type": "uint256"
            },
            {
              "internalType": "string",
              "name": "titulo",
              "type": "string"
            },
            {
              "internalType": "string",
              "name": "descripcion",
              "type": "string"
            },
            {
              "internalType": "enum MyContract.EstadoContrato",
              "name": "estado",
              "type": "uint8"
            },
            {
              "internalType": "uint256",
              "name": "precio",
              "type": "uint256"
            },
            {
              "internalType": "string",
              "name": "fechaInicio",
              "type": "string"
            },
            {
              "internalType": "string",
              "name": "fechaFin",
              "type": "string"
            },
            {
              "internalType": "address",
              "name": "solicitante",
              "type": "address"
            },
            {
              "internalType": "address",
              "name": "firmante",
              "type": "address"
            }
          ],
          "internalType": "struct MyContract.Contrato",
          "name": "",
          "type": "tuple"
        }
      ],
      "stateMutability": "view",
      "type": "function"
    },
    {
      "inputs": [
        {
          "internalType": "uint256",
          "name": "_id",
          "type": "uint256"
        }
      ],
      "name": "obtenerFirmante",
      "outputs": [
        {
          "internalType": "address",
          "name": "",
          "type": "address"
        }
      ],
      "stateMutability": "view",
      "type": "function"
    },
    {
      "inputs": [
        {
          "internalType": "address",
          "name": "_cuenta",
          "type": "address"
        }
      ],
      "name": "getContratosFirmados",
      "outputs": [
        {
          "components": [
            {
              "internalType": "uint256",
              "name": "id",
              "type": "uint256"
            },
            {
              "internalType": "string",
              "name": "titulo",
              "type": "string"
            },
            {
              "internalType": "string",
              "name": "descripcion",
              "type": "string"
            },
            {
              "internalType": "enum MyContract.EstadoContrato",
              "name": "estado",
              "type": "uint8"
            },
            {
              "internalType": "uint256",
              "name": "precio",
              "type": "uint256"
            },
            {
              "internalType": "string",
              "name": "fechaInicio",
              "type": "string"
            },
            {
              "internalType": "string",
              "name": "fechaFin",
              "type": "string"
            },
            {
              "internalType": "address",
              "name": "solicitante",
              "type": "address"
            },
            {
              "internalType": "address",
              "name": "firmante",
              "type": "address"
            }
          ],
          "internalType": "struct MyContract.Contrato[]",
          "name": "",
          "type": "tuple[]"
        }
      ],
      "stateMutability": "view",
      "type": "function"
    },
    {
      "inputs": [
        {
          "internalType": "address",
          "name": "owner",
          "type": "address"
        }
      ],
      "name": "getAllContractsToSign",
      "outputs": [
        {
          "components": [
            {
              "internalType": "uint256",
              "name": "id",
              "type": "uint256"
            },
            {
              "internalType": "string",
              "name": "titulo",
              "type": "string"
            },
            {
              "internalType": "string",
              "name": "descripcion",
              "type": "string"
            },
            {
              "internalType": "enum MyContract.EstadoContrato",
              "name": "estado",
              "type": "uint8"
            },
            {
              "internalType": "uint256",
              "name": "precio",
              "type": "uint256"
            },
            {
              "internalType": "string",
              "name": "fechaInicio",
              "type": "string"
            },
            {
              "internalType": "string",
              "name": "fechaFin",
              "type": "string"
            },
            {
              "internalType": "address",
              "name": "solicitante",
              "type": "address"
            },
            {
              "internalType": "address",
              "name": "firmante",
              "type": "address"
            }
          ],
          "internalType": "struct MyContract.Contrato[]",
          "name": "",
          "type": "tuple[]"
        }
      ],
      "stateMutability": "view",
      "type": "function"
    },
    {
      "inputs": [
        {
          "internalType": "address",
          "name": "owner",
          "type": "address"
        }
      ],
      "name": "getAllContractsByOwner",
      "outputs": [
        {
          "components": [
            {
              "internalType": "uint256",
              "name": "id",
              "type": "uint256"
            },
            {
              "internalType": "string",
              "name": "titulo",
              "type": "string"
            },
            {
              "internalType": "string",
              "name": "descripcion",
              "type": "string"
            },
            {
              "internalType": "enum MyContract.EstadoContrato",
              "name": "estado",
              "type": "uint8"
            },
            {
              "internalType": "uint256",
              "name": "precio",
              "type": "uint256"
            },
            {
              "internalType": "string",
              "name": "fechaInicio",
              "type": "string"
            },
            {
              "internalType": "string",
              "name": "fechaFin",
              "type": "string"
            },
            {
              "internalType": "address",
              "name": "solicitante",
              "type": "address"
            },
            {
              "internalType": "address",
              "name": "firmante",
              "type": "address"
            }
          ],
          "internalType": "struct MyContract.Contrato[]",
          "name": "",
          "type": "tuple[]"
        }
      ],
      "stateMutability": "view",
      "type": "function"
    },
    {
      "inputs": [],
      "name": "getAllContracts",
      "outputs": [
        {
          "components": [
            {
              "internalType": "uint256",
              "name": "id",
              "type": "uint256"
            },
            {
              "internalType": "string",
              "name": "titulo",
              "type": "string"
            },
            {
              "internalType": "string",
              "name": "descripcion",
              "type": "string"
            },
            {
              "internalType": "enum MyContract.EstadoContrato",
              "name": "estado",
              "type": "uint8"
            },
            {
              "internalType": "uint256",
              "name": "precio",
              "type": "uint256"
            },
            {
              "internalType": "string",
              "name": "fechaInicio",
              "type": "string"
            },
            {
              "internalType": "string",
              "name": "fechaFin",
              "type": "string"
            },
            {
              "internalType": "address",
              "name": "solicitante",
              "type": "address"
            },
            {
              "internalType": "address",
              "name": "firmante",
              "type": "address"
            }
          ],
          "internalType": "struct MyContract.Contrato[]",
          "name": "",
          "type": "tuple[]"
        }
      ],
      "stateMutability": "view",
      "type": "function"
    },
    {
      "inputs": [
        {
          "internalType": "uint256",
          "name": "_id",
          "type": "uint256"
        }
      ],
      "name": "getOwner",
      "outputs": [
        {
          "internalType": "address",
          "name": "",
          "type": "address"
        }
      ],
      "stateMutability": "view",
      "type": "function"
    },
    {
      "inputs": [
        {
          "internalType": "address",
          "name": "owner",
          "type": "address"
        }
      ],
      "name": "existenContratosParaOwner",
      "outputs": [
        {
          "internalType": "bool",
          "name": "",
          "type": "bool"
        }
      ],
      "stateMutability": "view",
      "type": "function"
    }
  ],
  "bytecode": "0x608060405234801561001057600080fd5b50614076806100206000396000f3fe6080604052600436106100f35760003560e01c80636797559b1161008a578063a8d0948011610059578063a8d0948014610381578063ad571e92146103be578063c41a360a146103e7578063c835d31014610424576100f3565b80636797559b146102a157806372d13918146102de5780637986247f1461031b578063a78acd3d14610358576100f3565b80633b38dd19116100c65780633b38dd19146101ad5780633b6d2660146101ea5780633e2e7d771461022757806343fd9efe14610264576100f3565b806314a6faf1146100f857806318d3ce96146101145780631b3409f01461013f5780633a00a1d114610168575b600080fd5b610112600480360381019061010d91906131cf565b61044d565b005b34801561012057600080fd5b5061012961065e565b6040516101369190613762565b60405180910390f35b34801561014b57600080fd5b50610166600480360381019061016191906131a6565b610b8e565b005b34801561017457600080fd5b5061018f600480360381019061018a91906131a6565b610ca1565b6040516101a4999897969594939291906139e8565b60405180910390f35b3480156101b957600080fd5b506101d460048036038101906101cf9190613093565b610f6c565b6040516101e191906139cd565b60405180910390f35b3480156101f657600080fd5b50610211600480360381019061020c919061306a565b610f9d565b60405161021e9190613762565b60405180910390f35b34801561023357600080fd5b5061024e6004803603810190610249919061306a565b611541565b60405161025b9190613762565b60405180910390f35b34801561027057600080fd5b5061028b600480360381019061028691906131a6565b611b17565b60405161029891906139ab565b60405180910390f35b3480156102ad57600080fd5b506102c860048036038101906102c3919061306a565b611f50565b6040516102d59190613784565b60405180910390f35b3480156102ea57600080fd5b506103056004803603810190610300919061306a565b611f9b565b6040516103129190613762565b60405180910390f35b34801561032757600080fd5b50610342600480360381019061033d91906131a6565b612587565b60405161034f9190613747565b60405180910390f35b34801561036457600080fd5b5061037f600480360381019061037a91906131a6565b612642565b005b34801561038d57600080fd5b506103a860048036038101906103a391906131a6565b61275f565b6040516103b59190613747565b60405180910390f35b3480156103ca57600080fd5b506103e560048036038101906103e0919061320b565b612792565b005b3480156103f357600080fd5b5061040e600480360381019061040991906131a6565b61297b565b60405161041b9190613747565b60405180910390f35b34801561043057600080fd5b5061044b600480360381019061044691906130cf565b6129fe565b005b6000808381548110610488577f4e487b7100000000000000000000000000000000000000000000000000000000600052603260045260246000fd5b90600052602060002090600902019050806004015434146104de576040517f08c379a00000000000000000000000000000000000000000000000000000000081526004016104d59061396b565b60405180910390fd5b60028160030160006101000a81548160ff0219169083600381111561052c577f4e487b7100000000000000000000000000000000000000000000000000000000600052602160045260246000fd5b0217905550818160080160006101000a81548173ffffffffffffffffffffffffffffffffffffffff021916908373ffffffffffffffffffffffffffffffffffffffff160217905550600360008373ffffffffffffffffffffffffffffffffffffffff1673ffffffffffffffffffffffffffffffffffffffff1681526020019081526020016000208390806001815401808255809150506001900390600052602060002001600090919091909150558173ffffffffffffffffffffffffffffffffffffffff166108fc349081150290604051600060405180830381858888f19350505050158015610620573d6000803e3d6000fd5b50827f58992384990b1f1b4faa681ce4ee24f4c75a2775de1200609b3b51aff815c3c6336040516106519190613747565b60405180910390a2505050565b606060008080549050116106a7576040517f08c379a000000000000000000000000000000000000000000000000000000000815260040161069e9061394b565b60405180910390fd5b6000808054905067ffffffffffffffff8111156106ed577f4e487b7100000000000000000000000000000000000000000000000000000000600052604160045260246000fd5b60405190808252806020026020018201604052801561072657816020015b610713612e85565b81526020019060019003908161070b5790505b5090506000805b600080549050811015610b825760008181548110610774577f4e487b7100000000000000000000000000000000000000000000000000000000600052603260045260246000fd5b906000526020600020906009020160405180610120016040529081600082015481526020016001820180546107a890613c30565b80601f01602080910402602001604051908101604052809291908181526020018280546107d490613c30565b80156108215780601f106107f657610100808354040283529160200191610821565b820191906000526020600020905b81548152906001019060200180831161080457829003601f168201915b5050505050815260200160028201805461083a90613c30565b80601f016020809104026020016040519081016040528092919081815260200182805461086690613c30565b80156108b35780601f10610888576101008083540402835291602001916108b3565b820191906000526020600020905b81548152906001019060200180831161089657829003601f168201915b505050505081526020016003820160009054906101000a900460ff166003811115610907577f4e487b7100000000000000000000000000000000000000000000000000000000600052602160045260246000fd5b600381111561093f577f4e487b7100000000000000000000000000000000000000000000000000000000600052602160045260246000fd5b81526020016004820154815260200160058201805461095d90613c30565b80601f016020809104026020016040519081016040528092919081815260200182805461098990613c30565b80156109d65780601f106109ab576101008083540402835291602001916109d6565b820191906000526020600020905b8154815290600101906020018083116109b957829003601f168201915b505050505081526020016006820180546109ef90613c30565b80601f0160208091040260200160405190810160405280929190818152602001828054610a1b90613c30565b8015610a685780601f10610a3d57610100808354040283529160200191610a68565b820191906000526020600020905b815481529060010190602001808311610a4b57829003601f168201915b505050505081526020016007820160009054906101000a900473ffffffffffffffffffffffffffffffffffffffff1673ffffffffffffffffffffffffffffffffffffffff1673ffffffffffffffffffffffffffffffffffffffff1681526020016008820160009054906101000a900473ffffffffffffffffffffffffffffffffffffffff1673ffffffffffffffffffffffffffffffffffffffff1673ffffffffffffffffffffffffffffffffffffffff1681525050838381518110610b56577f4e487b7100000000000000000000000000000000000000000000000000000000600052603260045260246000fd5b60200260200101819052508180610b6c90613c93565b9250508080610b7a90613c93565b91505061072d565b50808252819250505090565b6000808281548110610bc9577f4e487b7100000000000000000000000000000000000000000000000000000000600052603260045260246000fd5b9060005260206000209060090201905060008160030160006101000a81548160ff02191690836003811115610c27577f4e487b7100000000000000000000000000000000000000000000000000000000600052602160045260246000fd5b021790555060008160070160006101000a81548173ffffffffffffffffffffffffffffffffffffffff021916908373ffffffffffffffffffffffffffffffffffffffff160217905550817f8e09d52b8e7c0e2ed986e3139a42e5926914df111ca33672fca1e8338f8edf3260405160405180910390a25050565b60008181548110610cb157600080fd5b9060005260206000209060090201600091509050806000015490806001018054610cda90613c30565b80601f0160208091040260200160405190810160405280929190818152602001828054610d0690613c30565b8015610d535780601f10610d2857610100808354040283529160200191610d53565b820191906000526020600020905b815481529060010190602001808311610d3657829003601f168201915b505050505090806002018054610d6890613c30565b80601f0160208091040260200160405190810160405280929190818152602001828054610d9490613c30565b8015610de15780601f10610db657610100808354040283529160200191610de1565b820191906000526020600020905b815481529060010190602001808311610dc457829003601f168201915b5050505050908060030160009054906101000a900460ff1690806004015490806005018054610e0f90613c30565b80601f0160208091040260200160405190810160405280929190818152602001828054610e3b90613c30565b8015610e885780601f10610e5d57610100808354040283529160200191610e88565b820191906000526020600020905b815481529060010190602001808311610e6b57829003601f168201915b505050505090806006018054610e9d90613c30565b80601f0160208091040260200160405190810160405280929190818152602001828054610ec990613c30565b8015610f165780601f10610eeb57610100808354040283529160200191610f16565b820191906000526020600020905b815481529060010190602001808311610ef957829003601f168201915b5050505050908060070160009054906101000a900473ffffffffffffffffffffffffffffffffffffffff16908060080160009054906101000a900473ffffffffffffffffffffffffffffffffffffffff16905089565b60036020528160005260406000208181548110610f8857600080fd5b90600052602060002001600091509150505481565b60606000600360008473ffffffffffffffffffffffffffffffffffffffff1673ffffffffffffffffffffffffffffffffffffffff16815260200190815260200160002080548060200260200160405190810160405280929190818152602001828054801561102a57602002820191906000526020600020905b815481526020019060010190808311611016575b505050505090506000815167ffffffffffffffff811115611074577f4e487b7100000000000000000000000000000000000000000000000000000000600052604160045260246000fd5b6040519080825280602002602001820160405280156110ad57816020015b61109a612e85565b8152602001906001900390816110925790505b50905060005b82518110156115365760008382815181106110f7577f4e487b7100000000000000000000000000000000000000000000000000000000600052603260045260246000fd5b602002602001015181548110611136577f4e487b7100000000000000000000000000000000000000000000000000000000600052603260045260246000fd5b9060005260206000209060090201604051806101200160405290816000820154815260200160018201805461116a90613c30565b80601f016020809104026020016040519081016040528092919081815260200182805461119690613c30565b80156111e35780601f106111b8576101008083540402835291602001916111e3565b820191906000526020600020905b8154815290600101906020018083116111c657829003601f168201915b505050505081526020016002820180546111fc90613c30565b80601f016020809104026020016040519081016040528092919081815260200182805461122890613c30565b80156112755780601f1061124a57610100808354040283529160200191611275565b820191906000526020600020905b81548152906001019060200180831161125857829003601f168201915b505050505081526020016003820160009054906101000a900460ff1660038111156112c9577f4e487b7100000000000000000000000000000000000000000000000000000000600052602160045260246000fd5b6003811115611301577f4e487b7100000000000000000000000000000000000000000000000000000000600052602160045260246000fd5b81526020016004820154815260200160058201805461131f90613c30565b80601f016020809104026020016040519081016040528092919081815260200182805461134b90613c30565b80156113985780601f1061136d57610100808354040283529160200191611398565b820191906000526020600020905b81548152906001019060200180831161137b57829003601f168201915b505050505081526020016006820180546113b190613c30565b80601f01602080910402602001604051908101604052809291908181526020018280546113dd90613c30565b801561142a5780601f106113ff5761010080835404028352916020019161142a565b820191906000526020600020905b81548152906001019060200180831161140d57829003601f168201915b505050505081526020016007820160009054906101000a900473ffffffffffffffffffffffffffffffffffffffff1673ffffffffffffffffffffffffffffffffffffffff1673ffffffffffffffffffffffffffffffffffffffff1681526020016008820160009054906101000a900473ffffffffffffffffffffffffffffffffffffffff1673ffffffffffffffffffffffffffffffffffffffff1673ffffffffffffffffffffffffffffffffffffffff1681525050828281518110611518577f4e487b7100000000000000000000000000000000000000000000000000000000600052603260045260246000fd5b6020026020010181905250808061152e90613c93565b9150506110b3565b508092505050919050565b606061154c82611f50565b61158b576040517f08c379a0000000000000000000000000000000000000000000000000000000008152600401611582906138cb565b60405180910390fd5b6000600260008473ffffffffffffffffffffffffffffffffffffffff1673ffffffffffffffffffffffffffffffffffffffff1681526020019081526020016000205467ffffffffffffffff81111561160c577f4e487b7100000000000000000000000000000000000000000000000000000000600052604160045260246000fd5b60405190808252806020026020018201604052801561164557816020015b611632612e85565b81526020019060019003908161162a5790505b5090506000805b600080549050811015611b09578473ffffffffffffffffffffffffffffffffffffffff166001600083815260200190815260200160002060009054906101000a900473ffffffffffffffffffffffffffffffffffffffff1673ffffffffffffffffffffffffffffffffffffffff161415611af657600081815481106116fa577f4e487b7100000000000000000000000000000000000000000000000000000000600052603260045260246000fd5b9060005260206000209060090201604051806101200160405290816000820154815260200160018201805461172e90613c30565b80601f016020809104026020016040519081016040528092919081815260200182805461175a90613c30565b80156117a75780601f1061177c576101008083540402835291602001916117a7565b820191906000526020600020905b81548152906001019060200180831161178a57829003601f168201915b505050505081526020016002820180546117c090613c30565b80601f01602080910402602001604051908101604052809291908181526020018280546117ec90613c30565b80156118395780601f1061180e57610100808354040283529160200191611839565b820191906000526020600020905b81548152906001019060200180831161181c57829003601f168201915b505050505081526020016003820160009054906101000a900460ff16600381111561188d577f4e487b7100000000000000000000000000000000000000000000000000000000600052602160045260246000fd5b60038111156118c5577f4e487b7100000000000000000000000000000000000000000000000000000000600052602160045260246000fd5b8152602001600482015481526020016005820180546118e390613c30565b80601f016020809104026020016040519081016040528092919081815260200182805461190f90613c30565b801561195c5780601f106119315761010080835404028352916020019161195c565b820191906000526020600020905b81548152906001019060200180831161193f57829003601f168201915b5050505050815260200160068201805461197590613c30565b80601f01602080910402602001604051908101604052809291908181526020018280546119a190613c30565b80156119ee5780601f106119c3576101008083540402835291602001916119ee565b820191906000526020600020905b8154815290600101906020018083116119d157829003601f168201915b505050505081526020016007820160009054906101000a900473ffffffffffffffffffffffffffffffffffffffff1673ffffffffffffffffffffffffffffffffffffffff1673ffffffffffffffffffffffffffffffffffffffff1681526020016008820160009054906101000a900473ffffffffffffffffffffffffffffffffffffffff1673ffffffffffffffffffffffffffffffffffffffff1673ffffffffffffffffffffffffffffffffffffffff1681525050838381518110611adc577f4e487b7100000000000000000000000000000000000000000000000000000000600052603260045260246000fd5b60200260200101819052508180611af290613c93565b9250505b8080611b0190613c93565b91505061164c565b508082528192505050919050565b611b1f612e85565b6000805490508210611b66576040517f08c379a0000000000000000000000000000000000000000000000000000000008152600401611b5d906138eb565b60405180910390fd5b60008281548110611ba0577f4e487b7100000000000000000000000000000000000000000000000000000000600052603260045260246000fd5b90600052602060002090600902016040518061012001604052908160008201548152602001600182018054611bd490613c30565b80601f0160208091040260200160405190810160405280929190818152602001828054611c0090613c30565b8015611c4d5780601f10611c2257610100808354040283529160200191611c4d565b820191906000526020600020905b815481529060010190602001808311611c3057829003601f168201915b50505050508152602001600282018054611c6690613c30565b80601f0160208091040260200160405190810160405280929190818152602001828054611c9290613c30565b8015611cdf5780601f10611cb457610100808354040283529160200191611cdf565b820191906000526020600020905b815481529060010190602001808311611cc257829003601f168201915b505050505081526020016003820160009054906101000a900460ff166003811115611d33577f4e487b7100000000000000000000000000000000000000000000000000000000600052602160045260246000fd5b6003811115611d6b577f4e487b7100000000000000000000000000000000000000000000000000000000600052602160045260246000fd5b815260200160048201548152602001600582018054611d8990613c30565b80601f0160208091040260200160405190810160405280929190818152602001828054611db590613c30565b8015611e025780601f10611dd757610100808354040283529160200191611e02565b820191906000526020600020905b815481529060010190602001808311611de557829003601f168201915b50505050508152602001600682018054611e1b90613c30565b80601f0160208091040260200160405190810160405280929190818152602001828054611e4790613c30565b8015611e945780601f10611e6957610100808354040283529160200191611e94565b820191906000526020600020905b815481529060010190602001808311611e7757829003601f168201915b505050505081526020016007820160009054906101000a900473ffffffffffffffffffffffffffffffffffffffff1673ffffffffffffffffffffffffffffffffffffffff1673ffffffffffffffffffffffffffffffffffffffff1681526020016008820160009054906101000a900473ffffffffffffffffffffffffffffffffffffffff1673ffffffffffffffffffffffffffffffffffffffff1673ffffffffffffffffffffffffffffffffffffffff16815250509050919050565b600080600260008473ffffffffffffffffffffffffffffffffffffffff1673ffffffffffffffffffffffffffffffffffffffff16815260200190815260200160002054119050919050565b606060001515611faa83612de2565b151514611fec576040517f08c379a0000000000000000000000000000000000000000000000000000000008152600401611fe3906138ab565b60405180910390fd5b6000600260008473ffffffffffffffffffffffffffffffffffffffff1673ffffffffffffffffffffffffffffffffffffffff1681526020019081526020016000205460008054905061203e9190613b4d565b67ffffffffffffffff81111561207d577f4e487b7100000000000000000000000000000000000000000000000000000000600052604160045260246000fd5b6040519080825280602002602001820160405280156120b657816020015b6120a3612e85565b81526020019060019003908161209b5790505b5090506000805b600080549050811015612579578473ffffffffffffffffffffffffffffffffffffffff166001600083815260200190815260200160002060009054906101000a900473ffffffffffffffffffffffffffffffffffffffff1673ffffffffffffffffffffffffffffffffffffffff1614612566576000818154811061216a577f4e487b7100000000000000000000000000000000000000000000000000000000600052603260045260246000fd5b9060005260206000209060090201604051806101200160405290816000820154815260200160018201805461219e90613c30565b80601f01602080910402602001604051908101604052809291908181526020018280546121ca90613c30565b80156122175780601f106121ec57610100808354040283529160200191612217565b820191906000526020600020905b8154815290600101906020018083116121fa57829003601f168201915b5050505050815260200160028201805461223090613c30565b80601f016020809104026020016040519081016040528092919081815260200182805461225c90613c30565b80156122a95780601f1061227e576101008083540402835291602001916122a9565b820191906000526020600020905b81548152906001019060200180831161228c57829003601f168201915b505050505081526020016003820160009054906101000a900460ff1660038111156122fd577f4e487b7100000000000000000000000000000000000000000000000000000000600052602160045260246000fd5b6003811115612335577f4e487b7100000000000000000000000000000000000000000000000000000000600052602160045260246000fd5b81526020016004820154815260200160058201805461235390613c30565b80601f016020809104026020016040519081016040528092919081815260200182805461237f90613c30565b80156123cc5780601f106123a1576101008083540402835291602001916123cc565b820191906000526020600020905b8154815290600101906020018083116123af57829003601f168201915b505050505081526020016006820180546123e590613c30565b80601f016020809104026020016040519081016040528092919081815260200182805461241190613c30565b801561245e5780601f106124335761010080835404028352916020019161245e565b820191906000526020600020905b81548152906001019060200180831161244157829003601f168201915b505050505081526020016007820160009054906101000a900473ffffffffffffffffffffffffffffffffffffffff1673ffffffffffffffffffffffffffffffffffffffff1673ffffffffffffffffffffffffffffffffffffffff1681526020016008820160009054906101000a900473ffffffffffffffffffffffffffffffffffffffff1673ffffffffffffffffffffffffffffffffffffffff1673ffffffffffffffffffffffffffffffffffffffff168152505083838151811061254c577f4e487b7100000000000000000000000000000000000000000000000000000000600052603260045260246000fd5b6020026020010181905250818061256290613c93565b9250505b808061257190613c93565b9150506120bd565b508082528192505050919050565b6000808054905082106125cf576040517f08c379a00000000000000000000000000000000000000000000000000000000081526004016125c69061398b565b60405180910390fd5b60008281548110612609577f4e487b7100000000000000000000000000000000000000000000000000000000600052603260045260246000fd5b906000526020600020906009020160080160009054906101000a900473ffffffffffffffffffffffffffffffffffffffff169050919050565b600080828154811061267d577f4e487b7100000000000000000000000000000000000000000000000000000000600052603260045260246000fd5b9060005260206000209060090201905060018160030160006101000a81548160ff021916908360038111156126db577f4e487b7100000000000000000000000000000000000000000000000000000000600052602160045260246000fd5b0217905550338160070160006101000a81548173ffffffffffffffffffffffffffffffffffffffff021916908373ffffffffffffffffffffffffffffffffffffffff160217905550817f58992384990b1f1b4faa681ce4ee24f4c75a2775de1200609b3b51aff815c3c6336040516127539190613747565b60405180910390a25050565b60016020528060005260406000206000915054906101000a900473ffffffffffffffffffffffffffffffffffffffff1681565b60008054905086106127d9576040517f08c379a00000000000000000000000000000000000000000000000000000000081526004016127d09061390b565b60405180910390fd5b3373ffffffffffffffffffffffffffffffffffffffff166001600088815260200190815260200160002060009054906101000a900473ffffffffffffffffffffffffffffffffffffffff1673ffffffffffffffffffffffffffffffffffffffff161461287a576040517f08c379a00000000000000000000000000000000000000000000000000000000081526004016128719061388b565b60405180910390fd5b60008087815481106128b5577f4e487b7100000000000000000000000000000000000000000000000000000000600052603260045260246000fd5b90600052602060002090600902019050858160010190805190602001906128dd929190612f35565b50848160020190805190602001906128f6929190612f35565b5083816004018190555082816005019080519060200190612918929190612f35565b5081816006019080519060200190612931929190612f35565b50867f9af09f85253c221a126ce8acd383431cfd7045a9fb5dc143c1bdd1f50ef9540a878787878760405161296a95949392919061381c565b60405180910390a250505050505050565b6000808054905082106129c3576040517f08c379a00000000000000000000000000000000000000000000000000000000081526004016129ba9061398b565b60405180910390fd5b6001600083815260200190815260200160002060009054906101000a900473ffffffffffffffffffffffffffffffffffffffff169050919050565b60008311612a41576040517f08c379a0000000000000000000000000000000000000000000000000000000008152600401612a389061392b565b60405180910390fd5b600080805490509050600060405180610120016040528083815260200188815260200187815260200160006003811115612aa4577f4e487b7100000000000000000000000000000000000000000000000000000000600052602160045260246000fd5b8152602001868152602001858152602001848152602001600073ffffffffffffffffffffffffffffffffffffffff168152602001600073ffffffffffffffffffffffffffffffffffffffff168152509080600181540180825580915050600190039060005260206000209060090201600090919091909150600082015181600001556020820151816001019080519060200190612b42929190612f35565b506040820151816002019080519060200190612b5f929190612f35565b5060608201518160030160006101000a81548160ff02191690836003811115612bb1577f4e487b7100000000000000000000000000000000000000000000000000000000600052602160045260246000fd5b02179055506080820151816004015560a0820151816005019080519060200190612bdc929190612f35565b5060c0820151816006019080519060200190612bf9929190612f35565b5060e08201518160070160006101000a81548173ffffffffffffffffffffffffffffffffffffffff021916908373ffffffffffffffffffffffffffffffffffffffff1602179055506101008201518160080160006101000a81548173ffffffffffffffffffffffffffffffffffffffff021916908373ffffffffffffffffffffffffffffffffffffffff1602179055505050336001600083815260200190815260200160002060006101000a81548173ffffffffffffffffffffffffffffffffffffffff021916908373ffffffffffffffffffffffffffffffffffffffff160217905550600260006001600084815260200190815260200160002060009054906101000a900473ffffffffffffffffffffffffffffffffffffffff1673ffffffffffffffffffffffffffffffffffffffff1673ffffffffffffffffffffffffffffffffffffffff1681526020019081526020016000206000815480929190612d6090613c93565b9190505550807f64a616012de865904db92adea94e3eb0c7880c294e70613f08e6dc1753c5a65e87876001600086815260200190815260200160002060009054906101000a900473ffffffffffffffffffffffffffffffffffffffff16888888604051612dd29695949392919061379f565b60405180910390a2505050505050565b600080600090505b600080549050811015612e7a578273ffffffffffffffffffffffffffffffffffffffff166001600083815260200190815260200160002060009054906101000a900473ffffffffffffffffffffffffffffffffffffffff1673ffffffffffffffffffffffffffffffffffffffff1614612e67576000915050612e80565b8080612e7290613c93565b915050612dea565b50600190505b919050565b60405180610120016040528060008152602001606081526020016060815260200160006003811115612ee0577f4e487b7100000000000000000000000000000000000000000000000000000000600052602160045260246000fd5b8152602001600081526020016060815260200160608152602001600073ffffffffffffffffffffffffffffffffffffffff168152602001600073ffffffffffffffffffffffffffffffffffffffff1681525090565b828054612f4190613c30565b90600052602060002090601f016020900481019282612f635760008555612faa565b82601f10612f7c57805160ff1916838001178555612faa565b82800160010185558215612faa579182015b82811115612fa9578251825591602001919060010190612f8e565b5b509050612fb79190612fbb565b5090565b5b80821115612fd4576000816000905550600101612fbc565b5090565b6000612feb612fe684613ab6565b613a91565b90508281526020810184848401111561300357600080fd5b61300e848285613bee565b509392505050565b60008135905061302581614012565b92915050565b600082601f83011261303c57600080fd5b813561304c848260208601612fd8565b91505092915050565b60008135905061306481614029565b92915050565b60006020828403121561307c57600080fd5b600061308a84828501613016565b91505092915050565b600080604083850312156130a657600080fd5b60006130b485828601613016565b92505060206130c585828601613055565b9150509250929050565b600080600080600060a086880312156130e757600080fd5b600086013567ffffffffffffffff81111561310157600080fd5b61310d8882890161302b565b955050602086013567ffffffffffffffff81111561312a57600080fd5b6131368882890161302b565b945050604061314788828901613055565b935050606086013567ffffffffffffffff81111561316457600080fd5b6131708882890161302b565b925050608086013567ffffffffffffffff81111561318d57600080fd5b6131998882890161302b565b9150509295509295909350565b6000602082840312156131b857600080fd5b60006131c684828501613055565b91505092915050565b600080604083850312156131e257600080fd5b60006131f085828601613055565b925050602061320185828601613016565b9150509250929050565b60008060008060008060c0878903121561322457600080fd5b600061323289828a01613055565b965050602087013567ffffffffffffffff81111561324f57600080fd5b61325b89828a0161302b565b955050604087013567ffffffffffffffff81111561327857600080fd5b61328489828a0161302b565b945050606061329589828a01613055565b935050608087013567ffffffffffffffff8111156132b257600080fd5b6132be89828a0161302b565b92505060a087013567ffffffffffffffff8111156132db57600080fd5b6132e789828a0161302b565b9150509295509295509295565b60006133008383613575565b905092915050565b61331181613b81565b82525050565b61332081613b81565b82525050565b600061333182613af7565b61333b8185613b1a565b93508360208202850161334d85613ae7565b8060005b85811015613389578484038952815161336a85826132f4565b945061337583613b0d565b925060208a01995050600181019050613351565b50829750879550505050505092915050565b6133a481613b93565b82525050565b6133b381613bdc565b82525050565b6133c281613bdc565b82525050565b60006133d382613b02565b6133dd8185613b2b565b93506133ed818560208601613bfd565b6133f681613d98565b840191505092915050565b600061340c82613b02565b6134168185613b3c565b9350613426818560208601613bfd565b61342f81613d98565b840191505092915050565b6000613447602f83613b3c565b915061345282613da9565b604082019050919050565b600061346a602883613b3c565b915061347582613df8565b604082019050919050565b600061348d602183613b3c565b915061349882613e47565b604082019050919050565b60006134b0601983613b3c565b91506134bb82613e96565b602082019050919050565b60006134d3601583613b3c565b91506134de82613ebf565b602082019050919050565b60006134f6602483613b3c565b915061350182613ee8565b604082019050919050565b6000613519601883613b3c565b915061352482613f37565b602082019050919050565b600061353c603783613b3c565b915061354782613f60565b604082019050919050565b600061355f602483613b3c565b915061356a82613faf565b604082019050919050565b60006101208301600083015161358e6000860182613729565b50602083015184820360208601526135a682826133c8565b915050604083015184820360408601526135c082826133c8565b91505060608301516135d560608601826133aa565b5060808301516135e86080860182613729565b5060a083015184820360a086015261360082826133c8565b91505060c083015184820360c086015261361a82826133c8565b91505060e083015161362f60e0860182613308565b50610100830151613644610100860182613308565b508091505092915050565b6000610120830160008301516136686000860182613729565b506020830151848203602086015261368082826133c8565b9150506040830151848203604086015261369a82826133c8565b91505060608301516136af60608601826133aa565b5060808301516136c26080860182613729565b5060a083015184820360a08601526136da82826133c8565b91505060c083015184820360c08601526136f482826133c8565b91505060e083015161370960e0860182613308565b5061010083015161371e610100860182613308565b508091505092915050565b61373281613bd2565b82525050565b61374181613bd2565b82525050565b600060208201905061375c6000830184613317565b92915050565b6000602082019050818103600083015261377c8184613326565b905092915050565b6000602082019050613799600083018461339b565b92915050565b600060c08201905081810360008301526137b98189613401565b905081810360208301526137cd8188613401565b90506137dc6040830187613317565b6137e96060830186613738565b81810360808301526137fb8185613401565b905081810360a083015261380f8184613401565b9050979650505050505050565b600060a08201905081810360008301526138368188613401565b9050818103602083015261384a8187613401565b90506138596040830186613738565b818103606083015261386b8185613401565b9050818103608083015261387f8184613401565b90509695505050505050565b600060208201905081810360008301526138a48161343a565b9050919050565b600060208201905081810360008301526138c48161345d565b9050919050565b600060208201905081810360008301526138e481613480565b9050919050565b60006020820190508181036000830152613904816134a3565b9050919050565b60006020820190508181036000830152613924816134c6565b9050919050565b60006020820190508181036000830152613944816134e9565b9050919050565b600060208201905081810360008301526139648161350c565b9050919050565b600060208201905081810360008301526139848161352f565b9050919050565b600060208201905081810360008301526139a481613552565b9050919050565b600060208201905081810360008301526139c5818461364f565b905092915050565b60006020820190506139e26000830184613738565b92915050565b6000610120820190506139fe600083018c613738565b8181036020830152613a10818b613401565b90508181036040830152613a24818a613401565b9050613a3360608301896133b9565b613a406080830188613738565b81810360a0830152613a528187613401565b905081810360c0830152613a668186613401565b9050613a7560e0830185613317565b613a83610100830184613317565b9a9950505050505050505050565b6000613a9b613aac565b9050613aa78282613c62565b919050565b6000604051905090565b600067ffffffffffffffff821115613ad157613ad0613d69565b5b613ada82613d98565b9050602081019050919050565b6000819050602082019050919050565b600081519050919050565b600081519050919050565b6000602082019050919050565b600082825260208201905092915050565b600082825260208201905092915050565b600082825260208201905092915050565b6000613b5882613bd2565b9150613b6383613bd2565b925082821015613b7657613b75613cdc565b5b828203905092915050565b6000613b8c82613bb2565b9050919050565b60008115159050919050565b6000819050613bad82613ffe565b919050565b600073ffffffffffffffffffffffffffffffffffffffff82169050919050565b6000819050919050565b6000613be782613b9f565b9050919050565b82818337600083830152505050565b60005b83811015613c1b578082015181840152602081019050613c00565b83811115613c2a576000848401525b50505050565b60006002820490506001821680613c4857607f821691505b60208210811415613c5c57613c5b613d3a565b5b50919050565b613c6b82613d98565b810181811067ffffffffffffffff82111715613c8a57613c89613d69565b5b80604052505050565b6000613c9e82613bd2565b91507fffffffffffffffffffffffffffffffffffffffffffffffffffffffffffffffff821415613cd157613cd0613cdc565b5b600182019050919050565b7f4e487b7100000000000000000000000000000000000000000000000000000000600052601160045260246000fd5b7f4e487b7100000000000000000000000000000000000000000000000000000000600052602160045260246000fd5b7f4e487b7100000000000000000000000000000000000000000000000000000000600052602260045260246000fd5b7f4e487b7100000000000000000000000000000000000000000000000000000000600052604160045260246000fd5b6000601f19601f8301169050919050565b7f536f6c6f20656c2070726f706965746172696f207075656465206d6f6469666960008201527f63617220656c20636f6e747261746f0000000000000000000000000000000000602082015250565b7f456c2070726f706965746172696f207469656e6520746f646f73206c6f73206360008201527f6f6e747261746f73000000000000000000000000000000000000000000000000602082015250565b7f456c2070726f706965746172696f206e6f207469656e6520636f6e747261746f60008201527f7300000000000000000000000000000000000000000000000000000000000000602082015250565b7f4e6f20657869737465206e696e67756e20636f6e747261746f00000000000000600082015250565b7f456c20636f6e747261746f206e6f206578697374650000000000000000000000600082015250565b7f456c2070726563696f20657320696775616c206f20696e666572696f7220612060008201527f6365726f00000000000000000000000000000000000000000000000000000000602082015250565b7f41756e206e6f206578697374656e20636f6e747261746f730000000000000000600082015250565b7f456c206d6f6e746f20656e766961646f206e6f20636f696e6369646520636f6e60008201527f20656c2070726563696f2064656c20636f6e747261746f000000000000000000602082015250565b7f4e6f20657869737465206e696e67756e20636f6e747261746f20636f6e20657360008201527f6520494400000000000000000000000000000000000000000000000000000000602082015250565b6004811061400f5761400e613d0b565b5b50565b61401b81613b81565b811461402657600080fd5b50565b61403281613bd2565b811461403d57600080fd5b5056fea26469706673582212202786b913c4993d8eceec3d5c57fefa47c17e02622298bc46a344d8086d27da8864736f6c63430008020033",
  "immutableReferences": {},
  "source": "// SPDX-License-Identifier: MIT\r\npragma solidity ^0.8.2;\r\n\r\ncontract MyContract {\r\n    \r\n    struct Contrato {\r\n        uint id;\r\n        string titulo;\r\n        string descripcion;\r\n        EstadoContrato estado;\r\n        uint256 precio;\r\n        string fechaInicio;\r\n        string fechaFin;\r\n        address solicitante;\r\n        address firmante;\r\n    }\r\n\r\n    enum EstadoContrato {  Activo, Solicitado, Firmado, Expirado }\r\n    Contrato[] public contratos; \r\n    \r\n    mapping (uint => address) public contractOwner;\r\n    mapping (address => uint) private ownerCount;\r\n    mapping(address => uint256[]) public contractsSignedByAccount;\r\n\r\n\r\n    event ContratoCreado(uint indexed id, string titulo, string descripcion, address ownerAddress, uint256 precio, string fechaInicio, string fechaFin);\r\n    event ContratoModificado(uint indexed id, string nuevoTitulo, string nuevaDescripcion, uint256 nuevoPrecio, string nuevaFechaInicio, string nuevaFechaFin);\r\n    event ContratoFirmado(uint indexed id, address firmante);\r\n    event FirmaSolicitada(uint indexed id, address firmante);\r\n    event FirmaRechazada(uint indexed id);\r\n\r\n\r\n    //Crear, modificar y firmar contratos\r\n    function crearContrato(string memory _titulo, string memory _descripcion, uint256 _precio, string memory _fechaInicio, string memory _fechaFin) public {\r\n        require(_precio > 0, \"El precio es igual o inferior a cero\");\r\n        uint _id = contratos.length;\r\n        contratos.push(Contrato(_id, _titulo, _descripcion, EstadoContrato.Activo, _precio, _fechaInicio, _fechaFin, address(0),address(0)));\r\n        contractOwner[_id] = msg.sender;\r\n        ownerCount[contractOwner[_id]]++;\r\n        emit ContratoCreado(_id, _titulo, _descripcion, contractOwner[_id], _precio, _fechaInicio, _fechaFin);\r\n    }\r\n\r\n    function firmarContrato(uint _id, address firmante) public payable {\r\n        Contrato storage contrato = contratos[_id];\r\n        require(msg.value == contrato.precio, \"El monto enviado no coincide con el precio del contrato\");\r\n        contrato.estado = EstadoContrato.Firmado;\r\n        contrato.firmante = firmante;\r\n        contractsSignedByAccount[firmante].push(_id);\r\n        payable(firmante).transfer(msg.value);\r\n        emit ContratoFirmado(_id, msg.sender);\r\n    }\r\n\r\n    function modificarContrato(uint _id, string memory _nuevoTitulo, string memory _nuevaDescripcion, uint256 _nuevoPrecio, string memory _nuevaFechaInicio, string memory _nuevaFechaFin) public {\r\n        require(_id < contratos.length, \"El contrato no existe\");\r\n        require(contractOwner[_id] == msg.sender, \"Solo el propietario puede modificar el contrato\");\r\n\r\n        Contrato storage contrato = contratos[_id];\r\n        contrato.titulo = _nuevoTitulo;\r\n        contrato.descripcion = _nuevaDescripcion;\r\n        contrato.precio = _nuevoPrecio;\r\n        contrato.fechaInicio = _nuevaFechaInicio;\r\n        contrato.fechaFin = _nuevaFechaFin;\r\n\r\n        emit ContratoModificado(_id, _nuevoTitulo, _nuevaDescripcion, _nuevoPrecio, _nuevaFechaInicio, _nuevaFechaFin);\r\n    }\r\n\r\n    function solicitarFirma(uint _id) public {\r\n        Contrato storage contrato = contratos[_id];\r\n        contrato.estado = EstadoContrato.Solicitado;\r\n        contrato.solicitante = msg.sender;\r\n        emit ContratoFirmado(_id, msg.sender);\r\n\r\n    }\r\n\r\n     function rechazarFirma(uint _id) public {\r\n        Contrato storage contrato = contratos[_id];\r\n        contrato.estado = EstadoContrato.Activo;\r\n        contrato.solicitante = address(0);\r\n        emit FirmaRechazada(_id);\r\n\r\n    }\r\n\r\n\r\n    /*************************************************************/\r\n\r\n    function getContrato(uint _id) public view returns (Contrato memory) {\r\n        require(_id < contratos.length, \"No existe ningun contrato\");\r\n        return contratos[_id];\r\n    }\r\n\r\n   \r\n    function obtenerFirmante(uint _id) public view returns (address) {\r\n        require(_id < contratos.length, \"No existe ningun contrato con ese ID\");\r\n        return contratos[_id].firmante;\r\n    }\r\n\r\n\r\n    function getContratosFirmados(address _cuenta) public view returns (Contrato[] memory) {\r\n        uint256[] memory ids = contractsSignedByAccount[_cuenta];\r\n        Contrato[] memory resultado = new Contrato[](ids.length);\r\n        \r\n        for (uint256 i = 0; i < ids.length; i++) {\r\n            resultado[i] = contratos[ids[i]];\r\n        }\r\n\r\n        return resultado;\r\n    }\r\n\r\n\r\n    function getAllContractsToSign (address owner) public view returns (Contrato[] memory){\r\n        require(todosLosContratosSonDelOwner(owner) == false, \"El propietario tiene todos los contratos\");\r\n        Contrato[] memory contratosAux = new Contrato[](contratos.length - ownerCount[owner]);\r\n        uint count = 0;\r\n        for (uint i=0; i < contratos.length; i++){\r\n            if (contractOwner[i] != owner) {\r\n                contratosAux[count] = contratos[i];\r\n                count++;\r\n            }\r\n        }\r\n\r\n        // Redimensiona el array  para eliminar los espacios no utilizados\r\n        assembly {\r\n            mstore(contratosAux, count)\r\n        }\r\n        return contratosAux;\r\n    }\r\n\r\n    \r\n    function getAllContractsByOwner (address owner) public view returns (Contrato[] memory){\r\n        require(existenContratosParaOwner(owner), \"El propietario no tiene contratos\");\r\n        Contrato[] memory contratosAux = new Contrato[](ownerCount[owner]);\r\n        uint count = 0;\r\n        for (uint i=0; i < contratos.length; i++){\r\n            if (contractOwner[i] == owner) {\r\n                contratosAux[count] = contratos[i];\r\n                count++;\r\n            }\r\n        }\r\n\r\n        // Redimensiona el array  para eliminar los espacios no utilizados\r\n        assembly {\r\n            mstore(contratosAux, count)\r\n        }\r\n        return contratosAux;\r\n    }\r\n\r\n    function getAllContracts () public view returns (Contrato[] memory){\r\n        require(contratos.length > 0, \"Aun no existen contratos\");\r\n        Contrato[] memory contratosAux = new Contrato[](contratos.length);\r\n        uint count = 0;\r\n        for (uint i=0; i < contratos.length; i++){\r\n            contratosAux[count] = contratos[i];\r\n            count++;\r\n        }\r\n\r\n        // Redimensiona el array  para eliminar los espacios no utilizados\r\n        assembly {\r\n            mstore(contratosAux, count)\r\n        }\r\n        return contratosAux;\r\n    }\r\n    \r\n    function getOwner(uint _id) public view returns (address) {\r\n        require(_id < contratos.length, \"No existe ningun contrato con ese ID\");\r\n        return contractOwner[_id];\r\n    }\r\n\r\n    function todosLosContratosSonDelOwner(address owner) internal view returns (bool) {\r\n        for (uint i = 0; i < contratos.length; i++) {\r\n            if (contractOwner[i] != owner) {\r\n                return false;\r\n            }\r\n        }\r\n        return true;\r\n    }\r\n\r\n    function existenContratosParaOwner(address owner) public view returns (bool) {\r\n        return ownerCount[owner] > 0;\r\n    }\r\n\r\n     \r\n\r\n\r\n}\r\n",
  "sourcePath": "C:\\Users\\super\\OneDrive - UVa (Estudiantes)\\Documentos\\Ingeniería Informática\\TFG\\uva-contractme\\contracts\\MyContract.sol",
  "compiler": {
    "name": "solc",
    "version": "0.8.2+commit.661d1103.Emscripten.clang"
  },
  "schemaVersion": "3.4.16",
  "updatedAt": "2026-02-03T11:48:33.517Z",
  "devdoc": {
    "kind": "dev",
    "methods": {},
    "version": 1
  },
  "userdoc": {
    "kind": "user",
    "methods": {},
    "version": 1
  }
}