{
  "contractName": "MyContract",
  "abi": [
    {
      "anonymous": false,
      "inputs": [
        {
          "indexed": true,
          "internalType": "uint256",
          "name": "id",
          "type": "uint256"
        },
        {
          "indexed": false,
          "internalType": "string",
          "name": "titulo",
          "type": "string"
        },
        {
          "indexed": false,
          "internalType": "string",
          "name": "descripcion",
          "type": "string"
        },
        {
          "indexed": false,
          "internalType": "address",
          "name": "ownerAddress",
          "type": "address"
        },
        {
          "indexed": false,
          "internalType": "uint256",
          "name": "precio",
          "type": "uint256"
        },
        {
          "indexed": false,
          "internalType": "string",
          "name": "fechaInicio",
          "type": "string"
        },
        {
          "indexed": false,
          "internalType": "string",
          "name": "fechaFin",
          "type": "string"
        }
      ],
      "name": "ContratoCreado",
      "type": "event"
    },
    {
      "inputs": [
        {
          "internalType": "uint256",
          "name": "",
          "type": "uint256"
        }
      ],
      "name": "contractOwner",
      "outputs": [
        {
          "internalType": "address",
          "name": "",
          "type": "address"
        }
      ],
      "stateMutability": "view",
      "type": "function",
      "constant": true
    },
    {
      "inputs": [
        {
          "internalType": "uint256",
          "name": "",
          "type": "uint256"
        }
      ],
      "name": "contratos",
      "outputs": [
        {
          "internalType": "uint256",
          "name": "id",
          "type": "uint256"
        },
        {
          "internalType": "string",
          "name": "titulo",
          "type": "string"
        },
        {
          "internalType": "string",
          "name": "descripcion",
          "type": "string"
        },
        {
          "internalType": "enum MyContract.EstadoContrato",
          "name": "estado",
          "type": "uint8"
        },
        {
          "internalType": "uint256",
          "name": "precio",
          "type": "uint256"
        },
        {
          "internalType": "string",
          "name": "fechaInicio",
          "type": "string"
        },
        {
          "internalType": "string",
          "name": "fechaFin",
          "type": "string"
        }
      ],
      "stateMutability": "view",
      "type": "function",
      "constant": true
    },
    {
      "inputs": [
        {
          "internalType": "string",
          "name": "_titulo",
          "type": "string"
        },
        {
          "internalType": "string",
          "name": "_descripcion",
          "type": "string"
        },
        {
          "internalType": "uint256",
          "name": "_precio",
          "type": "uint256"
        },
        {
          "internalType": "string",
          "name": "_fechaInicio",
          "type": "string"
        },
        {
          "internalType": "string",
          "name": "_fechaFin",
          "type": "string"
        }
      ],
      "name": "crearContrato",
      "outputs": [],
      "stateMutability": "nonpayable",
      "type": "function"
    },
    {
      "inputs": [
        {
          "internalType": "uint256",
          "name": "_id",
          "type": "uint256"
        }
      ],
      "name": "getContrato",
      "outputs": [
        {
          "components": [
            {
              "internalType": "uint256",
              "name": "id",
              "type": "uint256"
            },
            {
              "internalType": "string",
              "name": "titulo",
              "type": "string"
            },
            {
              "internalType": "string",
              "name": "descripcion",
              "type": "string"
            },
            {
              "internalType": "enum MyContract.EstadoContrato",
              "name": "estado",
              "type": "uint8"
            },
            {
              "internalType": "uint256",
              "name": "precio",
              "type": "uint256"
            },
            {
              "internalType": "string",
              "name": "fechaInicio",
              "type": "string"
            },
            {
              "internalType": "string",
              "name": "fechaFin",
              "type": "string"
            }
          ],
          "internalType": "struct MyContract.Contrato",
          "name": "",
          "type": "tuple"
        }
      ],
      "stateMutability": "view",
      "type": "function",
      "constant": true
    },
    {
      "inputs": [
        {
          "internalType": "address",
          "name": "owner",
          "type": "address"
        }
      ],
      "name": "getAllContractsToSign",
      "outputs": [
        {
          "components": [
            {
              "internalType": "uint256",
              "name": "id",
              "type": "uint256"
            },
            {
              "internalType": "string",
              "name": "titulo",
              "type": "string"
            },
            {
              "internalType": "string",
              "name": "descripcion",
              "type": "string"
            },
            {
              "internalType": "enum MyContract.EstadoContrato",
              "name": "estado",
              "type": "uint8"
            },
            {
              "internalType": "uint256",
              "name": "precio",
              "type": "uint256"
            },
            {
              "internalType": "string",
              "name": "fechaInicio",
              "type": "string"
            },
            {
              "internalType": "string",
              "name": "fechaFin",
              "type": "string"
            }
          ],
          "internalType": "struct MyContract.Contrato[]",
          "name": "",
          "type": "tuple[]"
        }
      ],
      "stateMutability": "view",
      "type": "function",
      "constant": true
    },
    {
      "inputs": [
        {
          "internalType": "address",
          "name": "owner",
          "type": "address"
        }
      ],
      "name": "existenContratosParaOwner",
      "outputs": [
        {
          "internalType": "bool",
          "name": "",
          "type": "bool"
        }
      ],
      "stateMutability": "view",
      "type": "function",
      "constant": true
    },
    {
      "inputs": [
        {
          "internalType": "address",
          "name": "owner",
          "type": "address"
        }
      ],
      "name": "getAllContractsByOwner",
      "outputs": [
        {
          "components": [
            {
              "internalType": "uint256",
              "name": "id",
              "type": "uint256"
            },
            {
              "internalType": "string",
              "name": "titulo",
              "type": "string"
            },
            {
              "internalType": "string",
              "name": "descripcion",
              "type": "string"
            },
            {
              "internalType": "enum MyContract.EstadoContrato",
              "name": "estado",
              "type": "uint8"
            },
            {
              "internalType": "uint256",
              "name": "precio",
              "type": "uint256"
            },
            {
              "internalType": "string",
              "name": "fechaInicio",
              "type": "string"
            },
            {
              "internalType": "string",
              "name": "fechaFin",
              "type": "string"
            }
          ],
          "internalType": "struct MyContract.Contrato[]",
          "name": "",
          "type": "tuple[]"
        }
      ],
      "stateMutability": "view",
      "type": "function",
      "constant": true
    },
    {
      "inputs": [],
      "name": "getAllContracts",
      "outputs": [
        {
          "components": [
            {
              "internalType": "uint256",
              "name": "id",
              "type": "uint256"
            },
            {
              "internalType": "string",
              "name": "titulo",
              "type": "string"
            },
            {
              "internalType": "string",
              "name": "descripcion",
              "type": "string"
            },
            {
              "internalType": "enum MyContract.EstadoContrato",
              "name": "estado",
              "type": "uint8"
            },
            {
              "internalType": "uint256",
              "name": "precio",
              "type": "uint256"
            },
            {
              "internalType": "string",
              "name": "fechaInicio",
              "type": "string"
            },
            {
              "internalType": "string",
              "name": "fechaFin",
              "type": "string"
            }
          ],
          "internalType": "struct MyContract.Contrato[]",
          "name": "",
          "type": "tuple[]"
        }
      ],
      "stateMutability": "view",
      "type": "function",
      "constant": true
    },
    {
      "inputs": [
        {
          "internalType": "uint256",
          "name": "_id",
          "type": "uint256"
        }
      ],
      "name": "getOwner",
      "outputs": [
        {
          "internalType": "address",
          "name": "",
          "type": "address"
        }
      ],
      "stateMutability": "view",
      "type": "function",
      "constant": true
    }
  ],
  "bytecode": "0x608060405234801561001057600080fd5b5061295a806100206000396000f3fe608060405234801561001057600080fd5b50600436106100935760003560e01c80636797559b116100665780636797559b1461014c57806372d139181461017c578063a8d09480146101ac578063c41a360a146101dc578063c835d3101461020c57610093565b806318d3ce96146100985780633a00a1d1146100b65780633e2e7d77146100ec57806343fd9efe1461011c575b600080fd5b6100a0610228565b6040516100ad9190612249565b60405180910390f35b6100d060048036038101906100cb9190611e7c565b6106ab565b6040516100e397969594939291906123e5565b60405180910390f35b61010660048036038101906101019190611d7c565b61092a565b6040516101139190612249565b60405180910390f35b61013660048036038101906101319190611e7c565b610e53565b60405161014391906123c3565b60405180910390f35b61016660048036038101906101619190611d7c565b6111df565b604051610173919061226b565b60405180910390f35b61019660048036038101906101919190611d7c565b61122a565b6040516101a39190612249565b60405180910390f35b6101c660048036038101906101c19190611e7c565b61175f565b6040516101d3919061222e565b60405180910390f35b6101f660048036038101906101f19190611e7c565b611792565b604051610203919061222e565b60405180910390f35b61022660048036038101906102219190611da5565b611815565b005b60606000808054905011610271576040517f08c379a000000000000000000000000000000000000000000000000000000000815260040161026890612363565b60405180910390fd5b6000808054905067ffffffffffffffff8111156102b7577f4e487b7100000000000000000000000000000000000000000000000000000000600052604160045260246000fd5b6040519080825280602002602001820160405280156102f057816020015b6102dd611bd2565b8152602001906001900390816102d55790505b5090506000805b60008054905081101561069f576000818154811061033e577f4e487b7100000000000000000000000000000000000000000000000000000000600052603260045260246000fd5b90600052602060002090600702016040518060e001604052908160008201548152602001600182018054610371906125db565b80601f016020809104026020016040519081016040528092919081815260200182805461039d906125db565b80156103ea5780601f106103bf576101008083540402835291602001916103ea565b820191906000526020600020905b8154815290600101906020018083116103cd57829003601f168201915b50505050508152602001600282018054610403906125db565b80601f016020809104026020016040519081016040528092919081815260200182805461042f906125db565b801561047c5780601f106104515761010080835404028352916020019161047c565b820191906000526020600020905b81548152906001019060200180831161045f57829003601f168201915b505050505081526020016003820160009054906101000a900460ff1660028111156104d0577f4e487b7100000000000000000000000000000000000000000000000000000000600052602160045260246000fd5b6002811115610508577f4e487b7100000000000000000000000000000000000000000000000000000000600052602160045260246000fd5b815260200160048201548152602001600582018054610526906125db565b80601f0160208091040260200160405190810160405280929190818152602001828054610552906125db565b801561059f5780601f106105745761010080835404028352916020019161059f565b820191906000526020600020905b81548152906001019060200180831161058257829003601f168201915b505050505081526020016006820180546105b8906125db565b80601f01602080910402602001604051908101604052809291908181526020018280546105e4906125db565b80156106315780601f1061060657610100808354040283529160200191610631565b820191906000526020600020905b81548152906001019060200180831161061457829003601f168201915b505050505081525050838381518110610673577f4e487b7100000000000000000000000000000000000000000000000000000000600052603260045260246000fd5b602002602001018190525081806106899061263e565b92505080806106979061263e565b9150506102f7565b50808252819250505090565b600081815481106106bb57600080fd5b90600052602060002090600702016000915090508060000154908060010180546106e4906125db565b80601f0160208091040260200160405190810160405280929190818152602001828054610710906125db565b801561075d5780601f106107325761010080835404028352916020019161075d565b820191906000526020600020905b81548152906001019060200180831161074057829003601f168201915b505050505090806002018054610772906125db565b80601f016020809104026020016040519081016040528092919081815260200182805461079e906125db565b80156107eb5780601f106107c0576101008083540402835291602001916107eb565b820191906000526020600020905b8154815290600101906020018083116107ce57829003601f168201915b5050505050908060030160009054906101000a900460ff1690806004015490806005018054610819906125db565b80601f0160208091040260200160405190810160405280929190818152602001828054610845906125db565b80156108925780601f1061086757610100808354040283529160200191610892565b820191906000526020600020905b81548152906001019060200180831161087557829003601f168201915b5050505050908060060180546108a7906125db565b80601f01602080910402602001604051908101604052809291908181526020018280546108d3906125db565b80156109205780601f106108f557610100808354040283529160200191610920565b820191906000526020600020905b81548152906001019060200180831161090357829003601f168201915b5050505050905087565b6060610935826111df565b610974576040517f08c379a000000000000000000000000000000000000000000000000000000000815260040161096b90612303565b60405180910390fd5b6000600260008473ffffffffffffffffffffffffffffffffffffffff1673ffffffffffffffffffffffffffffffffffffffff1681526020019081526020016000205467ffffffffffffffff8111156109f5577f4e487b7100000000000000000000000000000000000000000000000000000000600052604160045260246000fd5b604051908082528060200260200182016040528015610a2e57816020015b610a1b611bd2565b815260200190600190039081610a135790505b5090506000805b600080549050811015610e45578473ffffffffffffffffffffffffffffffffffffffff166001600083815260200190815260200160002060009054906101000a900473ffffffffffffffffffffffffffffffffffffffff1673ffffffffffffffffffffffffffffffffffffffff161415610e245760008181548110610ae3577f4e487b7100000000000000000000000000000000000000000000000000000000600052603260045260246000fd5b90600052602060002090600702016040518060e001604052908160008201548152602001600182018054610b16906125db565b80601f0160208091040260200160405190810160405280929190818152602001828054610b42906125db565b8015610b8f5780601f10610b6457610100808354040283529160200191610b8f565b820191906000526020600020905b815481529060010190602001808311610b7257829003601f168201915b50505050508152602001600282018054610ba8906125db565b80601f0160208091040260200160405190810160405280929190818152602001828054610bd4906125db565b8015610c215780601f10610bf657610100808354040283529160200191610c21565b820191906000526020600020905b815481529060010190602001808311610c0457829003601f168201915b505050505081526020016003820160009054906101000a900460ff166002811115610c75577f4e487b7100000000000000000000000000000000000000000000000000000000600052602160045260246000fd5b6002811115610cad577f4e487b7100000000000000000000000000000000000000000000000000000000600052602160045260246000fd5b815260200160048201548152602001600582018054610ccb906125db565b80601f0160208091040260200160405190810160405280929190818152602001828054610cf7906125db565b8015610d445780601f10610d1957610100808354040283529160200191610d44565b820191906000526020600020905b815481529060010190602001808311610d2757829003601f168201915b50505050508152602001600682018054610d5d906125db565b80601f0160208091040260200160405190810160405280929190818152602001828054610d89906125db565b8015610dd65780601f10610dab57610100808354040283529160200191610dd6565b820191906000526020600020905b815481529060010190602001808311610db957829003601f168201915b505050505081525050838381518110610e18577f4e487b7100000000000000000000000000000000000000000000000000000000600052603260045260246000fd5b60200260200101819052505b8180610e2f9061263e565b9250508080610e3d9061263e565b915050610a35565b508082528192505050919050565b610e5b611bd2565b6000805490508210610ea2576040517f08c379a0000000000000000000000000000000000000000000000000000000008152600401610e9990612323565b60405180910390fd5b60008281548110610edc577f4e487b7100000000000000000000000000000000000000000000000000000000600052603260045260246000fd5b90600052602060002090600702016040518060e001604052908160008201548152602001600182018054610f0f906125db565b80601f0160208091040260200160405190810160405280929190818152602001828054610f3b906125db565b8015610f885780601f10610f5d57610100808354040283529160200191610f88565b820191906000526020600020905b815481529060010190602001808311610f6b57829003601f168201915b50505050508152602001600282018054610fa1906125db565b80601f0160208091040260200160405190810160405280929190818152602001828054610fcd906125db565b801561101a5780601f10610fef5761010080835404028352916020019161101a565b820191906000526020600020905b815481529060010190602001808311610ffd57829003601f168201915b505050505081526020016003820160009054906101000a900460ff16600281111561106e577f4e487b7100000000000000000000000000000000000000000000000000000000600052602160045260246000fd5b60028111156110a6577f4e487b7100000000000000000000000000000000000000000000000000000000600052602160045260246000fd5b8152602001600482015481526020016005820180546110c4906125db565b80601f01602080910402602001604051908101604052809291908181526020018280546110f0906125db565b801561113d5780601f106111125761010080835404028352916020019161113d565b820191906000526020600020905b81548152906001019060200180831161112057829003601f168201915b50505050508152602001600682018054611156906125db565b80601f0160208091040260200160405190810160405280929190818152602001828054611182906125db565b80156111cf5780601f106111a4576101008083540402835291602001916111cf565b820191906000526020600020905b8154815290600101906020018083116111b257829003601f168201915b5050505050815250509050919050565b600080600260008473ffffffffffffffffffffffffffffffffffffffff1673ffffffffffffffffffffffffffffffffffffffff16815260200190815260200160002054119050919050565b60606000808054905011611273576040517f08c379a000000000000000000000000000000000000000000000000000000000815260040161126a90612363565b60405180910390fd5b61127c82611b2f565b156112bc576040517f08c379a00000000000000000000000000000000000000000000000000000000081526004016112b3906123a3565b60405180910390fd5b6000808054905067ffffffffffffffff811115611302577f4e487b7100000000000000000000000000000000000000000000000000000000600052604160045260246000fd5b60405190808252806020026020018201604052801561133b57816020015b611328611bd2565b8152602001906001900390816113205790505b5090506000805b600080549050811015611751578473ffffffffffffffffffffffffffffffffffffffff166001600083815260200190815260200160002060009054906101000a900473ffffffffffffffffffffffffffffffffffffffff1673ffffffffffffffffffffffffffffffffffffffff161461173057600081815481106113ef577f4e487b7100000000000000000000000000000000000000000000000000000000600052603260045260246000fd5b90600052602060002090600702016040518060e001604052908160008201548152602001600182018054611422906125db565b80601f016020809104026020016040519081016040528092919081815260200182805461144e906125db565b801561149b5780601f106114705761010080835404028352916020019161149b565b820191906000526020600020905b81548152906001019060200180831161147e57829003601f168201915b505050505081526020016002820180546114b4906125db565b80601f01602080910402602001604051908101604052809291908181526020018280546114e0906125db565b801561152d5780601f106115025761010080835404028352916020019161152d565b820191906000526020600020905b81548152906001019060200180831161151057829003601f168201915b505050505081526020016003820160009054906101000a900460ff166002811115611581577f4e487b7100000000000000000000000000000000000000000000000000000000600052602160045260246000fd5b60028111156115b9577f4e487b7100000000000000000000000000000000000000000000000000000000600052602160045260246000fd5b8152602001600482015481526020016005820180546115d7906125db565b80601f0160208091040260200160405190810160405280929190818152602001828054611603906125db565b80156116505780601f1061162557610100808354040283529160200191611650565b820191906000526020600020905b81548152906001019060200180831161163357829003601f168201915b50505050508152602001600682018054611669906125db565b80601f0160208091040260200160405190810160405280929190818152602001828054611695906125db565b80156116e25780601f106116b7576101008083540402835291602001916116e2565b820191906000526020600020905b8154815290600101906020018083116116c557829003601f168201915b505050505081525050838381518110611724577f4e487b7100000000000000000000000000000000000000000000000000000000600052603260045260246000fd5b60200260200101819052505b818061173b9061263e565b92505080806117499061263e565b915050611342565b508082528192505050919050565b60016020528060005260406000206000915054906101000a900473ffffffffffffffffffffffffffffffffffffffff1681565b6000808054905082106117da576040517f08c379a00000000000000000000000000000000000000000000000000000000081526004016117d190612383565b60405180910390fd5b6001600083815260200190815260200160002060009054906101000a900473ffffffffffffffffffffffffffffffffffffffff169050919050565b60008311611858576040517f08c379a000000000000000000000000000000000000000000000000000000000815260040161184f90612343565b60405180910390fd5b60008080549050905060006040518060e00160405280838152602001888152602001878152602001600060028111156118ba577f4e487b7100000000000000000000000000000000000000000000000000000000600052602160045260246000fd5b815260200186815260200185815260200184815250908060018154018082558091505060019003906000526020600020906007020160009091909190915060008201518160000155602082015181600101908051906020019061191e929190611c47565b50604082015181600201908051906020019061193b929190611c47565b5060608201518160030160006101000a81548160ff0219169083600281111561198d577f4e487b7100000000000000000000000000000000000000000000000000000000600052602160045260246000fd5b02179055506080820151816004015560a08201518160050190805190602001906119b8929190611c47565b5060c08201518160060190805190602001906119d5929190611c47565b505050336001600083815260200190815260200160002060006101000a81548173ffffffffffffffffffffffffffffffffffffffff021916908373ffffffffffffffffffffffffffffffffffffffff160217905550600260006001600084815260200190815260200160002060009054906101000a900473ffffffffffffffffffffffffffffffffffffffff1673ffffffffffffffffffffffffffffffffffffffff1673ffffffffffffffffffffffffffffffffffffffff1681526020019081526020016000206000815480929190611aad9061263e565b9190505550807f64a616012de865904db92adea94e3eb0c7880c294e70613f08e6dc1753c5a65e87876001600086815260200190815260200160002060009054906101000a900473ffffffffffffffffffffffffffffffffffffffff16888888604051611b1f96959493929190612286565b60405180910390a2505050505050565b600080600090505b600080549050811015611bc7578273ffffffffffffffffffffffffffffffffffffffff166001600083815260200190815260200160002060009054906101000a900473ffffffffffffffffffffffffffffffffffffffff1673ffffffffffffffffffffffffffffffffffffffff1614611bb4576000915050611bcd565b8080611bbf9061263e565b915050611b37565b50600190505b919050565b6040518060e0016040528060008152602001606081526020016060815260200160006002811115611c2c577f4e487b7100000000000000000000000000000000000000000000000000000000600052602160045260246000fd5b81526020016000815260200160608152602001606081525090565b828054611c53906125db565b90600052602060002090601f016020900481019282611c755760008555611cbc565b82601f10611c8e57805160ff1916838001178555611cbc565b82800160010185558215611cbc579182015b82811115611cbb578251825591602001919060010190611ca0565b5b509050611cc99190611ccd565b5090565b5b80821115611ce6576000816000905550600101611cce565b5090565b6000611cfd611cf884612495565b612470565b905082815260208101848484011115611d1557600080fd5b611d20848285612599565b509392505050565b600081359050611d37816128f6565b92915050565b600082601f830112611d4e57600080fd5b8135611d5e848260208601611cea565b91505092915050565b600081359050611d768161290d565b92915050565b600060208284031215611d8e57600080fd5b6000611d9c84828501611d28565b91505092915050565b600080600080600060a08688031215611dbd57600080fd5b600086013567ffffffffffffffff811115611dd757600080fd5b611de388828901611d3d565b955050602086013567ffffffffffffffff811115611e0057600080fd5b611e0c88828901611d3d565b9450506040611e1d88828901611d67565b935050606086013567ffffffffffffffff811115611e3a57600080fd5b611e4688828901611d3d565b925050608086013567ffffffffffffffff811115611e6357600080fd5b611e6f88828901611d3d565b9150509295509295909350565b600060208284031215611e8e57600080fd5b6000611e9c84828501611d67565b91505092915050565b6000611eb183836120ae565b905092915050565b611ec28161252c565b82525050565b6000611ed3826124d6565b611edd81856124f9565b935083602082028501611eef856124c6565b8060005b85811015611f2b5784840389528151611f0c8582611ea5565b9450611f17836124ec565b925060208a01995050600181019050611ef3565b50829750879550505050505092915050565b611f468161253e565b82525050565b611f5581612587565b82525050565b611f6481612587565b82525050565b6000611f75826124e1565b611f7f818561250a565b9350611f8f8185602086016125a8565b611f9881612743565b840191505092915050565b6000611fae826124e1565b611fb8818561251b565b9350611fc88185602086016125a8565b611fd181612743565b840191505092915050565b6000611fe960218361251b565b9150611ff482612754565b604082019050919050565b600061200c60198361251b565b9150612017826127a3565b602082019050919050565b600061202f60248361251b565b915061203a826127cc565b604082019050919050565b600061205260188361251b565b915061205d8261281b565b602082019050919050565b600061207560248361251b565b915061208082612844565b604082019050919050565b6000612098602b8361251b565b91506120a382612893565b604082019050919050565b600060e0830160008301516120c66000860182612210565b50602083015184820360208601526120de8282611f6a565b915050604083015184820360408601526120f88282611f6a565b915050606083015161210d6060860182611f4c565b5060808301516121206080860182612210565b5060a083015184820360a08601526121388282611f6a565b91505060c083015184820360c08601526121528282611f6a565b9150508091505092915050565b600060e0830160008301516121776000860182612210565b506020830151848203602086015261218f8282611f6a565b915050604083015184820360408601526121a98282611f6a565b91505060608301516121be6060860182611f4c565b5060808301516121d16080860182612210565b5060a083015184820360a08601526121e98282611f6a565b91505060c083015184820360c08601526122038282611f6a565b9150508091505092915050565b6122198161257d565b82525050565b6122288161257d565b82525050565b60006020820190506122436000830184611eb9565b92915050565b600060208201905081810360008301526122638184611ec8565b905092915050565b60006020820190506122806000830184611f3d565b92915050565b600060c08201905081810360008301526122a08189611fa3565b905081810360208301526122b48188611fa3565b90506122c36040830187611eb9565b6122d0606083018661221f565b81810360808301526122e28185611fa3565b905081810360a08301526122f68184611fa3565b9050979650505050505050565b6000602082019050818103600083015261231c81611fdc565b9050919050565b6000602082019050818103600083015261233c81611fff565b9050919050565b6000602082019050818103600083015261235c81612022565b9050919050565b6000602082019050818103600083015261237c81612045565b9050919050565b6000602082019050818103600083015261239c81612068565b9050919050565b600060208201905081810360008301526123bc8161208b565b9050919050565b600060208201905081810360008301526123dd818461215f565b905092915050565b600060e0820190506123fa600083018a61221f565b818103602083015261240c8189611fa3565b905081810360408301526124208188611fa3565b905061242f6060830187611f5b565b61243c608083018661221f565b81810360a083015261244e8185611fa3565b905081810360c08301526124628184611fa3565b905098975050505050505050565b600061247a61248b565b9050612486828261260d565b919050565b6000604051905090565b600067ffffffffffffffff8211156124b0576124af612714565b5b6124b982612743565b9050602081019050919050565b6000819050602082019050919050565b600081519050919050565b600081519050919050565b6000602082019050919050565b600082825260208201905092915050565b600082825260208201905092915050565b600082825260208201905092915050565b60006125378261255d565b9050919050565b60008115159050919050565b6000819050612558826128e2565b919050565b600073ffffffffffffffffffffffffffffffffffffffff82169050919050565b6000819050919050565b60006125928261254a565b9050919050565b82818337600083830152505050565b60005b838110156125c65780820151818401526020810190506125ab565b838111156125d5576000848401525b50505050565b600060028204905060018216806125f357607f821691505b60208210811415612607576126066126e5565b5b50919050565b61261682612743565b810181811067ffffffffffffffff8211171561263557612634612714565b5b80604052505050565b60006126498261257d565b91507fffffffffffffffffffffffffffffffffffffffffffffffffffffffffffffffff82141561267c5761267b612687565b5b600182019050919050565b7f4e487b7100000000000000000000000000000000000000000000000000000000600052601160045260246000fd5b7f4e487b7100000000000000000000000000000000000000000000000000000000600052602160045260246000fd5b7f4e487b7100000000000000000000000000000000000000000000000000000000600052602260045260246000fd5b7f4e487b7100000000000000000000000000000000000000000000000000000000600052604160045260246000fd5b6000601f19601f8301169050919050565b7f456c2070726f706965746172696f206e6f207469656e6520636f6e747261746f60008201527f7300000000000000000000000000000000000000000000000000000000000000602082015250565b7f4e6f20657869737465206e696e67756e20636f6e747261746f00000000000000600082015250565b7f456c2070726563696f20657320696775616c206f20696e666572696f7220612060008201527f6365726f00000000000000000000000000000000000000000000000000000000602082015250565b7f41756e206e6f206578697374656e20636f6e747261746f730000000000000000600082015250565b7f4e6f20657869737465206e696e67756e20636f6e747261746f20636f6e20657360008201527f6520494400000000000000000000000000000000000000000000000000000000602082015250565b7f546f646f73206c6f7320636f6e747261746f7320736f6e20646520756e61206d60008201527f69736d61206375656e7461000000000000000000000000000000000000000000602082015250565b600381106128f3576128f26126b6565b5b50565b6128ff8161252c565b811461290a57600080fd5b50565b6129168161257d565b811461292157600080fd5b5056fea2646970667358221220d5dfa96ebf13018d145b620ec2656fa815020f7e2accc5f296a65d82d4bc8cc264736f6c63430008020033",
  "immutableReferences": {},
  "source": "// SPDX-License-Identifier: MIT\r\npragma solidity ^0.8.2;\r\n\r\ncontract MyContract {\r\n    \r\n    struct Contrato {\r\n        uint id;\r\n        string titulo;\r\n        string descripcion;\r\n        EstadoContrato estado;\r\n        uint256 precio;\r\n        string fechaInicio;\r\n        string fechaFin;\r\n    }\r\n\r\n    enum EstadoContrato {  Activo, Firmado, Finalizado }\r\n    Contrato[] public contratos; \r\n    \r\n    mapping (uint => address) public contractOwner;\r\n    mapping (address => uint) private ownerCount;\r\n\r\n    event ContratoCreado(uint indexed id,string titulo, string descripcion, address ownerAddress, uint256 precio, string fechaInicio, string fechaFin);\r\n    //event ContratoModificado(uint indexed id, string descripcion, address ownerAddress, uint256 fecha);\r\n    //event ContratoFirmado(uint indexed id, address firmante, uint256 fecha);\r\n    //event ContratoFinalizado(uint indexed id, uint256 fecha);\r\n\r\n    \r\n    function crearContrato(string memory _titulo, string memory _descripcion, uint256 _precio, string memory _fechaInicio, string memory _fechaFin) public {\r\n        require(_precio > 0, \"El precio es igual o inferior a cero\");\r\n        uint _id = contratos.length;\r\n        contratos.push(Contrato(_id, _titulo, _descripcion, EstadoContrato.Activo, _precio, _fechaInicio, _fechaFin));\r\n        contractOwner[_id] = msg.sender;\r\n        ownerCount[contractOwner[_id]]++;\r\n        emit ContratoCreado(_id, _titulo, _descripcion, contractOwner[_id], _precio, _fechaInicio, _fechaFin);\r\n    }\r\n\r\n     function getContrato(uint _id) public view returns (Contrato memory){\r\n        require(_id < contratos.length, \"No existe ningun contrato\");\r\n        return contratos[_id];\r\n    }\r\n\r\n    // Función que verifica si todos los contratos asociados a un propietario son suyos\r\n    function todosLosContratosSonDelOwner(address owner) internal view returns (bool) {\r\n        for (uint i = 0; i < contratos.length; i++) {\r\n            if (contractOwner[i] != owner) {\r\n                return false; // Si se encuentra un contrato que no es del propietario, devuelve falso\r\n            }\r\n        }\r\n        return true; // Si todos los contratos son del propietario, devuelve verdadero\r\n    }\r\n\r\n    function getAllContractsToSign (address owner) public view returns (Contrato[] memory){\r\n        require(contratos.length > 0, \"Aun no existen contratos\");\r\n        require(!todosLosContratosSonDelOwner(owner), \"Todos los contratos son de una misma cuenta\");\r\n        Contrato[] memory contratosAux = new Contrato[](contratos.length);\r\n        uint count = 0;\r\n        for (uint i=0; i < contratos.length; i++){\r\n            if (contractOwner[i] != owner)\r\n            contratosAux[count] = contratos[i];\r\n            count ++;\r\n        }\r\n\r\n        // Redimensiona el array  para eliminar los espacios no utilizados\r\n        assembly {\r\n            mstore(contratosAux, count)\r\n        }\r\n        return contratosAux;\r\n    }\r\n\r\n    // Función que verifica si existen contratos para un propietario específico\r\n    function existenContratosParaOwner(address owner) public view returns (bool) {\r\n        return ownerCount[owner] > 0;\r\n    }\r\n\r\n\r\n    function getAllContractsByOwner (address owner) public view returns (Contrato[] memory){\r\n         require(existenContratosParaOwner(owner), \"El propietario no tiene contratos\");\r\n        Contrato[] memory contratosAux = new Contrato[](ownerCount[owner]);\r\n        uint count = 0;\r\n        for (uint i=0; i < contratos.length; i++){\r\n            if (contractOwner[i] == owner)\r\n            contratosAux[count] = contratos[i];\r\n            count ++;\r\n        }\r\n\r\n        // Redimensiona el array  para eliminar los espacios no utilizados\r\n        assembly {\r\n            mstore(contratosAux, count)\r\n        }\r\n        return contratosAux;\r\n    }\r\n\r\n    function getAllContracts () public view returns (Contrato[] memory){\r\n        require(contratos.length > 0, \"Aun no existen contratos\");\r\n        Contrato[] memory contratosAux = new Contrato[](contratos.length);\r\n        uint count = 0;\r\n        for (uint i=0; i < contratos.length; i++){\r\n            contratosAux[count] = contratos[i];\r\n            count ++;\r\n        }\r\n\r\n        // Redimensiona el array  para eliminar los espacios no utilizados\r\n        assembly {\r\n            mstore(contratosAux, count)\r\n        }\r\n        return contratosAux;\r\n    }\r\n    \r\n\r\n    function getOwner(uint _id) public view returns (address) {\r\n        require(_id < contratos.length, \"No existe ningun contrato con ese ID\");\r\n        return contractOwner[_id];\r\n    }\r\n\r\n    \r\n    /*\r\n    function modificarContrato(uint _id, string memory _nuevaDescripcion) public {\r\n        require(contractOwner[_id] == msg.sender, \"No tienes permiso para modificar este contrato\");\r\n        require(contratos[_id].estado == EstadoContrato.Activo, \"El contrato no esta en estado activo\");\r\n        \r\n        contratos[_id].descripcion = _nuevaDescripcion;\r\n        emit ContratoModificado(_id, _nuevaDescripcion, msg.sender, block.timestamp);\r\n    }\r\n    */\r\n\r\n    /*\r\n    function firmarContrato(uint _id) public {\r\n        require(contratos[_id].estado == EstadoContrato.Activo, \"El contrato no esta en estado activo\");\r\n        require(contratos[_id].estado != EstadoContrato.Firmado, \"El contrato ya ha sido firmado\");\r\n        \r\n        contratos[_id].estado = EstadoContrato.Firmado;\r\n        emit ContratoFirmado(_id, msg.sender, block.timestamp);\r\n    }*/\r\n\r\n\r\n    \r\n\r\n   \r\n\r\n}\r\n",
  "sourcePath": "C:\\Users\\super\\OneDrive - UVa (Estudiantes)\\Documentos\\TFG\\uva-contractme\\contracts\\MyContract.sol",
  "compiler": {
    "name": "solc",
    "version": "0.8.2+commit.661d1103.Emscripten.clang"
  },
  "schemaVersion": "3.4.16",
  "updatedAt": "2024-05-26T11:46:22.547Z",
  "networkType": "ethereum",
  "devdoc": {
    "kind": "dev",
    "methods": {},
    "version": 1
  },
  "userdoc": {
    "kind": "user",
    "methods": {},
    "version": 1
  }
}