{
  "contractName": "MyContract",
  "abi": [
    {
      "anonymous": false,
      "inputs": [
        {
          "indexed": true,
          "internalType": "uint256",
          "name": "id",
          "type": "uint256"
        },
        {
          "indexed": false,
          "internalType": "string",
          "name": "titulo",
          "type": "string"
        },
        {
          "indexed": false,
          "internalType": "string",
          "name": "descripcion",
          "type": "string"
        },
        {
          "indexed": false,
          "internalType": "address",
          "name": "ownerAddress",
          "type": "address"
        },
        {
          "indexed": false,
          "internalType": "uint256",
          "name": "precio",
          "type": "uint256"
        },
        {
          "indexed": false,
          "internalType": "string",
          "name": "fechaInicio",
          "type": "string"
        },
        {
          "indexed": false,
          "internalType": "string",
          "name": "fechaFin",
          "type": "string"
        }
      ],
      "name": "ContratoCreado",
      "type": "event"
    },
    {
      "anonymous": false,
      "inputs": [
        {
          "indexed": true,
          "internalType": "uint256",
          "name": "id",
          "type": "uint256"
        },
        {
          "indexed": false,
          "internalType": "address",
          "name": "firmante",
          "type": "address"
        }
      ],
      "name": "ContratoFirmado",
      "type": "event"
    },
    {
      "anonymous": false,
      "inputs": [
        {
          "indexed": true,
          "internalType": "uint256",
          "name": "id",
          "type": "uint256"
        },
        {
          "indexed": false,
          "internalType": "string",
          "name": "nuevoTitulo",
          "type": "string"
        },
        {
          "indexed": false,
          "internalType": "string",
          "name": "nuevaDescripcion",
          "type": "string"
        },
        {
          "indexed": false,
          "internalType": "uint256",
          "name": "nuevoPrecio",
          "type": "uint256"
        },
        {
          "indexed": false,
          "internalType": "string",
          "name": "nuevaFechaInicio",
          "type": "string"
        },
        {
          "indexed": false,
          "internalType": "string",
          "name": "nuevaFechaFin",
          "type": "string"
        }
      ],
      "name": "ContratoModificado",
      "type": "event"
    },
    {
      "inputs": [
        {
          "internalType": "uint256",
          "name": "",
          "type": "uint256"
        }
      ],
      "name": "contractIndexById",
      "outputs": [
        {
          "internalType": "uint256",
          "name": "",
          "type": "uint256"
        }
      ],
      "stateMutability": "view",
      "type": "function",
      "constant": true
    },
    {
      "inputs": [
        {
          "internalType": "uint256",
          "name": "",
          "type": "uint256"
        }
      ],
      "name": "contractOwner",
      "outputs": [
        {
          "internalType": "address",
          "name": "",
          "type": "address"
        }
      ],
      "stateMutability": "view",
      "type": "function",
      "constant": true
    },
    {
      "inputs": [
        {
          "internalType": "uint256",
          "name": "",
          "type": "uint256"
        }
      ],
      "name": "contratos",
      "outputs": [
        {
          "internalType": "uint256",
          "name": "id",
          "type": "uint256"
        },
        {
          "internalType": "string",
          "name": "titulo",
          "type": "string"
        },
        {
          "internalType": "string",
          "name": "descripcion",
          "type": "string"
        },
        {
          "internalType": "enum MyContract.EstadoContrato",
          "name": "estado",
          "type": "uint8"
        },
        {
          "internalType": "uint256",
          "name": "precio",
          "type": "uint256"
        },
        {
          "internalType": "string",
          "name": "fechaInicio",
          "type": "string"
        },
        {
          "internalType": "string",
          "name": "fechaFin",
          "type": "string"
        },
        {
          "internalType": "address",
          "name": "firmante",
          "type": "address"
        }
      ],
      "stateMutability": "view",
      "type": "function",
      "constant": true
    },
    {
      "inputs": [
        {
          "internalType": "address",
          "name": "",
          "type": "address"
        },
        {
          "internalType": "uint256",
          "name": "",
          "type": "uint256"
        }
      ],
      "name": "contratosFirmadosPorCuenta",
      "outputs": [
        {
          "internalType": "uint256",
          "name": "",
          "type": "uint256"
        }
      ],
      "stateMutability": "view",
      "type": "function",
      "constant": true
    },
    {
      "inputs": [
        {
          "internalType": "string",
          "name": "_titulo",
          "type": "string"
        },
        {
          "internalType": "string",
          "name": "_descripcion",
          "type": "string"
        },
        {
          "internalType": "uint256",
          "name": "_precio",
          "type": "uint256"
        },
        {
          "internalType": "string",
          "name": "_fechaInicio",
          "type": "string"
        },
        {
          "internalType": "string",
          "name": "_fechaFin",
          "type": "string"
        }
      ],
      "name": "crearContrato",
      "outputs": [],
      "stateMutability": "nonpayable",
      "type": "function"
    },
    {
      "inputs": [
        {
          "internalType": "uint256",
          "name": "_id",
          "type": "uint256"
        }
      ],
      "name": "firmarContrato",
      "outputs": [],
      "stateMutability": "payable",
      "type": "function",
      "payable": true
    },
    {
      "inputs": [
        {
          "internalType": "uint256",
          "name": "_id",
          "type": "uint256"
        },
        {
          "internalType": "string",
          "name": "_nuevoTitulo",
          "type": "string"
        },
        {
          "internalType": "string",
          "name": "_nuevaDescripcion",
          "type": "string"
        },
        {
          "internalType": "uint256",
          "name": "_nuevoPrecio",
          "type": "uint256"
        },
        {
          "internalType": "string",
          "name": "_nuevaFechaInicio",
          "type": "string"
        },
        {
          "internalType": "string",
          "name": "_nuevaFechaFin",
          "type": "string"
        }
      ],
      "name": "modificarContrato",
      "outputs": [],
      "stateMutability": "nonpayable",
      "type": "function"
    },
    {
      "inputs": [
        {
          "internalType": "uint256",
          "name": "_id",
          "type": "uint256"
        }
      ],
      "name": "getContrato",
      "outputs": [
        {
          "components": [
            {
              "internalType": "uint256",
              "name": "id",
              "type": "uint256"
            },
            {
              "internalType": "string",
              "name": "titulo",
              "type": "string"
            },
            {
              "internalType": "string",
              "name": "descripcion",
              "type": "string"
            },
            {
              "internalType": "enum MyContract.EstadoContrato",
              "name": "estado",
              "type": "uint8"
            },
            {
              "internalType": "uint256",
              "name": "precio",
              "type": "uint256"
            },
            {
              "internalType": "string",
              "name": "fechaInicio",
              "type": "string"
            },
            {
              "internalType": "string",
              "name": "fechaFin",
              "type": "string"
            },
            {
              "internalType": "address",
              "name": "firmante",
              "type": "address"
            }
          ],
          "internalType": "struct MyContract.Contrato",
          "name": "",
          "type": "tuple"
        }
      ],
      "stateMutability": "view",
      "type": "function",
      "constant": true
    },
    {
      "inputs": [
        {
          "internalType": "uint256",
          "name": "_id",
          "type": "uint256"
        }
      ],
      "name": "obtenerFirmante",
      "outputs": [
        {
          "internalType": "address",
          "name": "",
          "type": "address"
        }
      ],
      "stateMutability": "view",
      "type": "function",
      "constant": true
    },
    {
      "inputs": [
        {
          "internalType": "address",
          "name": "_cuenta",
          "type": "address"
        }
      ],
      "name": "getContratosFirmados",
      "outputs": [
        {
          "components": [
            {
              "internalType": "uint256",
              "name": "id",
              "type": "uint256"
            },
            {
              "internalType": "string",
              "name": "titulo",
              "type": "string"
            },
            {
              "internalType": "string",
              "name": "descripcion",
              "type": "string"
            },
            {
              "internalType": "enum MyContract.EstadoContrato",
              "name": "estado",
              "type": "uint8"
            },
            {
              "internalType": "uint256",
              "name": "precio",
              "type": "uint256"
            },
            {
              "internalType": "string",
              "name": "fechaInicio",
              "type": "string"
            },
            {
              "internalType": "string",
              "name": "fechaFin",
              "type": "string"
            },
            {
              "internalType": "address",
              "name": "firmante",
              "type": "address"
            }
          ],
          "internalType": "struct MyContract.Contrato[]",
          "name": "",
          "type": "tuple[]"
        }
      ],
      "stateMutability": "view",
      "type": "function",
      "constant": true
    },
    {
      "inputs": [
        {
          "internalType": "address",
          "name": "owner",
          "type": "address"
        }
      ],
      "name": "getAllContractsToSign",
      "outputs": [
        {
          "components": [
            {
              "internalType": "uint256",
              "name": "id",
              "type": "uint256"
            },
            {
              "internalType": "string",
              "name": "titulo",
              "type": "string"
            },
            {
              "internalType": "string",
              "name": "descripcion",
              "type": "string"
            },
            {
              "internalType": "enum MyContract.EstadoContrato",
              "name": "estado",
              "type": "uint8"
            },
            {
              "internalType": "uint256",
              "name": "precio",
              "type": "uint256"
            },
            {
              "internalType": "string",
              "name": "fechaInicio",
              "type": "string"
            },
            {
              "internalType": "string",
              "name": "fechaFin",
              "type": "string"
            },
            {
              "internalType": "address",
              "name": "firmante",
              "type": "address"
            }
          ],
          "internalType": "struct MyContract.Contrato[]",
          "name": "",
          "type": "tuple[]"
        }
      ],
      "stateMutability": "view",
      "type": "function",
      "constant": true
    },
    {
      "inputs": [
        {
          "internalType": "address",
          "name": "owner",
          "type": "address"
        }
      ],
      "name": "getAllContractsByOwner",
      "outputs": [
        {
          "components": [
            {
              "internalType": "uint256",
              "name": "id",
              "type": "uint256"
            },
            {
              "internalType": "string",
              "name": "titulo",
              "type": "string"
            },
            {
              "internalType": "string",
              "name": "descripcion",
              "type": "string"
            },
            {
              "internalType": "enum MyContract.EstadoContrato",
              "name": "estado",
              "type": "uint8"
            },
            {
              "internalType": "uint256",
              "name": "precio",
              "type": "uint256"
            },
            {
              "internalType": "string",
              "name": "fechaInicio",
              "type": "string"
            },
            {
              "internalType": "string",
              "name": "fechaFin",
              "type": "string"
            },
            {
              "internalType": "address",
              "name": "firmante",
              "type": "address"
            }
          ],
          "internalType": "struct MyContract.Contrato[]",
          "name": "",
          "type": "tuple[]"
        }
      ],
      "stateMutability": "view",
      "type": "function",
      "constant": true
    },
    {
      "inputs": [],
      "name": "getAllContracts",
      "outputs": [
        {
          "components": [
            {
              "internalType": "uint256",
              "name": "id",
              "type": "uint256"
            },
            {
              "internalType": "string",
              "name": "titulo",
              "type": "string"
            },
            {
              "internalType": "string",
              "name": "descripcion",
              "type": "string"
            },
            {
              "internalType": "enum MyContract.EstadoContrato",
              "name": "estado",
              "type": "uint8"
            },
            {
              "internalType": "uint256",
              "name": "precio",
              "type": "uint256"
            },
            {
              "internalType": "string",
              "name": "fechaInicio",
              "type": "string"
            },
            {
              "internalType": "string",
              "name": "fechaFin",
              "type": "string"
            },
            {
              "internalType": "address",
              "name": "firmante",
              "type": "address"
            }
          ],
          "internalType": "struct MyContract.Contrato[]",
          "name": "",
          "type": "tuple[]"
        }
      ],
      "stateMutability": "view",
      "type": "function",
      "constant": true
    },
    {
      "inputs": [
        {
          "internalType": "uint256",
          "name": "_id",
          "type": "uint256"
        }
      ],
      "name": "getOwner",
      "outputs": [
        {
          "internalType": "address",
          "name": "",
          "type": "address"
        }
      ],
      "stateMutability": "view",
      "type": "function",
      "constant": true
    },
    {
      "inputs": [
        {
          "internalType": "address",
          "name": "owner",
          "type": "address"
        }
      ],
      "name": "existenContratosParaOwner",
      "outputs": [
        {
          "internalType": "bool",
          "name": "",
          "type": "bool"
        }
      ],
      "stateMutability": "view",
      "type": "function",
      "constant": true
    }
  ],
  "bytecode": "0x608060405234801561001057600080fd5b50613ca3806100206000396000f3fe6080604052600436106100e85760003560e01c806372d139181161008a578063ad571e9211610059578063ad571e9214610360578063c41a360a14610389578063c835d310146103c6578063dd577e61146103ef576100e8565b806372d139181461026c57806373646b01146102a95780637986247f146102e6578063a8d0948014610323576100e8565b80633b6d2660116100c65780633b6d2660146101785780633e2e7d77146101b557806343fd9efe146101f25780636797559b1461022f576100e8565b806318d3ce96146100ed5780631b7a8220146101185780633a00a1d114610134575b600080fd5b3480156100f957600080fd5b5061010261042c565b60405161010f9190613355565b60405180910390f35b610132600480360381019061012d9190612ddc565b610906565b005b34801561014057600080fd5b5061015b60048036038101906101569190612ddc565b610bdc565b60405161016f9897969594939291906135fb565b60405180910390f35b34801561018457600080fd5b5061019f600480360381019061019a9190612ca0565b610e81565b6040516101ac9190613355565b60405180910390f35b3480156101c157600080fd5b506101dc60048036038101906101d79190612ca0565b6113cf565b6040516101e99190613355565b60405180910390f35b3480156101fe57600080fd5b5061021960048036038101906102149190612ddc565b61194f565b60405161022691906135be565b60405180910390f35b34801561023b57600080fd5b5061025660048036038101906102519190612ca0565b611d32565b6040516102639190613377565b60405180910390f35b34801561027857600080fd5b50610293600480360381019061028e9190612ca0565b611d7d565b6040516102a09190613355565b60405180910390f35b3480156102b557600080fd5b506102d060048036038101906102cb9190612cc9565b612313565b6040516102dd91906135e0565b60405180910390f35b3480156102f257600080fd5b5061030d60048036038101906103089190612ddc565b612344565b60405161031a919061333a565b60405180910390f35b34801561032f57600080fd5b5061034a60048036038101906103459190612ddc565b6123ff565b604051610357919061333a565b60405180910390f35b34801561036c57600080fd5b5061038760048036038101906103829190612e05565b612432565b005b34801561039557600080fd5b506103b060048036038101906103ab9190612ddc565b61261b565b6040516103bd919061333a565b60405180910390f35b3480156103d257600080fd5b506103ed60048036038101906103e89190612d05565b61269e565b005b3480156103fb57600080fd5b5061041660048036038101906104119190612ddc565b612a1d565b60405161042391906135e0565b60405180910390f35b60606000808054905011610475576040517f08c379a000000000000000000000000000000000000000000000000000000000815260040161046c9061353e565b60405180910390fd5b6000808054905067ffffffffffffffff8111156104bb577f4e487b7100000000000000000000000000000000000000000000000000000000600052604160045260246000fd5b6040519080825280602002602001820160405280156104f457816020015b6104e1612ad8565b8152602001906001900390816104d95790505b5090506000805b6000805490508110156108fa5760008181548110610542577f4e487b7100000000000000000000000000000000000000000000000000000000600052603260045260246000fd5b9060005260206000209060080201604051806101000160405290816000820154815260200160018201805461057690613834565b80601f01602080910402602001604051908101604052809291908181526020018280546105a290613834565b80156105ef5780601f106105c4576101008083540402835291602001916105ef565b820191906000526020600020905b8154815290600101906020018083116105d257829003601f168201915b5050505050815260200160028201805461060890613834565b80601f016020809104026020016040519081016040528092919081815260200182805461063490613834565b80156106815780601f1061065657610100808354040283529160200191610681565b820191906000526020600020905b81548152906001019060200180831161066457829003601f168201915b505050505081526020016003820160009054906101000a900460ff1660028111156106d5577f4e487b7100000000000000000000000000000000000000000000000000000000600052602160045260246000fd5b600281111561070d577f4e487b7100000000000000000000000000000000000000000000000000000000600052602160045260246000fd5b81526020016004820154815260200160058201805461072b90613834565b80601f016020809104026020016040519081016040528092919081815260200182805461075790613834565b80156107a45780601f10610779576101008083540402835291602001916107a4565b820191906000526020600020905b81548152906001019060200180831161078757829003601f168201915b505050505081526020016006820180546107bd90613834565b80601f01602080910402602001604051908101604052809291908181526020018280546107e990613834565b80156108365780601f1061080b57610100808354040283529160200191610836565b820191906000526020600020905b81548152906001019060200180831161081957829003601f168201915b505050505081526020016007820160009054906101000a900473ffffffffffffffffffffffffffffffffffffffff1673ffffffffffffffffffffffffffffffffffffffff1673ffffffffffffffffffffffffffffffffffffffff16815250508383815181106108ce577f4e487b7100000000000000000000000000000000000000000000000000000000600052603260045260246000fd5b602002602001018190525081806108e490613897565b92505080806108f290613897565b9150506104fb565b50808252819250505090565b6000808281548110610941577f4e487b7100000000000000000000000000000000000000000000000000000000600052603260045260246000fd5b90600052602060002090600802019050600073ffffffffffffffffffffffffffffffffffffffff168160070160009054906101000a900473ffffffffffffffffffffffffffffffffffffffff1673ffffffffffffffffffffffffffffffffffffffff16146109e4576040517f08c379a00000000000000000000000000000000000000000000000000000000081526004016109db9061355e565b60405180910390fd5b80600401543414610a2a576040517f08c379a0000000000000000000000000000000000000000000000000000000008152600401610a219061357e565b60405180910390fd5b338160070160006101000a81548173ffffffffffffffffffffffffffffffffffffffff021916908373ffffffffffffffffffffffffffffffffffffffff16021790555060018160030160006101000a81548160ff02191690836002811115610abb577f4e487b7100000000000000000000000000000000000000000000000000000000600052602160045260246000fd5b0217905550600360003373ffffffffffffffffffffffffffffffffffffffff1673ffffffffffffffffffffffffffffffffffffffff1681526020019081526020016000208290806001815401808255809150506001900390600052602060002001600090919091909150556001600083815260200190815260200160002060009054906101000a900473ffffffffffffffffffffffffffffffffffffffff1673ffffffffffffffffffffffffffffffffffffffff166108fc349081150290604051600060405180830381858888f19350505050158015610b9f573d6000803e3d6000fd5b50817f58992384990b1f1b4faa681ce4ee24f4c75a2775de1200609b3b51aff815c3c633604051610bd0919061333a565b60405180910390a25050565b60008181548110610bec57600080fd5b9060005260206000209060080201600091509050806000015490806001018054610c1590613834565b80601f0160208091040260200160405190810160405280929190818152602001828054610c4190613834565b8015610c8e5780601f10610c6357610100808354040283529160200191610c8e565b820191906000526020600020905b815481529060010190602001808311610c7157829003601f168201915b505050505090806002018054610ca390613834565b80601f0160208091040260200160405190810160405280929190818152602001828054610ccf90613834565b8015610d1c5780601f10610cf157610100808354040283529160200191610d1c565b820191906000526020600020905b815481529060010190602001808311610cff57829003601f168201915b5050505050908060030160009054906101000a900460ff1690806004015490806005018054610d4a90613834565b80601f0160208091040260200160405190810160405280929190818152602001828054610d7690613834565b8015610dc35780601f10610d9857610100808354040283529160200191610dc3565b820191906000526020600020905b815481529060010190602001808311610da657829003601f168201915b505050505090806006018054610dd890613834565b80601f0160208091040260200160405190810160405280929190818152602001828054610e0490613834565b8015610e515780601f10610e2657610100808354040283529160200191610e51565b820191906000526020600020905b815481529060010190602001808311610e3457829003601f168201915b5050505050908060070160009054906101000a900473ffffffffffffffffffffffffffffffffffffffff16905088565b60606000600360008473ffffffffffffffffffffffffffffffffffffffff1673ffffffffffffffffffffffffffffffffffffffff168152602001908152602001600020805480602002602001604051908101604052809291908181526020018280548015610f0e57602002820191906000526020600020905b815481526020019060010190808311610efa575b505050505090506000815167ffffffffffffffff811115610f58577f4e487b7100000000000000000000000000000000000000000000000000000000600052604160045260246000fd5b604051908082528060200260200182016040528015610f9157816020015b610f7e612ad8565b815260200190600190039081610f765790505b50905060005b82518110156113c4576000838281518110610fdb577f4e487b7100000000000000000000000000000000000000000000000000000000600052603260045260246000fd5b60200260200101518154811061101a577f4e487b7100000000000000000000000000000000000000000000000000000000600052603260045260246000fd5b9060005260206000209060080201604051806101000160405290816000820154815260200160018201805461104e90613834565b80601f016020809104026020016040519081016040528092919081815260200182805461107a90613834565b80156110c75780601f1061109c576101008083540402835291602001916110c7565b820191906000526020600020905b8154815290600101906020018083116110aa57829003601f168201915b505050505081526020016002820180546110e090613834565b80601f016020809104026020016040519081016040528092919081815260200182805461110c90613834565b80156111595780601f1061112e57610100808354040283529160200191611159565b820191906000526020600020905b81548152906001019060200180831161113c57829003601f168201915b505050505081526020016003820160009054906101000a900460ff1660028111156111ad577f4e487b7100000000000000000000000000000000000000000000000000000000600052602160045260246000fd5b60028111156111e5577f4e487b7100000000000000000000000000000000000000000000000000000000600052602160045260246000fd5b81526020016004820154815260200160058201805461120390613834565b80601f016020809104026020016040519081016040528092919081815260200182805461122f90613834565b801561127c5780601f106112515761010080835404028352916020019161127c565b820191906000526020600020905b81548152906001019060200180831161125f57829003601f168201915b5050505050815260200160068201805461129590613834565b80601f01602080910402602001604051908101604052809291908181526020018280546112c190613834565b801561130e5780601f106112e35761010080835404028352916020019161130e565b820191906000526020600020905b8154815290600101906020018083116112f157829003601f168201915b505050505081526020016007820160009054906101000a900473ffffffffffffffffffffffffffffffffffffffff1673ffffffffffffffffffffffffffffffffffffffff1673ffffffffffffffffffffffffffffffffffffffff16815250508282815181106113a6577f4e487b7100000000000000000000000000000000000000000000000000000000600052603260045260246000fd5b602002602001018190525080806113bc90613897565b915050610f97565b508092505050919050565b60606113da82611d32565b611419576040517f08c379a0000000000000000000000000000000000000000000000000000000008152600401611410906134be565b60405180910390fd5b6000600260008473ffffffffffffffffffffffffffffffffffffffff1673ffffffffffffffffffffffffffffffffffffffff1681526020019081526020016000205467ffffffffffffffff81111561149a577f4e487b7100000000000000000000000000000000000000000000000000000000600052604160045260246000fd5b6040519080825280602002602001820160405280156114d357816020015b6114c0612ad8565b8152602001906001900390816114b85790505b5090506000805b600080549050811015611941578473ffffffffffffffffffffffffffffffffffffffff166001600083815260200190815260200160002060009054906101000a900473ffffffffffffffffffffffffffffffffffffffff1673ffffffffffffffffffffffffffffffffffffffff16141561192e5760008181548110611588577f4e487b7100000000000000000000000000000000000000000000000000000000600052603260045260246000fd5b906000526020600020906008020160405180610100016040529081600082015481526020016001820180546115bc90613834565b80601f01602080910402602001604051908101604052809291908181526020018280546115e890613834565b80156116355780601f1061160a57610100808354040283529160200191611635565b820191906000526020600020905b81548152906001019060200180831161161857829003601f168201915b5050505050815260200160028201805461164e90613834565b80601f016020809104026020016040519081016040528092919081815260200182805461167a90613834565b80156116c75780601f1061169c576101008083540402835291602001916116c7565b820191906000526020600020905b8154815290600101906020018083116116aa57829003601f168201915b505050505081526020016003820160009054906101000a900460ff16600281111561171b577f4e487b7100000000000000000000000000000000000000000000000000000000600052602160045260246000fd5b6002811115611753577f4e487b7100000000000000000000000000000000000000000000000000000000600052602160045260246000fd5b81526020016004820154815260200160058201805461177190613834565b80601f016020809104026020016040519081016040528092919081815260200182805461179d90613834565b80156117ea5780601f106117bf576101008083540402835291602001916117ea565b820191906000526020600020905b8154815290600101906020018083116117cd57829003601f168201915b5050505050815260200160068201805461180390613834565b80601f016020809104026020016040519081016040528092919081815260200182805461182f90613834565b801561187c5780601f106118515761010080835404028352916020019161187c565b820191906000526020600020905b81548152906001019060200180831161185f57829003601f168201915b505050505081526020016007820160009054906101000a900473ffffffffffffffffffffffffffffffffffffffff1673ffffffffffffffffffffffffffffffffffffffff1673ffffffffffffffffffffffffffffffffffffffff1681525050838381518110611914577f4e487b7100000000000000000000000000000000000000000000000000000000600052603260045260246000fd5b6020026020010181905250818061192a90613897565b9250505b808061193990613897565b9150506114da565b508082528192505050919050565b611957612ad8565b600080549050821061199e576040517f08c379a0000000000000000000000000000000000000000000000000000000008152600401611995906134de565b60405180910390fd5b600082815481106119d8577f4e487b7100000000000000000000000000000000000000000000000000000000600052603260045260246000fd5b90600052602060002090600802016040518061010001604052908160008201548152602001600182018054611a0c90613834565b80601f0160208091040260200160405190810160405280929190818152602001828054611a3890613834565b8015611a855780601f10611a5a57610100808354040283529160200191611a85565b820191906000526020600020905b815481529060010190602001808311611a6857829003601f168201915b50505050508152602001600282018054611a9e90613834565b80601f0160208091040260200160405190810160405280929190818152602001828054611aca90613834565b8015611b175780601f10611aec57610100808354040283529160200191611b17565b820191906000526020600020905b815481529060010190602001808311611afa57829003601f168201915b505050505081526020016003820160009054906101000a900460ff166002811115611b6b577f4e487b7100000000000000000000000000000000000000000000000000000000600052602160045260246000fd5b6002811115611ba3577f4e487b7100000000000000000000000000000000000000000000000000000000600052602160045260246000fd5b815260200160048201548152602001600582018054611bc190613834565b80601f0160208091040260200160405190810160405280929190818152602001828054611bed90613834565b8015611c3a5780601f10611c0f57610100808354040283529160200191611c3a565b820191906000526020600020905b815481529060010190602001808311611c1d57829003601f168201915b50505050508152602001600682018054611c5390613834565b80601f0160208091040260200160405190810160405280929190818152602001828054611c7f90613834565b8015611ccc5780601f10611ca157610100808354040283529160200191611ccc565b820191906000526020600020905b815481529060010190602001808311611caf57829003601f168201915b505050505081526020016007820160009054906101000a900473ffffffffffffffffffffffffffffffffffffffff1673ffffffffffffffffffffffffffffffffffffffff1673ffffffffffffffffffffffffffffffffffffffff16815250509050919050565b600080600260008473ffffffffffffffffffffffffffffffffffffffff1673ffffffffffffffffffffffffffffffffffffffff16815260200190815260200160002054119050919050565b606060001515611d8c83612a35565b151514611dce576040517f08c379a0000000000000000000000000000000000000000000000000000000008152600401611dc59061349e565b60405180910390fd5b6000600260008473ffffffffffffffffffffffffffffffffffffffff1673ffffffffffffffffffffffffffffffffffffffff16815260200190815260200160002054600080549050611e209190613751565b67ffffffffffffffff811115611e5f577f4e487b7100000000000000000000000000000000000000000000000000000000600052604160045260246000fd5b604051908082528060200260200182016040528015611e9857816020015b611e85612ad8565b815260200190600190039081611e7d5790505b5090506000805b600080549050811015612305578473ffffffffffffffffffffffffffffffffffffffff166001600083815260200190815260200160002060009054906101000a900473ffffffffffffffffffffffffffffffffffffffff1673ffffffffffffffffffffffffffffffffffffffff16146122f25760008181548110611f4c577f4e487b7100000000000000000000000000000000000000000000000000000000600052603260045260246000fd5b90600052602060002090600802016040518061010001604052908160008201548152602001600182018054611f8090613834565b80601f0160208091040260200160405190810160405280929190818152602001828054611fac90613834565b8015611ff95780601f10611fce57610100808354040283529160200191611ff9565b820191906000526020600020905b815481529060010190602001808311611fdc57829003601f168201915b5050505050815260200160028201805461201290613834565b80601f016020809104026020016040519081016040528092919081815260200182805461203e90613834565b801561208b5780601f106120605761010080835404028352916020019161208b565b820191906000526020600020905b81548152906001019060200180831161206e57829003601f168201915b505050505081526020016003820160009054906101000a900460ff1660028111156120df577f4e487b7100000000000000000000000000000000000000000000000000000000600052602160045260246000fd5b6002811115612117577f4e487b7100000000000000000000000000000000000000000000000000000000600052602160045260246000fd5b81526020016004820154815260200160058201805461213590613834565b80601f016020809104026020016040519081016040528092919081815260200182805461216190613834565b80156121ae5780601f10612183576101008083540402835291602001916121ae565b820191906000526020600020905b81548152906001019060200180831161219157829003601f168201915b505050505081526020016006820180546121c790613834565b80601f01602080910402602001604051908101604052809291908181526020018280546121f390613834565b80156122405780601f1061221557610100808354040283529160200191612240565b820191906000526020600020905b81548152906001019060200180831161222357829003601f168201915b505050505081526020016007820160009054906101000a900473ffffffffffffffffffffffffffffffffffffffff1673ffffffffffffffffffffffffffffffffffffffff1673ffffffffffffffffffffffffffffffffffffffff16815250508383815181106122d8577f4e487b7100000000000000000000000000000000000000000000000000000000600052603260045260246000fd5b602002602001018190525081806122ee90613897565b9250505b80806122fd90613897565b915050611e9f565b508082528192505050919050565b6003602052816000526040600020818154811061232f57600080fd5b90600052602060002001600091509150505481565b60008080549050821061238c576040517f08c379a00000000000000000000000000000000000000000000000000000000081526004016123839061359e565b60405180910390fd5b600082815481106123c6577f4e487b7100000000000000000000000000000000000000000000000000000000600052603260045260246000fd5b906000526020600020906008020160070160009054906101000a900473ffffffffffffffffffffffffffffffffffffffff169050919050565b60016020528060005260406000206000915054906101000a900473ffffffffffffffffffffffffffffffffffffffff1681565b6000805490508610612479576040517f08c379a0000000000000000000000000000000000000000000000000000000008152600401612470906134fe565b60405180910390fd5b3373ffffffffffffffffffffffffffffffffffffffff166001600088815260200190815260200160002060009054906101000a900473ffffffffffffffffffffffffffffffffffffffff1673ffffffffffffffffffffffffffffffffffffffff161461251a576040517f08c379a00000000000000000000000000000000000000000000000000000000081526004016125119061347e565b60405180910390fd5b6000808781548110612555577f4e487b7100000000000000000000000000000000000000000000000000000000600052603260045260246000fd5b906000526020600020906008020190508581600101908051906020019061257d929190612b6b565b5084816002019080519060200190612596929190612b6b565b50838160040181905550828160050190805190602001906125b8929190612b6b565b50818160060190805190602001906125d1929190612b6b565b50867f9af09f85253c221a126ce8acd383431cfd7045a9fb5dc143c1bdd1f50ef9540a878787878760405161260a95949392919061340f565b60405180910390a250505050505050565b600080805490508210612663576040517f08c379a000000000000000000000000000000000000000000000000000000000815260040161265a9061359e565b60405180910390fd5b6001600083815260200190815260200160002060009054906101000a900473ffffffffffffffffffffffffffffffffffffffff169050919050565b600083116126e1576040517f08c379a00000000000000000000000000000000000000000000000000000000081526004016126d89061351e565b60405180910390fd5b600080805490509050600060405180610100016040528083815260200188815260200187815260200160006002811115612744577f4e487b7100000000000000000000000000000000000000000000000000000000600052602160045260246000fd5b8152602001868152602001858152602001848152602001600073ffffffffffffffffffffffffffffffffffffffff1681525090806001815401808255809150506001900390600052602060002090600802016000909190919091506000820151816000015560208201518160010190805190602001906127c5929190612b6b565b5060408201518160020190805190602001906127e2929190612b6b565b5060608201518160030160006101000a81548160ff02191690836002811115612834577f4e487b7100000000000000000000000000000000000000000000000000000000600052602160045260246000fd5b02179055506080820151816004015560a082015181600501908051906020019061285f929190612b6b565b5060c082015181600601908051906020019061287c929190612b6b565b5060e08201518160070160006101000a81548173ffffffffffffffffffffffffffffffffffffffff021916908373ffffffffffffffffffffffffffffffffffffffff1602179055505050336001600083815260200190815260200160002060006101000a81548173ffffffffffffffffffffffffffffffffffffffff021916908373ffffffffffffffffffffffffffffffffffffffff160217905550600260006001600084815260200190815260200160002060009054906101000a900473ffffffffffffffffffffffffffffffffffffffff1673ffffffffffffffffffffffffffffffffffffffff1673ffffffffffffffffffffffffffffffffffffffff168152602001908152602001600020600081548092919061299b90613897565b9190505550807f64a616012de865904db92adea94e3eb0c7880c294e70613f08e6dc1753c5a65e87876001600086815260200190815260200160002060009054906101000a900473ffffffffffffffffffffffffffffffffffffffff16888888604051612a0d96959493929190613392565b60405180910390a2505050505050565b60046020528060005260406000206000915090505481565b600080600090505b600080549050811015612acd578273ffffffffffffffffffffffffffffffffffffffff166001600083815260200190815260200160002060009054906101000a900473ffffffffffffffffffffffffffffffffffffffff1673ffffffffffffffffffffffffffffffffffffffff1614612aba576000915050612ad3565b8080612ac590613897565b915050612a3d565b50600190505b919050565b60405180610100016040528060008152602001606081526020016060815260200160006002811115612b33577f4e487b7100000000000000000000000000000000000000000000000000000000600052602160045260246000fd5b8152602001600081526020016060815260200160608152602001600073ffffffffffffffffffffffffffffffffffffffff1681525090565b828054612b7790613834565b90600052602060002090601f016020900481019282612b995760008555612be0565b82601f10612bb257805160ff1916838001178555612be0565b82800160010185558215612be0579182015b82811115612bdf578251825591602001919060010190612bc4565b5b509050612bed9190612bf1565b5090565b5b80821115612c0a576000816000905550600101612bf2565b5090565b6000612c21612c1c846136ba565b613695565b905082815260208101848484011115612c3957600080fd5b612c448482856137f2565b509392505050565b600081359050612c5b81613c3f565b92915050565b600082601f830112612c7257600080fd5b8135612c82848260208601612c0e565b91505092915050565b600081359050612c9a81613c56565b92915050565b600060208284031215612cb257600080fd5b6000612cc084828501612c4c565b91505092915050565b60008060408385031215612cdc57600080fd5b6000612cea85828601612c4c565b9250506020612cfb85828601612c8b565b9150509250929050565b600080600080600060a08688031215612d1d57600080fd5b600086013567ffffffffffffffff811115612d3757600080fd5b612d4388828901612c61565b955050602086013567ffffffffffffffff811115612d6057600080fd5b612d6c88828901612c61565b9450506040612d7d88828901612c8b565b935050606086013567ffffffffffffffff811115612d9a57600080fd5b612da688828901612c61565b925050608086013567ffffffffffffffff811115612dc357600080fd5b612dcf88828901612c61565b9150509295509295909350565b600060208284031215612dee57600080fd5b6000612dfc84828501612c8b565b91505092915050565b60008060008060008060c08789031215612e1e57600080fd5b6000612e2c89828a01612c8b565b965050602087013567ffffffffffffffff811115612e4957600080fd5b612e5589828a01612c61565b955050604087013567ffffffffffffffff811115612e7257600080fd5b612e7e89828a01612c61565b9450506060612e8f89828a01612c8b565b935050608087013567ffffffffffffffff811115612eac57600080fd5b612eb889828a01612c61565b92505060a087013567ffffffffffffffff811115612ed557600080fd5b612ee189828a01612c61565b9150509295509295509295565b6000612efa8383613192565b905092915050565b612f0b81613785565b82525050565b612f1a81613785565b82525050565b6000612f2b826136fb565b612f35818561371e565b935083602082028501612f47856136eb565b8060005b85811015612f835784840389528151612f648582612eee565b9450612f6f83613711565b925060208a01995050600181019050612f4b565b50829750879550505050505092915050565b612f9e81613797565b82525050565b612fad816137e0565b82525050565b612fbc816137e0565b82525050565b6000612fcd82613706565b612fd7818561372f565b9350612fe7818560208601613801565b612ff08161399c565b840191505092915050565b600061300682613706565b6130108185613740565b9350613020818560208601613801565b6130298161399c565b840191505092915050565b6000613041602f83613740565b915061304c826139ad565b604082019050919050565b6000613064602883613740565b915061306f826139fc565b604082019050919050565b6000613087602183613740565b915061309282613a4b565b604082019050919050565b60006130aa601983613740565b91506130b582613a9a565b602082019050919050565b60006130cd601583613740565b91506130d882613ac3565b602082019050919050565b60006130f0602483613740565b91506130fb82613aec565b604082019050919050565b6000613113601883613740565b915061311e82613b3b565b602082019050919050565b6000613136601e83613740565b915061314182613b64565b602082019050919050565b6000613159603783613740565b915061316482613b8d565b604082019050919050565b600061317c602483613740565b915061318782613bdc565b604082019050919050565b6000610100830160008301516131ab600086018261331c565b50602083015184820360208601526131c38282612fc2565b915050604083015184820360408601526131dd8282612fc2565b91505060608301516131f26060860182612fa4565b506080830151613205608086018261331c565b5060a083015184820360a086015261321d8282612fc2565b91505060c083015184820360c08601526132378282612fc2565b91505060e083015161324c60e0860182612f02565b508091505092915050565b600061010083016000830151613270600086018261331c565b50602083015184820360208601526132888282612fc2565b915050604083015184820360408601526132a28282612fc2565b91505060608301516132b76060860182612fa4565b5060808301516132ca608086018261331c565b5060a083015184820360a08601526132e28282612fc2565b91505060c083015184820360c08601526132fc8282612fc2565b91505060e083015161331160e0860182612f02565b508091505092915050565b613325816137d6565b82525050565b613334816137d6565b82525050565b600060208201905061334f6000830184612f11565b92915050565b6000602082019050818103600083015261336f8184612f20565b905092915050565b600060208201905061338c6000830184612f95565b92915050565b600060c08201905081810360008301526133ac8189612ffb565b905081810360208301526133c08188612ffb565b90506133cf6040830187612f11565b6133dc606083018661332b565b81810360808301526133ee8185612ffb565b905081810360a08301526134028184612ffb565b9050979650505050505050565b600060a08201905081810360008301526134298188612ffb565b9050818103602083015261343d8187612ffb565b905061344c604083018661332b565b818103606083015261345e8185612ffb565b905081810360808301526134728184612ffb565b90509695505050505050565b6000602082019050818103600083015261349781613034565b9050919050565b600060208201905081810360008301526134b781613057565b9050919050565b600060208201905081810360008301526134d78161307a565b9050919050565b600060208201905081810360008301526134f78161309d565b9050919050565b60006020820190508181036000830152613517816130c0565b9050919050565b60006020820190508181036000830152613537816130e3565b9050919050565b6000602082019050818103600083015261355781613106565b9050919050565b6000602082019050818103600083015261357781613129565b9050919050565b600060208201905081810360008301526135978161314c565b9050919050565b600060208201905081810360008301526135b78161316f565b9050919050565b600060208201905081810360008301526135d88184613257565b905092915050565b60006020820190506135f5600083018461332b565b92915050565b600061010082019050613611600083018b61332b565b8181036020830152613623818a612ffb565b905081810360408301526136378189612ffb565b90506136466060830188612fb3565b613653608083018761332b565b81810360a08301526136658186612ffb565b905081810360c08301526136798185612ffb565b905061368860e0830184612f11565b9998505050505050505050565b600061369f6136b0565b90506136ab8282613866565b919050565b6000604051905090565b600067ffffffffffffffff8211156136d5576136d461396d565b5b6136de8261399c565b9050602081019050919050565b6000819050602082019050919050565b600081519050919050565b600081519050919050565b6000602082019050919050565b600082825260208201905092915050565b600082825260208201905092915050565b600082825260208201905092915050565b600061375c826137d6565b9150613767836137d6565b92508282101561377a576137796138e0565b5b828203905092915050565b6000613790826137b6565b9050919050565b60008115159050919050565b60008190506137b182613c2b565b919050565b600073ffffffffffffffffffffffffffffffffffffffff82169050919050565b6000819050919050565b60006137eb826137a3565b9050919050565b82818337600083830152505050565b60005b8381101561381f578082015181840152602081019050613804565b8381111561382e576000848401525b50505050565b6000600282049050600182168061384c57607f821691505b602082108114156138605761385f61393e565b5b50919050565b61386f8261399c565b810181811067ffffffffffffffff8211171561388e5761388d61396d565b5b80604052505050565b60006138a2826137d6565b91507fffffffffffffffffffffffffffffffffffffffffffffffffffffffffffffffff8214156138d5576138d46138e0565b5b600182019050919050565b7f4e487b7100000000000000000000000000000000000000000000000000000000600052601160045260246000fd5b7f4e487b7100000000000000000000000000000000000000000000000000000000600052602160045260246000fd5b7f4e487b7100000000000000000000000000000000000000000000000000000000600052602260045260246000fd5b7f4e487b7100000000000000000000000000000000000000000000000000000000600052604160045260246000fd5b6000601f19601f8301169050919050565b7f536f6c6f20656c2070726f706965746172696f207075656465206d6f6469666960008201527f63617220656c20636f6e747261746f0000000000000000000000000000000000602082015250565b7f456c2070726f706965746172696f207469656e6520746f646f73206c6f73206360008201527f6f6e747261746f73000000000000000000000000000000000000000000000000602082015250565b7f456c2070726f706965746172696f206e6f207469656e6520636f6e747261746f60008201527f7300000000000000000000000000000000000000000000000000000000000000602082015250565b7f4e6f20657869737465206e696e67756e20636f6e747261746f00000000000000600082015250565b7f456c20636f6e747261746f206e6f206578697374650000000000000000000000600082015250565b7f456c2070726563696f20657320696775616c206f20696e666572696f7220612060008201527f6365726f00000000000000000000000000000000000000000000000000000000602082015250565b7f41756e206e6f206578697374656e20636f6e747261746f730000000000000000600082015250565b7f456c20636f6e747261746f207961206861207369646f206669726d61646f0000600082015250565b7f456c206d6f6e746f20656e766961646f206e6f20636f696e6369646520636f6e60008201527f20656c2070726563696f2064656c20636f6e747261746f000000000000000000602082015250565b7f4e6f20657869737465206e696e67756e20636f6e747261746f20636f6e20657360008201527f6520494400000000000000000000000000000000000000000000000000000000602082015250565b60038110613c3c57613c3b61390f565b5b50565b613c4881613785565b8114613c5357600080fd5b50565b613c5f816137d6565b8114613c6a57600080fd5b5056fea26469706673582212202970d7c9e417b4b0b0679f0cb8f98f313342aa053b724256912df59697eab48064736f6c63430008020033",
  "immutableReferences": {},
  "source": "// SPDX-License-Identifier: MIT\r\npragma solidity ^0.8.2;\r\n\r\ncontract MyContract {\r\n    \r\n    struct Contrato {\r\n        uint id;\r\n        string titulo;\r\n        string descripcion;\r\n        EstadoContrato estado;\r\n        uint256 precio;\r\n        string fechaInicio;\r\n        string fechaFin;\r\n        address firmante;\r\n    }\r\n\r\n    enum EstadoContrato {  Activo, Firmado, Expirado }\r\n    Contrato[] public contratos; \r\n    \r\n    mapping (uint => address) public contractOwner;\r\n    mapping (address => uint) private ownerCount;\r\n    mapping(address => uint256[]) public contratosFirmadosPorCuenta;\r\n    mapping(uint256 => uint256) public contractIndexById;\r\n\r\n    event ContratoCreado(uint indexed id, string titulo, string descripcion, address ownerAddress, uint256 precio, string fechaInicio, string fechaFin);\r\n    event ContratoModificado(uint indexed id, string nuevoTitulo, string nuevaDescripcion, uint256 nuevoPrecio, string nuevaFechaInicio, string nuevaFechaFin);\r\n    event ContratoFirmado(uint indexed id, address firmante);\r\n\r\n\r\n    //Crear, modificar y firmar contratos\r\n    function crearContrato(string memory _titulo, string memory _descripcion, uint256 _precio, string memory _fechaInicio, string memory _fechaFin) public {\r\n        require(_precio > 0, \"El precio es igual o inferior a cero\");\r\n        uint _id = contratos.length;\r\n        contratos.push(Contrato(_id, _titulo, _descripcion, EstadoContrato.Activo, _precio, _fechaInicio, _fechaFin, address(0)));\r\n        contractOwner[_id] = msg.sender;\r\n        ownerCount[contractOwner[_id]]++;\r\n        emit ContratoCreado(_id, _titulo, _descripcion, contractOwner[_id], _precio, _fechaInicio, _fechaFin);\r\n    }\r\n\r\n    function firmarContrato(uint _id) public payable {\r\n        Contrato storage contrato = contratos[_id];\r\n        require(contrato.firmante == address(0), \"El contrato ya ha sido firmado\");\r\n        require(msg.value == contrato.precio, \"El monto enviado no coincide con el precio del contrato\");\r\n        contrato.firmante = msg.sender;\r\n        contrato.estado = EstadoContrato.Firmado;\r\n        contratosFirmadosPorCuenta[msg.sender].push(_id);\r\n        payable(contractOwner[_id]).transfer(msg.value);\r\n        emit ContratoFirmado(_id, msg.sender);\r\n    }\r\n\r\n    function modificarContrato(uint _id, string memory _nuevoTitulo, string memory _nuevaDescripcion, uint256 _nuevoPrecio, string memory _nuevaFechaInicio, string memory _nuevaFechaFin) public {\r\n        require(_id < contratos.length, \"El contrato no existe\");\r\n        require(contractOwner[_id] == msg.sender, \"Solo el propietario puede modificar el contrato\");\r\n\r\n        Contrato storage contrato = contratos[_id];\r\n        contrato.titulo = _nuevoTitulo;\r\n        contrato.descripcion = _nuevaDescripcion;\r\n        contrato.precio = _nuevoPrecio;\r\n        contrato.fechaInicio = _nuevaFechaInicio;\r\n        contrato.fechaFin = _nuevaFechaFin;\r\n\r\n        emit ContratoModificado(_id, _nuevoTitulo, _nuevaDescripcion, _nuevoPrecio, _nuevaFechaInicio, _nuevaFechaFin);\r\n    }\r\n\r\n    /*************************************************************/\r\n\r\n    function getContrato(uint _id) public view returns (Contrato memory) {\r\n        require(_id < contratos.length, \"No existe ningun contrato\");\r\n        return contratos[_id];\r\n    }\r\n\r\n   \r\n    function obtenerFirmante(uint _id) public view returns (address) {\r\n        require(_id < contratos.length, \"No existe ningun contrato con ese ID\");\r\n        return contratos[_id].firmante;\r\n    }\r\n\r\n\r\n    function getContratosFirmados(address _cuenta) public view returns (Contrato[] memory) {\r\n        uint256[] memory ids = contratosFirmadosPorCuenta[_cuenta];\r\n        Contrato[] memory resultado = new Contrato[](ids.length);\r\n        \r\n        for (uint256 i = 0; i < ids.length; i++) {\r\n            resultado[i] = contratos[ids[i]];\r\n        }\r\n\r\n        return resultado;\r\n    }\r\n\r\n\r\n    function getAllContractsToSign (address owner) public view returns (Contrato[] memory){\r\n        require(todosLosContratosSonDelOwner(owner) == false, \"El propietario tiene todos los contratos\");\r\n        Contrato[] memory contratosAux = new Contrato[](contratos.length - ownerCount[owner]);\r\n        uint count = 0;\r\n        for (uint i=0; i < contratos.length; i++){\r\n            if (contractOwner[i] != owner) {\r\n                contratosAux[count] = contratos[i];\r\n                count++;\r\n            }\r\n        }\r\n\r\n        // Redimensiona el array  para eliminar los espacios no utilizados\r\n        assembly {\r\n            mstore(contratosAux, count)\r\n        }\r\n        return contratosAux;\r\n    }\r\n\r\n    \r\n    function getAllContractsByOwner (address owner) public view returns (Contrato[] memory){\r\n        require(existenContratosParaOwner(owner), \"El propietario no tiene contratos\");\r\n        Contrato[] memory contratosAux = new Contrato[](ownerCount[owner]);\r\n        uint count = 0;\r\n        for (uint i=0; i < contratos.length; i++){\r\n            if (contractOwner[i] == owner) {\r\n                contratosAux[count] = contratos[i];\r\n                count++;\r\n            }\r\n        }\r\n\r\n        // Redimensiona el array  para eliminar los espacios no utilizados\r\n        assembly {\r\n            mstore(contratosAux, count)\r\n        }\r\n        return contratosAux;\r\n    }\r\n\r\n    function getAllContracts () public view returns (Contrato[] memory){\r\n        require(contratos.length > 0, \"Aun no existen contratos\");\r\n        Contrato[] memory contratosAux = new Contrato[](contratos.length);\r\n        uint count = 0;\r\n        for (uint i=0; i < contratos.length; i++){\r\n            contratosAux[count] = contratos[i];\r\n            count++;\r\n        }\r\n\r\n        // Redimensiona el array  para eliminar los espacios no utilizados\r\n        assembly {\r\n            mstore(contratosAux, count)\r\n        }\r\n        return contratosAux;\r\n    }\r\n    \r\n    function getOwner(uint _id) public view returns (address) {\r\n        require(_id < contratos.length, \"No existe ningun contrato con ese ID\");\r\n        return contractOwner[_id];\r\n    }\r\n\r\n    function todosLosContratosSonDelOwner(address owner) internal view returns (bool) {\r\n        for (uint i = 0; i < contratos.length; i++) {\r\n            if (contractOwner[i] != owner) {\r\n                return false;\r\n            }\r\n        }\r\n        return true;\r\n    }\r\n\r\n    function existenContratosParaOwner(address owner) public view returns (bool) {\r\n        return ownerCount[owner] > 0;\r\n    }\r\n\r\n\r\n}\r\n",
  "sourcePath": "C:\\Users\\super\\OneDrive - UVa (Estudiantes)\\Documentos\\TFG\\uva-contractme\\contracts\\MyContract.sol",
  "compiler": {
    "name": "solc",
    "version": "0.8.2+commit.661d1103.Emscripten.clang"
  },
  "schemaVersion": "3.4.16",
  "updatedAt": "2024-06-11T22:03:23.771Z",
  "networkType": "ethereum",
  "devdoc": {
    "kind": "dev",
    "methods": {},
    "version": 1
  },
  "userdoc": {
    "kind": "user",
    "methods": {},
    "version": 1
  }
}